:020000040800F2
:10000000281F0020C10100081D3F0008292D0008FD
:10001000193F000861100008815500080000000029
:10002000000000000000000000000000F54500088E
:100030006926000800000000BD400008E1480008F3
:10004000DB010008DB010008DB010008DB01000820
:10005000DB010008DB010008DB010008DB01000810
:100060006D260008DB010008DB010008DB01000849
:10007000DB010008DB010008DB010008DB010008F0
:10008000B51C0008DB010008DB010008B9110008FD
:100090007D110008DB010008DB010008DB0100081E
:1000A000DB010008DB010008DB010008DB010008C0
:1000B0004D490008A9490008DB010008DB010008E0
:1000C000DB010008DB010008DB010008DB010008A0
:1000D000DB010008294C00081D4D0008094E0008EE
:1000E000DB010008DB010008DB010008DB01000880
:1000F000DB010008DB010008DB010008DB01000870
:10010000DB010008DB010008DB010008DB0100085F
:10011000DB010008DB010008E9490008DB010008F9
:10012000DB010008DB010008B1220008DB01000848
:10013000DB010008DB010008DB0100080D130008EB
:10014000E5120008DB010008DB010008DB01000804
:10015000DB010008DB010008DB010008015000089A
:10016000DB010008DB010008DB010008DB010008FF
:10017000DB010008DB010008DB01000800000000D3
:10018000DB010008DB010008DB010008DB010008DF
:10019000DB010008DB010008DB010008DB010008CF
:1001A0000000000000000000DB010008DFF80CD0B8
:1001B00000F038FE00480047797C0008281F002026
:1001C0000648804706480047FEE7FEE7FEE7FEE7F1
:1001D000FEE7FEE7FEE7FEE7FEE7FEE7E54800088C
:1001E000AD01000810B5044600BF00BF00BF00BF4E
:1001F000002CFDD000BF00BF00BF0029FDD000BF14
:1002000000BF00BF002AFDD000BF00BF00BF002B11
:10021000FDD000BF72B6216002FB0310401E60607B
:10022000A3600020E06022746161A16162B60020D9
:1002300010BD2DE9F04104460D460026002700BF01
:1002400000BF002CFDD000BF00BF00BF002DFDD0BF
:1002500000BF1C2007F01CFD064616B90020BDE8B3
:10026000F08104FB05F007F013FD07460FB90020ED
:10027000F5E72B46224639463046FFF7B3FF3046B6
:10028000EDE710B5044600BF00BF002CFDD000BF55
:1002900000BF00BF20680028FCD000BF206807F026
:1002A0002BFA204607F028FA10BD034600BF00BF16
:1002B00000BF00BF002BFDD000BF00BF00BF002962
:1002C000FDD000BF00BF00BF002AFDD000BF72B646
:1002D00019608818401E58609A600020D860196123
:1002E000596162B60020704770B5044600250026AB
:1002F00000BF00BF002CFDD000BF182007F0C8FCD5
:1003000005460DB9002070BD204607F0C1FC064629
:100310000EB90020F7E7224631462846FFF7C5FF11
:100320002846F0E710B5044600BF00BF002CFDD002
:1003300000BF00BF00BF20680028FCD000BF2068BD
:1003400007F0DAF9204607F0D7F910BD30B50246BC
:1003500000230C4600BF00BF00BF00BF002AFDD035
:1003600000BF00BF00BF0029FDD000BF906810B9DA
:100370004FF0FF3030BD002310E055689069A8426F
:1003800001D91068906114F8010B9569287072B654
:100390009069401C906162B6581CC3B2107C9842B0
:1003A000EBDC72B69068401E9060D068401CD06054
:1003B00062B60020DEE7024600BF00BF00BF00BFFC
:1003C000002AFDD000BF906810B94FF0FF30704791
:1003D00072B650695368984201D9106850615069EB
:1003E00001705069401C50619068401E9060D06858
:1003F000401CD06062B60020E9E770B503460C46A9
:10040000002500BF00BF00BF00BF002BFDD000BF14
:10041000986810B94FF0FF3070BD002119E098685E
:1004200010B94FF0FF3516E072B65E685869B042F9
:1004300001D918685861605C5E6930705869401C69
:1004400058619868401E9860D868401CD86062B6B1
:10045000491C9142E3D300BF2846DDE730B5024690
:1004600000230C4600BF00BF00BF00BF002AFDD024
:1004700000BF00BF00BF0029FDD000BFD06810B989
:100480004FF0FF3030BD002310E055685069A8429E
:1004900001D9106850615069007804F8010B72B6F8
:1004A0005069401C506162B6581CC3B2107C98421F
:1004B000EBDC72B69068401C9060D068401ED06043
:1004C00062B60020DEE70146002000BF00BF00BF8B
:1004D00000BF0029FDD000BF72B60A694B689A427E
:1004E00001D90A680A610A6910780A69521C0A610E
:1004F0008A68521C8A60CA68521ECA6062B6704717
:1005000070B5024600230C4600BF00BF00BF00BF0D
:10051000002AFDD000BF00BF00BF0029FDD000BFF2
:10052000D06810B94FF0FF3070BD72B6167CD0683D
:10053000401E556906FB00501568451BD2E9006056
:10054000801B401CB5FBF0F600FB165015682844D4
:100550005061D2E90250401E284490600120D060D2
:1005600062B6002310E055685069A84201D91068AE
:1005700050615069007804F8010B72B65069401C54
:10058000506162B6581CC3B2107C9842EBDC72B664
:100590009068401C9060D068401ED06062B6002019
:1005A000C2E710B50146002000BF00BF00BF00BF7A
:1005B0000029FDD000BF72B6D1E903321A44521EA1
:1005C0000B68D31AD1E90042121B521CB3FBF2F4A0
:1005D00002FB14320B681A440A610A691078D1E9E7
:1005E00002231A448A600022CA6062B610BD70B548
:1005F00003460C46154600222E46002100BF00BFD0
:10060000002BFDD000BF00BF00BF002DFDD000BFFC
:10061000D868A04202D84FF0FF3070BD596900225F
:1006200006E05868884200D21968491C501CC2B2C2
:10063000187C60439042F4DC002209E0586888424C
:1006400000D21968087806F8010B491C501CC2B288
:10065000187C9042F2DC0020DFE710B502460B4622
:100660000024002100BF00BF002AFDD000BF116997
:10067000002406E05068884200D21168491C601CC2
:10068000C4B29C42F6DB087810BD014600BF00BF33
:100690000029FDD000BFC86808B9012070470020BC
:1006A000FCE7014600BF00BF0029FDD000BFC868BD
:1006B00008B9012070470020FCE7014600BF00BFD9
:1006C0000029FDD000BF886808B9012070470020CC
:1006D000FCE7014600BF00BF0029FDD000BF8868CD
:1006E00008B9012070470020FCE7014600BF00BFA9
:1006F0000029FDD000BFC8687047014600BF00BF99
:100700000029FDD000BFC8687047014600BF00BF88
:100710000029FDD000BF88687047014600BF00BFB8
:100720000029FDD000BF88687047014600BF00BFA8
:1007300000BF00BF0029FDD000BF72B6D1E9002084
:10074000801A0A7C90FBF2F088600020C86008687C
:1007500048610868886162B600207047014600BFA2
:1007600000BF00BF00BF0029FDD000BF72B6D1E9B5
:100770000020801A88600020C86008680861086846
:10078000486162B60020704740EA01039B0703D02E
:1007900009E008C9121F08C0042AFAD203E011F8C0
:1007A000013B00F8013B521EF9D270472DE9FE4F84
:1007B00081EA030404F0004421F0004100944FF06A
:1007C000000B23F0004350EA01045ED052EA030418
:1007D0005BD0C3F30A54C1F30A552C44A4F2F3349A
:1007E0000194A0FB0254C1F3130141F48011C3F33F
:1007F000130343F4801301FB024400FB034E840AFD
:10080000970A44EA815447EA8357A4FB0768029594
:100810008D0A05FB07854FEA932C04FB0C54270532
:10082000029D4FEA065847EA1637B5EB08056EEB0E
:10083000070C870E920E47EA811742EA8312A7FB44
:100840000201B6EB0B0164EB00042B0D43EA0C3301
:100850005E1844EB1C50DA465146E7FB0201C5F333
:1008600013044FEA0B3343EA14534FEA0432019C5A
:1008700043EA0603A4F10C040294009CCDE900B401
:1008800000F0EBF803B0BDE8F08F00200146F9E777
:100890000EB5C10F80EAE0700844CA07002140F29B
:1008A00033438DE80E000A460B4600F0D6F803B03D
:1008B00000BD00F0004230F000400AD0C10D01F54B
:1008C0006071C0F3160042EA0151C20840071143AB
:1008D000704700200146704730B5041E71F10004D6
:1008E00004DB4FF00044404264EB0101141E73F13D
:1008F000000405DB1C464FF00043524263EB040347
:10090000994208BF904230BD01F0004330B421F05D
:10091000004150EA010206D00A0DA2F56072C1F34F
:100920001301002A02DC30BC00207047440F44EA67
:10093000C104C100E01830BC00EBC25000F047B861
:1009400030B50B46014600202022012409E021FA9F
:1009500002F59D4205D303FA02F5491B04FA02F59C
:100960002844151EA2F10102F1DC30BD2DE9F05F33
:100970000546002092469B4688460646814640240E
:100980001BE0284641464746224600F06CFA534693
:100990005A46C01A914110D311461846224600F01B
:1009A00053FA2D1A67EB01084F4622460120002119
:1009B00000F04AFA17EB00094E41201EA4F1010491
:1009C000DFDC484631462A464346BDE8F09F002911
:1009D000A8BF7047401C490008BF20F001007047C5
:1009E00010B4B0FA80FC00FA0CF050EA010404BF25
:1009F00010BC704749B1CCF1200421FA04F411FA7B
:100A00000CF118BF012121430843A3EB0C01CB1DBE
:100A10004FEA00614FEA102042BF002010BC70472F
:100A200000EBC35010440029A4BF10BC7047401C09
:100A3000490008BF20F0010010BC704710B5141E1B
:100A400073F1000408DA401C41F1000192185B4187
:100A50001A4301D120F0010010BD2DE9F04D92465E
:100A60009B4611B1B1FA81F202E0B0FA80F2203275
:100A7000904600F0E9F904460F4640EA0A0041EAD0
:100A80000B0153465A46084313D0114653EA01005E
:100A900019D0C8F14002504600F0E5F905460E466F
:100AA00050465946424600F0CFF9084305D0012090
:100AB00004E020463946BDE8F08D0020054346EAB3
:100AC000E0762C4337430A986305E40AA0EB08005C
:100AD0000022FD0A44EA47540A3002D500200146AC
:100AE000E9E7010510196941DDE908450019694187
:100AF000BDE8F04DA2E72DE9FE4F804681EA0300F4
:100B0000C00F0C46009021F0004123F00045B8EBE7
:100B10000200A94105D24046214690461C460B469C
:100B2000024623F00040104347D0270DC7F30A00C8
:100B3000C3F30A510290401A019040286BDAC3F3C4
:100B4000130040F4801B0098924620B10023D2EBA2
:100B5000030A63EB0B0B01985946C0F14002504663
:100B600000F072F906460D4650465946019A00F0CB
:100B70008AF910EB08006141002487EA115284EAE7
:100B8000E7731A4340D0009A62B3019A012A4FEAF0
:100B9000075215DC001B61EB02014FF0004202EA34
:100BA0000752CDE90042001C41F5801132462B4628
:100BB000FFF753FF03B0BDE8F08F40462146F9E749
:100BC000001B61EB0201001C41F5801300185B4122
:100BD0002018A2F5001747EB030140EAD570B619BB
:100BE0006D4111E06D084FEA360645EAC0754FEADF
:100BF0000752001B61EB0201001C41F580114908FE
:100C00004FEA30000019514132462B4603B0BDE88F
:100C1000F04FFFF713BF0098012240000023D0EBF4
:100C2000020263EBE073009821464FEAE074B8EBF0
:100C3000000061EB0401E9E783F000435BE781F02A
:100C4000004158E72DE9F04D81EA030404F0004B20
:100C500021F0004514464FF0000A23F0004150EA0D
:100C6000050220D054EA01021DD0C5F30A570246FE
:100C7000C5F31303C1F31300C1F30A5640F4801502
:100C800043F48013A7EB0608101BD64608F2FD3884
:100C900073EB050002D308F1010801E092185B41F3
:100CA000B8F1000F03DA00200146BDE8F08D002006
:100CB0004FF48011064684460EE0171B73EB0507C0
:100CC00005D3121B63EB050306434CEA010C4908EC
:100CD0004FEA300092185B4150EA0107EDD152EA29
:100CE000030012D082EA040083EA0501084305D01C
:100CF000101BAB4106D20122002306E000224FF078
:100D0000004302E06FF0010253101AEB06004CEBB7
:100D1000085110EB0A0041EB0B01BDE8F04DFFF765
:100D20008DBE70B521F0004303430CD0C1F30A55CA
:100D30000024D5EB040564EB0403D617AD1AB341C8
:100D400002DB0020014670BD201841EB025170BD4E
:100D50002DE9F04D00231A461B1A8A4103DB0020BF
:100D60000146BDE8F08DC1F30A52C1F3130141F40D
:100D700080154FF0000BD10702D100186D41521EB3
:100D80000027044640F2FF11384601EB620A3E4656
:100D90008046024600204FF4801100F064F8C2192A
:100DA0007141BB1846EB0100B4EB030C75EB000C72
:100DB00004D3E41A65EB000517460E46241908F122
:100DC00001006D4180463428E3DDF91946EB060049
:100DD000091BA84103D24FF0FF32134601E0002265
:100DE00013461BEB070046EB0A51BDE8F04DFFF739
:100DF00025BEC1F30A52C1F3130140F2FF3341F49F
:100E000080119A4202DA00200146704740F23343D3
:100E10009A42A2F2334202DC524200F024B800F0BF
:100E200013B80000064C074D06E0E06840F00103EF
:100E300094E8070098471034AC42F6D3FFF7BAF9AC
:100E40007884000898840008202A04DB203A00FAFD
:100E500002F1002070479140C2F1200320FA03F311
:100E6000194390407047202A04DB203A21FA02F00F
:100E70000021704721FA02F3D040C2F120029140D4
:100E8000084319467047202A06DBCB17203A41FA5F
:100E900002F043EAE07306E041FA02F3D040C2F107
:100EA0002002914008431946704770B58C1810F81D
:100EB000015B15F0070301D110F8013B2A1106D19F
:100EC00010F8012B03E010F8016B01F8016B5B1EB9
:100ED000F9D12B0705D40023521E0DD401F8013B94
:100EE000FAE710F8013BCB1A921C03E013F8015B00
:100EF00001F8015B521EF9D5A142D8D3002070BD84
:100F000070B505460C4600260DB1022C00D870BD08
:100F1000A11E06480288284601F0EAFD0646A01EEA
:100F20002E54310A601E295400BFF0E766020020EB
:100F300070B505460C4600260DB1022C00D870BDD8
:100F4000611EFF22284601F0EDFD0646601E2E546C
:100F500000BFF4E700B58BB00121402003F0C0F8DA
:100F60000121802003F0ACF8092206211F4801F07E
:100F70007DFD4020099002208DF8280003208DF887
:100F8000290000208DF82A0001208DF82B0009A9E6
:100F9000164801F023FD5320ADF818000020ADF8ED
:100FA0001A00012007900020ADF8200006A9104883
:100FB00003F0E6FD6020ADF804000120ADF8060066
:100FC0000020ADF8100001A9094803F091FD0821A7
:100FD000074803F0CBFD0121054803F051FD012135
:100FE000034803F05FFD0BB000BD0000001C024091
:100FF0000018004010B5FFF7ADFF03F04FFC10BD27
:1010000010B500F0C1FD01F00DFC642006F04CFBB2
:101010004FF4E13004F096F803F0FAFC00F022F807
:1010200000F0D8F801F0C6FA03F018FD10BD10B5B5
:101030004FF4A06002F0B0FF02F0F8FD02F052FEA3
:10104000FFF7D8FF642006F02FFB4FF4E13003F0E8
:101050001FFF03F08AFC03F0F3F902F065FE10BDF8
:1010600000BFFEE700B58BB00121082003F028F88F
:101070000121480603F034F8092200213D4801F01F
:10108000F5FC092201213B4801F0F0FC032002900D
:1010900000208DF80E0003208DF80D0002208DF841
:1010A0000C0002A9334801F099FC14208DF80400CB
:1010B00001208DF805008DF806008DF8070001A8C5
:1010C00002F02EFF13208DF8040000208DF805009B
:1010D00001208DF806008DF8070001A802F020FF1E
:1010E000254800F091F908A800F0C9FB00208DF810
:1010F00026008DF827008DF828008DF829008DF83E
:101100002A0001208DF82B0000208DF822008DF898
:10111000230008208DF8240003208DF82500ADF869
:10112000200008A9144800F0A8FA00208DF81A0041
:101130008DF81B0001208DF81C000020ADF8100078
:10114000ADF81200ADF81400ADF81600ADF81800B7
:1011500001208DF81D0004A800F072F9012202217F
:10116000054800F081FA01221146034800F07CFA9C
:101170000BB000BD000C02400064004000B585B01B
:1011800002210B4800F0E0F978B10421084800F092
:10119000E7F80849064800F0C7F86A460021044805
:1011A00000F0F5FA684600F00DFC05B000BD000047
:1011B000006400400800003210B50121044800F02E
:1011C000C3F918B10121024800F0CAF810BD0000AF
:1011D0000064004000B58BB00121022002F070FFD6
:1011E0000121880602F07CFF09220C213B4801F016
:1011F0003DFC09220D21394801F038FC4FF44050E4
:10120000029002208DF80C0002A9344801F0E6FBA0
:1012100040208DF8040002208DF8050001208DF893
:1012200006008DF8070001A802F07AFE3F208DF835
:10123000040001208DF805008DF806008DF80700E8
:1012400001A802F06DFE264800F0DEF808A800F0C4
:1012500016FB00208DF826008DF827008DF8280059
:101260008DF829008DF82A0001208DF82B00002030
:101270008DF822008DF8230008208DF8240003202B
:101280008DF82500ADF8200008A9154800F0F5F903
:101290000E208DF81A0000208DF81B0001208DF81B
:1012A0001C000020ADF81000ADF81200ADF81400DD
:1012B000ADF81600ADF8180001208DF81D0004A847
:1012C00000F0BEF801220221054800F0CDF901220C
:1012D0001146034800F0C8F90BB000BD00040240FD
:1012E0000068004000B585B00221074800F02CF9E5
:1012F00040B10221044800F033F86A460021024858
:1013000000F045FA05B000BD0068004010B50121AD
:10131000044800F019F918B10121024800F020F842
:1013200010BD00000068004000220C4B994202D121
:101330000023836111E0C1F3130201F000730BB1CC
:10134000C2600AE001F080630BB1026105E001F0C8
:1013500000630BB1826000E0426070477000F030C3
:10136000B1F5007F3AD00FDC202928D006DC012916
:101370001CD004291DD0082940D11DE0402921D0CE
:10138000B1F5807F3AD126E0B1F5004F31D006DCCF
:10139000B1F5806F25D0B1F5006F2FD124E0B1F504
:1013A000803F12D0B1F5003F28D111E0154A82608C
:1013B00025E00822C26022E01022C2601FE008225D
:1013C00002611CE01022026119E00822426016E06E
:1013D0001022426013E00422426010E004224260C6
:1013E0000DE0042242600AE0002282610422426091
:1013F00005E0002282610422426000E000BF00BFDD
:10140000704700000101010010B504460B488442FA
:1014100009D10121480602F073FE00214FF000704F
:1014200002F06EFE08E00121880602F069FE00214C
:101430004FF0806002F064FE10BD000000640040C8
:1014400010B50021837A012202FA03F13D4A1268A5
:1014500042F001023B4B1A603A4A1C3212688A433E
:10146000384B1C331A60027BCAB9364A0C321268F8
:101470008A43344B0C331A604288C38842EA0343E0
:10148000304A4032847A42F834300288838842EA13
:1014900003432C4A4032847A02EBC4025360027B3D
:1014A000012A19D1274A0C3212680A43254B0C3302
:1014B0001A604288038842EA0343224A4032847A0F
:1014C00042F83430C288838842EA03431D4A4032DE
:1014D000847A02EBC4025360C27A3AB9194A121DE7
:1014E00012688A43174B1B1D1A6006E0154A121D2D
:1014F00012680A43134B1B1D1A60028932B9114A44
:10150000143212688A430F4B14331A600289012A7D
:1015100006D10C4A143212680A430A4B14331A607B
:10152000427B012A06D1074A1C3212680A43054B46
:101530001C331A60034A126822F00102014B1A6040
:1015400010BD00000066004070B504460D46002640
:1015500060692840002871D0B5F5807F5CD010DC30
:10156000082D35D006DC012D20D0022D24D0042DED
:1015700072D127E0102D31D0202D35D0402D6BD1E8
:1015800038E0B5F5004F60D009DCB5F5007F49D0F3
:10159000B5F5806F4CD0B5F5006F5DD14FE0B5F576
:1015A000803F2DD0B5F5003F56D12FE0A0682D49E2
:1015B00000F0C6FA064651E0E068032100F0C0FAE8
:1015C00006464BE0E068082100F0BAFA064645E01E
:1015D000E068102100F0B4FA06463FE020690321DC
:1015E00000F0AEFA064639E02069082100F0A8FABA
:1015F000064633E02069102100F0A2FA06462DE0ED
:101600006068082100F09CFA064627E06068102117
:1016100000F096FA064621E0A069012100F090FA58
:1016200006461BE0A069022100F08AFA064615E092
:10163000A069042100F084FA06460FE00FE0A069DB
:10164000702100F07DFA064608E06068042100F091
:1016500077FA064602E0FFE7002600BF00E000261A
:10166000304670BD010101001AB143690B4343616B
:1016700002E043698B434361704730B50246002066
:101680000023146824F002041460146844F0010478
:10169000146000E05B1C546804F001041CB94FF6B0
:1016A000FF74A342F6D1546804F001040CB9002081
:1016B0006CE08C79012C04D1146844F0800414602F
:1016C00003E0146824F080041460CC79012C04D168
:1016D000146844F04004146003E0146824F04004EB
:1016E00014600C7A012C04D1146844F020041460B6
:1016F00003E0146824F0200414604C7A012C04D117
:10170000146844F01004146003E0146824F010041A
:1017100014608C7A012C04D1146844F0080414601D
:1017200003E0146824F008041460CC7A012C04D17E
:10173000146844F00404146003E0146824F0040402
:1017400014608C78A407CD7844EA05640D7944EAE6
:1017500005444D7944EA05540D886D1E2C43D4612F
:10176000146824F001041460002300E05B1C54683A
:1017700004F001041CB14FF6FF74A342F6D1546883
:1017800004F001040CB1002000E0012030BD10B5D0
:1017900000F5D87303EB01131B6803F00403137205
:1017A000137A53B900F5D87303EB01131B6840F2A9
:1017B000FF7404EA5353136009E000F5D87303EB98
:1017C00001131B686FF0604404EAD303536000F513
:1017D000D87303EB01131B6803F00203537200F587
:1017E000D87303EB01135B6803F00F03937200F5EA
:1017F000D87303EB01135B681B0AD37400F5D8732D
:1018000003EB01139B68D37200F5D87303EB01134C
:101810009B681C0A147300F5D87303EB01139B68D3
:101820001C0C547300F5D87303EB01139B681B0E5B
:10183000937300F5D87303EB0113DB68D37300F5E2
:10184000D87303EB0113DB681C0A147400F5D8731A
:1018500003EB0113DB681C0C547400F5D87303EB25
:101860000113DB681B0E937421B9C36843F0200396
:10187000C36003E0036943F02003036110BD00214E
:101880008171C171017241728172C1728170C170C6
:10189000032101710221417101210180704710B5BE
:1018A00002460020936803F08063B3F1806F00D19B
:1018B00010E0936803F00063B3F1006F01D10120E1
:1018C00008E0936803F08053B3F1805F01D10220F8
:1018D00000E00420042874D002F5C07303EB001369
:1018E0001B6803F0010402F5C07303EB00131C60D6
:1018F0000B7A7BB94B7A0C8843EA445302F5C074E7
:1019000004EB00142468234302F5C07404EB0014B4
:10191000236010E00B7A4C6843EAC4034C7A2343FB
:1019200002F5C07404EB00142468234302F5C0746C
:1019300004EB001423608B7A03F00F038B7202F523
:10194000C07303EB00135B6823F00F0402F5C07350
:1019500003EB00135C6002F5C07303EB00135B68DC
:101960008C7A234302F5C07404EB001463608B7B14
:101970001C064B7B44EA03440B7B44EA0323CC7AEA
:10198000234302F5C07404EB0014A3608B7C1C0697
:101990004B7C44EA03440B7C44EA0323CC7B234383
:1019A00002F5C07404EB0014E36002F5C07303EBAE
:1019B00000131B6843F0010402F5C07303EB00132E
:1019C0001C6010BD10B5044655480068401C5449C1
:1019D00008602068A0F2032040B101287CD00328D1
:1019E0003ED0A0F2FF10002875D18BE04C48006873
:1019F000012809D14B48B0F900004B4988614B4898
:101A0000B0F900004A4988612146474800F09EFE2F
:101A1000434800685A2822D34148006864281ED8E9
:101A20004148806940498968401A10F57A6F07DAA1
:101A30003C48B0F9000000F500503B4988610EE0D9
:101A40003948806938498968401AB0F57A6F06DDEF
:101A50003448B0F90000A0F50050334988615CE0DB
:101A60002F480068012809D12E48B0F900002E49FE
:101A700088612E48B0F900002D49886121462C4824
:101A800000F064FE264800685A2822D324480068E3
:101A900064281ED82648806925498968401A10F5AF
:101AA0007A6F07DA2148B0F9000000F500502049AC
:101AB00088610EE01E4880691D498968401AB0F5AA
:101AC0007A6F06DD1948B0F90000A0F500501849FA
:101AD000886122E000E01FE0207BE17A40EA0120FB
:101AE00000B214490880A17B607B41EA002000B26B
:101AF00010494880217CE07B41EA002000B20D497A
:101B000088800AE0207BE17A40EA01200A490880C7
:101B1000607B0A49087000BF00BF00BF10BD000015
:101B20001C0000201A000020740300201800002070
:101B3000B8030020200000202600002028000020FC
:101B40000246002002EA01030BB1012000E0002060
:101B50007047000010B509480068401C074908603C
:101B600003F010FD01F024F800F0AAFE9FED040A36
:101B7000044880ED0D0A02F073FD10BD0C02002038
:101B80000000FA431C01002010B500200F49086036
:101B900002F018FE0E484FF47A61C26990470C4873
:101BA000816988479FED0B0A0B4880ED000A9FED85
:101BB000090A80ED010A0948C16C88470848C16CD0
:101BC00088470848C16C884710BD00000C020020FF
:101BD000E8010020000000002C0400206C0100201F
:101BE000CC0000201C01002070B505460C461648AC
:101BF0000078202806DB15A003F00EFD02F060FE41
:101C0000002070BD202D06DB19A003F005FD02F0B9
:101C100057FE0020F5E744B1012C06D01BA003F0CD
:101C2000FBFC02F04DFE0020EBE704F00100A840B1
:101C30001F49096808431E49086003480078401C92
:101C4000014908700120DCE704000020416C6C2091
:101C500074686520666C61677320686173206265D3
:101C6000656E2075736564206F7574210D0A000020
:101C700054686520666C616720494420697320744C
:101C80006F6F20626967210D0A000000496E697458
:101C900069616C20666C61672076616C756520698E
:101CA00073206E6F742076616C6964210D0A0000E8
:101CB0000000002070B52DED0C8BFE49FE4800F0B1
:101CC000FDFB00287ED0FD49FB4800F00BFBF949E5
:101CD000F94800F021FB0024DFE2F948005DA52867
:101CE00030D1F749A01D085C0028F9D1601D085CBF
:101CF000012828D104F11400642824DAE01D095CCD
:101D0000EF4A401C105C41EA0020EE490880114671
:101D100004F10A00085CEB490871114604F10B005C
:101D2000095C401C105C41EA0020E64948801146ED
:101D300004F10D00095C401C105C41EA0020E149FF
:101D4000A1F80500A7E2DE49601D085C022803D166
:101D500004F10B006428F5DBD949601D085C0328F9
:101D60007DD104F10F00642879DAE01D085CD649C2
:101D70000870D34904F10800085CD3494870D04A80
:101D800004F10C01515C01F0800109B9012101E06D
:101D90004FF0FF310846FEF77BFD41EC190BC84AB6
:101DA00004F10B01515C01F08005E91705EB51616D
:101DB000CA11C34B04F10C01595C01F07F0102EB25
:101DC000410100E06CE2A1F17F00FEF761FD41EC12
:101DD0001D0BB0EE4D1AF0EE6D1A9FEDBC0B04F02A
:101DE00063F8B0EE40BAF0EE60BAB54904F109000C
:101DF000085C00EE100AB8EE400A9FEDB61AC0EE7D
:101E0000010A04F10A00085C00EE100AB8EE400A6C
:101E100030EE800A9FEDAF1AC0EE010A04F10B000C
:101E2000085C00F07F0000EE100AB8EEC00A30EE49
:101E3000800ADFEDA90A80EE201AB7EE000A31EE23
:101E4000000A10EE106A3046FEF733FD41EC1C0B21
:101E500053EC1B2BFEF7AAFC41EC1A0B00E00BE045
:101E600053EC192BFEF7A2FC41EC180BFEF74CFDCE
:101E70009549C1F802000EE29149601D085C0428F2
:101E8000F9D104F11E006428F5DA0A4604F10A01CA
:101E9000515C01F0800109B9012101E04FF0FF31EF
:101EA0000846FEF7F5FC41EC190B854A04F10901DF
:101EB000515C01F08005E91705EB5161CA11804BB7
:101EC00004F10A01595C01F07F0102EB4101A1F12B
:101ED0007F00FEF7DDFC41EC1D0BB0EE4D1AF0EE7D
:101EE0006D1A9FED7A0B03F0DFFFB0EE40BAF0EE13
:101EF00060BA7349E01D085C00EE100AB8EE400AB3
:101F00009FED741AC0EE010A04F10800085C00EEAF
:101F1000100AB8EE400A30EE800A9FED6E1AC0EE4D
:101F2000010A04F10900085C00F07F0000EE100ACD
:101F3000B8EEC00A30EE800ADFED670A80EE201AA4
:101F4000B7EE000A31EE000A10EE106A3046FEF7D6
:101F5000B0FC41EC1C0B53EC1B2BFEF727FC41ECB7
:101F60001A0B53EC192BFEF721FC41EC180BFEF772
:101F7000CBFC5A490860524A04F10E01515C01F051
:101F8000800109B9012101E04FF0FF310846FEF759
:101F90007FFC41EC190B4A4AE11C515C01F08005C1
:101FA000E91705EB5161CA11454B04F10E01595C6B
:101FB00001F07F0102EB4101A1F17F00FEF768FC17
:101FC00041EC1D0BB0EE4D1AF0EE6D1A9FED3F0B7C
:101FD00003F06AFFB0EE40BAF0EE60BA384904F19F
:101FE0000B00085C00EE100AB8EE400A9FED391AAB
:101FF000C0EE010A04F10C00085C00EE100AB8EE15
:10200000400A30EE800A9FED331AC0EE010A04F157
:102010000D00085C00F07F0000EE100AB8EEC00A68
:1020200030EE800A9FED2C1AC0EE010AB7EE000ACE
:1020300030EE800A10EE106A3046FEF73AFC41ECB2
:102040001C0B53EC1B2BFEF7B1FB41EC1A0B53ECB2
:10205000192BFEF7ABFB41EC180BFEF755FC1F49A3
:102060004860174A04F11201515C01F0800109B97E
:10207000012101E04FF0FF310846FEF709FC41EC79
:10208000190B0F4A04F11101515C01F08005E917A9
:1020900005EB5161CA110A4B04F11201595C01F0C0
:1020A0007F0102EB4101A1F17F00FEF7F1FB41EC62
:1020B0001D0B15E000880020886002400008002009
:1020C00048040020560200206002002000000000AA
:1020D000000000400000804300000043440800204E
:1020E000B0EE4D1AF0EE6D1A1FED080B03F0DCFE9A
:1020F000B0EE40BAF0EE60BA6B4904F10F00085C34
:1021000000EE100AB8EE400A1FED0E1AC0EE010AEA
:1021100004F11000085C00EE100AB8EE400A30EE40
:10212000800A1FED141AC0EE010A04F11100085CC8
:1021300000F07F0000EE100AB8EEC00A70EE800AD0
:102140001FED1B1A80EE810AF7EE000A30EE200A1E
:1021500010EE106A3046FEF7ACFB41EC1C0B53EC62
:102160001B2BFEF723FB41EC1A0B53EC192BFEF74C
:102170001DFB41EC180BFEF7C7FB4C4988604A4A2F
:1021800004F11601515C01F0800109B9012101E05F
:102190004FF0FF310846FEF77BFB41EC190B424A3A
:1021A00004F11501515C01F08005E91705EB51615F
:1021B000CA113D4B04F11601595C01F07F0102EB9D
:1021C0004101A1F17F00FEF763FB41EC1D0BB0EE76
:1021D0004D1AF0EE6D1A1FED430B03F065FEB0EEE5
:1021E00040BAF0EE60BA304904F11300085C00EE2A
:1021F000100AB8EE400A1FED491AC0EE010A04F1B8
:102200001400085C00EE100AB8EE400A30EE800AB6
:102210001FED501AC0EE010A04F11500085C00F031
:102220007F0000EE100AB8EEC00A70EE800A1FEDC3
:10223000561A80EE810AF7EE000A30EE200A10EE00
:10224000106A3046FEF735FB41EC1C0B53EC1B2BA0
:10225000FEF7ACFA41EC1A0B53EC192BFEF7A6FA79
:1022600041EC180BFEF750FB1049C8600E4904F111
:102270001700095C0C4A401C105C41EA00200B4925
:102280000882114604F11800095C401C105C41EA08
:10229000002006494882601CC4B2642CFFF61DADC4
:1022A000BDEC0C8B70BD00004804002044080020E9
:1022B00010B50949094800F001F958B14FF08151B2
:1022C000064800F00FF80449044800F025F80448D7
:1022D00001F0E4FF10BD00000080201040640240C7
:1022E000D90800200246094B9A4201D2084801E071
:1022F0000648103801F000531BB1064B0B40C36079
:1023000002E0044B0B408360704700001064024001
:10231000006002407D0F7D0F0246094B9A4201D2B8
:10232000084801E00648103801F000531BB1064B85
:102330000B40C36002E0044B0B4083607047000019
:1023400010640240006002407D0F7D0F21B10268E1
:1023500042F00102026003E0026822F00102026022
:1023600070470000016821F0010101600021016057
:1023700041608160C1600161212141614A49884217
:1023800004D13D21484A103A91608CE04649183109
:10239000884205D14FF47461434A103A916082E05B
:1023A00041493031884205D14FF474113E4A103A08
:1023B000916078E03C494831884205D14FF0746122
:1023C000394A103A91606EE037496031884204D151
:1023D0003649354A103AD16065E033497831884250
:1023E00004D13349304A103AD1605CE02E49903133
:1023F000884204D12F492C4A103AD16053E02A492F
:10240000A831884205D14FF03D51274A103AD1609A
:1024100049E02949884204D13D21274A083A116000
:1024200041E025491831884205D14FF47461224AB0
:10243000083A116037E020493031884205D14FF425
:1024400074111D4A083A11602DE01B494831884239
:1024500005D14FF07461184A083A116023E016491B
:102460006031884204D11149134A121F11601AE0E9
:1024700011497831884204D10D490F4A121F116069
:1024800011E00D499031884204D10A490A4A121FCD
:10249000116008E00849A831884204D14FF03D514D
:1024A000054A121F11607047106002403D00002075
:1024B000400F002000003D201064024070B502462D
:1024C000002000240025124EB24201D2114B01E03F
:1024D0000F4B103B104E0E4036B11E2606EAD1249B
:1024E000166806EA040502E0566906F0800501F068
:1024F00000560EB15C6800E01C68084E344004EAE7
:10250000010616B10DB1012000E0002070BD0000F1
:1025100010640240006002403C0F3C0F7D0F7D0FB5
:1025200010B501F080034BB122B1436943F0800341
:10253000436103E0436923F08003436180290BD0AA
:102540002AB1036801F01E042343036004E003681A
:1025500001F01E04A343036010BD000010B500226B
:102560000268134B1A40CC680B6823434C69234321
:102570008C692343CC6923430C6A23434C6A23436D
:102580008C6A23434C6B23438C6B23431A430260B6
:10259000426922F00702D1E90B3423431A43426116
:1025A0000B6943604B6883608B68C36010BD00009B
:1025B0003F801CF000B587B00121274801F080FD65
:1025C0000121102001F0ACFD07221146234800F044
:1025D0004DFA234802F0D2FD8020059002208DF8AC
:1025E000180000208DF81A0003208DF81900002033
:1025F0008DF81B0005A9194800F0F0F91948019061
:102600000020ADF80800ADF80A004FF48060ADF886
:102610000C000420ADF80E000020ADF8100001A958
:102620000F4802F07FFE01210D4802F091FD2520A8
:102630008DF8000001208DF801008DF802008DF862
:102640000300684601F06CFC012240F22551044869
:1026500002F043FE07B000BD02004000000402404B
:1026600000100140A08601007047000010B5042052
:1026700000F016F840B10A2005F016F8044800688A
:10268000012801D101F0D6FA042000F003F810BDB2
:10269000088240420149086070470000143C014034
:1026A00001460020034A12680A400AB1012000E0F6
:1026B00000207047143C0140002123498279002A00
:1026C0003AD00A46126803689A430B461A600A1DFC
:1026D000126803689A430B1D1A60027911440A6854
:1026E00003681A430A60184A0832126803689A435A
:1026F000154B08331A601A1D126803689A43124B6F
:102700000C331A604279102A0ED11A1F126803681E
:102710001A430D4B08331A601A1D126803681A43D6
:10272000094B0C331A600DE00749427911440A68DD
:1027300003681A430A6005E0027911440A680368D5
:102740009A430A6070470000003C014070B50022C7
:102750000023046844600C7BCD7A44EA05240460BD
:1027600004684568641BC460C4682B4DAC4207DA3A
:10277000846B641C8463C46804F50054C4610EE077
:10278000C46841F64C55AC4207DD846B641E84631B
:10279000C468A4F50054C46101E0C468C46105685C
:1027A000846B05EB4434846004688569641B00EE27
:1027B000104AB8EEC00ADFED190A20EE200A9FED9C
:1027C000181AC0EE010A846B4FF4B4756C4300EE26
:1027D000104AB8EEC00A30EE800A80ED100AC669D1
:1027E000047D651C057500F1200545F82460047D15
:1027F000062C01D100240475002205E000F120041C
:1028000054F822402344521C062AF7DB062493FB8B
:10281000F4F4C46370BD0000B4E2FFFF0000B443F1
:102820000000004610B500210846FFF7DDF9002141
:102830000120FFF7D9F900210220FFF7D5F9002187
:102840000320FFF7D1F900210420FFF7CDF9002183
:102850000520FFF7C9F900210620FFF7C5F900217F
:102860000720FFF7C1F900210820FFF7BDF900217B
:102870000920FFF7B9F900210A20FFF7B5F9002177
:102880000B20FFF7B1F900210C20FFF7ADF9002173
:102890000D20FFF7A9F900210E20FFF7A5F900216F
:1028A0000F20FFF7A1F900211020FFF79DF900216B
:1028B0001120FFF799F900211220FFF795F910BDBB
:1028C00010B500F00FF9012804D002281DD005280A
:1028D00051D135E0B2EE000A3D4880ED040A9FED8B
:1028E0003D0A80ED050A9FED3B0A80ED060AB2EE37
:1028F000000A394880ED040A9FED360A80ED050A8A
:102900009FED340A80ED060A50E0B2EE0E0A304820
:1029100080ED040A9FED2F0A80ED050A9FED2D0A38
:1029200080ED060AB3EE020A2B4880ED040A9FED03
:10293000290A80ED050A9FED270A80ED060A35E099
:10294000B2EE040A224880ED040A9FED220A80EDCF
:10295000050A9FED200A80ED060AB2EE040A1E4821
:1029600080ED040A9FED1B0A80ED050A9FED190A10
:1029700080ED060A1AE0B2EE0E0A154880ED040A50
:102980009FED140A80ED050A9FED120A80ED060AFC
:10299000B3EE020A104880ED040A9FED0E0A80EDA6
:1029A000050A9FED0C0A80ED060A00BF00BF08482B
:1029B000816C8847064890ED0D0A074880ED000AB3
:1029C00004F0C2FE044880ED010A816C884710BD06
:1029D000CC000020000000001C010020F0B50A46D9
:1029E00000210023002400BF3DE0012505FA01F38A
:1029F000156805EA03049C4234D105684F0003269C
:102A0000BE40B543056015794E00B54006683543B4
:102A100005601579012D02D01579022D16D1856832
:102A20004F000326BE40B543856055794E00B54042
:102A3000866835438560456801268E40B54345600C
:102A4000456896798E40B6B235434560C5684F00FB
:102A50000326BE40B543C560D5794E00B540C66873
:102A60003543C560491C1029BFD3F0BDF0B5002324
:102A700000244D07ED0E02FA05F3CE1000F12005FB
:102A800055F826504E07F70E0F26BE40B543CF101F
:102A900000F1200646F82750CE1000F1200555F829
:102AA000265045EA0304CE1000F1200545F82640E3
:102AB000F0BD0AB1018300E041837047014800780E
:102AC000704700001C02002010B504460622214673
:102AD000492001F083F910BD0148007870470000DB
:102AE000540200200148007870470000BD0100201A
:102AF00030B5034613B94FF6FF7030BD09E013F847
:102B0000014B82EA0400C0B2054D35F8100080EA9E
:102B10002222081EA1F10101F1D11046EDE70000CB
:102B2000BC80000830B5034605E013F8010B80EACD
:102B300002040448025D081EA1F10101F5D110460E
:102B400030BD0000BB7F00080148007870470000DE
:102B5000280000204FF08040406A4FF47A71B0FBAB
:102B6000F1F07047114890ED000AFAEE0C0AB4EE4D
:102B7000E00AF1EE10FA04D8BAEE0C0A80ED000A71
:102B800013E00A4890ED000AF2EE0C0AB4EEE00AF7
:102B9000F1EE10FA04DBB2EE0C0A80ED000A04E05C
:102BA000024890ED000A80ED000A70472C040020D6
:102BB00010B5FFF797FF06280DD2DFE800F0030DF0
:102BC00042617C7D9FED4F0A4F4880ED000A9FEDEA
:102BD0004D0A80ED010A8EE04C48007878B94C48E7
:102BE00090ED000A4B4880ED010A0120474908702A
:102BF0000020494908704949087049490870494806
:102C00000088401C00B2474908800846B0F900001F
:102C10000A2808DD3F4890ED010AF6EE000A30EE82
:102C2000200A80ED010AFFF79DFF3A4890ED010A66
:102C3000354880ED000A04F08DFD334880ED010A2F
:102C400059E03548007868B9314890ED000A3148BC
:102C500080ED010A01203049087000202B490870DE
:102C60002E490870FFF77EFF2A4890ED010A26489A
:102C700080ED000A04F06EFD234880ED010A3AE081
:102C80002648007858B9224890ED000A214880ED86
:102C9000010A01202149087000201C4908701C48C5
:102CA00090ED000A184880ED000A04F053FD164824
:102CB00080ED010A1FE01EE01948007868B9144849
:102CC00090ED000A134880ED010A012014490870B4
:102CD00000200E49087010490870FFF743FF0D48A7
:102CE00090ED010A084880ED000A04F033FD064823
:102CF00080ED010A00BF00BF04F02CFD044880ED08
:102D0000000A10BD00003143CC000020100200205A
:102D1000140200202C0400201102002012020020C6
:102D2000130200201A02002000BFFEE700B52DEDBF
:102D3000108B93B0FE4890ED000AD0ED000A20EE13
:102D4000200A8DED060A90ED000AFA48D0ED000A3F
:102D500020EE200AF0EE40DAF54890ED000AF64841
:102D6000D0ED000A20EE200AB0EE409AF04890ED37
:102D7000000AF248D0ED000A20EE200A8DED050A87
:102D8000EC4890ED000AD0ED000A20EE200AB0EEEB
:102D900040EA90ED000AE848D0ED000A20EE200A53
:102DA0008DED040AE34890ED000AE448D0ED000AF6
:102DB00020EE200AF0EE409ADF4890ED000AD0EDB8
:102DC000000A20EE200AB0EE40AA90ED000ADB488F
:102DD000D0ED000A20EE200AF0EE40EA90ED000A65
:102DE000D0ED000A20EE200AB0EE40FAD44890ED73
:102DF000140AD44880ED000AD14890ED150AD24853
:102E000080ED000ACE4890ED160AD04880ED000A09
:102E1000CB48B0F9000000EE100AB8EEC00ACC486A
:102E200080ED000AC648B0F9020000EE100AB8EEC4
:102E3000C00AC84880ED000AC148B0F9040000EE9D
:102E4000100AB8EEC00AC44880ED000ABC48B0F9C8
:102E50000E0000EE100AB8EEC00AC04880ED000A6D
:102E6000B748B0F9100000EE100AB8EEC00ABC482E
:102E700080ED000AB248B0F9120000EE100AB8EE78
:102E8000C00AB84880ED000AFFF764FEB649086042
:102E900008460068B5490968401A00EE100AB8EE05
:102EA000400ADFEDB30A80EE201AF0EE418AAE4808
:102EB0000068AE490860A648D0ED000A90ED001AFF
:102EC00060EE810AA34890ED001AD0ED001A41EEA1
:102ED000210AA14890ED001AD0ED001A41EE210A16
:102EE000B0EE600A04F0AAFEB0EE408A984890ED79
:102EF000000A20EE080A80ED000A964890ED000ACC
:102F000020EE080A80ED000A934890ED000A20EEBA
:102F1000080A80ED000A9148D0ED000A90ED001AF1
:102F200060EE810A8E4890ED001AD0ED001A41EE55
:102F3000210A8C4890ED001AD0ED001A41EE210ACA
:102F4000B0EE600A04F07AFEB0EE408A834890ED5D
:102F5000000A20EE080A80ED000A814890ED000A80
:102F600020EE080A80ED000A7E4890ED000A20EE6F
:102F7000080A80ED000A794890ED000AF0EE000A98
:102F800020EE200AF6EE000A70EECA0A70EECF0AB2
:102F900020EE200A7248D0ED000AB0EE001A60EE72
:102FA000811ADDED040A9DED051A70EEC10A01EEED
:102FB000A00A6C48D0ED000AB0EE001A60EE810A5B
:102FC00039EE891A00EE810A8DED110A634890ED01
:102FD000000AF0EE000A20EE201A9DED040ADDED55
:102FE000050A30EE200A21EE000A5D48D0ED000A05
:102FF000B0EE001A60EE810AB6EE001A31EE4E1AFB
:1030000031EE4F1A00EE810A5648D0ED000AB0EEBC
:10301000001A60EE810A3EEEED1A00EE810A8DED97
:10302000100A4E4890ED000AF0EE000A20EE200A49
:1030300079EEC90A20EE200A4948D0ED000AB0EE28
:10304000001A60EE810A3EEEAD1A00EE810A454894
:10305000D0ED000AB0EE001A60EE810AB6EE001A5A
:1030600031EE4E1A31EE4A1A00EE810AF0EE40AA15
:103070009DED110A60EE000A9DED100A40EE000A77
:1030800010EE901A0846FDF714FCCDE900019DED05
:10309000000B03F031FD8DED020B9DED020B51ECA9
:1030A000100BFDF731FC0FEE900ACDED0FAA39EEB3
:1030B000C90AF0EE000A20EE200A8DED0E0A3DEE60
:1030C000AE0AF0EE000A20EE200A8DED0D0A9DED0D
:1030D000060A30EE4E0A30EE4A0A30EE0F0A8DED47
:1030E0000C0AB0EE000A2FEE800AF6EE000A70EE2F
:1030F000CA0A70EECF0A20EE200ADDED0FAAF0EE2C
:10310000000A6AEEA00A39EEC91A00EE810A8DEDB6
:103110000B0AB0EE000A2FEE801ADDED040A9DEDD9
:10312000050A30EEC00A21EE000ADDED0FAA21E00B
:103130007C020020800200208402002088020020FF
:10314000CC020020980200209C020020A002002057
:10315000A4020020A8020020AC020020B00200203F
:10316000B4020020B8020020C0020020BC020020EF
:103170000000FA44F0EE000A6AEEA00A3DEEAE1A34
:1031800000EE810A8DED0A0AB0EE000A2FEE800AE9
:1031900079EE290A20EE200ADDED0FAAF0EE000AF2
:1031A0006AEEA00AB6EE001A31EE4E1A31EE4A1A55
:1031B00000EE810A8DED090AB348D0ED000A9DEDBD
:1031C0000C0A20EE800AB14890ED001ADDED0D0AE0
:1031D00001EE600AAE4890ED001ADDED090A21EE1D
:1031E000201AAC48D0ED001ADDED0A0A01EEE01A13
:1031F00030EE010A8DED080AA448D0ED000A9DEDDD
:103200000E0A20EE800AA44890ED001ADDED0C0AAB
:1032100001EE600A9F4890ED001ADDED0B0A21EEE9
:10322000201A9E48D0ED001ADDED090A01EEE01AE1
:1032300030EE01BA9848D0ED000A9DED0D0A60EE1F
:10324000800A914890ED001A9DED0E0A41EE400A69
:10325000924890ED001A9DED0A0A21EE001A8C4862
:10326000D0ED001A9DED0B0A01EEC01A70EE81BA86
:103270009DED080AB5EEC00AF1EE10FA5BD0B5EE8E
:10328000C0BAF1EE10FA56D0F5EEC0BAF1EE10FA6F
:1032900051D09DED080ADFED820A60EE200A8148D8
:1032A00090ED000A00EEA80A80ED000A9FED7C0A6E
:1032B0006BEE000A7C4890ED000A00EEA80A80ED53
:1032C000000A9FED770A6BEE800A784890ED000ABD
:1032D00000EEA80A80ED000A7548D0ED000A9DEDC9
:1032E000080AB2EE001A41EE000A6E4890ED000A9C
:1032F00030EE800A6E4880ED000A6E4890ED000ABC
:10330000F2EE000A00EE8B0A6748D0ED000A30EEBC
:10331000200A684880ED000A674890ED000AF2EE46
:10332000000A00EEAB0A6148D0ED000A30EE200A38
:10333000614880ED000A614890ED000AB1EE400A54
:103340005B48D0ED000A20EE200A5D48D0ED000A6F
:10335000584890ED001A00EEC10A5A4890ED001A44
:103360005548D0ED001AF0EE400A41EE610A564889
:1033700090ED000A00EEA80A8DED070A90ED000A14
:103380004B48D0ED000A20EE200A4D48D0ED000A4F
:10339000494890ED001A00EE810A4A48D0ED000A33
:1033A000444890ED001A00EEC10A4448D0ED000AEE
:1033B000B0EE60CA00EE28CA434890ED000A3D48CE
:1033C000D0ED000A20EE200A3C48D0ED000A3A4831
:1033D00090ED001A00EEC10A3A48D0ED000A3448D8
:1033E00090ED001A00EE810A3548D0ED000AF0EEAB
:1033F00060CA40EE28CA344890ED000A2E48D0ED4D
:10340000000A20EE200A2D48D0ED000A294890ED50
:10341000001A00EE810A2A48D0ED000A244890EDF7
:10342000001A00EEC10A2748D0ED000AB0EE60DABB
:1034300000EE28DADDED070A60EEA00A4CEE0C0A79
:103440004CEEAC0A4DEE0D0AB0EE600A04F0F6FB4D
:10345000B0EE408A9DED070A20EE080A1A4880ED7A
:10346000000A2CEE080A154880ED000A2CEE880AA6
:10347000134880ED000A2DEE080A124880ED000A7C
:1034800013B0BDEC108B00BDA8020020AC020020E0
:10349000B4020020B8020020A4020020B0020020E4
:1034A0000AD7233C8C0200209002002094020020C6
:1034B000980200209C020020A00200208002002030
:1034C00084020020880200207C0200201CB50E220D
:1034D00070493B2000F082FC6E4840786D490978C5
:1034E00040EA012000B26C4908806A48C078694906
:1034F000897840EA012000B26749488065484079F0
:103500006449097940EA012000B263498880614832
:10351000C0796049897940EA012000B25E49C880DB
:103520005C48407A5B49097A40EA01215A48408B5D
:10353000081A00B2584908815648C07A5549897A14
:1035400040EA01215448808B081A00B25249488150
:103550005048407B4F49097B40EA01214E48C08BCF
:10356000081A00B24C4988814C48FFF7ADFA4A4826
:103570004A490A68C0F80E208988418204F0F0F8B0
:103580004548B0F90C004449B1F90A10424CCDE964
:103590000010B4F90830B4F90420B4F90210B4F9F9
:1035A000000004F0ABFB2346B3F91220B3F910106E
:1035B000B3F90E0000F058FA3948008D00B22146E8
:1035C00008803748B0F8540000B248803448B0F85A
:1035D000800000B288803248B0F8AC0000B20881A8
:1035E0002F48B0F8D80000B248812D48B0F8040147
:1035F00000B288812B48808AC8812A48408D088281
:103600002848B0F8400048820846B0F9060000EEAD
:10361000100AB8EEC00A9FED241AC0EE010AB3EEFC
:10362000050A30EE800A084680ED1A0AB0F9080053
:1036300000EE100AF8EEC00A9FED1C1A80EE810A17
:10364000DFED1B0A80EE201A084680ED141AB0F94F
:103650000A0000EE100AF8EEC00A9FED141A80EE80
:10366000810ADFED130A80EE201A084680ED151A54
:10367000B0F90C0000EE100AF8EEC00A9FED0B1A2C
:1036800080EE810ADFED0A0A80EE201A084680EDFE
:10369000161A1CBDC8090020CC020020C40200205C
:1036A000D8090020E00A00205CEFA64333338341B1
:1036B0003333654210B52DED0A8B9F4890ED000A1B
:1036C000F8EE000A20EE200AD0ED000A20EE200AD3
:1036D0009A48D0ED000AB0EE001A60EE810A90ED33
:1036E000001A00EEC10AF7EE000A30EE200A10EED2
:1036F000101A0846FDF7DDF841EC1B0B904890EDE1
:10370000000AF0EE000A20EE200A8B48D0ED000AF5
:1037100020EE200A8B48D0ED000AB0EE001A60EED1
:10372000810A864890ED001A00EE810A10EE101A08
:103730000846FDF7BEF841EC1C0BB0EE4B1AF0EE5C
:103740006B1AB0EE4C0AF0EE6C0A02F0A9FAB0EE79
:1037500040AAF0EE60AA51EC1A0B81F0004141EC56
:10376000190B9FED790B53EC102BFDF71FF841EC73
:10377000180BFDF7C9F876494867714890ED000AC3
:10378000F8EE000A20EE200A6C48D0ED000A20EE88
:10379000200A6C48D0ED000AB0EE001A60EE810AF3
:1037A000654890ED001A00EE810A10EE101A0846E6
:1037B000FDF77FF841EC1B0BB0EE4B0AF0EE6B0A05
:1037C00001F052FFB0EE40AAF0EE60AA51EC1A0BE5
:1037D00081F0004141EC190B9FED5B0B53EC102B7A
:1037E000FCF7E4FF41EC180BFDF78EF85849086729
:1037F000534890ED000AF8EE000A20EE200AD0EDC2
:10380000000A20EE200A4C48D0ED000AB0EE001A63
:1038100060EE810A90ED001A00EEC10AF7EE000A90
:1038200030EE200A10EE101A0846FDF742F841EC7F
:103830001A0B414890ED000AF0EE000A20EE200A33
:103840003E48D0ED000A20EE200A3E48D0ED000AA6
:10385000B0EE001A60EE810A394890ED001A00EED1
:10386000810A10EE101A0846FDF723F841EC1B0BF5
:10387000B0EE4A1AF0EE6A1AB0EE4B0AF0EE6B0A9E
:1038800002F00EFAB0EE409AF0EE609A9FED2E0B29
:1038900053EC102B51EC190BFCF788FF41EC180B83
:1038A000FDF732F82A49C8662A4890ED000A2A48EE
:1038B00080ED000A084690ED1D0A264880ED000ABA
:1038C00090ED000A2448D0ED000A30EE600ADFEDEA
:1038D000230AB4EEE00AF1EE10FA05DB2048006896
:1038E000401E1F49086013E01A4890ED000A1A486C
:1038F000D0ED000A30EE600ADFED1A0AB4EEE00AFD
:10390000F1EE10FA04D816480068401C144908600B
:10391000134800684FF4B471484300EE100AB8EE43
:10392000C00A0C48D0ED000A30EE200A084880EDAD
:103930001D0ABDEC0A8B10BD840200208802002005
:10394000800200207C0200206666666666A64C4007
:10395000CC02002048030020540300200000A543AF
:10396000600300200000A5C310B530216A2000F0DC
:103970006DFA0A2003F098FE0D21242000F066FA6B
:103980000A2003F091FE0E21282000F05FFA0A20A1
:1039900003F08AFE8E21312000F058FA0A2003F04D
:1039A00083FE01210B2000F0E0F80A2003F07CFEEA
:1039B000002000F0BDF8102801D0012010BD012129
:1039C0000B2000F0D2F80A2003F06EFE00210A203E
:1039D00000F0CBF80A2000F0ABF808B10220EDE7C8
:1039E0000A2003F061FE00210B2000F0BEF80B203E
:1039F00000F09EF808B10320E0E70A2003F054FE2F
:103A00002421412000F0B1F8412000F091F8242851
:103A100001D00420D2E70A2003F046FEC021422054
:103A200000F0A3F8422000F083F8C02801D0052060
:103A3000C4E70A2003F038FE00212A2000F006FA2D
:103A40000A2003F031FE0021342000F0FFF90A20A3
:103A500003F02AFE062203210E2000F017FA64204C
:103A600003F022FE0020A9E7F0B503460C46012032
:103A700019E02E4931F81050411E2C4E26F81150F5
:103A800006F1160131F81060411E284D163525F853
:103A9000116005F1160131F81060411E163525F848
:103AA0001160411CC8B20A28E3DB20484382048528
:103AB000C287002036E000211BE000EB400505EB4B
:103AC000C0051A4E06EB450535F8115000EB4006CF
:103AD00006EBC006154F07EB4606B68A35442DB2F5
:103AE00000EB400606EBC00607EB4606B5824D1C10
:103AF000E9B20A29E1DB00EB400101EBC0010B4D0B
:103B000005EB4101B1F914100A2591FBF5F109B259
:103B100000EB400505EBC005044E06EB4505A98208
:103B2000411CC8B20328C6DBF0BD0000E00A00203B
:103B300070B504462146322000F088F90A2003F0CF
:103B4000B3FD8021342000F081F90A2003F0ACFDA0
:103B5000352000F021F905460021342000F076F9E7
:103B60000A2003F0A1FD284670BD70B504460D463D
:103B700000212A2000F06AF9022003F095FD214679
:103B8000292000F063F9022003F08EFD294664200D
:103B900000F05CF9022003F087FD81212A2000F06B
:103BA00055F90A2003F080FD70BD000000B585B016
:103BB0000121880300F0B4FA0121022000F080FA0C
:103BC0000420039000208DF812008DF810000320CF
:103BD0008DF8110001208DF8130003A91248FEF79B
:103BE000FDFE0221012000F007FD042001900020CD
:103BF0008DF8080008208DF8090001208DF80A00D2
:103C000001A8FEF759FD08208DF8000004208DF86A
:103C100001008DF8020001208DF80300684600F0D5
:103C20007FF905B000BD00000004024010B5FFF7A9
:103C3000BDFF10BD06480068C0430649C1F8AC028C
:103C40000548D0F8B802C0430349C1F8B80270472C
:103C5000AC02424200004242008042421CB50121B7
:103C6000702000F02DFAFE20009001208DF8040055
:103C700000208DF8060003208DF8050001208DF846
:103C8000070069461448FEF7A9FE4FF40060009053
:103C900001208DF8040000208DF8060003208DF827
:103CA000050001208DF8070069460C48FEF796FED6
:103CB0004FF48040009001208DF8040000208DF822
:103CC000060003208DF8050001208DF807006946E5
:103CD0000348FEF783FE1CBD00180240001002409E
:103CE0000014024010B5FFF7B9FF01200A4908602F
:103CF0000A49C1F88802084908310860091D0860AE
:103D0000091D0860091D0860091D0860002004499C
:103D100008600449086010BD840243420000434229
:103D2000AC024242B882424210B586B00122402124
:103D30001748FEF7BEFE642003F0B6FC752000F0C5
:103D40002BF800241422134901A8FCF71DFD00BF25
:103D50000DE001AA02EB4402517801AA12F8140006
:103D600000F074F8012003F09FFC601CC4B20A2C20
:103D7000EFDB032000F062F8022000F057F8FFF7B5
:103D8000F3FD04F04FF803F0F7FD002006B010BD7E
:103D900000140240EC82000810B5044600224021C5
:103DA0000B48FEF786FE44F080000A49087008467A
:103DB000007800F003FC002000F000FC06490870C9
:103DC000012240210248FEF774FE0348007810BD2E
:103DD0000014024066030020650300202DE9F04135
:103DE00005460E461746002240210E48FEF761FEAA
:103DF00045F080000C4908700846007800F0DEFBB2
:103E0000002404E0002000F0D9FB3055641CBC42C3
:103E1000F8DB012240210348FEF74BFE0020BDE8FD
:103E2000F0810000001402406703002010B5044632
:103E3000E006010E1C2000F009F810BD10B5044684
:103E4000E006010E1B2000F001F810BD70B505461C
:103E50000C46002240210B48FEF72BFE05F07F00A8
:103E6000094908700846007800F0A8FB064804706D
:103E7000007800F0A3FB012240210248FEF719FE62
:103E8000002070BD001402406403002070B5044699
:103E90000E46154621462820FFF7D8FF022003F0E2
:103EA00003FC0A212920FFF7D1FF022003F0FCFBCD
:103EB00001216420FFF7CAFF022003F0F5FB44F064
:103EC00080012520FFF7C2FF022003F0EDFB314601
:103ED0002620FFF7BBFF022003F0E6FB032134207E
:103EE000FFF7B4FF022003F0DFFB03216720FFF799
:103EF000ADFF022003F0D8FB81212A20FFF7A6FFA7
:103F0000062003F0D1FB45F080012720FFF79EFF3C
:103F1000022003F0C9FB70BD00BFFEE77047000040
:103F200070B5002100230F22C4781CB3174C2468FD
:103F300004F4E064C4F5E064C4F30721C1F10404AF
:103F4000E3B20A4144789C40E1B2847814402143B2
:103F50000C07210E0E4C05786155047804F01F05FE
:103F60000124AC4005786D11AD0005F1E025C5F8E0
:103F7000004109E0047804F01F050124AC40054D20
:103F80000678761145F8264070BD00000CED00E083
:103F900000E400E080E100E002490143024A1160D0
:103FA000704700000000FA050CED00E090ED020AF9
:103FB00080ED030A90ED000AD0ED010A30EE600AB0
:103FC00080ED020A90ED080AD0ED020A30EE200AD8
:103FD00080ED080A90ED080AD0ED0B0AF1EE600AB8
:103FE000B4EEE00AF1EE10FA06D290ED0B0AB1EE53
:103FF000400A80ED080A0CE090ED080AD0ED0B0AAB
:10400000B4EEE00AF1EE10FA03DD90ED0B0A80ED5C
:10401000080A90ED040AD0ED020A20EE200AD0ED45
:10402000050A90ED081A00EE810AD0ED020A90ED23
:10403000031A70EEC10A90ED061A01EE200A80ED17
:104040000D0A90ED0D0AD0ED0E0AB4EEE00AF1EE85
:1040500010FA04DD90ED0E0A80ED0D0A10E090EDEF
:104060000D0AD0ED0E0AF1EE600AB4EEE00AF1EEB0
:1040700010FA05D290ED0E0AB1EE400A80ED0D0A5D
:10408000704700009FED0C0A80ED070A9FED0A0AB9
:1040900080ED080A9FED080A80ED090A9FED060AE7
:1040A00080ED020A9FED040A80ED030A9FED020AEB
:1040B00080ED0D0A7047000000000000704700000E
:1040C00029B1064A12680243044B1A6004E0034A0D
:1040D00012688243014B1A6070470000303802407A
:1040E00029B1064A12680243044B1A6004E0034AED
:1040F00012688243014B1A6070470000403802404A
:1041000029B1064A12680243044B1A6004E0034ACC
:1041100012688243014B1A60704700002038024049
:1041200029B1064A12680243044B1A6004E0034AAC
:1041300012688243014B1A60704700004438024005
:1041400029B1064A12680243044B1A6004E0034A8C
:1041500012688243014B1A60704700002438024005
:10416000F0B5002100220024022500260223324F50
:104170003F6807F00C0121B1042905D0082937D187
:1041800005E02E4F076036E02D4F076033E02A4FE1
:104190003F1F3F68C7F38056274F3F1F3F6807F018
:1041A0003F036EB1264FB7FBF3F7DFF88CC0ACF1DD
:1041B000040CDCF800C0CCF3881C07FB0CF40CE00A
:1041C0001E4FB7FBF3F7DFF870C0ACF1040CDCF85E
:1041D00000C0CCF3881C07FB0CF4174F3F1F3F684F
:1041E000C7F301477F1C7D00B4FBF5F7076002E0D1
:1041F000124F076000BF00BF0F4F3F6807F0F0018C
:104200000909104F7A5C0768D74047600A4F3F683A
:1042100007F4E051890A0B4F7A5C4768D740876002
:10422000054F3F6807F46041490B064F7A5C4768C9
:10423000D740C760F0BD0000083802400024F400F9
:10424000001BB700050000200168491C0160D0E98F
:104250000012914201DB4168016090ED000AF8EE26
:10426000C00A90ED010AB8EEC00A80EE801A80ED17
:10427000021A90ED020A7047416070470146D1E989
:104280000002904201DB012070470020FCE7002182
:1042900001607047016070474160704710B5044687
:1042A000FEF720FC00B9ACE004B910BD20786178BD
:1042B00040EA0120C0F30A00534908806078C0102A
:1042C000A17840EA4110C0F30A004F494880A07825
:1042D0008011E17840EA8100217940EA8120C0F331
:1042E0000A004949888020794010617940EAC1106C
:1042F000C0F30A004449C880607900118008087240
:104300006079C0F301104872A079E17940EA012098
:1043100000B23D494881207A617A40EA012001B229
:1043200039488181A07AE17A40EA012001B2364819
:10433000C181217B8174617BC174A07BE17B40EAF8
:10434000012031498882084600F076F9FEF7CAFB61
:10435000052853D12C484088A0F5806000EB8000F0
:10436000400000B229490880294890ED000A2648FB
:10437000B0F90600A0F5806000EE900AF8EEE00AC1
:104380009FED241A00EE810A214880ED000A90ED8D
:10439000010A1D48B0F90400A0F5806000EE900A03
:1043A000F8EEE00A9FED1B1A00EE810A184880ED36
:1043B000010A1548007A012809D14FF47A7016498C
:1043C0000860091D0860002000F002FA16E00E489F
:1043D000007A032809D140F2E2400F490860091D24
:1043E0000860002000F0F4F908E040F2E2400A49D9
:1043F0000860091D0860012000F0EAF9FEF7B2FB31
:1044000000BF00BF00BF50E7FC0300204C020020AB
:104410002C0400206F12833B340C004010B5312077
:1044200000F0F0FB10BD000000200149088070473B
:104430004C02002000200149088070474A020020F9
:1044400000B587B001212020FFF73AFE01210805C1
:10445000FFF766FE012240213A48FEF72AFB402082
:10446000059001208DF8180000208DF81A00032017
:104470008DF8190001208DF81B0005A93148FEF7C1
:10448000ADFA01212020FFF71BFE01210805FFF7EF
:1044900047FE4FF46070059002208DF81800002050
:1044A0008DF81A0003208DF8190001208DF81B00EB
:1044B00005A92448FEF792FA052207212148FEF7B4
:1044C000D5FA052208211F48FEF7D0FA0522092156
:1044D0001C48FEF7CBFA01210805FFF731FE002149
:1044E0004FF48010FFF72CFE0020ADF800004FF4D1
:1044F0008270ADF802000020ADF80400ADF80600AF
:10450000ADF808004FF40070ADF80A003020ADF8A7
:104510000C000020ADF80E000720ADF81000694631
:10452000094800F02DF80121074800F00FF8FF209E
:1045300000F044F8012240210248FEF7BAFA07B021
:1045400000BD0000001402400050014021B102886B
:1045500042F04002028004E002884FF6BF731A4026
:10456000028070470246002013890B400BB10120E6
:1045700000E00020704701468889704781817047BC
:1045800010B50022028802F441520B884C88234364
:104590008C882343CC8823430C8923434C892343B1
:1045A0008C892343CC8923431A430280838B4FF2A7
:1045B000FF74234083830B8A038210BD10B5044629
:1045C00000BF02210A48FFF7CDFF0028F9D021469D
:1045D0000748FFF7D3FF00BF01210548FFF7C2FFDF
:1045E0000028F9D00248FFF7C6FFC0B210BD000096
:1045F000005001407047000030B500228B071C0FAF
:104600000F2303FA04F20B4B8C1053F8243093431E
:10461000084C8D1044F8253023468C1053F8243074
:104620008C07240F00FA04F42343024C8D1044F845
:10463000253030BD08380140417A012902D1074AAE
:1046400011700AE0417A032902D1044A117004E092
:10465000417A022901D1014A117070471C020020E1
:1046600010B50B4890ED0D0ABDEEC00A10EE100A11
:10467000404202B2064890ED0D0ABDEEC00A10EEAF
:10468000100A404201B2034800F0A8F810BD000033
:104690001C010020006400400CB500200190009037
:1046A0004148006840F480303F49086000BF3E4800
:1046B000006800F4003000900198401C01900098C0
:1046C00018B90198B0F5A04FF1D13748006800F44F
:1046D000003010B10120009001E00020009000980F
:1046E000012860D130484030006840F080502E49A9
:1046F000403108602D48006840F440402B49086074
:1047000029480830006828490831086008460068D0
:1047100040F4004008600846006840F4A05008607B
:104720002348091F0860081F006840F08070091FB7
:10473000086000BF1C48006800F000700028F9D035
:104740001A48006840F480301849086000BF1748D4
:10475000406800F480300028F9D01448006840F424
:1047600000301249086000BF1048406800F4003073
:104770000028F9D040F205700E4908600A48083058
:10478000006820F003000849083108600846006806
:1047900040F00200086000BF03480830006800F0E5
:1047A0000C000828F8D10CBD003802400070004011
:1047B0000C544007003C024001490870704700005B
:1047C000540200200149087070470000BD0100201C
:1047D00001490870704700004402002070B586B09F
:1047E00006460C46154640F2FF10019000208DF859
:1047F0000C008DF80D0008208DF80E0000208DF8BB
:104800000F0000218DF81010210A8DF811108DF87D
:10481000124000218DF813108DF814108DF815102A
:104820008DF8161001A93046FDF739F84FF40070E5
:10483000019000208DF80F0000218DF810108DF8E8
:1048400011108DF81210290A8DF813108DF81450DC
:1048500000218DF815108DF8161001A93046FDF7CE
:104860001EF806B070BD0000152803D10021094ACA
:1048700011600DE0084931F81010064A083A11603D
:10488000054A32F8101001EBD1725210014B1A6038
:104890007047000034180040BC82000810B50024A6
:1048A00008E02146641C054A505CFFF7DDFFC82084
:1048B00002F0FAFE042CF4DB10BD0000E6820008D2
:1048C0000DE00920FFF7D0FF4FF47A7002F0ECFE04
:1048D0001520FFF7C9FF4FF47A7002F0E5FEF0E70C
:1048E0007047000010B51548006840F47000134987
:1048F00008601348006840F001001149086000207A
:104900000F49083108600E4800680E4908400C49FC
:1049100008600D48091D0860081F006820F4802009
:10492000091F0860002006490C310860FFF7B4FE3B
:104930004FF0006001498039086010BD88ED00E04B
:1049400000380240FFFFF6FE1030002410B50121B0
:10495000880700F0B3F838B10121880700F09FF80C
:104960000121880700F098F810BD0EB50121084616
:10497000FFF7B6FB4FF0FF3001905320ADF8000079
:104980000020ADF80800ADF802000121880700F012
:1049900077F869464FF0804000F0F2F8012188076F
:1049A00000F080F80EBD000010B501210B4800F0AA
:1049B00085F8012810D10121084800F070F8012184
:1049C000064800F069F80D2205490648FBF7DCFEB1
:1049D0000D21044802F020FE10BD0000000400403C
:1049E000580800206808002010B50121074800F091
:1049F00065F848B10121054800F051F8012103484C
:104A000000F04AF8FDF7A6F810BD000000100040C5
:104A10001FB501211020FFF763FB36208DF8000041
:104A200001208DF8010000208DF8020001208DF892
:104A300003006846FFF774FA5320ADF80400002025
:104A4000ADF80600ADF80C0040F2DC50029001A970
:104A5000014800F095F81FBD0010004010B501217D
:104A6000064800F01FF801221146044800F037F80C
:104A70000121024800F010F810BD000000100040B5
:104A800021B1028842F08002028004E002884FF6E1
:104A90007F731A4002807047CA4302827047CA433C
:104AA0000282704721B1028842F00102028004E0D4
:104AB00002884FF6FE731A400280704730B50246F6
:104AC000002000230024158A05EA0103958905EAE0
:104AD000010413B10CB1012000E0002030BD1AB177
:104AE00083890B43838102E083898B4383817047F1
:104AF00070B5002400220023058C4FF6FE76354069
:104B00000584028C8388048B4FF68F752C40B51E6C
:104B10002C400D882C43751E2A408D892A434D88D0
:104B20002A43104DA84202D00F4DA84213D14FF690
:104B3000F7752A40CD892A434FF6FB752A408D88A8
:104B40002A434FF6FF652B404FF6FF552B400D8A49
:104B50002B434D8A2B43838004838D6845630284F5
:104B600070BD000000000140000401400A46002121
:104B7000018B4FF6F7731940114301837047000012
:104B800000220288184B98420ED0184B98420BD046
:104B9000B0F1804F08D0164B984205D0154B984283
:104BA00002D0154B984204D14FF68F731A404B88B0
:104BB0001A43124B984207D0114B984204D04FF63B
:104BC000FF431A400B891A4302804B68C3620B886B
:104BD0000385054B984202D0044B984201D18B7A51
:104BE00003860123838270470000014000040140D6
:104BF0000004004000080040000C0040001000408D
:104C00000014004010B50446214605480068FBF733
:104C1000D2FB012240F22771024800F05EFB10BD7A
:104C2000740200200014014000B595B040F22551F7
:104C3000364800F028FB002865D0344800F09EFA82
:104C4000032002F031FD01218805FFF739FA3048D1
:104C500002900020ADF80C00ADF80E004FF480601B
:104C6000ADF810000420ADF812000020ADF81400DB
:104C700002A9264800F056FB0121244800F068FAFA
:104C800001224021214800F06FFA3A208DF80400FB
:104C900000208DF8050001208DF806008DF8070032
:104CA00001A8FFF73DF91B48FDF75CFB4FF00060E2
:104CB00006901648001D079017480890002009909C
:104CC00012200A9000200B904FF480600C9000207E
:104CD0000D900E904FF480700F904FF44030109074
:104CE0000020119012901390149006A90948FDF726
:104CF00035FC012210210748FDF712FC012105486F
:104D0000FDF724FB00BF15B000BD000000100140FE
:104D1000A086010040640240D908002000B595B08B
:104D200040F22551354800F0AEFA002864D03348EF
:104D300000F024FA032002F0B7FC01214805FFF738
:104D4000BFF94FF4E13002900020ADF80C00ADF84F
:104D50000E00ADF810000C20ADF812000020ADF8E8
:104D6000140002A9254800F0DDFA0121234800F0D3
:104D7000EFF901224021214800F0F6F910208DF8CA
:104D8000040002208DF805008DF8060001208DF842
:104D9000070001A8FFF7C4F81948FDF7E3FA4FF040
:104DA000006006901548001D0790164808900020E6
:104DB00009904FF47A700A9000200B904FF48060B5
:104DC0000C9000200D900E904FF480700F90000218
:104DD00010900020119012901390149006A908488A
:104DE000FDF7BCFB012210210548FDF799FB0121CD
:104DF0000348FDF7ABFA00BF15B000BD004400400A
:104E0000886002404804002010B540F225511D483A
:104E100000F039FA10B31B4800F0EEFAC4B21A4899
:104E2000008800F40040C8B91748008800F48040AA
:104E300060B10A2C03D000201349088020E01248FA
:104E4000008840F400401049088019E00D2C06D17C
:104E50000D48008840F480400B49088010E00A4863
:104E60000088C0F30D0009490C5407480088401C15
:104E70000549088008460088C72801DD0020088011
:104E800010BD00000048004070020020F208002021
:104E900010B588B0044601210820FFF711F901215F
:104EA0008804FFF71DF9072208212348FDF7DEFDDE
:104EB000072209212048FDF7D9FD4FF440700690E4
:104EC00002208DF81C0003208DF81D0000208DF8B5
:104ED0001E0001208DF81F0006A91748FDF77EFD72
:104EE00002940020ADF80C00ADF80E00ADF81000F3
:104EF000ADF814000C20ADF8120002A90F4800F024
:104F000011FA01210D4800F023F9012240F2255148
:104F10000A4800F0E2F927208DF8040003208DF8FC
:104F200005008DF8060001208DF8070001A8FEF7A6
:104F3000F7FF08B010BD0000000C02400048004020
:104F400010B588B0044601214020FFF7B9F80121CF
:104F50002020FFF7E5F808220E212648FDF786FD00
:104F6000082209212348FDF781FD4FF48440029077
:104F700002208DF80C0000208DF80E0003208DF823
:104F80000D0000208DF80F0002A91A48FDF726FD3C
:104F900004940020ADF81400ADF81600ADF8180028
:104FA0000C20ADF81A000020ADF81C0004A912482E
:104FB00000F0B8F9012240F225510F4800F08DF9B8
:104FC00001210D4800F0C4F847208DF804000020AE
:104FD0008DF805008DF8060001208DF8070001A866
:104FE000FEF79EFF6420FBF77FF90449086008B0D4
:104FF00010BD00000018024000140140740200209F
:1050000010B540F22771494800F03DF9A8B1484871
:105010000068FBF746FB48B945480068FBF753FAC0
:1050200004462146414800F0ECF97DE0002240F2C0
:1050300027713E4800F051F976E040F225513B4897
:1050400000F021F900286FD0384800F0D5F9C4B23B
:1050500038480078092861D2DFE800F005111D25E5
:105060002D353D4551000A2C05D132480078401CB1
:105070003049087002E000202E49087052E00D2CE3
:1050800005D12C480078401C2A49087002E0002015
:105090002849087046E027480078401C25490870D8
:1050A000254804703EE023480078401C21490870E0
:1050B0002148447036E01F480078401C1D490870A4
:1050C0001D4884702EE01B480078401C1949087068
:1050D0001948C47026E017480078401C154908702C
:1050E000154804711EE00D2C05D112480078401CB3
:1050F0001049087002E000200E49087012E00A2CE6
:1051000008D10D4800F082F90C480068C0430C49F2
:10511000C1F8840200200749087003E00020054917
:10512000087000BF00BF00BF10BD000000140140A8
:105130007402002078020020BA0900208402434251
:105140000000434210B504462046FFF7F9FE10BDAB
:1051500021B1828942F40052828104E082894DF6B5
:10516000FF731A40828170471AB1838A0B4383828E
:1051700002E0838A8B4383827047000010B50446A7
:105180003248844208D101211020FEF7D9FF0021C6
:105190001020FEF7D5FF57E02D48844209D10121A8
:1051A0004804FEF7ADFF00214FF40030FEF7A8FFE2
:1051B0004AE02848844209D101218804FEF7A0FF73
:1051C00000214FF48020FEF79BFF3DE022488442FF
:1051D00009D10121C804FEF793FF00214FF40020FC
:1051E000FEF78EFF30E01D48844209D101210805F9
:1051F000FEF786FF00214FF48010FEF781FF23E0C9
:105200001748844208D101212020FEF799FF002190
:105210002020FEF795FF17E01248844209D10121B2
:105220008807FEF76DFF00214FF08040FEF768FF12
:105230000AE00D48844207D101214005FEF760FFD6
:1052400000216005FEF75CFF10BD0000001001406A
:105250000044004000480040004C00400050004026
:105260000014014000780040007C0040024600200D
:10527000B1F5007F00D100BF13880B400BB10120B6
:1052800000E00020704770B502460024002300258E
:10529000002040F66A16B14200D100BFC1F34215AA
:1052A00001F01F03012606FA03F3012D02D19689AE
:1052B000334006E0022D02D1168A334001E0968A7F
:1052C00033400C12012606FA04F41688344013B158
:1052D0000CB1012000E0002070BDF0B503460024B1
:1052E00000260025002040F66A17B94200D100BF11
:1052F0001846C1F3421401F01F06012707FA06F50C
:10530000012C01D10C3004E0022C01D1103000E05E
:1053100014301AB107682F43076002E00768AF43F3
:105320000760F0BD2DE9FF4705460E460024A14663
:1053300000BFA046B08900B100BF2C8A24F44054BD
:10534000F08804432C82AC8941F20C608443B0881D
:1053500031890843718908430443AC81AC8A24F441
:105360004074B0890443AC826846FEF7F9FE2048D9
:10537000854202D01F48854202D1DDF80C9001E041
:10538000DDF80890A88900F4004040B109EBC9009D
:1053900000EB091031684900B0FBF1F707E009EBB9
:1053A000C90000EB091031688900B0FBF1F76420F7
:1053B000B7FBF0F004012009642101FB1078A889F3
:1053C00000F4004040B1322000EBC800B0FBF1F027
:1053D00000F00700044308E0322000EB08106421CD
:1053E000B0FBF1F000F00F0004432C81BDE8FF8713
:1053F000001001400014014001468888C0F30800F5
:105400007047C1F3080282807047000010B52DED8F
:10541000028B0446B4F9010008EE100AB4F9030047
:1054200008EE900A4E480078002879D020780A28A3
:1054300077D2DFE800F084051A2F3368777B7F800E
:10544000B8EEC80ADFED470A20EE200A464880ED94
:10545000010AB8EEE80ADFED430A20EE200A80EDEB
:10546000020A0220404948706AE0B8EEC80ADFED3F
:105470003F0A20EE200A3C4880ED010AB8EEE80A17
:10548000DFED3A0A20EE200A80ED020A01203649BB
:10549000487055E000203449487051E001203249FD
:1054A000087033480169884732480068A0F57A706F
:1054B00000EE900AB8EEE01ADFED2F0A41EE000A86
:1054C000BCEEE00A10EE100A2C4908602848016979
:1054D000884728480068A0F57A7000EE900AB8EE78
:1054E000E01ADFED250A41EE000ABCEEE00A10EEFC
:1054F000100A2249091D08601D48016A884708B141
:10550000FEF78CFF1CE00020174908704FF47A70FA
:105510001A490860091D08601548816988470FE02D
:105520000FE00CE00120FFF753F909E00020FFF73E
:105530004FF905E004E00020FFF73EF900E000BF6E
:105540000AE0207818B90120FFF736F904E0207846
:105550000F2801D1FEF76EFFBDEC028B10BD0000DD
:10556000540200200AD7233C3C0400206F12833AE7
:10557000200200205002002000007A44340C004039
:1055800000BFFEE710B521480078214908701F4888
:105590000078062837D2DFE800F0030C0D1B222329
:1055A0001C480068B0F57A6F02D9012017490870CD
:1055B00029E028E0FDF790FA10B90120134908709E
:1055C000FDF7C2FA012802D10320104908701AE041
:1055D000FDF7BAFA10B901200C49087013E012E087
:1055E000FDF76CFA012804D0012008490870FEF785
:1055F0001BFFFDF771FA012804D10220034908704E
:10560000FEF712FF00BF00BF10BD0000BD0100206B
:10561000BC0100200C0200200FB4054B10B503A9FB
:10562000044A029801F058FC10BC5DF814FB00001D
:10563000DD7600086C02002003B401984100009858
:1056400050EAC12018BF04204A0D18BF40F00100E5
:1056500040F2FF72B2EB515F08BF40F00200012838
:1056600008BF052002B0704770B5C1482DED020B90
:105670002DED0E8B82B0119D25F000449FEDBEDB19
:105680009FEDBFEB84423EDBA4F140511098A1F1A5
:105690007F6108430FD0BC48844202DC28D11098B7
:1056A00030B39DED100B02B0BDEC0E8B02B0BDE827
:1056B000704001F0F5BA9DED100B53EC1D2B51EC31
:1056C000100BFBF773F89DED100B41EC180B53EC2E
:1056D0001E2B51EC100BFBF769F853EC182BFBF762
:1056E0000AFA41EC100B02B0BDEC0E8B02B070BD9B
:1056F000012001F029FB02B0BDEC0E8B02B0BDE829
:10570000704001F0E1BAA1489FEDA18B844256DAC6
:105710009DED100BB4F1795F0ADA51EC100BFFF735
:105720008BFF042808BF01F0EFFA9DED100BDAE7BC
:1057300053EC102B51EC100BFBF738F841EC190B24
:1057400095480621B0EE490AF0EE690A784401F066
:1057500010FA53EC192B51EC100BFBF727F841EC26
:105760001A0B8E48B0EE490AF0EE690A042178441B
:1057700001F0FFF953EC192B51EC100BFBF716F865
:1057800053EC182BFBF7B7F941EC100B51EC1A0B4B
:1057900053EC102BFBF756FACDE900019DED000B01
:1057A00053EC102B9DED100B51EC100BFAF7FEFF94
:1057B0009DED101B53EC112BFBF79DF9D2E09DEDF5
:1057C000100B51EC100B01F07DFF53EC182BFBF785
:1057D00036FA9FED730BCDE9000153EC102B9DEDD4
:1057E000000B51EC100BFAF7E1FF41EC190B6E487E
:1057F0000621B0EE490AF0EE690A784401F0B9F9E1
:1058000053EC192B51EC100BFAF7D0FF41EC1B0BAA
:105810006648B0EE490AF0EE690A0421784401F0C6
:10582000A8F953EC192B51EC100BFAF7BFFF53EC0E
:10583000182BFBF760F941EC1C0B51EC190B02F033
:1058400085FB41EC180B5A489FED5BABA04222DC74
:1058500053EC1C2B51EC1B0BFBF7F4F9CDE90001C9
:105860009DED000B51EC180B53EC102BFAF79EFF3B
:1058700053EC182BFBF73FF953EC1A2BFAF796FF72
:1058800053EC1D2BFBF7D8F953EC1E2BFBF7D7F984
:1058900041EC100B5FE08DED008B002000909DED42
:1058A000000B51EC180B53EC102BFBF724F99DED7A
:1058B000000B41EC1E0B53EC102B51EC100BFAF7C4
:1058C00075FF53EC192BFBF7BAF953EC1E2BFBF7C2
:1058D000B9F941EC190B53EC1C2B51EC1B0BFBF7EA
:1058E000B1F941EC1B0B53EC1A2B51EC190BFAF7E5
:1058F0005DFF53EC1D2BFBF7A2F941EC190B53ECA8
:105900001A2B51EC180BFAF751FF53EC1B2BFAF73B
:105910004DFF53EC192BFBF78FF99DED000B41EC7C
:10592000180B53EC1A2B51EC100BFAF73FFF9FEDBD
:10593000249B53EC192BFBF782F941EC100B51EC33
:10594000180B53EC102BFBF777F953EC192BFBF7E3
:1059500076F941EC100B002D3FF7C5AE51EC100B62
:1059600081F0004141EC100BBDE60000000000009A
:105970000000F03F00000000075C143326A6913CB5
:10598000182D4454FB21F93F0000F07F0000E03F58
:10599000000000000000F03FB02B0000BE2B000014
:1059A000000000000000E03F022B0000102B000070
:1059B0003333EF3F00000000000000000000004013
:1059C000182D4454FB21E93F70B59B482DED020B87
:1059D0002DED068B079D25F00044A04218DC97486A
:1059E000844202DC0AD1069840B19DED060BBDEC65
:1059F000068B02B0BDE8704001F052B9002DCCBF5B
:105A00009FED8F0B9FED900BBDEC068B02B070BD30
:105A10008F48A04215DD8F48A042D8BF4FF0FF3419
:105A200058DD9DED060B51EC100BFFF705FE042829
:105A300008BF01F069F99DED060BBDEC068B02B0C5
:105A400070BD9DED060B51EC100B01F03BFECDE956
:105A5000060181489FED828BA0423CDD8248A04236
:105A60001FDD00249FED82AB9DED060B53EC1A2B3E
:105A700051EC100BFBF73FF89DED060B41EC190BB9
:105A800053EC1A2B51EC100BFAF790FE53EC182B39
:105A9000FBF7D2F853EC192BFBF7D4F8CDE906014C
:105AA00049E09DED060B012453EC182B51EC100B33
:105AB000FBF721F89DED060B41EC190B53EC182B6D
:105AC00051EC100BFBF7B8F853EC192BFBF7BAF8B5
:105AD000CDE906012FE06848A0421FDD02249FEDBA
