:020000040800F2
:10000000601C0020C101000875360008C92B0008DB
:100010000D3400084911000871510008000000006B
:10002000000000000000000000000000AD3E0008DD
:10003000D5200008000000001538000845430008DE
:10004000DB010008DB010008DB010008DB01000820
:10005000DB010008DB010008DB010008DB01000810
:10006000D9200008DB010008DB010008DB010008E3
:10007000DB010008DB010008DB010008DB010008F0
:10008000DB010008DB010008DB010008A112000809
:1000900065120008DB010008DB010008DB01000835
:1000A000DB010008DB010008DB010008DB010008C0
:1000B000DB010008DB0100086D440008DB010008DB
:1000C000DB010008DB010008DB010008DB010008A0
:1000D000DB01000801480008F5480008294A00082B
:1000E000DB010008DB010008DB010008DB01000880
:1000F000DB010008DB010008DB010008DB01000870
:10010000DB010008DB010008DB010008DB0100085F
:10011000DB010008DB010008A5440008DB01000842
:10012000DB010008DB0100081D1D0008DB010008E1
:10013000DB010008DB010008DB010008F513000803
:10014000CD130008DB010008DB010008DB0100081B
:10015000DB010008DB010008DB010008214C00087E
:10016000DB010008DB010008DB010008DB010008FF
:10017000DB010008DB010008DB01000800000000D3
:10018000DB010008DB010008DB010008DB010008DF
:10019000DB010008DB010008DB010008DB010008CF
:1001A0000000000000000000DB010008DFF80CD0B8
:1001B00000F032FE00480047B17F0008601C0020BC
:1001C0000648804706480047FEE7FEE7FEE7FEE7F1
:1001D000FEE7FEE7FEE7FEE7FEE7FEE7494300082D
:1001E000AD01000810B5044600BF00BF00BF00BF4E
:1001F000002CFDD000BF00BF00BF0029FDD000BF14
:1002000000BF00BF002AFDD000BF00BF00BF002B11
:10021000FDD000BF72B6216002FB0310401E60607B
:10022000A3600020E06022746161A16162B60020D9
:1002300010BD2DE9F04104460D460026002700BF01
:1002400000BF002CFDD000BF00BF00BF002DFDD0BF
:1002500000BF1C2007F0CEFE064616B90020BDE800
:10026000F08104FB05F007F0C5FE07460FB900203A
:10027000F5E72B46224639463046FFF7B3FF3046B6
:10028000EDE710B5044600BF00BF002CFDD000BF55
:1002900000BF00BF20680028FCD000BF206806F027
:1002A0003BFB204606F038FB10BD034600BF00BFF5
:1002B00000BF00BF002BFDD000BF00BF00BF002962
:1002C000FDD000BF00BF00BF002AFDD000BF72B646
:1002D00019608818401E58609A600020D860196123
:1002E000596162B60020704770B5044600250026AB
:1002F00000BF00BF002CFDD000BF182007F07AFE21
:1003000005460DB9002070BD204607F073FE064675
:100310000EB90020F7E7224631462846FFF7C5FF11
:100320002846F0E710B5044600BF00BF002CFDD002
:1003300000BF00BF00BF20680028FCD000BF2068BD
:1003400006F0EAFA204606F0E7FA10BD30B502469C
:1003500000230C4600BF00BF00BF00BF002AFDD035
:1003600000BF00BF00BF0029FDD000BF906810B9DA
:100370004FF0FF3030BD002310E055689069A8426F
:1003800001D91068906114F8010B9569287072B654
:100390009069401C906162B6581CC3B2107C9842B0
:1003A000EBDC72B69068401E9060D068401CD06054
:1003B00062B60020DEE7024600BF00BF00BF00BFFC
:1003C000002AFDD000BF906810B94FF0FF30704791
:1003D00072B650695368984201D9106850615069EB
:1003E00001705069401C50619068401E9060D06858
:1003F000401CD06062B60020E9E770B503460C46A9
:10040000002500BF00BF00BF00BF002BFDD000BF14
:10041000986810B94FF0FF3070BD002119E098685E
:1004200010B94FF0FF3516E072B65E685869B042F9
:1004300001D918685861605C5E6930705869401C69
:1004400058619868401E9860D868401CD86062B6B1
:10045000491C9142E3D300BF2846DDE730B5024690
:1004600000230C4600BF00BF00BF00BF002AFDD024
:1004700000BF00BF00BF0029FDD000BFD06810B989
:100480004FF0FF3030BD002310E055685069A8429E
:1004900001D9106850615069007804F8010B72B6F8
:1004A0005069401C506162B6581CC3B2107C98421F
:1004B000EBDC72B69068401C9060D068401ED06043
:1004C00062B60020DEE70146002000BF00BF00BF8B
:1004D00000BF0029FDD000BF72B60A694B689A427E
:1004E00001D90A680A610A6910780A69521C0A610E
:1004F0008A68521C8A60CA68521ECA6062B6704717
:1005000070B5024600230C4600BF00BF00BF00BF0D
:10051000002AFDD000BF00BF00BF0029FDD000BFF2
:10052000D06810B94FF0FF3070BD72B6167CD0683D
:10053000401E556906FB00501568451BD2E9006056
:10054000801B401CB5FBF0F600FB165015682844D4
:100550005061D2E90250401E284490600120D060D2
:1005600062B6002310E055685069A84201D91068AE
:1005700050615069007804F8010B72B65069401C54
:10058000506162B6581CC3B2107C9842EBDC72B664
:100590009068401C9060D068401ED06062B6002019
:1005A000C2E710B50146002000BF00BF00BF00BF7A
:1005B0000029FDD000BF72B6D1E903321A44521EA1
:1005C0000B68D31AD1E90042121B521CB3FBF2F4A0
:1005D00002FB14320B681A440A610A691078D1E9E7
:1005E00002231A448A600022CA6062B610BD70B548
:1005F00003460C46154600222E46002100BF00BFD0
:10060000002BFDD000BF00BF00BF002DFDD000BFFC
:10061000D868A04202D84FF0FF3070BD596900225F
:1006200006E05868884200D21968491C501CC2B2C2
:10063000187C60439042F4DC002209E0586888424C
:1006400000D21968087806F8010B491C501CC2B288
:10065000187C9042F2DC0020DFE710B502460B4622
:100660000024002100BF00BF002AFDD000BF116997
:10067000002406E05068884200D21168491C601CC2
:10068000C4B29C42F6DB087810BD014600BF00BF33
:100690000029FDD000BFC86808B9012070470020BC
:1006A000FCE7014600BF00BF0029FDD000BFC868BD
:1006B00008B9012070470020FCE7014600BF00BFD9
:1006C0000029FDD000BF886808B9012070470020CC
:1006D000FCE7014600BF00BF0029FDD000BF8868CD
:1006E00008B9012070470020FCE7014600BF00BFA9
:1006F0000029FDD000BFC8687047014600BF00BF99
:100700000029FDD000BFC8687047014600BF00BF88
:100710000029FDD000BF88687047014600BF00BFB8
:100720000029FDD000BF88687047014600BF00BFA8
:1007300000BF00BF0029FDD000BF72B6D1E9002084
:10074000801A0A7C90FBF2F088600020C86008687C
:1007500048610868886162B600207047014600BFA2
:1007600000BF00BF00BF0029FDD000BF72B6D1E9B5
:100770000020801A88600020C86008680861086846
:10078000486162B60020704740EA01039B0703D02E
:1007900009E008C9121F08C0042AFAD203E011F8C0
:1007A000013B00F8013B521EF9D270472DE9FE4F84
:1007B000804681EA0300C00F0C46009021F0004102
:1007C00023F00045B8EB0200A94105D2404621467E
:1007D00090461C460B46024623F00040104347D08B
:1007E000270DC7F30A00C3F30A510290401A019083
:1007F00040286BDAC3F3130040F4801B0098924644
:1008000020B10023D2EB030A63EB0B0B019859468E
:10081000C0F14002504600F0E0F906460D46504651
:100820005946019A00F0E8F910EB080061410024F4
:1008300087EA115284EAE7731A4340D0009A62B300
:10084000019A012A4FEA075215DC001B61EB0201F5
:100850004FF0004202EA0752CDE90042001C41F588
:10086000801132462B4600F01FFA03B0BDE8F08F2E
:1008700040462146F9E7001B61EB0201001C41F5EF
:10088000801300185B412018A2F5001747EB030105
:1008900040EAD570B6196D4111E06D084FEA360691
:1008A00045EAC0754FEA0752001B61EB0201001CCC
:1008B00041F5801149084FEA300000195141324694
:1008C0002B4603B0BDE8F04F00F0DFB900980122DD
:1008D00040000023D0EB020263EBE0730098214656
:1008E0004FEAE074B8EB000061EB0401E9E783F044
:1008F00000435BE781F0004158E72DE9FE4F81EAB4
:10090000030404F0004421F0004100944FF0000B78
:1009100023F0004350EA01045ED052EA03045BD0A6
:10092000C3F30A54C1F30A552C44A4F2F3340194DE
:10093000A0FB0254C1F3130141F48011C3F313036C
:1009400043F4801301FB024400FB034E840A970A20
:1009500044EA815447EA8357A4FB076802958D0A4D
:1009600005FB07854FEA932C04FB0C542705029DD9
:100970004FEA065847EA1637B5EB08056EEB070C49
:10098000870E920E47EA811742EA8312A7FB020103
:10099000B6EB0B0164EB00042B0D43EA0C335E183D
:1009A00044EB1C50DA465146E7FB0201C5F3130441
:1009B0004FEA0B3343EA14534FEA0432019C43EAF3
:1009C0000603A4F10C040294009CCDE900B400F0ED
:1009D0006BF903B0BDE8F08F00200146F9E72DE97F
:1009E000F04D81EA030404F0004B21F00045144669
:1009F0004FF0000A23F0004150EA050220D054EAEB
:100A000001021DD0C5F30A570246C5F31303C1F313
:100A10001300C1F30A5640F4801543F48013A7EB8A
:100A20000608101BD64608F2FD3873EB050002D30A
:100A300008F1010801E092185B41B8F1000F03DAF8
:100A400000200146BDE8F08D00204FF480110646DD
:100A500084460EE0171B73EB050705D3121B63EBEF
:100A6000050306434CEA010C49084FEA300092188E
:100A70005B4150EA0107EDD152EA030012D082EA4D
:100A8000040083EA0501084305D0101BAB4106D2E0
:100A90000122002306E000224FF0004302E06FF045
:100AA000010253101AEB06004CEB085110EB0A0040
:100AB00041EB0B01BDE8F04D00F0E7B800F000425B
:100AC00030F000400AD0C10D01F56071C0F316008E
:100AD00042EA0151C2084007114370470020014615
:100AE0007047000030B5041E71F1000404DB4FF0C4
:100AF0000044404264EB0101141E73F1000405DB65
:100B00001C464FF00043524263EB0403994208BF76
:100B1000904230BD01F0004330B421F0004150EA72
:100B2000010206D00A0DA2F56072C1F31301002A7A
:100B300002DC30BC00207047440F44EAC104C1000D
:100B4000E01830BC00EBC25000F068B830B50B467E
:100B5000014600202022012409E021FA02F59D42ED
:100B600005D303FA02F5491B04FA02F52844151EC1
:100B7000A2F10102F1DC30BD2DE9F05F0546002055
:100B800092469B4688460646814640241BE02846FE
:100B900041464746224600F051F953465A46C01A8C
:100BA000914110D311461846224600F016F82D1A2E
:100BB00067EB01084F4622460120002100F00DF8A6
:100BC00017EB00094E41201EA4F10104DFDC48466A
:100BD00031462A464346BDE8F09F202A04DB203AEE
:100BE00000FA02F1002070479140C2F1200320FA80
:100BF00003F3194390407047202A06DBCB17203AB5
:100C000041FA02F043EAE07306E041FA02F3D04011
:100C1000C2F1200291400843194670470029A8BF3D
:100C20007047401C490008BF20F00100704710B415
:100C3000B0FA80FC00FA0CF050EA010404BF10BCCA
:100C4000704749B1CCF1200421FA04F411FA0CF1F7
:100C500018BF012121430843A3EB0C01CB1D4FEA30
:100C600000614FEA102042BF002010BC704700EB2B
:100C7000C35010440029A4BF10BC7047401C490059
:100C800008BF20F0010010BC704710B5141E73F1AE
:100C9000000408DA401C41F1000192185B411A433C
:100CA00001D120F0010010BD2DE9F04D92469B4688
:100CB00011B1B1FA81F202E0B0FA80F2203290462E
:100CC000FFF78BFF04460F4640EA0A0041EA0B019A
:100CD00053465A46084313D0114653EA010019D02F
:100CE000C8F14002504600F0A9F805460E465046AD
:100CF00059464246FFF771FF084305D0012004E042
:100D000020463946BDE8F08D0020054346EAE076EE
:100D10002C4337430A986305E40AA0EB080000223D
:100D2000FD0A44EA47540A3002D500200146E9E7AB
:100D3000010510196941DDE9084500196941BDE85F
:100D4000F04DA2E72DE9F04D00231A461B1A8A4107
:100D500003DB00200146BDE8F08DC1F30A52C1F368
:100D6000130141F480154FF0000BD10702D1001898
:100D70006D41521E0027044640F2FF11384601EB38
:100D8000620A3E468046024600204FF4801100F081
:100D900055F8C2197141BB1846EB0100B4EB030CC6
:100DA00075EB000C04D3E41A65EB000517460E46FC
:100DB000241908F101006D4180463428E3DDF9195A
:100DC00046EB0600091BA84103D24FF0FF32134641
:100DD00001E0002213461BEB070046EB0A51BDE879
:100DE000F04DFFF752BFC1F30A52C1F3130140F2B5
:100DF000FF3341F480119A4202DA00200146704725
:100E000040F233439A42A2F2334202DC524200F0F3
:100E100015B8FFF7E2BE0000064C074D06E0E0689B
:100E200040F0010394E8070098471034AC42F6D331
:100E3000FFF7C0F9B0950008D0950008202A04DB20
:100E4000203A21FA02F00021704721FA02F3D04043
:100E5000C2F12002914008431946704770B58C18C2
:100E600010F8015B15F0070301D110F8013B2A11BE
:100E700006D110F8012B03E010F8016B01F8016BAB
:100E80005B1EF9D12B0705D40023521E0DD401F8A7
:100E9000013BFAE710F8013BCB1A921C03E013F870
:100EA000015B01F8015B521EF9D5A142D8D30020A5
:100EB00070BD21B1826842F00102826003E0826865
:100EC00022F00102826070470021084A1168084A36
:100ED0001140D0E900231A4383681A43C3681A43B8
:100EE0001143044AC2F80413704700000423014070
:100EF000E030FCFF0020014030B502460020002316
:100F00005068104C20400D790C6844EA05242043B9
:100F1000506090680C4C2040D1E903542C438D68FC
:100F20002C434D7944EA450420439060D06A20F474
:100F300070000C7D641EE4B2234340EA0350D0628B
:100F400030BD0000FFFEFFFCFDF7FFC0F0B504461A
:100F50000D4600200021092D11DDE068A5F10A06EB
:100F600006EB4607072606FA07F18843A5F10A06AD
:100F700006EB460603FA06F10843E0600CE0206940
:100F800005EB4507072606FA07F1884305EB4506FA
:100F900003FA06F108432061072A0FDA606B561E38
:100FA00006EB86071F2606FA07F18843561E06EB56
:100FB000860605FA06F10843606322E00D2A0FDA7F
:100FC000206BD61F06EB86071F2606FA07F188431B
:100FD000D61F06EB860605FA06F10843206310E0EB
:100FE000E06AA2F10D0606EB86071F2606FA07F156
:100FF0008843A2F10D0606EB860605FA06F10843C2
:10100000E062F0BD38B10849096841F40001074ABF
:10101000C2F8041306E00449096821F40001034AF8
:10102000C2F804137047000004230140002001406F
:1010300000B58BB00121402002F086FC0121802008
:1010400002F072FC092206211F4801F081FC4020B9
:10105000099002208DF8280003208DF82900002037
:101060008DF82A0001208DF82B0009A9164801F0FF
:1010700027FC5320ADF818000020ADF81A0001201D
:1010800007900020ADF8200006A9104803F048FBA7
:101090006020ADF804000120ADF806000020ADF896
:1010A000100001A9094803F08DFA0821074803F050
:1010B000C7FA0121054803F041FA0121034803F072
:1010C0004FFA0BB000BD0000001C024000180040A9
:1010D00010B5FFF7ADFF03F0FFF810BD10B500F03D
:1010E00071FD01F0D5F801F06BFD642005F0DEFB29
:1010F00005F0AEFE03F0EAF900F028F800F0DEF8A3
:1011000000F08EFF03F008FA10BD10B54FF4A06098
:1011100002F0EEFA02F006F802F060F8FFF7D8FFEE
:10112000642005F0C3FB4FF4E13003F027FC4FF4DB
:10113000E13003F0BDFC4FF4E13003F013FE02F0A8
:10114000DBFD07F011F810BD00BFFEE700B58BB066
:101150000121082002F0E8FB0121480602F0F4FB1F
:10116000092200213D4801F0F3FB092201213B48FF
:1011700001F0EEFB0320029000208DF80E0003200A
:101180008DF80D0002208DF80C0002A9334801F003
:1011900097FB14208DF8040001208DF805008DF8D0
:1011A00006008DF8070001A802F066FA13208DF8FA
:1011B000040000208DF8050001208DF806008DF850
:1011C000070001A802F058FA254800F091F908A894
:1011D00000F0C9FB00208DF826008DF827008DF85F
:1011E00028008DF829008DF82A0001208DF82B00A9
:1011F00000208DF822008DF8230008208DF82400AF
:1012000003208DF82500ADF8200008A9144800F04F
:10121000A8FA00208DF81A008DF81B0001208DF827
:101220001C000020ADF81000ADF81200ADF814005D
:10123000ADF81600ADF8180001208DF81D0004A8C7
:1012400000F072F901220221054800F081FA012222
:101250001146034800F07CFA0BB000BD000C0240C0
:101260000064004000B585B002210B4800F0E0F9B1
:1012700078B10421084800F0E7F80849064800F072
:10128000C7F86A460021044800F0F5FA684600F005
:101290000DFC05B000BD00000064004008000032F5
:1012A00010B50121044800F0C3F918B1012102482A
:1012B00000F0CAF810BD00000064004000B58BB01B
:1012C0000121022002F030FB0121880602F03CFBE4
:1012D00009220C213B4801F03BFB09220D21394832
:1012E00001F036FB4FF44050029002208DF80C00C4
:1012F00002A9344801F0E4FA40208DF804000220ED
:101300008DF8050001208DF806008DF8070001A872
:1013100002F0B2F93F208DF8040001208DF805009D
:101320008DF806008DF8070001A802F0A5F92648FF
:1013300000F0DEF808A800F016FB00208DF826006B
:101340008DF827008DF828008DF829008DF82A00E7
:1013500001208DF82B0000208DF822008DF823004D
:1013600008208DF8240003208DF82500ADF820001A
:1013700008A9154800F0F5F90E208DF81A00002094
:101380008DF81B0001208DF81C000020ADF8100026
:10139000ADF81200ADF81400ADF81600ADF8180065
:1013A00001208DF81D0004A800F0BEF801220221E2
:1013B000054800F0CDF901221146034800F0C8F9B4
:1013C0000BB000BD000402400068004000B585B0CD
:1013D0000221074800F02CF940B10221044800F036
:1013E00033F86A460021024800F045FA05B000BD16
:1013F0000068004010B50121044800F019F918B147
:101400000121024800F020F810BD000000680040F3
:1014100000220C4B994202D10023836111E0C1F3F9
:10142000130201F000730BB1C2600AE001F08063A7
:101430000BB1026105E001F000630BB1826000E0D6
:10144000426070477000F030B1F5007F3AD00FDC99
:10145000202928D006DC01291CD004291DD0082908
:1014600040D11DE0402921D0B1F5807F3AD126E05E
:10147000B1F5004F31D006DCB1F5806F25D0B1F564
:10148000006F2FD124E0B1F5803F12D0B1F5003FBD
:1014900028D111E0154A826025E00822C26022E0CE
:1014A0001022C2601FE0082202611CE010220261CB
:1014B00019E00822426016E01022426013E0042284
:1014C000426010E0042242600DE0042242600AE023
:1014D000002282610422426005E00022826104222F
:1014E000426000E000BF00BF704700000101010042
:1014F00010B504460B48844209D10121480602F088
:1015000033FA00214FF0007002F02EFA08E00121BA
:10151000880602F029FA00214FF0806002F024FAD8
:1015200010BD00000064004010B50021837A012244
:1015300002FA03F13D4A126842F001023B4B1A6085
:101540003A4A1C3212688A43384B1C331A60027BB9
:10155000CAB9364A0C3212688A43344B0C331A60CB
:101560004288C38842EA0343304A4032847A42F8D0
:1015700034300288838842EA03432C4A4032847A1A
:1015800002EBC4025360027B012A19D1274A0C32B4
:1015900012680A43254B0C331A604288038842EADA
:1015A0000343224A4032847A42F83430C288838826
:1015B00042EA03431D4A4032847A02EBC40253607C
:1015C000C27A3AB9194A121D12688A43174B1B1D79
:1015D0001A6006E0154A121D12680A43134B1B1DC0
:1015E0001A60028932B9114A143212688A430F4BC9
:1015F00014331A600289012A06D10C4A1432126887
:101600000A430A4B14331A60427B012A06D1074A67
:101610001C3212680A43054B1C331A60034A1268D5
:1016200022F00102014B1A6010BD0000006600406C
:1016300070B504460D46002660692840002871D028
:10164000B5F5807F5CD010DC082D35D006DC012D8F
:1016500020D0022D24D0042D72D127E0102D31D0BE
:10166000202D35D0402D6BD138E0B5F5004F60D03E
:1016700009DCB5F5007F49D0B5F5806F4CD0B5F5E4
:10168000006F5DD14FE0B5F5803F2DD0B5F5003F3F
:1016900056D12FE0A0682D4900F05AFA064651E0D5
:1016A000E068032100F054FA06464BE0E0680821A8
:1016B00000F04EFA064645E0E068102100F048FAD6
:1016C00006463FE02069032100F042FA064639E071
:1016D0002069082100F03CFA064633E02069102119
:1016E00000F036FA06462DE06068082100F030FA76
:1016F000064627E06068102100F02AFA064621E03D
:10170000A069012100F024FA06461BE0A06902212D
:1017100000F01EFA064615E0A069042100F018FA50
:1017200006460FE00FE0A069702100F011FA0646AE
:1017300008E06068042100F00BFA064602E0FFE7CB
:10174000002600BF00E00026304670BD0101010008
:101750001AB143690B43436102E043698B43436120
:10176000704730B5024600200023146824F00204BC
:101770001460146844F00104146000E05B1C5468B9
:1017800004F001041CB94FF6FF74A342F6D154686B
:1017900004F001040CB900206CE08C79012C04D118
:1017A000146844F08004146003E0146824F080049A
:1017B0001460CC79012C04D1146844F04004146006
:1017C00003E0146824F0400414600C7A012C04D166
:1017D000146844F02004146003E0146824F020042A
:1017E00014604C7A012C04D1146844F01004146085
:1017F00003E0146824F0100414608C7A012C04D1E6
:10180000146844F00804146003E0146824F0080429
:101810001460CC7A012C04D1146844F004041460E0
:1018200003E0146824F0040414608C78A407CD78D5
:1018300044EA05640D7944EA05444D7944EA0554C7
:101840000D886D1E2C43D461146824F001041460CB
:10185000002300E05B1C546804F001041CB14FF647
:10186000FF74A342F6D1546804F001040CB10020C7
:1018700000E0012030BD10B500F5D87303EB011373
:101880001B6803F004031372137A53B900F5D8737D
:1018900003EB01131B6840F2FF7404EA5353136017
:1018A00009E000F5D87303EB01131B686FF0604487
:1018B00004EAD303536000F5D87303EB01131B68EC
:1018C00003F00203537200F5D87303EB01135B6856
:1018D00003F00F03937200F5D87303EB01135B68F9
:1018E0001B0AD37400F5D87303EB01139B68D37202
:1018F00000F5D87303EB01139B681C0A147300F501
:10190000D87303EB01139B681C0C547300F5D87358
:1019100003EB01139B681B0E937300F5D87303EB65
:101920000113DB68D37300F5D87303EB0113DB6895
:101930001C0A147400F5D87303EB0113DB681C0C4C
:10194000547400F5D87303EB0113DB681B0E93741A
:1019500021B9C36843F02003C36003E0036943F087
:101960002003036110BD00218171C17101724172B8
:101970008172C1728170C1700321017102214171B4
:1019800001210180704710B502460020936803F0E2
:101990008063B3F1806F00D110E0936803F00063BF
:1019A000B3F1006F01D1012008E0936803F0805388
:1019B000B3F1805F01D1022000E00420042874D03C
:1019C00002F5C07303EB00131B6803F0010402F57A
:1019D000C07303EB00131C600B7A7BB94B7A0C8845
:1019E00043EA445302F5C07404EB00142468234313
:1019F00002F5C07404EB0014236010E00B7A4C680D
:101A000043EAC4034C7A234302F5C07404EB001488
:101A10002468234302F5C07404EB001423608B7A1E
:101A200003F00F038B7202F5C07303EB00135B68C6
:101A300023F00F0402F5C07303EB00135C6002F5A2
:101A4000C07303EB00135B688C7A234302F5C07408
:101A500004EB001463608B7B1C064B7B44EA03445D
:101A60000B7B44EA0323CC7A234302F5C07404EBD6
:101A70000014A3608B7C1C064B7C44EA03440B7C63
:101A800044EA0323CC7B234302F5C07404EB001427
:101A9000E36002F5C07303EB00131B6843F001041D
:101AA00002F5C07303EB00131C6010BD10B50446B3
:101AB0002068A0F2012088B1042805D0052808D0AC
:101AC000A0F20120A8BB1FE021461B4800F074FBD8
:101AD00030E02146194800F06FFB2BE0207BE17AD3
:101AE00040EA012000B216490880A17B607B41EAF0
:101AF000002000B212494880217CE07B41EA0020AE
:101B000000B20F49888015E0207BE17A40EA01208D
:101B10000C490880A17B607B41EA002000EE100A9E
:101B2000B8EEC00A084880ED000AE07B074908705B
:101B300000BF00BF00BF10BDD0070020A0020020E2
:101B4000E4020020EA020020EC020020F002002063
:101B50000246002002EA01030BB1012000E0002050
:101B60007047000070B516480068401C14490860B2
:101B700003F000FB00F044FF022801D103F064FAF7
:101B800000F0C0FC00F0FEFD00F0D4FD02F0F4F91E
:101B90000B48007800F0010020B904F0E5FE02F0E7
:101BA00021FB0CE000F032FF044601F072FA05461A
:101BB00000F020FF06462246294602F099F970BD42
:101BC0001C05002010B500201749086002F088FAB3
:101BD00016484FF47A61C269904715484FF47A610C
:101BE000C2699047114881698847114881698847CF
:101BF000BBEE040A0F4880ED000A9FED0F0A80ED4E
:101C0000010A0E48C16C88470D48C16C88470D48D1
:101C1000C16C88470C48C16C88470C48C16C884728
:101C200004F05EFF10BD00001C05002088040020A9
:101C3000AC04002044080020000000003404002010
:101C4000F40200204403002094030020E403002059
:101C500070B505460C4616480078202806DB15A00E
:101C600003F0F4FA02F04AFB002070BD202D06DBE1
:101C700019A003F0EBFA02F041FB0020F5E744B1B4
:101C8000012C06D01BA003F0E1FA02F037FB002084
:101C9000EBE704F00100A8401F49096808431E490A
:101CA000086003480078401C014908700120DCE707
:101CB0009C020020416C6C2074686520666C616732
:101CC0007320686173206265656E2075736564209A
:101CD0006F7574210D0A000054686520666C616799
:101CE00020494420697320746F6F20626967210D59
:101CF0000A000000496E697469616C20666C616756
:101D00002076616C7565206973206E6F7420766132
:101D10006C6964210D0A00009802002010B5094981
:101D2000094800F001F958B14FF08151064800F020
:101D30000FF80449044800F025F8044801F0FCFEBF
:101D400010BD000000802010406402407405002097
:101D50000246094B9A4201D2084801E00648103871
:101D600001F000531BB1064B0B40C36002E0044B73
:101D70000B40836070470000106402400060024026
:101D80007D0F7D0F0246094B9A4201D2084801E0BF
:101D90000648103801F000531BB1064B0B40C360DE
:101DA00002E0044B0B408360704700001064024067
:101DB000006002407D0F7D0F21B1026842F00102F8
:101DC000026003E0026822F0010202607047000036
:101DD000016821F001010160002101604160816022
:101DE000C1600161212141614A49884204D13D21FC
:101DF000484A103A91608CE046491831884205D132
:101E00004FF47461434A103A916082E041493031A5
:101E1000884205D14FF474113E4A103A916078E03F
:101E20003C494831884205D14FF07461394A103A33
:101E300091606EE037496031884204D13649354AB5
:101E4000103AD16065E033497831884204D1334992
:101E5000304A103AD1605CE02E499031884204D17A
:101E60002F492C4A103AD16053E02A49A8318842C0
:101E700005D14FF03D51274A103AD16049E0294938
:101E8000884204D13D21274A083A116041E02549A2
:101E90001831884205D14FF47461224A083A116022
:101EA00037E020493031884205D14FF474111D4A82
:101EB000083A11602DE01B494831884205D14FF0A6
:101EC0007461184A083A116023E01649603188426B
:101ED00004D11149134A121F11601AE011497831D7
:101EE000884204D10D490F4A121F116011E00D49BB
:101EF0009031884204D10A490A4A121F116008E051
:101F00000849A831884204D14FF03D51054A121FBB
:101F100011607047106002403D000020400F00201B
:101F200000003D201064024070B5024600200024ED
:101F30000025124EB24201D2114B01E00F4B103B73
:101F4000104E0E4036B11E2606EAD124166806EA67
:101F5000040502E0566906F0800501F000560EB156
:101F60005C6800E01C68084E344004EA010616B1C3
:101F70000DB1012000E0002070BD0000106402409F
:101F8000006002403C0F3C0F7D0F7D0F10B501F04B
:101F900080034BB122B1436943F08003436103E006
:101FA000436923F08003436180290BD02AB1036881
:101FB00001F01E042343036004E0036801F01E04E3
:101FC000A343036010BD000010B500220268134B4C
:101FD0001A40CC680B6823434C6923438C69234324
:101FE000CC6923430C6A23434C6A23438C6A234302
:101FF0004C6B23438C6B23431A430260426922F0EB
:102000000702D1E90B3423431A4342610B69436051
:102010004B6883608B68C36010BD00003F801CF07C
:1020200000B587B00121274801F07EFC0121102076
:1020300001F0AAFC07221146234800F089FC23483E
:1020400002F0C6FE8020059002208DF818000020C6
:102050008DF81A0003208DF8190000208DF81B0060
:1020600005A9194800F02CFC194801900020ADF892
:102070000800ADF80A004FF48060ADF80C000420B1
:10208000ADF80E000020ADF8100001A90F4802F0D5
:1020900067FF01210D4802F085FE25208DF8000024
:1020A00001208DF801008DF802008DF803006846CC
:1020B00001F0E2FA012240F22551044802F02AFF21
:1020C00007B000BD020040000004024000100140C3
:1020D000A08601007047000010B5042000F016F83B
:1020E00040B10A2004F0E2FB04480068012801D155
:1020F00001F01CF8042000F003F810BD08824042F3
:102100000149086070470000143C0140014600206E
:10211000034A12680A400AB1012000E0002070471B
:10212000143C0140002123498279002A3AD00A4612
:10213000126803689A430B461A600A1D1268036806
:102140009A430B1D1A60027911440A6803681A4306
:102150000A60184A0832126803689A43154B08331C
:102160001A601A1D126803689A43124B0C331A60E6
:102170004279102A0ED11A1F126803681A430D4BB8
:1021800008331A601A1D126803681A43094B0C338E
:102190001A600DE00749427911440A6803681A433E
:1021A0000A6005E0027911440A6803689A430A60EC
:1021B00070470000003C014070B500220023046815
:1021C00044600C7BCD7A44EA0524046004684568C9
:1021D000641BC460C4682B4DAC4207DA846B641C7A
:1021E0008463C46804F50054C4610EE0C46841F619
:1021F0004C55AC4207DD846B641E8463C468A4F54F
:102200000054C46101E0C468C4610568846B05EBD7
:102210004434846004688569641B00EE104AB8EE9B
:10222000C00ADFED190A20EE200A9FED181AC0EE51
:10223000010A846B4FF4B4756C4300EE104AB8EE9B
:10224000C00A30EE800A80ED100AC669047D651C64
:10225000057500F1200545F82460047D062C01D1A8
:1022600000240475002205E000F1200454F8224007
:102270002344521C062AF7DB062493FBF4F4C463C0
:1022800070BD0000B4E2FFFF0000B4430000004650
:1022900010B500210846FFF7DBFC00210120FFF705
:1022A000D7FC00210220FFF7D3FC00210320FFF719
:1022B000CFFC00210420FFF7CBFC00210520FFF715
:1022C000C7FC00210620FFF7C3FC00210720FFF711
:1022D000BFFC00210820FFF7BBFC00210920FFF70D
:1022E000B7FC00210A20FFF7B3FC00210B20FFF709
:1022F000AFFC00210C20FFF7ABFC00210D20FFF705
:10230000A7FC00210E20FFF7A3FC00210F20FFF700
:102310009FFC00211020FFF79BFC00211120FFF7FC
:1023200097FC00211220FFF793FC10BD70B5054605
:102330000C46072D65D2DFE805F06404142434440C
:10234000540000EE104AB8EEC00ADFED300A80EE0D
:10235000201A2F4890ED040A30EE410A80ED040A5D
:1023600050E000EE104AB8EEC00ADFED280A80EE19
:10237000201A274890ED050A30EE410A80ED050A43
:1023800040E000EE104AB8EEC00ADFED200A80EE11
:10239000201A1F4890ED060A30EE410A80ED060A29
:1023A00030E000EE104AB8EEC00A9FED181AC0EEF9
:1023B000010A184890ED040A30EE600A80ED040A24
:1023C00020E000EE104AB8EEC00ADFED100A80EE01
:1023D000201A104890ED050A30EE410A80ED050AFA
:1023E00010E000EE104AF8EEC00A9FED081A80EEE9
:1023F000810A0848D0ED060A30EEC00A80ED060AD0
:1024000000E000BF00BF01F003F870BD0000C8424B
:10241000F40200204403002070B505460C46072D49
:1024200065D2DFE805F0640414243444540000EE5F
:10243000104AB8EEC00ADFED300A80EE201A2F48AD
:1024400090ED040A31EE000A80ED040A50E000EE3F
:10245000104AB8EEC00ADFED280A80EE201A27489D
:1024600090ED050A31EE000A80ED050A40E000EE2D
:10247000104AB8EEC00ADFED200A80EE201A1F488D
:1024800090ED060A31EE000A80ED060A30E000EE1B
:10249000104AB8EEC00A9FED181AC0EE010A18489B
:1024A00090ED040A30EE800A80ED040A20E000EE90
:1024B000104AB8EEC00ADFED100A80EE201A10486C
:1024C00090ED050A31EE000A80ED050A10E000EEFD
:1024D000104AF8EEC00A9FED081A80EE810A0848FB
:1024E000D0ED060A30EE200A80ED060A00E000BFBB
:1024F00000BF00F08DFF70BD0000C842F402002054
:102500004403002010B500F0CBFA0F4890ED000A0C
:102510000E4880ED000A0E4890ED100A0B4880ED41
:10252000010A816C8847094890ED0D0A094880ED41
:10253000000A094890ED000AB1EE400A054880ED16
:10254000010A816C884710BD44080020F402002075
:10255000A0020020440300204000002070B5054682
:102560000C46072D65D2DFE805F0640414243444DA
:10257000540000EE104AB8EEC00ADFED300A80EEDB
:10258000201A2F4890ED040A30EE410A80ED040A2B
:1025900050E000EE104AB8EEC00ADFED280A80EEE7
:1025A000201A274890ED050A30EE410A80ED050A11
:1025B00040E000EE104AB8EEC00ADFED200A80EEDF
:1025C000201A1F4890ED060A30EE410A80ED060AF7
:1025D00030E000EE104AB8EEC00A9FED181AC0EEC7
:1025E000010A184890ED040A30EE600A80ED040AF2
:1025F00020E000EE104AB8EEC00ADFED100A80EECF
:10260000201A104890ED050A30EE410A80ED050AC7
:1026100010E000EE104AF8EEC00A9FED081A80EEB6
:10262000810A0848D0ED060A30EEC00A80ED060A9D
:1026300000E000BF00BF00F0A5FF70BD0000C84271
:1026400094030020E403002070B505460C46072DD6
:1026500065D2DFE805F0640414243444540000EE2D
:10266000104AB8EEC00ADFED300A80EE201A2F487B
:1026700090ED040A31EE000A80ED040A50E000EE0D
:10268000104AB8EEC00ADFED280A80EE201A27486B
:1026900090ED050A31EE000A80ED050A40E000EEFB
:1026A000104AB8EEC00ADFED200A80EE201A1F485B
:1026B00090ED060A31EE000A80ED060A30E000EEE9
:1026C000104AB8EEC00A9FED181AC0EE010A184869
:1026D00090ED040A30EE800A80ED040A20E000EE5E
:1026E000104AB8EEC00ADFED100A80EE201A10483A
:1026F00090ED050A31EE000A80ED050A10E000EECB
:10270000104AF8EEC00A9FED081A80EE810A0848C8
:10271000D0ED060A30EE200A80ED060A00E000BF88
:1027200000BF00F02FFF70BD0000C84294030020DE
:10273000E403002010B50E4890ED010A0D4880ED2D
:10274000000A0D4890ED100A0A4880ED010A816CDC
:102750008847084890ED0D0A084880ED000A0848AF
:1027600090ED000A054880ED010A816C884710BD94
:102770004408002094030020D0070020E403002038
:102780003C00002000B500F03BF906280AD2DFE843
:1027900000F0030A606C7677404890ED100A4048DC
:1027A00080ED010A78E03F48007848B901203D49B2
:1027B000087000203C4908703C4908703C4908708A
:1027C0003C480088401C00B23A4908800846B0F9ED
:1027D00000000A283CDD324890ED010AF1EE000AC3
:1027E00030EE200A80ED010A33480078012809D133
:1027F0002B4890ED000AF6EE000A30EE600A80EDFC
:10280000000A08E0264890ED000AF6EE000A30EED5
:10281000200A80ED000A224890ED000AFFEE000A2F
:10282000B4EEE00AF1EE10FA02DD01202249087050
:102830001B4890ED000ADFED210AB4EEE00AF1EE4C
:1028400010FA02D200201C490870002019490880A3
:1028500022E01548007838B901201349087000209B
:10286000104908701149087016E01048007828B91E
:1028700001200E49087000200A4908700CE00BE0A6
:102880000B48007838B90120094908700020054933
:1028900008700549087000BF00BF00BDD0070020C8
:1028A0004408002028050020290500202A050020D2
:1028B0002B0500202C0500202E05002000000CC256
:1028C000F0B50A4600210023002400BF3DE00125A9
:1028D00005FA01F3156805EA03049C4234D1056842
:1028E0004F000326BE40B543056015794E00B54044
:1028F0000668354305601579012D02D01579022D42
:1029000016D185684F000326BE40B54385605579D2
:102910004E00B540866835438560456801268E4087
:10292000B5434560456896798E40B6B235434560FB
:10293000C5684F000326BE40B543C560D5794E003B
:10294000B540C6683543C560491C1029BFD3F0BDEA
:10295000F0B5002300244D07ED0E02FA05F3CE106A
:1029600000F1200555F826504E07F70E0F26BE4001
:10297000B543CF1000F1200646F82750CE1000F1E5
:10298000200555F8265045EA0304CE1000F1200535
:1029900045F82640F0BD41837047018370470AB176
:1029A000018300E0418370470148007870470000D0
:1029B00054050020014800787047000018050020E9
:1029C00010B5044606222146492000F081FC10BDC6
:1029D000074909780170064949784170044991ED29
:1029E000010A80ED010A91ED020A80ED020A7047AA
:1029F0005408002001480078704700005805002066
:102A00000148007870470000850400200148B0F9B3
:102A1000000070475605002010B50446202C06DB48
:102A200008A002F013FC01F069FC002010BD0C4866
:102A30000068E04000F0010008B10120F6E7002046
:102A4000F4E7000054686520666C61672049442003
:102A5000697320746F6F20626967210D0A0000009E
:102A6000980200200148007870470000F002002022
:102A70000348D0ED000A9FED031A80EE810A7047EB
:102A8000EC0200200000C8420148008870470000A6
:102A9000EA0200200148B0F900007047200500203C
:102AA000114890ED000ADFED110AB4EEE00AF1EEF4
:102AB00010FA04D89FED0D0A80ED000A13E00A48D1
:102AC00090ED000AFFEE000AB4EEE00AF1EE10FA13
:102AD00004DBBFEE000A80ED000A04E0024890ED3E
:102AE000000A80ED000A70474408002000000CC274
:102AF00000B58BB00121802000F016FF01210820D5
:102B000000F022FF4FF44060099002208DF8280069
:102B100003208DF8290009A92748FFF7D1FE0222DA
:102B20000A212548FFF714FF02220B212248FFF754
:102B30000FFF5320ADF818000020ADF81A0040F642
:102B4000C31007900020ADF8200006A91B4801F033
:102B5000E7FD7020ADF804000120ADF8060000206C
:102B6000ADF8080040F2E73003900220ADF8100005
:102B70000020ADF81200ADF814004FF48070ADF8ED
:102B8000160001A90D4801F01DFD01A90B4801F037
:102B900061FD0821094801F053FD0821074801F0B3
:102BA000ABFD0121054801F0C9FC0121034801F0FA
:102BB000D7FC0BB000BD0000001C0240000C004020
:102BC00010B5FFF795FF10BD00BFFEE710B52DED66
:102BD000088B0446964890ED000AD0ED000A20EEDE
:102BE000200A9448D0ED000A90ED001A00EE810A08
:102BF0009148D0ED000A90ED001A00EEC10A8F480E
:102C0000D0ED000A90ED001A00EEC10A10EE101A85
:102C10000846FDF753FF41EC1A0B864890ED000A79
:102C20008548D0ED000A20EE200A8148D0ED000A48
:102C3000824890ED001A00EE810AF0EE000A20EEC4
:102C4000200A10EE101A0846FDF738FF41EC1B0B66
:102C5000B0EE4A1AF0EE6A1AB0EE4B0AF0EE6B0ACA
:102C600002F03AFEB0EE409AF0EE609A9FED740BDF
:102C700053EC102B51EC190BFDF73FFE41EC180BF8
:102C8000FDF748FFA0606B4890ED000A6B48D0ED5F
:102C9000000A20EE200A6648D0ED000A664890ED52
:102CA000001A00EEC10AF0EE000A20EE200A10EE33
:102CB000101A0846FDF702FF41EC1B0BB0EE4B0A61
:102CC000F0EE6B0A02F0ECFAB0EE40AAF0EE60AA69
:102CD00051EC1A0B81F0004141EC190B9FED580BA0
:102CE00053EC102BFDF709FE41EC180BFDF712FF1A
:102CF00060604F4890ED000AD0ED000A20EE200AF7
:102D00004C48D0ED000A90ED001A00EEC10A4A4886
:102D1000D0ED000A90ED001A00EEC10A4748D0ED50
:102D2000000A90ED001A00EE810A10EE101A084613
:102D3000FDF7C4FE41EC1A0B3D4890ED000A3D48FA
:102D4000D0ED000A20EE200A3B48D0ED000A3B48B7
:102D500090ED001A00EE810AF0EE000A20EE200A43
:102D600010EE101A0846FDF7A9FE41EC1B0BB0EE61
:102D70004A1AF0EE6A1AB0EE4B0AF0EE6B0A02F055
:102D8000ABFDB0EE409AF0EE609A9FED2D0B53EC48
:102D9000102B51EC190BFDF7B0FD41EC180BFDF7B2
:102DA000B9FE2060284890ED000A284880ED000A0E
:102DB00094ED020A244880ED000A90ED000A2348B1
:102DC000D0ED000A30EE600ADFED210AB4EEE00A31
:102DD000F1EE10FA05DB1F480068401E1D4908602F
:102DE00013E0194890ED000A1848D0ED000A30EEC3
:102DF000600ADFED190AB4EEE00AF1EE10FA04D829
:102E000014480068401C13490860124800684FF4D9
:102E1000B471484300EE100AB8EEC00A0A48D0ED7B
:102E2000000A30EE200A84ED020ABDEC088B10BDCA
:102E3000580000205C00002060000020640000209A
:102E40006666666666A64C40480100204C0100207C
:102E50000000964350010020000096C310B52DEDF0
:102E6000028BB0EE408AF0EE608A2348007830B3DF
:102E70009FED220A224880ED000A51EC180BFDF765
:102E800049FE1F4948600846816C88471C4890ED00
:102E90000D0AB5EEC00AF1EE10FA03D29FED190A41
:102EA00080ED0D0A164890ED0D0ABCEEC00A10EE3A
:102EB000100A84B22146144801F02DFC19E09FED60
:102EC000130B53EC102B51EC180BFDF70BFE0BD230
:102ED00010480078401C0F490870084600783228D6
:102EE00002DD01200449087041F28731064801F0F3
:102EF00012FCBDEC028B10BD5401002000002042EA
:102F0000F00000200000000000040040000000006D
:102F1000000044405501002010B530216A2000F027
:102F20000FFA0A2003F0C2FC0D21242000F008FA59
:102F30000A2003F0BBFC0E21282000F001FA0A2031
:102F400003F0B4FC8E21312000F0FAF90A2003F0DE
:102F5000ADFC01210B2000F07CF80A2003F0A6FC58
:102F6000002000F059F8102801D0012010BD0121E7
:102F70000B2000F06EF80A2003F098FC00210A20D4
:102F800000F067F80A2000F047F808B10220EDE7EA
:102F90000A2003F08BFC00210B2000F05AF80B20D4
:102FA00000F03AF808B10320E0E70A2003F07EFCC5
:102FB0002421412000F04DF8412000F02DF8242874
:102FC00001D00420D2E70A2003F070FCC021422087
:102FD00000F03FF8422000F01FF8C02801D0052083
:102FE000C4E70A2003F062FC00212A2000F0A8F9BF
:102FF0000A2003F05BFC0021342000F0A1F90A2034
:1030000003F054FC062203210E2000F0B9F96420DD
:1030100003F04CFC0020A9E770B50446214632209D
:1030200000F08EF90A2003F041FC8021342000F0EA
:1030300087F90A2003F03AFC352000F027F905460D
:103040000021342000F07CF90A2003F02FFC2846F0
:1030500070BD70B504460D4600212A2000F070F9BD
:10306000022003F023FC2146292000F069F9022008
:1030700003F01CFC2946642000F062F9022003F0F2
:1030800015FC81212A2000F05BF90A2003F00EFCD8
:1030900070BD00B5FFF788FC012800D100BD0020FD
:1030A000FCE7000000B585B00121880300F06CFC4E
:1030B0000121022000F038FC0420039000208DF84C
:1030C00012008DF8100003208DF8110001208DF8FA
:1030D000130003A91248FFF7F3FB0221012000F0BF
:1030E000E7FE0420019000208DF8080008208DF8EC
:1030F000090001208DF80A0001A8FFF713F8082045
:103100008DF8000004208DF801008DF802000120E8
:103110008DF80300684600F0AFFA05B000BD00006E
:103120000004024010B5FFF7BDFF10BD064800685F
:10313000C0430649C1F8AC020548D0F8B802C04304
:103140000349C1F8B8027047AC0242420000424253
:10315000008042421CB50121702000F0E5FBFE20FA
:10316000009001208DF8040000208DF80600032057
:103170008DF8050001208DF8070069461448FFF717
:103180009FFB4FF40060009001208DF804000020A8
:103190008DF8060003208DF8050001208DF807004A
:1031A00069460C48FFF78CFB4FF4804000900120EB
:1031B0008DF8040000208DF8060003208DF805002E
:1031C00001208DF8070069460348FFF779FB1CBD15
:1031D00000180240001002400014024010B5FFF732
:1031E000B9FF01200A4908600A49C1F88802084964
:1031F00008310860091D0860091D0860091D086084
:10320000091D08600020044908600449086010BDD9
:103210008402434200004342AC024242B88242422E
:1032200010B586B0012240211648FFF7B8FB642094
:1032300003F03CFB752000F029F8702802D0012033
:1032400006B010BD002414220F4901A8FDF79CFA16
:1032500000BF0DE001AA02EB4402517801AA12F866
:10326000140000F06DF8012003F020FB601CC4B2D4
:103270000A2CEFDB022000F05BF8002000F050F891
:103280000020DDE700140240A093000810B50446BA
:10329000002240210B48FFF782FB44F080000A49DE
:1032A00008700846007800F0E5FD002000F0E2FD1F
:1032B00006490870012240210248FFF770FB0348CD
:1032C000007810BD0014024042010020410100209E
:1032D0002DE9F04105460E461746002240210E48D2
:1032E000FFF75DFB45F080000C4908700846007848
:1032F00000F0C0FD002404E0002000F0BBFD3055CC
:10330000641CBC42F8DB012240210348FFF747FB65
:103310000020BDE8F08100000014024043010020BD
:1033200010B50446E006010E1C2000F009F810BD9F
:1033300010B50446E006010E1B2000F001F810BD98
:1033400070B505460C46002240210B48FFF727FBCD
:1033500005F07F00094908700846007800F08AFDF2
:1033600006480470007800F085FD012240210248E3
:10337000FFF715FB002070BD001402404001002043
:1033800070B504460E46154621462820FFF7D8FFA3
:10339000022003F08BFA0A212920FFF7D1FF022037
:1033A00003F084FA01216420FFF7CAFF022003F032
:1033B0007DFA44F080012520FFF7C2FF022003F0D0
:1033C00075FA31462620FFF7BBFF022003F06EFAA4
:1033D00003213420FFF7B4FF022003F067FA032132
:1033E0006720FFF7ADFF022003F060FA81212A2059
:1033F000FFF7A6FF062003F059FA45F080012720C9
:10340000FFF79EFF022003F051FA70BD00BFFEE7F8
:1034100000B52DED0C8B8BB0274890ED060A10EE11
:10342000101A0846FDF74AFB41EC180B224890EDB4
:10343000050A10EE101A0846FDF740FB41EC190B87
:103440001D4890ED040A10EE101A0846FDF736FBF1
:1034500041EC1A0B194890ED060A10EE101A0846B6
:10346000FDF72CFB41EC1B0B144890ED050A10EE08
:10347000101A0846FDF722FB41EC1C0B0F4890ED9B
:10348000040A10EE101A0846FDF718FB41EC1D0B5C
:103490008DED088B8DED069B8DED04AB8DED02BBA4
:1034A0008DED00CB53EC1D2B05A001F0CFFE0BB032
:1034B000BDEC0C8B00BD000044030020F402002092
:1034C000504B503A25332E32662C504B493A253119
:1034D0002E32662C504B443A25332E32662C564BF6
:1034E000503A25332E32662C564B493A25312E322E
:1034F000662C564B443A25332E32660D0A000000E6
:1035000000B52DED068B85B0154890ED060A10EE3E
:10351000101A0846FDF7D2FA41EC180B104890ED4E
:10352000050A10EE101A0846FDF7C8FA41EC190B0F
:103530000B4890ED040A10EE101A0846FDF7BEFA8B
:1035400041EC1A0B8DED028B8DED009B53EC1A2B89
:1035500004A001F07BFE05B0BDEC068B00BD0000B1
:1035600034040020564B503A25332E32662C564BED
:10357000493A25312E32662C564B443A25332E32A9
:10358000660D0A0000B52DED0C8B8BB0274890ED31
:10359000060A10EE101A0846FDF790FA41EC180BD7
:1035A000224890ED050A10EE101A0846FDF786FA3B
:1035B00041EC190B1D4890ED040A10EE101A084654
:1035C000FDF77CFA41EC1A0B194890ED060A10EE53
:1035D000101A0846FDF772FA41EC1B0B144890EDE7
:1035E000050A10EE101A0846FDF768FA41EC1C0BAC
:1035F0000F4890ED040A10EE101A0846FDF75EFA27
:1036000041EC1D0B8DED088B8DED069B8DED04AB14
:103610008DED02BB8DED00CB53EC1D2B05A001F011
:1036200015FE0BB0BDEC0C8B00BD0000E4030020C8
:1036300094030020504B503A25332E32662C504BC9
:10364000493A25312E32662C504B443A25332E32DE
:10365000662C564B503A25332E32662C564B493A3F
:1036600025312E32662C564B443A25332E32660DC8
:103670000A0000007047000070B5002100230F22EF
:10368000C4781CB3174C246804F4E064C4F5E06407
:10369000C4F30721C1F10404E3B20A4144789C4019
:1036A000E1B28478144021430C07210E0E4C0578BA
:1036B0006155047804F01F050124AC4005786D11B4
:1036C000AD0005F1E025C5F8004109E0047804F0FB
:1036D0001F050124AC40054D0678761145F82640BB
:1036E00070BD00000CED00E000E400E080E100E0CF
:1036F00002490143024A1160704700000000FA05C8
:103700000CED00E090ED020A80ED030A90ED000A56
:10371000D0ED010A30EE600A80ED020A90ED080A51
:10372000D0ED020A30EE200A80ED080A90ED080A7A
:10373000D0ED0B0AF1EE600AB4EEE00AF1EE10FAF9
:1037400006D290ED0B0AB1EE400A80ED080A0CE0BB
:1037500090ED080AD0ED0B0AB4EEE00AF1EE10FA93
:1037600003DD90ED0B0A80ED080A90ED040AD0ED20
:10377000020A20EE200AD0ED050A90ED081A00EEAC
:10378000810AD0ED020A90ED031A70EEC10A90EDA5
:10379000061A01EE200A80ED0D0A90ED0D0AD0ED1B
:1037A0000E0AB4EEE00AF1EE10FA04DD90ED0E0A16
:1037B00080ED0D0A10E090ED0D0AD0ED0E0AF1EE4D
:1037C000600AB4EEE00AF1EE10FA05D290ED0E0AAE
:1037D000B1EE400A80ED0D0A704700009FED0C0A23
:1037E00080ED070A9FED0A0A80ED080A9FED080A9E
:1037F00080ED090A9FED060A80ED020A9FED040A9A
:1038000080ED030A9FED020A80ED0D0A704700006B
:10381000000000007047000070B505460C46012D01
:1038200004D0022D12D0032D30D11FE000EE104A3B
:10383000B8EEC00ADFED180A80EE201A174890EDA6
:10384000040A30EE410A80ED040A20E000EE104A3E
:10385000F8EEC00A9FED101A80EE810A0F48D0EDF5
:10386000050A30EEC00A80ED050A10E000EE104AAD
:10387000B8EEC00ADFED080A80EE201A074890ED86
:10388000060A30EE410A80ED060A00E000BF00BFE4
:10389000FFF736FE70BD00000000C842340400206F
:1038A00070B505460C46012D04D0022D12D0032D13
:1038B00030D11FE000EE104AB8EEC00ADFED180A62
:1038C00080EE201A174890ED040A31EE000A80EDD0
:1038D000040A20E000EE104AF8EEC00A9FED101A2C
:1038E00080EE810A0F48D0ED050A30EE200A80ED07
:1038F000050A10E000EE104AB8EEC00ADFED080A33
:1039000080EE201A074890ED060A31EE000A80ED9D
:10391000060A00E000BF00BFFFF7F2FD70BD000027
:103920000000C8423404002029B1064A126802434C
:10393000044B1A6004E0034A12688243014B1A6088
:10394000704700003038024029B1064A126802432D
:10395000044B1A6004E0034A12688243014B1A6068
:10396000704700004038024029B1064A12680243FD
:10397000044B1A6004E0034A12688243014B1A6048
:10398000704700002038024029B1064A12680243FD
:10399000044B1A6004E0034A12688243014B1A6028
:1039A000704700004438024029B1064A12680243B9
:1039B000044B1A6004E0034A12688243014B1A6008
:1039C0007047000024380240F0B500210022002496
:1039D000022500260223324F3F6807F00C0121B177
:1039E000042905D0082937D105E02E4F076036E0BD
:1039F0002D4F076033E02A4F3F1F3F68C7F38056C3
:103A0000274F3F1F3F6807F03F036EB1264FB7FBBC
:103A1000F3F7DFF88CC0ACF1040CDCF800C0CCF399
:103A2000881C07FB0CF40CE01E4FB7FBF3F7DFF824
:103A300070C0ACF1040CDCF800C0CCF3881C07FBB0
:103A40000CF4174F3F1F3F68C7F301477F1C7D00F1
:103A5000B4FBF5F7076002E0124F076000BF00BF3C
:103A60000F4F3F6807F0F0010909104F7A5C0768B3
:103A7000D74047600A4F3F6807F4E051890A0B4F6F
:103A80007A5C4768D7408760054F3F6807F460411C
:103A9000490B064F7A5C4768D740C760F0BD00000D
:103AA000083802400024F400001BB7001400002076
:103AB00010B5044600EE104AB8EEC00A074880ED83
:103AC000000A0748B0F9020000EE100AB8EEC00A7A
:103AD000024880ED010A816C884710BD3404002043
:103AE000E40200200168491C0160D0E90012914203
:103AF00001DB4168016090ED000AF8EEC00A90ED2C
:103B0000010AB8EEC00A80EE801A80ED021A90ED2C
:103B1000020A7047416070470146D1E900029042B5
:103B200001DB012070470020FCE7002101607047A5
:103B3000016070474160704710B50446FEF760FFB2
:103B400000B9A1E004B910BD2078617840EA0120F5
:103B5000C0F30A004E4908806078C010A17840EA9E
:103B60004110C0F30A004A494880A0788011E178EA
:103B700040EA8100217940EA8120C0F30A004449EB
:103B8000888020794010617940EAC110C0F30A00B2
:103B90003F49C88060790011800808726079C0F3DD
:103BA00001104872A079E17940EA012000B2384959
:103BB0004881207A617A40EA012001B2344881814B
:103BC000A07AE17A40EA012001B23148C181217B2B
:103BD0008174617BC174A07BE17B40EA01202C49A8
:103BE0008882084600F0AEF9FEF70AFF05284AD1A0
:103BF00027484088A0F5806000EB8000800000B27C
:103C000024490880244890ED000A2148B0F90600B4
:103C1000A0F5806000EE900AF8EEE00A9FED1F1A12
:103C200000EE810A1C4880ED000A90ED010A184858
:103C3000B0F90400A0F5806000EE900AF8EEE00A0A
:103C40009FED171A00EEC10A134880ED010A1048D3
:103C5000007A012806D1002000F02AF8002000F0A8
:103C600085F910E00A48007A032806D1012000F007
:103C70007DF9002000F01CF805E0012000F076F945
:103C8000002000F033FA00BF00BF00BF5BE7000078
:103C90001408002056050020440800206F12833BC2
:103CA0000AD7A33C00200149088070475605002030
:103CB00010B50446202C06DB07A001F0C7FA00F07F
:103CC0001DFB002010BD0120A0400A490968814366
:103CD000084801600120F5E754686520666C61675B
:103CE00020494420697320746F6F20626967210D39
:103CF0000A0000009802002000B587B001212020B2
:103D0000FFF712FE01210805FFF73EFE01224021C8
:103D10003A48FEF744FE4020059001208DF8180037
:103D200000208DF81A0003208DF8190001208DF86D
:103D30001B0005A93148FEF7C3FD01212020FFF734
:103D4000F3FD01210805FFF71FFE4FF46070059099
:103D500002208DF8180000208DF81A0003208DF83D
:103D6000190001208DF81B0005A92448FEF7A8FDC5
:103D7000052207212148FEF7EBFD052208211F48F7
:103D8000FEF7E6FD052209211C48FEF7E1FD0121B1
:103D90000805FFF709FE00214FF48010FFF704FE2D
:103DA0000020ADF800004FF48270ADF80200002052
:103DB000ADF80400ADF80600ADF808004FF400704F
:103DC000ADF80A003020ADF80C000020ADF80E0070
:103DD0000720ADF810006946094800F02DF80121D0
:103DE000074800F00FF8FF2000F044F801224021BE
:103DF0000248FEF7D4FD07B000BD000000140240E9
:103E00000050014021B1028842F04002028004E0EB
:103E100002884FF6BF731A400280704702460020A6
:103E200013890B400BB1012000E0002070470146D0
:103E3000888970478181704710B50022028802F49A
:103E400041520B884C8823438C882343CC882343DE
:103E50000C8923434C8923438C892343CC892343F6
:103E60001A430280838B4FF2FF74234083830B8AB3
:103E7000038210BD10B5044600BF02210A48FFF7B7
:103E8000CDFF0028F9D021460748FFF7D3FF00BF38
:103E900001210548FFF7C2FF0028F9D00248FFF7CB
:103EA000C6FFC0B210BD00000050014070470000C6
:103EB00030B500228B071C0F0F2303FA04F20B4BC3
:103EC0008C1053F824309343084C8D1044F825305F
:103ED00023468C1053F824308C07240F00FA04F486
:103EE0002343024C8D1044F8253030BD0838014082
:103EF00070B586B005460E46144640F2014001906A
:103F000000208DF80C008DF80D0008208DF80E00B3
:103F10008DF80F508DF81060210A8DF811108DF872
:103F2000124000218DF813108DF814108DF8151023
:103F30008DF8161001A90248FDF725FD06B070BDE9
:103F400000640040417A012902D1074A11700AE059
:103F5000417A032902D1044A117004E0417A02290E
:103F600001D1014A117070475405002001490870C1
:103F7000704700001805002010B50B4890ED0D0AA1
:103F8000BDEEC00A10EE100A404202B2074890EDA2
:103F90000D0ABDEEC00A10EE100A404201B20448FC
:103FA00000F0C8F810BD000044030020E403002026
:103FB000006400400CB5002001900090414800686A
:103FC00040F480303F49086000BF3E48006800F47C
:103FD000003000900198401C0190009818B9019899
:103FE000B0F5A04FF1D13748006800F4003010B1AF
:103FF0000120009001E0002000900098012860D18D
:1040000030484030006840F080502E494031086010
:104010002D48006840F440402B490860294808308A
:1040200000682849083108600846006840F40040EC
:1040300008600846006840F4A05008602348091F43
:104040000860081F006840F08070091F086000BF0A
:104050001C48006800F000700028F9D01A48006879
:1040600040F480301849086000BF1748406800F4E9
:1040700080300028F9D01448006840F4003012491C
:10408000086000BF1048406800F400300028F9D0F4
:1040900040F205700E4908600A480830006820F0B8
:1040A00003000849083108600846006840F0020033
:1040B000086000BF03480830006800F00C000828C2
:1040C000F8D10CBD00380240007000400C5440078D
:1040D000003C02400149087070470000580500206C
:1040E00001490870704700008504002010B504469F
:1040F000202C06DB07A001F0A9F800F0FFF8002053
:1041000010BD0120A0400A49096808430849086019
:104110000120F5E754686520666C616720494420FA
:10412000697320746F6F20626967210D0A000000B7
:104130009802002070B586B006460C46154640F23F
:10414000FF10019000208DF80C008DF80D00082064
:104150008DF80E00200A8DF80F008DF81040290A06
:104160008DF811108DF8125000218DF813108DF874
:1041700014108DF815108DF8161001A93046FDF7B2
:1041800002FC06B070BD30B585B005460C464FF454
:104190000070009000208DF808008DF809000820BC
:1041A0008DF80A00200A8DF80B00E1B28DF80C1092
:1041B00000218DF80D108DF80E108DF80F108DF870
:1041C00010108DF811108DF8121069462846FDF771
:1041D000DAFB05B030BD00000149088070470000DF
:1041E0002005002010B52DED028B2A48B0F90400FF
:1041F00042F6F821884202DD7820FFF7EDFFFEF756
:1042000049FC002814DD2448FFF752FC234890EDB8
:104210000D0ABDEEC00A10EE100A01B22048FFF7E9
:10422000B2FFFEF737FC401E02B21046FFF7D4FF84
:10423000FEF71EFCB0EE408AFEF726FC04B2B0EE9C
:10424000480A204602F064FC0020FEF7E5FB70B946
:104250000020FFF72DFC114890ED0D0ABDEEC00ABD
:1042600010EE100A01B20E48FFF78DFF0EE041F28A
:104270008830FFF71DFC094890ED0D0ABDEEC00A1D
:1042800010EE100A01B20648FFF77DFFBDEC028B6D
:1042900010BD0000E402002018FCFFFF34040020E1
:1042A00000640040152803D10021094A11600DE087
:1042B000084931F81010064A083A1160054A32F8E8
:1042C000101001EBD1725210014B1A6070470000C0
:1042D000341800406C93000810B5002408E0214613
:1042E000641C054A505CFFF7DDFFC82002F0DEFACF
:1042F000042CF4DB10BD0000969300080DE00920AB
:10430000FFF7D0FF4FF47A7002F0D0FA1520FFF7D4
:10431000C9FF4FF47A7002F0C9FAF0E710B505242E
:1043200008E02146641E064A505CFFF7BBFFC82028
:1043300002F0BCFA002CF4DA1520FFF7B3FF10BD31
:10434000969300087047000010B51548006840F4C7
:104350007000134908601348006840F001001149DB
:10436000086000200F49083108600E4800680E49B7
:1043700008400C4908600D48091D0860081F0068C6
:1043800020F48020091F0860002006490C310860D5
:10439000FFF710FE4FF0006001498039086010BD42
:1043A00088ED00E000380240FFFFF6FE10300024E8
:1043B00030B58BB005460C4601210220FFF7C4FA48
:1043C00001210220FFF7B0FA022205212548FEF75D
:1043D000BFFA01210220FFF7C7FA00210220FFF7F0
:1043E000C3FA681E0990601E80B2ADF8200000205C
:1043F000ADF82200ADF82800012211461A4800F05D
:10440000D8F808A9184800F08BF92020069002205F
:104410008DF81C0003208DF81D0000208DF81E0073
:1044200002208DF81F0006A90E48FEF749FA602009
:10443000ADF804000120ADF806000020ADF8100032
:1044400001A9094800F006F90821074800F054F9CD
:104450000121054800F072F80121034800F080F8BE
:104460000BB030BD000402400004004010B5012133
:104470000A4800F08DF801280AD1094908698047E7
:104480000021064800F049F96421044800F041F990
:104490000121024800F061F810BD00000008004052
:1044A000A401002010B50121074800F071F848B1BF
:1044B0000121054800F051F80121034800F04AF8B5
:1044C000FDF750FB10BD0000001000401FB501219A
:1044D0001020FFF739FA36208DF8000001208DF802
:1044E000010000208DF8020001208DF803006846CD
:1044F000FFF7C2F85320ADF804000020ADF8060025
:10450000ADF80C004FF47A70029001A9014800F058
:1045100007F91FBD0010004010B50121064800F04A
:104520001FF801221146044800F043F80121024817
:1045300000F010F810BD00000010004021B102880A
:1045400042F08002028004E002884FF67F731A4036
:1045500002807047CA4302827047CA430282704792
:1045600021B1028842F00102028004E002884FF685
:10457000FE731A40028070470146486A704702463F
:104580000020138A0B400BB1012000E0002070478F
:1045900030B50246002000230024158A05EA0103F5
:1045A000958905EA010413B10CB1012000E0002057
:1045B00030BD1AB183890B43838102E083898B4329
:1045C0008381704770B5002400220023058C4FF6CC
:1045D000FE7635400584028C8388048B4FF68F75F8
:1045E0002C40B51E2C400D882C43751E2A408D8909
:1045F0002A434D882A43104DA84202D00F4DA842AD
:1046000013D14FF6F7752A40CD892A434FF6FB7533
:104610002A408D882A434FF6FF652B404FF6FF5501
:104620002B400D8A2B434D8A2B43838004838D6856
:104630004563028470BD0000000001400004014099
:104640000A460021018B4FF6F7731940114301838D
:104650007047000070B5002400220023058C4FF63F
:10466000EF7635400584028C8388048B48F6FF750D
:104670002C404FF6FF452C400D884FF6FF7606EA9A
:1046800005252C434FF6DF752A408D8906EA05156E
:104690002A434D8806EA05152A43154DA84202D043
:1046A000144DA8421DD14FF67F752A40CD894FF693
:1046B000FF7606EA05152A434FF6BF752A408D8816
:1046C00006EA05152A434FF6FF352B404FF2FF75DA
:1046D0002B400D8A06EA85052B434D8A06EA85059F
:1046E0002B43838004838D688563028470BD000042
:1046F00000000140000401400A460021018B4FF2F6
:10470000FF7319404FF6FF7303EA02231943018335
:104710007047C16270478163704741627047000013
:1047200000220288184B98420ED0184B98420BD0AA
:10473000B0F1804F08D0164B984205D0154B9842E7
:1047400002D0154B984204D14FF68F731A404B8814
:104750001A43124B984207D0114B984204D04FF69F
:10476000FF431A400B891A4302804B68C3620B88CF
:104770000385054B984202D0044B984201D18B7AB5
:10478000038601238382704700000140000401403A
:104790000004004000080040000C004000100040F1
:1047A000001400407FB504460D4601210420FFF7A8
:1047B000CBF8ADF800500020ADF802000194ADF840
:1047C000080069460D48FFF7ABFF012211460B4870
:1047D000FFF7EFFE01210948FFF7C2FE1E208DF80A
:1047E0000C0003208DF80D008DF80E0001208DF8CF
:1047F0000F0003A8FEF740FF7FBD00000008004047
:1048000000B595B040F22551364800F059FB00281C
:1048100065D0344800F0DCFA032002F047F80121AB
:104820008805FFF781F8304802900020ADF80C00B1
:10483000ADF80E004FF48060ADF810000420ADF824
:1048400012000020ADF8140002A9264800F088FBF1
:104850000121244800F0A6FA01224021214800F05D
:10486000ADFA3A208DF8040000208DF805000120F3
:104870008DF806008DF8070001A8FEF7FDFE1B4825
:10488000FDF7A6FA4FF0006006901648001D07904D
:10489000174808900020099012200A9000200B90E1
:1048A0004FF480600C9000200D900E904FF48070BB
:1048B0000F904FF440301090002011901290139000
:1048C000149006A90948FDF77FFB01221021074833
:1048D000FDF75CFB01210548FDF76EFA00BF15B03E
:1048E00000BD000000100140A086010040640240AD
:1048F0007405002010B540F225511D4800F0E0FA83
:1049000010B31B4800F096FBC4B21A48008800F4AC
:104910000040C8B91748008800F4804060B10A2CF4
:1049200003D000201349088020E01248008840F49A
:1049300000401049088019E00D2C06D10D48008870
:1049400040F480400B49088010E00A480088C0F31A
:104950000D0009490C5407480088401C054908808F
:1049600008460088C72801DD0020088010BD00002F
:1049700000440040240000208D05002010B588B0C0
:10498000044601210820FEF7CFFF01214804FEF76D
:10499000DBFF072205212248FDF7DAFF0722062167
:1049A0001F48FDF7D5FF6020069002208DF81C00FF
:1049B00003208DF81D0000208DF81E0001208DF8C9
:1049C0001F0006A91648FDF77BFF02940020ADF8F2
:1049D0000C00ADF80E00ADF81000ADF814000C207E
:1049E000ADF8120002A90F4800F0BAFA01210D48F3
:1049F00000F0D8F9012240F225510A4800F08AFA65
:104A000026208DF8040003208DF805008DF806009F
:104A100001208DF8070001A8FEF72EFE08B010BD9A
:104A2000000C02400044004010B540F225511D48E2
:104A300000F046FA10B31B4800F0FCFAC4B21A4862
:104A4000008800F40040C8B91748008800F480408E
:104A500060B10A2C03D000201349088020E01248DE
:104A6000008840F400401049088019E00D2C06D160
:104A70000D48008840F480400B49088010E00A4847
:104A80000088C0F30D0009490C5407480088401CF9
:104A90000549088008460088C72801DD00200880F5
:104AA00010BD0000004800402C00002055060020EA
:104AB00010B588B0044601210820FEF735FF01211A
:104AC0008804FEF741FF072208212348FDF740FF35
:104AD000072209212048FDF73BFF4FF44070069064
:104AE00002208DF81C0003208DF81D0000208DF899
:104AF0001E0001208DF81F0006A91748FDF7E0FEF3
:104B000002940020ADF80C00ADF80E00ADF81000D6
:104B1000ADF814000C20ADF8120002A90F4800F007
:104B20001FFA01210D4800F03DF9012240F2255104
:104B30000A4800F0EFF927208DF8040003208DF8D3
:104B400005008DF8060001208DF8070001A8FEF78A
:104B500093FD08B010BD0000000C0240004800406A
:104B600010B588B0044601214020FEF7DDFE01218A
:104B70002020FEF709FF08220E212648FDF7E8FE57
:104B8000082209212348FDF7E3FE4FF484400290F8
:104B900002208DF80C0000208DF80E0003208DF807
:104BA0000D0000208DF80F0002A91A48FDF788FEBD
:104BB00004940020ADF81400ADF81600ADF818000C
:104BC0000C20ADF81A000020ADF81C0004A9124812
:104BD00000F0C6F9012240F225510F4800F09AF981
:104BE00001210D4800F0DEF847208DF80400002078
:104BF0008DF805008DF8060001208DF8070001A84A
:104C0000FEF73AFD6420FBF76FFB0449086008B02B
:104C100010BD0000001802400014014030000020C8
:104C200010B540F22771494800F04AF9A8B1484848
:104C30000068FBF736FD48B945480068FBF743FCC0
:104C400004462146414800F0FAF97DE0002240F296
:104C500027713E4800F05EF976E040F225513B486E
:104C600000F02EF900286FD0384800F0E3F9C4B204
:104C700038480078092861D2DFE800F005111D25C9
:104C80002D353D4551000A2C05D132480078401C95
:104C90003049087002E000202E49087052E00D2CC7
:104CA00005D12C480078401C2A49087002E00020F9
:104CB0002849087046E027480078401C25490870BC
:104CC000254804703EE023480078401C21490870C4
:104CD0002148447036E01F480078401C1D49087088
:104CE0001D4884702EE01B480078401C194908704C
:104CF0001948C47026E017480078401C1549087010
:104D0000154804711EE00D2C05D112480078401C96
:104D10001049087002E000200E49087012E00A2CC9
:104D200008D10D4800F0B0F90C480068C0430C49A8
:104D3000C1F8840200200749087003E000200549FB
:104D4000087000BF00BF00BF10BD0000001401408C
:104D500030000020340000201D0700208402434260
:104D60000000434210B504462046FFF7F9FE10BD8F
:104D700010B503460C46002203E0985C00F004F8EE
:104D8000521CA242F9DB10BD00BF0549098801F0A1
:104D900040010029F9D00249091D08807047000030
:104DA0000014014021B1828942F40052828104E062
:104DB00082894DF6FF731A40828170471AB1838A47
:104DC0000B43838202E0838A8B4383827047000017
:104DD00010B504463248844208D101211020FEF764
:104DE000E3FD00211020FEF7DFFD57E02D4884424F
:104DF00009D101214804FEF7B7FD00214FF400302E
:104E0000FEF7B2FD4AE02848844209D10121880416
:104E1000FEF7AAFD00214FF48020FEF7A5FD3DE03E
:104E20002248844209D10121C804FEF79DFD0021DA
:104E30004FF40020FEF798FD30E01D48844209D170
:104E400001210805FEF790FD00214FF48010FEF7C8
:104E50008BFD23E01748844208D101212020FEF772
:104E6000A3FD00212020FEF79FFD17E01248844299
:104E700009D101218807FEF777FD00214FF080401E
:104E8000FEF772FD0AE00D48844207D1012140057A
:104E9000FEF76AFD00216005FEF766FD10BD00000B
:104EA000001001400044004000480040004C004019
:104EB000005000400014014000780040007C004099
:104EC00070B50246002400230025002040F66A1633
:104ED000B14200D100BFC1F3421501F01F0301260A
:104EE00006FA03F3012D02D19689334006E0022D24
:104EF00002D1168A334001E0968A33400C12012613
:104F000006FA04F41688344013B10CB1012000E015
:104F1000002070BDF0B503460024002600250020C7
:104F200040F66A17B94200D100BF1846C1F34214D7
:104F300001F01F06012707FA06F5012C01D10C30FC
:104F400004E0022C01D1103000E014301AB10768DF
:104F50002F43076002E00768AF430760F0BD000021
:104F60002DE9FF4705460E460024A14600BFA04696
:104F7000B08900B100BF2C8A24F44054F088044367
:104F80002C82AC8941F20C608443B088318908439B
:104F9000718908430443AC81AC8A24F44074B0891D
:104FA0000443AC826846FEF70FFD2048854202D0DC
:104FB0001F48854202D1DDF80C9001E0DDF8089031
:104FC000A88900F4004040B109EBC90000EB0910CA
:104FD00031684900B0FBF1F707E009EBC90000EBCD
:104FE000091031688900B0FBF1F76420B7FBF0F0DD
:104FF00004012009642101FB1078A88900F4004015
:1050000040B1322000EBC800B0FBF1F000F0070027
:10501000044308E0322000EB08106421B0FBF1F0FB
:1050200000F00F0004432C81BDE8FF870010014011
:105030000014014001468888C0F308007047C1F39E
:1050400008028280704700000EB56846FDF7C0FC7C
:105050009DF80100012811D10A4890ED010ADDED0B
:10506000010A30EE200A80ED010A90ED000ADDED24
:10507000020A30EE200A80ED000A00E000BF00BF07
:105080000EBD00004408002010B52DED028B044633
:10509000B4F9010008EE900AB4F9030008EE100A12
:1050A0003048007800284ED02078052835D008DC1C
:1050B00001280FD0022810D0032823D0042840D183
:1050C00024E0062830D0072832D0082834D012280F
:1050D00037D132E002F0C4FF34E0B8EEE80ADFED89
:1050E000220A20EE200A214880ED010AB8EEC80A03
:1050F000DFED1D0A20EE200A80ED020A01201B4987
:1051000048701FE00020194948701BE00120FEF79D
:105110002DFF01201549087014E00020FEF726FF3E
:105120000020124908700DE00020FEF7DFFF09E0C3
:105130000020FEF7BDFD05E004E00020FEF7CAFFF9
:1051400000E000BF0BE0207818B90120FEF7C2FF95
:1051500005E02078102802D10920FEF7C7FFBDEC3A
:10516000028B10BD580500206F12833A54080020AE
:1051700000BFFEE710B53248007832490870304869
:105180000078062859D2DFE800F0030C22353C3DB8
:105190002D480068B0F57A6F02D9012028490870BF
:1051A0004BE0FDF727FC012802D1022024490870BA
:1051B000FDF758FC012802D1032021490870FDF7B2
:1051C000F3FB012802D105201D49087035E0FDF7E9
:1051D00011FC10B901201A490870FDF743FC0128A1
:1051E00002D1032016490870002211460120FEF763
:1051F0007FFE22E0FDF736FC10B90120104908704F
:105200001BE01AE0FDF7D0FB012804D001200C4977
:105210000870FEF747FDFDF7EDFB012804D10220E1
:1052200007490870FEF73EFDFDF7F0FB04462246F5
:1052300001210020FEF75CFE00BF00BF10BD000092
:1052400085040020840400201C0500200FB4054BB9
:1052500010B503A9044A029800F006FE10BC5DF8E0
:1052600014FB0000FD6800082800002003B401982A
:105270004100009850EAC12018BF04204A0D18BF11
:1052800040F0010040F2FF72B2EB515F08BF40F006
:105290000200012808BF052002B07047000000008E
:1052A00070B5C1482DED020B2DED0E8B82B0119D16
:1052B00025F000449FEDBEDB9FEDBFEB84423EDB5B
:1052C000A4F140511098A1F17F6108430FD0BC4870
:1052D000844202DC28D1109830B39DED100B02B04F
:1052E000BDEC0E8B02B0BDE8704000F0B0BC9DED8F
:1052F000100B53EC1D2B51EC100BFBF7FEFA9DED40
:10530000100B41EC180B53EC1E2B51EC100BFBF760
:10531000F4FA53EC182BFBF749FA41EC100B02B0EE
:10532000BDEC0E8B02B070BD012000F0D5FC02B0C8
:10533000BDEC0E8B02B0BDE8704000F09DBCA148F2
:105340009FEDA18B844256DA9DED100BB4F1795F8D
:105350000ADA51EC100BFFF789FF042808BF00F0B0
:105360009BFC9DED100BDAE753EC102B51EC100B6E
:10537000FBF7C3FA41EC190B95480621B0EE490A38
:10538000F0EE690A784400F0E6FB53EC192B51EC7F
:10539000100BFBF7B2FA41EC1A0B8E48B0EE490A3B
:1053A000F0EE690A0421784400F0D5FB53EC192B88
:1053B00051EC100BFBF7A1FA53EC182BFBF7F6F9A5
:1053C00041EC100B51EC1A0B53EC102BFBF707FBC5
:1053D000CDE900019DED000B53EC102B9DED100B62
:1053E00051EC100BFBF789FA9DED101B53EC112BC0
:1053F000FBF7DCF9D2E09DED100B51EC100B01F046
:1054000070FA53EC182BFBF775FA9FED730BCDE98F
:10541000000153EC102B9DED000B51EC100BFBF732
:105420006CFA41EC190B6E480621B0EE490AF0EE19
:10543000690A784400F08FFB53EC192B51EC100BE8
:10544000FBF75BFA41EC1B0B6648B0EE490AF0EE45
:10545000690A0421784400F07EFB53EC192B51ECCF
:10546000100BFBF74AFA53EC182BFBF79FF941ECB2
:105470001C0B51EC190B02F088FE41EC180B5A483A
:105480009FED5BABA04222DC53EC1C2B51EC1B0BC1
:10549000FBF7A5FACDE900019DED000B51EC180BCF
:1054A00053EC102BFBF729FA53EC182BFBF77EF982
:1054B00053EC1A2BFBF721FA53EC1D2BFBF717FAD1
:1054C00053EC1E2BFBF716FA41EC100B5FE08DED51
:1054D000008B002000909DED000B51EC180B53EC5D
:1054E000102BFBF763F99DED000B41EC1E0B53EC09
:1054F000102B51EC100BFBF700FA53EC192BFBF7B8
:10550000F9F953EC1E2BFBF76AFA41EC190B53EC3B
:105510001C2B51EC1B0BFBF762FA41EC1B0B53EC01
:105520001A2B51EC190BFBF7E8F953EC1D2BFBF789
:10553000E1F941EC190B53EC1A2B51EC180BFBF76A
:10554000DCF953EC1B2BFBF7D8F953EC192BFBF7C9
:10555000CEF99DED000B41EC180B53EC1A2B51ECDE
:10556000100BFBF7CAF99FED249B53EC192BFBF7AB
:10557000C1F941EC100B51EC180B53EC102BFBF75D
:10558000B6F953EC192BFBF7B5F941EC100B002DD4
:105590003FF7C5AE51EC100B81F0004141EC100B10
:1055A000BDE60000000000000000F03F0000000029
:1055B000075C143326A6913C182D4454FB21F93F77
:1055C0000000F07F0000E03F000000000000F03F1E
:1055D0004840000056400000000000000000E03F8E
:1055E0009A3F0000A83F00003333EF3F0000000067
:1055F0000000000000000040182D4454FB21E93F4A
:1056000070B59B482DED020B2DED068B079D25F007
:105610000044A04218DC9748844202DC0AD1069874
:1056200040B19DED060BBDEC068B02B0BDE87040AD
:1056300000F00DBB002DCCBF9FED8F0B9FED900BAD
:10564000BDEC068B02B070BD8F48A04215DD8F48BF
:10565000A042D8BF4FF0FF3458DD9DED060B51EC52
:10566000100BFFF703FE042808BF00F015FB9DEDAB
:10567000060BBDEC068B02B070BD9DED060B51EC28
:10568000100B01F02EF9CDE9060181489FED828BC8
:10569000A0423CDD8248A0421FDD00249FED82AB8A
:1056A0009DED060B53EC1A2B51EC100BFBF77EF81B
:1056B0009DED060B41EC190B53EC1A2B51EC100B22
:1056C000FBF71BF953EC182BFBF711F953EC192BD3
:1056D000FBF785F9CDE9060149E09DED060B0124B4
:1056E00053EC182B51EC100BFBF760F89DED060BFB
:1056F00041EC190B53EC182B51EC100BFBF7F7F89E
:1057000053EC192BFBF76BF9CDE906012FE0684844
:10571000A0421FDD02249FED689B9DED060B53EC1C
:10572000192B51EC100BFBF7E8F853EC182BFBF797
:105730003DF89DED060B41EC180B53EC192B51EC89
:10574000100BFBF7D4F853EC182BFBF748F9CDE915
:1057500006010CE09DED060B032453EC102B9FED8E
:10576000580B51EC100BFBF73AF9CDE906019DED12
:10577000060B53EC102B51EC100BFBF7BEF841EC71
:10578000180B53EC182BFBF7B8F841EC190B4E48EB
:105790000621B0EE490AF0EE690A784400F0DBF920
:1057A00053EC182B51EC100BFBF7A7F841EC180B3E
:1057B0004648B0EE490AF0EE690A0521784400F047
:1057C000CAF953EC192B51EC100BFBF796F841EC8E
:1057D000100B51EC180B53EC102B002C0EDAFAF7CF
:1057E000E5FF9DED061B53EC112BFBF786F89DEDB5
:1057F000061B53EC112BFBF77DF835E0FAF7D6FFCB
:105800009DED061B53EC112BFBF777F841EC100BC9
:105810002F48784400EBC40090ED001B51EC100BB6
:1058200053EC112BFBF763F89DED061B53EC112B8A
:10583000FBF75DF841EC100B2648784400EBC40000
:1058400090ED001B51EC100B53EC112BFBF752F8B1
:1058500041EC100B002DA2BFBDEC068B02B070BD59
:1058600051EC100B81F0004141EC100B01E70000FE
:10587000000010440000F07F182D4454FB21F93F34
:10588000182D4454FB21F9BF0000DC3F0000203EEE
:105890000000F33F00000000000000000000F03FA7
:1058A0000000E63F00000000000000000000004093
:1058B0000080034000000000000000000000F83FEE
:1058C000000000000000F0BFEA3C0000A03C000027
:1058D0002A3C0000E23B000070B56B4E2DED040B3E
:1058E0002DED028B82B0DDF81CC0DDE905235C42A2
:1058F0002CF000411C4341EAD474049D22F0004086
:10590000B44205D86C422C4340EAD474B4420BD95B
:105910009DED061B9DED040B02B0BDEC028B04B0A7
:10592000BDE8704000F09DB9ACF14054A4F17F6433
:105930001C430BD0022404EAAC7444EAD27405433D
:105940009FED538B9FED542B07D015E09DED040B7D
:1059500051EC100B00F0A2FF42E0002C11BF012C13
:105960009DED040B02B0BDEC028B04BF04B070BD12
:10597000022C38D0032C3BD00B439FED491B9FEDED
:105980004A0B0AD0B14218D1B04209D121F080416E
:1059900020F08040079105900FE0002A15DA10E012
:1059A000434B7B44002C08BF93ED000B0DD0012C22
:1059B00010D0022C17D0032C1AD0B0421DD1002ACF
:1059C00003DAB0EE410AF0EE610A02B0BDEC028BE0
:1059D00004B070BD93ED000B51EC100B81F0004151
:1059E00041EC100BF1E7B0EE480AF0EE680AECE784
:1059F000B0EE420AF0EE620AE7E7401A00153C28D2
:105A0000C8BF8DED000B19DCBCF1000FBEBF10F15B
:105A10003C0F9FED290B8DED000B0FDB9DED060B71
:105A200053EC102B9DED040B51EC100BFAF7D7FF44
:105A300000F057FF00F032FFCDE90001002C08BF55
:105A40009DED000BC1D0012C10D0022C9FED1C0B42
:105A500053EC102B9DED000B51EC100B0DD0FAF711
:105A600046FF53EC182BFAF742FFB9E7019880F094
:105A7000004001909DED000BA7E7FAF738FF53ECCB
:105A8000182BFAF737FFABE70000F07F00000000AB
:105A9000182D4454FB210940182D4454FB2109C002
:105AA000182D4454FB21F9BF182D4454FB21F93F14
:105AB000123B000000000000000000000000000099
:105AC000075C143326A6A13C2DED020B019820F0B3
:105AD000004001909DED000B02B0704700B52DED28
