:020000040800F2
:10000000D81F0020C1010008F54300084531000851
:10001000DD430008971200083D5E00080000000064
:10002000000000000000000000000000C94B0008B4
:10003000D128000800000000954500083150000854
:10004000DB010008DB010008DB010008DB01000820
:10005000DB010008DB010008DB010008DB01000810
:10006000D5280008DB010008DB010008DB010008DF
:10007000DB010008DB010008DB010008DB010008F0
:100080001D1F0008DB010008DB010008F113000858
:10009000B5130008DB010008DB010008DB010008E4
:1000A000DB010008DB010008DB010008DB010008C0
:1000B0009D50000861510008DB010008DB010008C9
:1000C000DB010008DB010008DB010008DB010008A0
:1000D000DB010008A154000895550008815600086E
:1000E000DB010008DB010008DB010008DB01000880
:1000F000DB010008DB010008DB010008DB01000870
:10010000DB010008DB010008DB010008DB0100085F
:10011000DB010008DB010008A1510008DB01000839
:10012000DB010008DB01000819250008DB010008DD
:10013000DB010008DB010008DB01000845150008B1
:100140001D150008DB010008DB010008DB010008C9
:10015000DB010008DB010008DB010008795800081A
:10016000DB010008DB010008DB010008DB010008FF
:10017000DB010008DB010008DB01000800000000D3
:10018000DB010008DB010008DB010008DB010008DF
:10019000DB010008DB010008DB010008DB010008CF
:1001A0000000000000000000DB010008DFF80CD0B8
:1001B00000F094FE00480047E1850008D81F0020A9
:1001C0000648804706480047FEE7FEE7FEE7FEE7F1
:1001D000FEE7FEE7FEE7FEE7FEE7FEE73550000834
:1001E000AD01000810B5044600BF00BF00BF00BF4E
:1001F000002CFDD000BF00BF00BF0029FDD000BF14
:1002000000BF00BF002AFDD000BF00BF00BF002B11
:10021000FDD000BF72B6216002FB0310401E60607B
:10022000A3600020E06022746161A16162B60020D9
:1002300010BD2DE9F04104460D460026002700BF01
:1002400000BF002CFDD000BF00BF00BF002DFDD0BF
:1002500000BF1C2008F008FA064616B90020BDE8C9
:10026000F08104FB05F008F0FFF907460FB9002004
:10027000F5E72B46224639463046FFF7B3FF3046B6
:10028000EDE710B5044600BF00BF002CFDD000BF55
:1002900000BF00BF20680028FCD000BF206807F026
:1002A0006DFE204607F06AFE10BD034600BF00BF8A
:1002B00000BF00BF002BFDD000BF00BF00BF002962
:1002C000FDD000BF00BF00BF002AFDD000BF72B646
:1002D00019608818401E58609A600020D860196123
:1002E000596162B60020704770B5044600250026AB
:1002F00000BF00BF002CFDD000BF182008F0B4F9EB
:1003000005460DB9002070BD204608F0ADF906463F
:100310000EB90020F7E7224631462846FFF7C5FF11
:100320002846F0E710B5044600BF00BF002CFDD002
:1003300000BF00BF00BF20680028FCD000BF2068BD
:1003400007F01CFE204607F019FE10BD30B502462E
:1003500000230C4600BF00BF00BF00BF002AFDD035
:1003600000BF00BF00BF0029FDD000BF906810B9DA
:100370004FF0FF3030BD002310E055689069A8426F
:1003800001D91068906114F8010B9569287072B654
:100390009069401C906162B6581CC3B2107C9842B0
:1003A000EBDC72B69068401E9060D068401CD06054
:1003B00062B60020DEE7024600BF00BF00BF00BFFC
:1003C000002AFDD000BF906810B94FF0FF30704791
:1003D00072B650695368984201D9106850615069EB
:1003E00001705069401C50619068401E9060D06858
:1003F000401CD06062B60020E9E770B503460C46A9
:10040000002500BF00BF00BF00BF002BFDD000BF14
:10041000986810B94FF0FF3070BD002119E098685E
:1004200010B94FF0FF3516E072B65E685869B042F9
:1004300001D918685861605C5E6930705869401C69
:1004400058619868401E9860D868401CD86062B6B1
:10045000491C9142E3D300BF2846DDE730B5024690
:1004600000230C4600BF00BF00BF00BF002AFDD024
:1004700000BF00BF00BF0029FDD000BFD06810B989
:100480004FF0FF3030BD002310E055685069A8429E
:1004900001D9106850615069007804F8010B72B6F8
:1004A0005069401C506162B6581CC3B2107C98421F
:1004B000EBDC72B69068401C9060D068401ED06043
:1004C00062B60020DEE70146002000BF00BF00BF8B
:1004D00000BF0029FDD000BF72B60A694B689A427E
:1004E00001D90A680A610A6910780A69521C0A610E
:1004F0008A68521C8A60CA68521ECA6062B6704717
:1005000070B5024600230C4600BF00BF00BF00BF0D
:10051000002AFDD000BF00BF00BF0029FDD000BFF2
:10052000D06810B94FF0FF3070BD72B6167CD0683D
:10053000401E556906FB00501568451BD2E9006056
:10054000801B401CB5FBF0F600FB165015682844D4
:100550005061D2E90250401E284490600120D060D2
:1005600062B6002310E055685069A84201D91068AE
:1005700050615069007804F8010B72B65069401C54
:10058000506162B6581CC3B2107C9842EBDC72B664
:100590009068401C9060D068401ED06062B6002019
:1005A000C2E710B50146002000BF00BF00BF00BF7A
:1005B0000029FDD000BF72B6D1E903321A44521EA1
:1005C0000B68D31AD1E90042121B521CB3FBF2F4A0
:1005D00002FB14320B681A440A610A691078D1E9E7
:1005E00002231A448A600022CA6062B610BD70B548
:1005F00003460C46154600222E46002100BF00BFD0
:10060000002BFDD000BF00BF00BF002DFDD000BFFC
:10061000D868A04202D84FF0FF3070BD596900225F
:1006200006E05868884200D21968491C501CC2B2C2
:10063000187C60439042F4DC002209E0586888424C
:1006400000D21968087806F8010B491C501CC2B288
:10065000187C9042F2DC0020DFE710B502460B4622
:100660000024002100BF00BF002AFDD000BF116997
:10067000002406E05068884200D21168491C601CC2
:10068000C4B29C42F6DB087810BD014600BF00BF33
:100690000029FDD000BFC86808B9012070470020BC
:1006A000FCE7014600BF00BF0029FDD000BFC868BD
:1006B00008B9012070470020FCE7014600BF00BFD9
:1006C0000029FDD000BF886808B9012070470020CC
:1006D000FCE7014600BF00BF0029FDD000BF8868CD
:1006E00008B9012070470020FCE7014600BF00BFA9
:1006F0000029FDD000BFC8687047014600BF00BF99
:100700000029FDD000BFC8687047014600BF00BF88
:100710000029FDD000BF88687047014600BF00BFB8
:100720000029FDD000BF88687047014600BF00BFA8
:1007300000BF00BF0029FDD000BF72B6D1E9002084
:10074000801A0A7C90FBF2F088600020C86008687C
:1007500048610868886162B600207047014600BFA2
:1007600000BF00BF00BF0029FDD000BF72B6D1E9B5
:100770000020801A88600020C86008680861086846
:10078000486162B60020704740EA01039B0703D02E
:1007900009E008C9121F08C0042AFAD203E011F8C0
:1007A000013B00F8013B521EF9D270472DE9FE4F84
:1007B000804681EA0300C00F0C46009021F0004102
:1007C00023F00045B8EB0200A94105D2404621467E
:1007D00090461C460B46024623F00040104347D08B
:1007E000270DC7F30A00C3F30A510290401A019083
:1007F00040286BDAC3F3130040F4801B0098924644
:1008000020B10023D2EB030A63EB0B0B019859468E
:10081000C0F14002504600F01CFA06460D46504614
:100820005946019A00F034FA10EB080061410024A7
:1008300087EA115284EAE7731A4340D0009A62B300
:10084000019A012A4FEA075215DC001B61EB0201F5
:100850004FF0004202EA0752CDE90042001C41F588
:10086000801132462B4600F06BFA03B0BDE8F08FE2
:1008700040462146F9E7001B61EB0201001C41F5EF
:10088000801300185B412018A2F5001747EB030105
:1008900040EAD570B6196D4111E06D084FEA360691
:1008A00045EAC0754FEA0752001B61EB0201001CCC
:1008B00041F5801149084FEA300000195141324694
:1008C0002B4603B0BDE8F04F00F02BBA0098012290
:1008D00040000023D0EB020263EBE0730098214656
:1008E0004FEAE074B8EB000061EB0401E9E783F044
:1008F00000435BE781F0004158E72DE9FE4F81EAB4
:10090000030404F0004421F0004100944FF0000B78
:1009100023F0004350EA01045ED052EA03045BD0A6
:10092000C3F30A54C1F30A552C44A4F2F3340194DE
:10093000A0FB0254C1F3130141F48011C3F313036C
:1009400043F4801301FB024400FB034E840A970A20
:1009500044EA815447EA8357A4FB076802958D0A4D
:1009600005FB07854FEA932C04FB0C542705029DD9
:100970004FEA065847EA1637B5EB08056EEB070C49
:10098000870E920E47EA811742EA8312A7FB020103
:10099000B6EB0B0164EB00042B0D43EA0C335E183D
:1009A00044EB1C50DA465146E7FB0201C5F3130441
:1009B0004FEA0B3343EA14534FEA0432019C43EAF3
:1009C0000603A4F10C040294009CCDE900B400F0ED
:1009D000B7F903B0BDE8F08F00200146F9E72DE933
:1009E000F04D81EA030404F0004B21F00045144669
:1009F0004FF0000A23F0004150EA050220D054EAEB
:100A000001021DD0C5F30A570246C5F31303C1F313
:100A10001300C1F30A5640F4801543F48013A7EB8A
:100A20000608101BD64608F2FD3873EB050002D30A
:100A300008F1010801E092185B41B8F1000F03DAF8
:100A400000200146BDE8F08D00204FF480110646DD
:100A500084460EE0171B73EB050705D3121B63EBEF
:100A6000050306434CEA010C49084FEA300092188E
:100A70005B4150EA0107EDD152EA030012D082EA4D
:100A8000040083EA0501084305D0101BAB4106D2E0
:100A90000122002306E000224FF0004302E06FF045
:100AA000010253101AEB06004CEB085110EB0A0040
:100AB00041EB0B01BDE8F04D00F033B90EB5C10FAD
:100AC00080EAE0700844CA07002140F233438DE811
:100AD0000E000A460B4600F033F903B000BD0EB518
:100AE00040F2334102910021CDE900110A460B4644
:100AF00000F026F903B000BD70B5C1F30A5201F051
:100B000000450024C1F3130140F2FF3341F480118A
:100B10009A4201DA002070BD40F233439A42A2F2B9
:100B2000334203DC524200F0A3F800E090402C4333
:100B3000F1D0404270BD00F0004230F000400AD0D9
:100B4000C10D01F56071C0F3160042EA0151C208FF
:100B500040071143704700200146704730B5041E1E
:100B600071F1000404DB4FF00044404264EB0101EA
:100B7000141E73F1000405DB1C464FF00043524283
:100B800063EB0403994208BF904230BD01F000437B
:100B900030B421F0004150EA010206D00A0DA2F55E
:100BA0006072C1F31301002A02DC30BC00207047E0
:100BB000440F44EAC104C100E01830BC00EBC2504D
:100BC00000F078B830B50B46014600202022012401
:100BD00009E021FA02F59D4205D303FA02F5491B0B
:100BE00004FA02F52844151EA2F10102F1DC30BD21
:100BF0002DE9F05F0546002092469B468846064652
:100C0000814640241BE0284641464746224600F0E4
:100C10002FF853465A46C01A914110D31146184630
:100C2000224600F016F82D1A67EB01084F462246BF
:100C30000120002100F00DF817EB00094E41201EA5
:100C4000A4F10104DFDC484631462A464346BDE8AC
:100C5000F09F202A04DB203A00FA02F100207047BE
:100C60009140C2F1200320FA03F3194390407047EA
:100C7000202A04DB203A21FA02F00021704721FAF1
:100C800002F3D040C2F12002914008431946704758
:100C9000202A06DBCB17203A41FA02F043EAE07340
:100CA00006E041FA02F3D040C2F12002914008432D
:100CB000194670470029A8BF7047401C490008BF6B
:100CC00020F00100704710B4B0FA80FC00FA0CF07C
:100CD00050EA010404BF10BC704749B1CCF12004B4
:100CE00021FA04F411FA0CF118BF01212143084341
:100CF000A3EB0C01CB1D4FEA00614FEA102042BF6D
:100D0000002010BC704700EBC35010440029A4BF62
:100D100010BC7047401C490008BF20F0010010BC07
:100D2000704710B5141E73F1000408DA401C41F13D
:100D3000000192185B411A4301D120F0010010BD5F
:100D40002DE9F04D92469B4611B1B1FA81F202E0D5
:100D5000B0FA80F220329046FFF77BFF04460F4640
:100D600040EA0A0041EA0B0153465A46084313D0B1
:100D7000114653EA010019D0C8F140025046FFF76E
:100D800077FF05460E46504659464246FFF761FF3B
:100D9000084305D0012004E020463946BDE8F08D27
:100DA0000020054346EAE0762C4337430A98630562
:100DB000E40AA0EB08000022FD0A44EA47540A3086
:100DC00002D500200146E9E7010510196941DDE976
:100DD000084500196941BDE8F04DA2E770B521F062
:100DE000004303430CD0C1F30A550024D5EB04059E
:100DF00064EB0403D617AD1AB34102DB00200146B1
:100E000070BD201841EB025170BD2DE9F04D00235B
:100E10001A461B1A8A4103DB00200146BDE8F08D0B
:100E2000C1F30A52C1F3130141F480154FF0000BD6
:100E3000D10702D100186D41521E0027044640F22E
:100E4000FF11384601EB620A3E468046024600200A
:100E50004FF48011FFF70CFFC2197141BB1846EB2C
:100E60000100B4EB030C75EB000C04D3E41A65EB42
:100E7000000517460E46241908F101006D41804611
:100E80003428E3DDF91946EB0600091BA84103D21B
:100E90004FF0FF32134601E0002213461BEB070020
:100EA00046EB0A51BDE8F04DFFF73BBFC1F30A52D4
:100EB000C1F3130140F2FF3341F480119A4202DA88
:100EC00000200146704740F233439A42A2F2334277
:100ED00002DC5242FFF7CCBEFFF7BBBE064C074D0B
:100EE00006E0E06840F0010394E8070098471034FA
:100EF000AC42F6D3FFF75EF9C88F0008E88F000810
:100F000070B58C1810F8015B15F0070301D110F8CB
:100F1000013B2A1106D110F8012B03E010F8016BF8
:100F200001F8016B5B1EF9D12B0705D40023521E7B
:100F30000DD401F8013BFAE710F8013BCB1A921CE3
:100F400003E013F8015B01F8015B521EF9D5A142E1
:100F5000D8D3002070BDCA430260704721B18268B7
:100F600042F00102826003E0826822F001028260A6
:100F7000704700000021084A1168084A1140D0E972
:100F800000231A4383681A43C3681A431143044A6F
:100F9000C2F804137047000004230140E030FCFF56
:100FA000002001400146C86C80B270470246002014
:100FB00013680B400BB1012000E0002070470000D7
:100FC00030B50246002000235068104C20400D79B7
:100FD0000C6844EA05242043506090680C4C204083
:100FE000D1E903542C438D682C434D7944EA4504E0
:100FF00020439060D06A20F470000C7D641EE4B23F
:10100000234340EA0350D06230BD0000FFFEFFFCE6
:10101000FDF7FFC0F0B504460D4600200021092D64
:1010200011DDE068A5F10A0606EB4607072606FA79
:1010300007F18843A5F10A0606EB460603FA06F116
:101040000843E0600CE0206905EB4507072606FA37
:1010500007F1884305EB450603FA06F108432061D2
:10106000072A0FDA606B561E06EB86071F2606FA64
:1010700007F18843561E06EB860605FA06F108437B
:10108000606322E00D2A0FDA206BD61F06EB86077D
:101090001F2606FA07F18843D61F06EB860605FAD7
:1010A00006F10843206310E0E06AA2F10D0606EBAA
:1010B00086071F2606FA07F18843A2F10D0606EB04
:1010C000860605FA06F10843E062F0BD816841F04A
:1010D000804181607047000038B10849096841F4D7
:1010E0000001074AC2F8041306E00449096821F424
:1010F0000001034AC2F804137047000004230140B2
:101100000020014070B505460C4600260DB1022CAA
:1011100000D870BDA11E06480288284601F074FE62
:101120000646A01E2E54310A601E295400BFF0E767
:101130006602002070B505460C4600260DB1022C53
:1011400000D870BD611EFF22284601F077FE0646DA
:10115000601E2E5400BFF4E700B58BB00121402083
:1011600003F02AFA0121802003F016FA0922062151
:101170001F4801F0FBFD4020099002208DF8280057
:1011800003208DF8290000208DF82A0001208DF819
:101190002B0009A9164801F0A1FD5320ADF8180055
:1011A0000020ADF81A00012007900020ADF82000C3
:1011B00006A9104804F020F96020ADF804000120D1
:1011C000ADF806000020ADF8100001A9094804F0B0
:1011D0006BF80821074804F0A5F80121054804F040
:1011E0002BF80121034804F039F80BB000BD0000D2
:1011F000001C02400018004010B5FFF7ADFF03F0DF
:10120000F5FE10BD10B500F0F3FD03F0AFFB01F0EB
:101210003DFC01F093FF02F02BFE642006F078FE07
:1012200002F0EAFC4FF4E13004F0C8FB03F0CCFF1D
:1012300000F034F800F0EAF801F0F0FA03F0EAFF09
:1012400010BD10B54FF4A06003F012F902F074FD68
:1012500002F0CEFDFFF7D0FF642006F059FE4FF4F8
:10126000E13004F051FA07F017FC03F026FF03F019
:10127000D1FB06F0D9FF07F07DFB002408E02046F3
:1012800007F0ACFB40F2C52006F050FE601CC4B273
:10129000042CF4DB10BD00BFFEE7000000B58BB0EE
:1012A0000121082003F078F90121480603F084F9B0
:1012B000092200213D4801F059FD092201213B4846
:1012C00001F054FD0320029000208DF80E00032051
:1012D0008DF80D0002208DF80C0002A9334801F0B2
:1012E000FDFC14208DF8040001208DF805008DF818
:1012F00006008DF8070001A803F07EF813208DF892
:10130000040000208DF8050001208DF806008DF8FE
:10131000070001A803F070F8254800F091F908A82B
:1013200000F0C9FB00208DF826008DF827008DF80D
:1013300028008DF829008DF82A0001208DF82B0057
:1013400000208DF822008DF8230008208DF824005D
:1013500003208DF82500ADF8200008A9144800F0FE
:10136000A8FA00208DF81A008DF81B0001208DF8D6
:101370001C000020ADF81000ADF81200ADF814000C
:10138000ADF81600ADF8180001208DF81D0004A876
:1013900000F072F901220221054800F081FA0122D1
:1013A0001146034800F07CFA0BB000BD000C02406F
:1013B0000064004000B585B002210B4800F0E0F960
:1013C00078B10421084800F0E7F80849064800F021
:1013D000C7F86A460021044800F0F5FA684600F0B4
:1013E0000DFC05B000BD00000064004008000032A4
:1013F00010B50121044800F0C3F918B101210248D9
:1014000000F0CAF810BD00000064004000B58BB0C9
:101410000121022003F0C0F80121880603F0CCF876
:1014200009220C213B4801F0A1FC09220D21394879
:1014300001F09CFC4FF44050029002208DF80C000B
:1014400002A9344801F04AFC40208DF80400022033
:101450008DF8050001208DF806008DF8070001A821
:1014600002F0CAFF3F208DF8040001208DF805002E
:101470008DF806008DF8070001A802F0BDFF264890
:1014800000F0DEF808A800F016FB00208DF826001A
:101490008DF827008DF828008DF829008DF82A0096
:1014A00001208DF82B0000208DF822008DF82300FC
:1014B00008208DF8240003208DF82500ADF82000C9
:1014C00008A9154800F0F5F90E208DF81A00002043
:1014D0008DF81B0001208DF81C000020ADF81000D5
:1014E000ADF81200ADF81400ADF81600ADF8180014
:1014F00001208DF81D0004A800F0BEF80122022191
:10150000054800F0CDF901221146034800F0C8F962
:101510000BB000BD000402400068004000B585B07B
:101520000221074800F02CF940B10221044800F0E4
:1015300033F86A460021024800F045FA05B000BDC4
:101540000068004010B50121044800F019F918B1F5
:101550000121024800F020F810BD000000680040A2
:1015600000220C4B994202D10023836111E0C1F3A8
:10157000130201F000730BB1C2600AE001F0806356
:101580000BB1026105E001F000630BB1826000E085
:10159000426070477000F030B1F5007F3AD00FDC48
:1015A000202928D006DC01291CD004291DD00829B7
:1015B00040D11DE0402921D0B1F5807F3AD126E00D
:1015C000B1F5004F31D006DCB1F5806F25D0B1F513
:1015D000006F2FD124E0B1F5803F12D0B1F5003F6C
:1015E00028D111E0154A826025E00822C26022E07D
:1015F0001022C2601FE0082202611CE0102202617A
:1016000019E00822426016E01022426013E0042232
:10161000426010E0042242600DE0042242600AE0D1
:10162000002282610422426005E0002282610422DD
:10163000426000E000BF00BF7047000001010100F0
:1016400010B504460B48844209D10121480602F036
:10165000C3FF00214FF0007002F0BEFF08E001213F
:10166000880602F0B9FF00214FF0806002F0B4FF5D
:1016700010BD00000064004010B50021837A0122F3
:1016800002FA03F13D4A126842F001023B4B1A6034
:101690003A4A1C3212688A43384B1C331A60027B68
:1016A000CAB9364A0C3212688A43344B0C331A607A
:1016B0004288C38842EA0343304A4032847A42F87F
:1016C00034300288838842EA03432C4A4032847AC9
:1016D00002EBC4025360027B012A19D1274A0C3263
:1016E00012680A43254B0C331A604288038842EA89
:1016F0000343224A4032847A42F83430C2888388D5
:1017000042EA03431D4A4032847A02EBC40253602A
:10171000C27A3AB9194A121D12688A43174B1B1D27
:101720001A6006E0154A121D12680A43134B1B1D6E
:101730001A60028932B9114A143212688A430F4B77
:1017400014331A600289012A06D10C4A1432126835
:101750000A430A4B14331A60427B012A06D1074A16
:101760001C3212680A43054B1C331A60034A126884
:1017700022F00102014B1A6010BD0000006600401B
:1017800070B504460D46002660692840002871D0D7
:10179000B5F5807F5CD010DC082D35D006DC012D3E
:1017A00020D0022D24D0042D72D127E0102D31D06D
:1017B000202D35D0402D6BD138E0B5F5004F60D0ED
:1017C00009DCB5F5007F49D0B5F5806F4CD0B5F593
:1017D000006F5DD14FE0B5F5803F2DD0B5F5003FEE
:1017E00056D12FE0A0682D4900F0BCFA064651E022
:1017F000E068032100F0B6FA06464BE0E0680821F5
:1018000000F0B0FA064645E0E068102100F0AAFAC0
:1018100006463FE02069032100F0A4FA064639E0BD
:101820002069082100F09EFA064633E02069102165
:1018300000F098FA06462DE06068082100F092FA60
:10184000064627E06068102100F08CFA064621E089
:10185000A069012100F086FA06461BE0A06902217A
:1018600000F080FA064615E0A069042100F07AFA3B
:1018700006460FE00FE0A069702100F073FA0646FB
:1018800008E06068042100F06DFA064602E0FFE718
:10189000002600BF00E00026304670BD01010100B7
:1018A0001AB143690B43436102E043698B434361CF
:1018B000704730B5024600200023146824F002046B
:1018C0001460146844F00104146000E05B1C546868
:1018D00004F001041CB94FF6FF74A342F6D154681A
:1018E00004F001040CB900206CE08C79012C04D1C7
:1018F000146844F08004146003E0146824F0800449
:101900001460CC79012C04D1146844F040041460B4
:1019100003E0146824F0400414600C7A012C04D114
:10192000146844F02004146003E0146824F02004D8
:1019300014604C7A012C04D1146844F01004146033
:1019400003E0146824F0100414608C7A012C04D194
:10195000146844F00804146003E0146824F00804D8
:101960001460CC7A012C04D1146844F0040414608F
:1019700003E0146824F0040414608C78A407CD7884
:1019800044EA05640D7944EA05444D7944EA055476
:101990000D886D1E2C43D461146824F0010414607A
:1019A000002300E05B1C546804F001041CB14FF6F6
:1019B000FF74A342F6D1546804F001040CB1002076
:1019C00000E0012030BD10B500F5D87303EB011322
:1019D0001B6803F004031372137A53B900F5D8732C
:1019E00003EB01131B6840F2FF7404EA53531360C6
:1019F00009E000F5D87303EB01131B686FF0604436
:101A000004EAD303536000F5D87303EB01131B689A
:101A100003F00203537200F5D87303EB01135B6804
:101A200003F00F03937200F5D87303EB01135B68A7
:101A30001B0AD37400F5D87303EB01139B68D372B0
:101A400000F5D87303EB01139B681C0A147300F5AF
:101A5000D87303EB01139B681C0C547300F5D87307
:101A600003EB01139B681B0E937300F5D87303EB14
:101A70000113DB68D37300F5D87303EB0113DB6844
:101A80001C0A147400F5D87303EB0113DB681C0CFB
:101A9000547400F5D87303EB0113DB681B0E9374C9
:101AA00021B9C36843F02003C36003E0036943F036
:101AB0002003036110BD00218171C1710172417267
:101AC0008172C1728170C170032101710221417163
:101AD00001210180704710B502460020936803F091
:101AE0008063B3F1806F00D110E0936803F000636E
:101AF000B3F1006F01D1012008E0936803F0805337
:101B0000B3F1805F01D1022000E00420042874D0EA
:101B100002F5C07303EB00131B6803F0010402F528
:101B2000C07303EB00131C600B7A7BB94B7A0C88F3
:101B300043EA445302F5C07404EB001424682343C1
:101B400002F5C07404EB0014236010E00B7A4C68BB
:101B500043EAC4034C7A234302F5C07404EB001437
:101B60002468234302F5C07404EB001423608B7ACD
:101B700003F00F038B7202F5C07303EB00135B6875
:101B800023F00F0402F5C07303EB00135C6002F551
:101B9000C07303EB00135B688C7A234302F5C074B7
:101BA00004EB001463608B7B1C064B7B44EA03440C
:101BB0000B7B44EA0323CC7A234302F5C07404EB85
:101BC0000014A3608B7C1C064B7C44EA03440B7C12
:101BD00044EA0323CC7B234302F5C07404EB0014D6
:101BE000E36002F5C07303EB00131B6843F00104CC
:101BF00002F5C07303EB00131C6010BD10B5044662
:101C000050480068401C4F4908602068A0F201203D
:101C1000002874D0042806D0052839D0A0F201206D
:101C200000286BD181E047480068012804D146486C
:101C3000B0F90000454988612146444800F0BAFEE9
:101C4000404800685A2822D33E48006864281ED8BD
:101C50003E4880693D498968401A10F57A6F07DA75
:101C60003948B0F9000000F50050384988610EE0AD
:101C70003648806935498968401AB0F57A6F06DDC3
:101C80003148B0F90000A0F500503049886157E0B4
:101C90002C480068012804D12D48B0F900002D49D6
:101CA000886121462B4800F085FE264800685A28A6
:101CB00022D32448006864281ED826488069254914
:101CC0008968401A10F57A6F07DA2148B0F90000E8
:101CD00000F500501F4988610EE01E4880691D49CB
:101CE0008968401AB0F57A6F06DD1948B0F900002E
:101CF000A0F500501749886122E000E01FE0207B3A
:101D0000E17A40EA012000B213490880A17B607BA0
:101D100041EA002000B210494880217CE07B41EA82
:101D2000002000B20C4988800AE0207BE17A40EA7A
:101D300001200A490880607B0949087000BF00BF84
:101D400000BF10BD1C0000201A000020D803002096
:101D5000180000201C040020200000202600002085
:101D6000280000200246002002EA01030BB10120F6
:101D700000E000207047000070B51C480068401C5F
:101D80001A49086004F05CF802F02AFB01F080F8C0
:101D900040F6B831884205DD01F030F8022801D163
:101DA00002F006FE01F02AF8022801D103F06AFFD2
:101DB00001F0A0F800F0B8FE00F002FF02F06AFFA8
:101DC0000A48007800F0010010B903F095F80CE023
:101DD00001F046F8044601F006FF054601F008F858
:101DE00006462246294602F011FF70BD0C02002073
:101DF00010B500200F49086003F000F80E484FF4BA
:101E00007A61C26990470C48816988479FED0B0A47
:101E10000B4880ED000A9FED090A80ED010A094890
:101E2000C16C88470848C16C88470848C16C88471E
:101E300010BD00000C020020E8010020000000009E
:101E4000900400206C010020CC0000201C01002028
:101E500070B505460C4616480078202806DB15A00C
:101E600004F04CF803F0D4F8002070BD202D06DB00
:101E700019A004F043F803F0CBF80020F5E744B1D3
:101E8000012C06D01BA004F039F803F0C1F80020A3
:101E9000EBE704F00100A8401F49096808431E4908
:101EA000086003480078401C014908700120DCE705
:101EB00004000020416C6C2074686520666C6167CA
:101EC0007320686173206265656E20757365642098
:101ED0006F7574210D0A000054686520666C616797
:101EE00020494420697320746F6F20626967210D57
:101EF0000A000000496E697469616C20666C616754
:101F00002076616C7565206973206E6F7420766130
:101F10006C6964210D0A00000000002070B52DEDF1
:101F20000C8BFE49FE4800F0FDFB00287ED0FD49E9
:101F3000FB4800F00BFBF949F94800F021FB0024B5
:101F4000DFE2F948005DA52830D1F749A01D085C03
:101F50000028F9D1601D085C012828D104F1140083
:101F6000642824DAE01D095CEF4A401C105C41EA59
:101F70000020EE490880114604F10A00085CEB4994
:101F80000871114604F10B00095C401C105C41EA29
:101F90000020E6494880114604F10D00095C401C10
:101FA000105C41EA0020E149A1F80500A7E2DE4902
:101FB000601D085C022803D104F10B006428F5DBE6
:101FC000D949601D085C03287DD104F10F00642805
:101FD00079DAE01D085CD6490870D34904F108009D
:101FE000085CD3494870D04A04F10C01515C01F0FF
:101FF000800109B9012101E04FF0FF310846FEF7E9
:102000005DFD41EC190BC84A04F10B01515C01F074
:102010008005E91705EB5161CA11C34B04F10C01AE
:10202000595C01F07F0102EB410100E06CE2A1F19B
:102030007F00FEF743FD41EC1D0BB0EE4D1AF0EEB4
:102040006D1A9FEDBC0B04F0A3FBB0EE40BAF0EEAE
:1020500060BAB54904F10900085C00EE100AB8EE58
:10206000400A9FEDB61AC0EE010A04F10A00085CAE
:1020700000EE100AB8EE400A30EE800A9FEDAF1A6B
:10208000C0EE010A04F10B00085C00F07F0000EED6
:10209000100AB8EEC00A30EE800ADFEDA90A80EE21
:1020A000201AB7EE000A31EE000A10EE106A304630
:1020B000FEF741FD41EC1C0B53EC1B2BFEF71DFC06
:1020C00041EC1A0B00E00BE053EC192BFEF715FC6A
:1020D00041EC180BFEF75AFD9549C1F802000EE2DB
:1020E0009149601D085C0428F9D104F11E006428A0
:1020F000F5DA0A4604F10A01515C01F0800109B9E0
:10210000012101E04FF0FF310846FEF7D7FC41EC1A
:10211000190B854A04F10901515C01F08005E917AA
:1021200005EB5161CA11804B04F10A01595C01F0C1
:102130007F0102EB4101A1F17F00FEF7BFFC41EC02
:102140001D0BB0EE4D1AF0EE6D1A9FED7A0B04F0F8
:102150001FFBB0EE40BAF0EE60BA7349E01D085CB8
:1021600000EE100AB8EE400A9FED741AC0EE010AA4
:1021700004F10800085C00EE100AB8EE400A30EEE8
:10218000800A9FED6E1AC0EE010A04F10900085C96
:1021900000F07F0000EE100AB8EEC00A30EE800AB0
:1021A000DFED670A80EE201AB7EE000A31EE000A72
:1021B00010EE106A3046FEF7BEFC41EC1C0B53ECEF
:1021C0001B2BFEF79AFB41EC1A0B53EC192BFEF775
:1021D00094FB41EC180BFEF7D9FC5A490860524AAF
:1021E00004F10E01515C01F0800109B9012101E007
:1021F0004FF0FF310846FEF761FC41EC190B4A4AEB
:10220000E11C515C01F08005E91705EB5161CA1131
:10221000454B04F10E01595C01F07F0102EB4101D5
:10222000A1F17F00FEF74AFC41EC1D0BB0EE4D1A08
:10223000F0EE6D1A9FED3F0B04F0AAFAB0EE40BA33
:10224000F0EE60BA384904F10B00085C00EE100AA9
:10225000B8EE400A9FED391AC0EE010A04F10C00F5
:10226000085C00EE100AB8EE400A30EE800A9FEDDE
:10227000331AC0EE010A04F10D00085C00F07F0083
:1022800000EE100AB8EEC00A30EE800A9FED2C1A5C
:10229000C0EE010AB7EE000A30EE800A10EE106AB6
:1022A0003046FEF748FC41EC1C0B53EC1B2BFEF7B1
:1022B00024FB41EC1A0B53EC192BFEF71EFB41ECEF
:1022C000180BFEF763FC1F494860174A04F112011E
:1022D000515C01F0800109B9012101E04FF0FF31AB
:1022E0000846FEF7EBFB41EC190B0F4A04F1110114
:1022F000515C01F08005E91705EB5161CA110A4BE9
:1023000004F11201595C01F07F0102EB4101A1F1DE
:102310007F00FEF7D3FB41EC1D0B15E00088002089
:102320008860024000080020AC0400205602002013
:102330006002002000000000000000400000804318
:1023400000000043A8080020B0EE4D1AF0EE6D1A10
:102350001FED080B04F01CFAB0EE40BAF0EE60BAC4
:102360006B4904F10F00085C00EE100AB8EE400A59
:102370001FED0E1AC0EE010A04F11000085C00EE19
:10238000100AB8EE400A30EE800A1FED141AC0EEB3
:10239000010A04F11100085C00F07F0000EE100A51
:1023A000B8EEC00A70EE800A1FED1B1A80EE810A9B
:1023B000F7EE000A30EE200A10EE106A3046FEF703
:1023C000BAFB41EC1C0B53EC1B2BFEF796FA41ECCD
:1023D0001A0B53EC192BFEF790FA41EC180BFEF791
:1023E000D5FB4C4988604A4A04F11601515C01F062
:1023F000800109B9012101E04FF0FF310846FEF7E5
:102400005DFB41EC190B424A04F11501515C01F0EE
:102410008005E91705EB5161CA113D4B04F1160126
:10242000595C01F07F0102EB4101A1F17F00FEF751
:1024300045FB41EC1D0BB0EE4D1AF0EE6D1A1FED91
:10244000430B04F0A5F9B0EE40BAF0EE60BA3049A3
:1024500004F11300085C00EE100AB8EE400A1FED0C
:10246000491AC0EE010A04F11400085C00EE100ADB
:10247000B8EE400A30EE800A1FED501AC0EE010A95
:1024800004F11500085C00F07F0000EE100AB8EEC1
:10249000C00A70EE800A1FED561A80EE810AF7EE30
:1024A000000A30EE200A10EE106A3046FEF743FBB9
:1024B00041EC1C0B53EC1B2BFEF71FFA41EC1A0BE3
:1024C00053EC192BFEF719FA41EC180BFEF75EFBE3
:1024D0001049C8600E4904F11700095C0C4A401C01
:1024E000105C41EA00200B490882114604F11800F3
:1024F000095C401C105C41EA002006494882601CCF
:10250000C4B2642CFFF61DADBDEC0C8B70BD000099
:10251000AC040020A808002010B50949094800F0C3
:1025200001F958B14FF08151064800F00FF8044905
:10253000044800F025F8044802F058F910BD0000E6
:1025400000802010406402403D0900200246094BF3
:102550009A4201D2084801E00648103801F00053C1
:102560001BB1064B0B40C36002E0044B0B40836081
:102570007047000010640240006002407D0F7D0F34
:102580000246094B9A4201D2084801E00648103839
:1025900001F000531BB1064B0B40C36002E0044B3B
:1025A0000B408360704700001064024000600240EE
:1025B0007D0F7D0F21B1026842F00102026003E04D
:1025C000026822F00102026070470000016821F0F9
:1025D000010101600021016041608160C160016111
:1025E000212141614A49884204D13D21484A103A9B
:1025F00091608CE046491831884205D14FF47461EE
:10260000434A103A916082E041493031884205D115
:102610004FF474113E4A103A916078E03C494831D9
:10262000884205D14FF07461394A103A91606EE0EA
:1026300037496031884204D13649354A103AD16071
:1026400065E033497831884204D13349304A103A41
:10265000D1605CE02E499031884204D12F492C4A48
:10266000103AD16053E02A49A831884205D14FF091
:102670003D51274A103AD16049E02949884204D1A6
:102680003D21274A083A116041E025491831884226
:1026900005D14FF47461224A083A116037E02049AD
:1026A0003031884205D14FF474111D4A083A116047
:1026B0002DE01B494831884205D14FF07461184A1A
:1026C000083A116023E016496031884204D111496B
:1026D000134A121F11601AE011497831884204D15F
:1026E0000D490F4A121F116011E00D4990318842C7
:1026F00004D10A490A4A121F116008E00849A831AA
:10270000884204D14FF03D51054A121F11607047B5
:10271000106002403D000020400F002000003D20DE
:102720001064024070B50246002000240025124EBD
:10273000B24201D2114B01E00F4B103B104E0E4044
:1027400036B11E2606EAD124166806EA040502E020
:10275000566906F0800501F000560EB15C6800E095
:102760001C68084E344004EA010616B10DB1012080
:1027700000E0002070BD00001064024000600240D4
:102780003C0F3C0F7D0F7D0F10B501F080034BB166
:1027900022B1436943F08003436103E0436923F0BE
:1027A0008003436180290BD02AB1036801F01E0425
:1027B0002343036004E0036801F01E04A3430360A5
:1027C00010BD000010B500220268134B1A40CC68FF
:1027D0000B6823434C6923438C692343CC6923430F
:1027E0000C6A23434C6A23438C6A23434C6B234378
:1027F0008C6B23431A430260426922F00702D1E93D
:102800000B3423431A4342610B6943604B68836076
:102810008B68C36010BD00003F801CF000B587B01E
:102820000121274801F0B8FE0121102001F0E4FE4B
:1028300007221146234800F099FA234803F0DAF8FA
:102840008020059002208DF8180000208DF81A00D5
:1028500003208DF8190000208DF81B0005A91948E8
:1028600000F03CFA194801900020ADF80800ADF8DE
:102870000A004FF48060ADF80C000420ADF80E00A3
:102880000020ADF8100001A90F4803F087F90121DD
:102890000D4803F099F825208DF8000001208DF8EF
:1028A00001008DF802008DF80300684601F0A4FDD8
:1028B000012240F22551044803F04BF907B000BD56
:1028C000020040000004024000100140A086010008
:1028D0007047000010B5042000F016F840B10A203F
:1028E00005F016FB04480068012801D101F028FA20
:1028F000042000F003F810BD08824042014908603E
:1029000070470000143C014001460020034A126851
:102910000A400AB1012000E000207047143C014049
:10292000002123498279002A3AD00A4612680368B6
:102930009A430B461A600A1D126803689A430B1DDE
:102940001A60027911440A6803681A430A60184A37
:102950000832126803689A43154B08331A601A1D2F
:10296000126803689A43124B0C331A604279102A9A
:102970000ED11A1F126803681A430D4B08331A60F0
:102980001A1D126803681A43094B0C331A600DE0D4
:102990000749427911440A6803681A430A6005E04E
:1029A000027911440A6803689A430A60704700007C
:1029B000003C014070B500220023046844600C7B99
:1029C000CD7A44EA0524046004684568641BC46049
:1029D000C4682B4DAC4207DA846B641C8463C46802
:1029E00004F50054C4610EE0C46841F64C55AC4295
:1029F00007DD846B641E8463C468A4F50054C4615D
:102A000001E0C468C4610568846B05EB44348460EC
:102A100004688569641B00EE104AB8EEC00ADFED59
:102A2000190A20EE200A9FED181AC0EE010A846BE5
:102A30004FF4B4756C4300EE104AB8EEC00A30EEA5
:102A4000800A80ED100AC669047D651C057500F1D9
:102A5000200545F82460047D062C01D1002404756E
:102A6000002205E000F1200454F822402344521CC7
:102A7000062AF7DB062493FBF4F4C46370BD000060
:102A8000B4E2FFFF0000B4430000004610B500218F
:102A90000846FFF7DDF900210120FFF7D9F90021F1
:102AA0000220FFF7D5F900210320FFF7D1F900211B
:102AB0000420FFF7CDF900210520FFF7C9F9002117
:102AC0000620FFF7C5F900210720FFF7C1F9002113
:102AD0000820FFF7BDF900210920FFF7B9F900210F
:102AE0000A20FFF7B5F900210B20FFF7B1F900210B
:102AF0000C20FFF7ADF900210D20FFF7A9F9002107
:102B00000E20FFF7A5F900210F20FFF7A1F9002102
:102B10001020FFF79DF900211120FFF799F90021FE
:102B20001220FFF795F910BD10B5B2EE0E0A1D4840
:102B300080ED040A9FED1C0A80ED050A9FED1B0A3B
:102B400080ED060AB2EE0E0A194880ED040A9FEDE8
:102B5000170A80ED050A9FED150A80ED060A00F0C0
:102B6000A3F9144890ED000A0E4880ED000A1248BF
:102B7000016988471148D0ED100A20EE200A094863
:102B800080ED010A816C8847064890ED0D0A0848DF
:102B900080ED000A05F036FA054880ED010A816CE7
:102BA000884710BD2C0000200AD7233C00000000FD
:102BB0007C00002090040020C40100201C040020A0
:102BC00010B500F01BF9012804D002281DD00528FB
:102BD00051D135E0B2EE000A3D4880ED040A9FED88
:102BE0003D0A80ED050A9FED3B0A80ED060AB0EE36
:102BF000000A394880ED040A9FED360A80ED050A87
:102C00009FED340A80ED060A50E0B2EE0E0A30481D
:102C100080ED040A9FED2F0A80ED050A9FED2D0A35
:102C200080ED060AB3EE020A2B4880ED040A9FED00
:102C3000290A80ED050A9FED270A80ED060A35E096
:102C4000B2EE040A224880ED040A9FED220A80EDCC
:102C5000050A9FED200A80ED060AB2EE040A1E481E
:102C600080ED040A9FED1B0A80ED050A9FED190A0D
:102C700080ED060A1AE0B2EE0E0A154880ED040A4D
:102C80009FED140A80ED050A9FED120A80ED060AF9
:102C9000B3EE020A104880ED040A9FED0E0A80EDA3
:102CA000050A9FED0C0A80ED060A00BF00BF084828
:102CB000816C8847064890ED0D0A074880ED000AB0
:102CC00005F0A6F9044880ED010A816C884710BD23
:102CD000CC000020000000001C010020F0B50A46D6
:102CE00000210023002400BF3DE0012505FA01F387
:102CF000156805EA03049C4234D105684F00032699
:102D0000BE40B543056015794E00B54006683543B1
:102D100005601579012D02D01579022D16D185682F
:102D20004F000326BE40B543856055794E00B5403F
:102D3000866835438560456801268E40B543456009
:102D4000456896798E40B6B235434560C5684F00F8
:102D50000326BE40B543C560D5794E00B540C66870
:102D60003543C560491C1029BFD3F0BDF0B5002321
:102D700000244D07ED0E02FA05F3CE1000F12005F8
:102D800055F826504E07F70E0F26BE40B543CF101C
:102D900000F1200646F82750CE1000F1200555F826
:102DA000265045EA0304CE1000F1200545F82640E0
:102DB000F0BD41837047018370470AB1018300E091
:102DC0004183704701480078704700001C020020D2
:102DD00010B5044606222146492001F0BFF810BD77
:102DE000024B0ECB80E80E0070470000A0040020CC
:102DF0000148007870470000540200200148007824
:102E000070470000BD01002030B5034613B94FF6EE
:102E1000FF7030BD09E013F8014B82EA0400C0B234
:102E2000054D35F8100080EA2222081EA1F10101AB
:102E3000F1D11046EDE70000EE8B000830B50346F7
:102E400005E013F8010B80EA02040448025D081E45
:102E5000A1F10101F5D1104630BD0000ED8A000856
:102E60000148B0F9000070474C020020014800788A
:102E700070470000440200200148007870470000BD
:102E8000280000200148008870470000260000202C
:102E90000148B0F9000070474A0200200148B0F92B
:102EA0000000704746020020114890ED000AFAEE3B
:102EB0000C0AB4EEE00AF1EE10FA04D8BAEE0C0AED
:102EC00080ED000A13E00A4890ED000AF2EE0C0AC9
:102ED000B4EEE00AF1EE10FA04DBB2EE0C0A80ED7B
:102EE000000A04E0024890ED000A80ED000A7047F5
:102EF0009004002010B505F0D9F8534880ED000A81
:102F0000FFF77CFF06280DD2DFE800F0030D4261D9
:102F10007C7D9FED4E0A4E4880ED000A9FED4B0AE6
:102F200080ED010A8EE04B48007878B9464890ED74
:102F3000000A494880ED010A012046490870002036
:102F40004649087046490870464908704648008856
:102F5000401C00B2444908800846B0F900000A2825
:102F600008DD3D4890ED010AF6EE000A30EE200A39
:102F700080ED010AFFF798FF374890ED010A3448C9
:102F800080ED000A05F092F8314880ED010A59E021
:102F90003248007868B92C4890ED000A2E4880ED40
:102FA000010A01202D49087000202A4908702C4987
:102FB0000870FFF779FF284890ED010A244880ED5A
:102FC000000A05F073F8224880ED010A3AE024482F
:102FD000007858B91C4890ED000A1F4880ED010A9E
:102FE00001201F49087000201A490870164890ED0A
:102FF000000A174880ED000A05F058F8144880EDE3
:10300000010A1FE01EE01748007868B90E4890EDED
:10301000000A114880ED010A0120124908700020C1
:103020000C4908700D490870FFF73EFF0A4890ED03
:10303000010A074880ED000A05F038F8044880EDE1
:10304000010A00BF00BF10BD140200200000314380
:10305000CC0000201002002090040020110200206B
:1030600012020020130200201A02002000B58BB0CB
:103070000121802001F090FA0121082001F09CFA42
:103080004FF44060099002208DF8280003208DF84D
:10309000290009A92748FFF721FE02220A21254815
:1030A000FFF764FE02220B212248FFF75FFE532048
:1030B000ADF818000020ADF81A0040F6C3100790D4
:1030C0000020ADF8200006A91B4802F095F97020F9
:1030D000ADF804000120ADF806000020ADF80800AE
:1030E00040F2E73003900220ADF810000020ADF868
:1030F0001200ADF814004FF48070ADF8160001A96D
:103100000D4802F0D1F801A90B4802F015F9082189
:10311000094802F007F90821074802F05FF9012188
:10312000054802F089F80121034802F097F80BB036
:1031300000BD0000001C0240000C004010B5FFF76D
:1031400095FF10BD00BFFEE710B52DED028B1048B6
:103150000078B8B904F062FFB0EE408AF0EE608A01
:1031600051EC180BFDF7C8FC0A3040B20949087051
:10317000084690F900002D2801DD2D20087001205F
:1031800003490870034890F90000BDEC028B10BDA4
:10319000C9030020C803002010B52DED088B82B0B4
:1031A0000E22FE493B2000F0D9FEFC484078FB4946
:1031B000097840EA012000B2F9490880F748C07850
:1031C000F649897840EA012000B2F5494880F34881
:1031D0004079F249097940EA012000B2F04988803B
:1031E000EE48C079ED49897940EA012000B2EC4906
:1031F000C880EA48407AE949097A40EA0121E8486A
:10320000408B081A00B2E6490881E448C07AE349D5
:10321000897A40EA0121E248808B081A00B2E0492D
:103220004881DE48407BDD49097B40EA0121DC48DA
:10323000C08B081A00B2DA498881DA48FFF7C8FD66
:10324000D748D8490A68C0F80E2089884182B0F969
:103250000C00D349B1F90A10D14CCDE90010B4F9F2
:103260000830B4F90420B4F90210B4F9000005F0F4
:1032700031FA2346B3F91220B3F91010B3F90E0056
:1032800000F010FCC848008D00B221460880C648F6
:10329000B0F8540000B24880C348B0F8800000B2D3
:1032A0008880C148B0F8AC0000B20881BE48B0F8D0
:1032B000D80000B24881BC48B0F8040100B288814F
:1032C000BA48808AC881B948408D0882B748B0F8AA
:1032D0004000488204F0F0FE2046B0F9060000EEFF
:1032E000100AF8EEC00A9FEDB21AB3EE070A00EE1C
:1032F000810A204680ED1A0A0146B1F90000FDF767
:10330000DDFB41EC1A0B9FEDAB0B53EC102BFDF7E3
:10331000F4FA41EC190B9FEDA90B53EC102BFDF7C0
:103320005EFB41EC180BFDF731FC21464864B1F916
:103330000200FDF7C3FB41EC1A0B9FED9E0B53EC13
:10334000102BFDF7DAFA41EC190B9FED9C0B53ECB7
:10335000102BFDF744FB41EC180BFDF717FC214641
:103360008864B1F90400FDF7A9FB41EC1A0B9FED4D
:10337000910B53EC102BFDF7C0FA41EC190B9FEDAC
:103380008F0B53EC102BFDF72AFB41EC180BFDF7CC
:10339000FDFB2146C8648B480078A8BB084690ED29
:1033A000110A10EE101A0846FDF7C5FB864A03C243
:1033B000864A03C2864A03C2204690ED120A10EEE6
:1033C000101A0846FDF7B7FB7F4AC2E902017F4A9F
:1033D000C2E902017E4AC2E90201204690ED130AC9
:1033E00010EE101A0846FDF7A6FB774AC2E9040161
:1033F000764AC2E90401764AC2E9040171480078BC
:10340000401C7049087038E1FFE7704890ED000BF0
:103410006F4880ED000B6C4890ED000B6B4880ED21
:10342000000B5F4890ED110A10EE101A0846FDF7E8
:1034300082FB41EC1A0B674890ED041BB0EE410A89
:10344000F0EE610A53EC102B51EC1A0BFDF755FA14
:1034500041EC180B5F4890ED022BB0EE420AF0EE03
:10346000620A5B4890ED002BB0EE421AF0EE621A51
:1034700053EC102B51EC110BFDF73FFA41EC1A0BFA
:10348000544890ED002BB0EE420AF0EE620A4F482D
:1034900090ED002BB0EE421AF0EE621A53EC102BB6
:1034A00051EC110BFDF729FA41EC1B0B53EC1A2BD5
:1034B000FDF77CF941EC190B53EC182BFDF776F96D
:1034C000414A03C2414890ED020B414880ED020B96
:1034D0003D4890ED020B3D4880ED020B304890EDE9
:1034E000120A10EE101A0846FDF725FB41EC1A0BE4
:1034F000384890ED041BB0EE410AF0EE610A53EC3F
:10350000102B51EC1A0BFDF7F8F941EC180B314870
:1035100090ED022BB0EE420AF0EE620A2C4890EDDC
:10352000022BB0EE421AF0EE621A53EC102B51EC63
:10353000110BFDF7E2F941EC1A0B264890ED002B38
:10354000B0EE420AF0EE620A204890ED022BB0EE97
:10355000421AF0EE621A53EC102B51EC110BFDF7EE
:10356000CCF941EC1B0B53EC1A2BFDF71FF941EC86
:10357000190B53EC182BFDF719F9134AC2E9020194
:10358000124890ED040B124880ED040B104690EDAC
:10359000040B0E4880ED040B01481DE0300A0020AA
:1035A000CC020020C4020020400A0020480B00206A
:1035B0006F12033B9A999999999923400000000052
:1035C0000000D040B8030020C00B0020A80B002052
:1035D000900B0020388E000890ED130A10EE101AA0
:1035E0000846FDF7A8FA41EC1A0B404890ED041B81
:1035F000B0EE410AF0EE610A53EC102B51EC1A0BBD
:10360000FDF77BF941EC180B384890ED022BB0EE3A
:10361000420AF0EE620A364890ED042BB0EE421AF0
:10362000F0EE621A53EC102B51EC110BFDF765F91B
:1036300041EC1A0B2D4890ED002BB0EE420AF0EE53
:10364000620A2C4890ED042BB0EE421AF0EE621A9A
:1036500053EC102B51EC110BFDF74FF941EC1B0B08
:1036600053EC1A2BFDF7A2F841EC190B53EC182B75
:10367000FDF79CF8204AC2E904012048B0F908008F
:1036800000EE100AF8EEC00A9FED1D1A80EE810AC6
:10369000DFED1C0A80EE201A184880ED141AB0F9EC
:1036A0000A0000EE100AF8EEC00A9FED151A80EE2F
:1036B000810ADFED140A80EE201A104880ED151AF9
:1036C000B0F90C0000EE100AF8EEC00A9FED0C1ADB
:1036D00080EE810ADFED0B0A80EE201A074880EDAC
:1036E000161A02B0BDEC088B10BD0000388E000821
:1036F000900B0020A80B0020C00B0020CC02002063
:10370000333303423333654210B52DED088B9948AE
:1037100090ED000AD0ED000A20EE200A9648D0ED88
:10372000000A90ED001A00EE810A9448D0ED000ADC
:1037300090ED001A00EEC10A9148D0ED000A90ED1C
:10374000001A00EEC10A10EE101A0846FDF7F3F950
:1037500041EC1A0B884890ED000A8848D0ED000A29
:1037600020EE200A8348D0ED000A854890ED001A2B
:1037700000EE810AF0EE000A20EE200A10EE101A88
:103780000846FDF7D8F941EC1B0BB0EE4A1AF0EEF3
:103790006A1AB0EE4B0AF0EE6B0A02F0F5FEB0EEDC
:1037A000409AF0EE609A9FED770B53EC102B51ECA2
:1037B000190BFDF7A2F841EC180BFDF7E7F9734977
:1037C00048676D4890ED000A6D48D0ED000A20EE84
:1037D000200A6848D0ED000A684890ED001A00EE13
:1037E000C10AF0EE000A20EE200A10EE101A084678
:1037F000FDF7A1F941EC1B0BB0EE4B0AF0EE6B0AA2
:1038000002F0A6FBB0EE40AAF0EE60AA51EC1A0B53
:1038100081F0004141EC190B9FED5A0B53EC102B3A
:10382000FDF76BF841EC180BFDF7B0F95749086745
:10383000504890ED000AD0ED000A20EE200A4E48D4
:10384000D0ED000A90ED001A00EEC10A4B48D0ED11
:10385000000A90ED001A00EEC10A4948D0ED000AB6
:1038600090ED001A00EE810A10EE101A0846FDF7DE
:1038700062F941EC1B0B3F4890ED000A3E48D0ED49
:10388000000A20EE200A3D48D0ED000A3C4890EDA9
:10389000001A00EE810AF0EE000A20EE200A10EE77
:1038A000101A0846FDF747F941EC180BB0EE4B1A19
:1038B000F0EE6B1AB0EE480AF0EE680A02F064FE11
:1038C000B0EE40AAF0EE60AA9FED2E0B53EC102B49
:1038D00051EC1A0BFDF711F841EC190BFDF756F9F5
:1038E0002A49C8662A4890ED000A2A4880ED000A55
:1038F000084690ED1D0A264880ED000A90ED000A6A
:103900002448D0ED000A30EE600ADFED230AB4EE61
:10391000E00AF1EE10FA05DB20480068401E1F495E
:10392000086013E01A4890ED000A1A48D0ED000A2A
:1039300030EE600ADFED1A0AB4EEE00AF1EE10FA9A
:1039400004D816480068401C1449086013480068F1
:103950004FF4B471484300EE100AB8EEC00A0C48A8
:10396000D0ED000A30EE200A084880ED1D0ABDECBB
:10397000088B10BD7C020020800200208402002001
:10398000880200206666666666A64C40CC0200206F
:10399000BC030020C00300200000A543C403002096
:1039A0000000A5C310B530216A2000F00FFB0A20EB
:1039B00004F0AEFA0D21242000F008FB0A2004F0E8
:1039C000A7FA0E21282000F001FB0A2004F0A0FA3B
:1039D0008E21312000F0FAFA0A2004F099FA012130
:1039E0000B2000F0E0F80A2004F092FA002000F02A
:1039F000BDF8102801D0012010BD01210B2000F0DE
:103A0000D2F80A2004F084FA00210A2000F0CBF852
:103A10000A2000F0ABF808B10220EDE70A2004F01C
:103A200077FA00210B2000F0BEF80B2000F09EF882
:103A300008B10320E0E70A2004F06AFA24214120BB
:103A400000F0B1F8412000F091F8242801D00420C2
:103A5000D2E70A2004F05CFAC021422000F0A3F86B
:103A6000422000F083F8C02801D00520C4E70A20D6
:103A700004F04EFA00212A2000F0A8FA0A2004F0EF
:103A800047FA0021342000F0A1FA0A2004F040FA9D
:103A9000062203210E2000F0B9FA642004F038FA5F
:103AA0000020A9E7F0B503460C46012019E02E4995
:103AB00031F81050411E2C4E26F8115006F1160117
:103AC00031F81060411E284D163525F8116005F1BA
:103AD000160131F81060411E163525F81160411CA1
:103AE000C8B20A28E3DB204843820485C28700204D
:103AF00036E000211BE000EB400505EBC0051A4E47
:103B000006EB450535F8115000EB400606EBC00604
:103B1000154F07EB4606B68A35442DB200EB40063A
:103B200006EBC00607EB4606B5824D1CE9B20A2932
:103B3000E1DB00EB400101EBC0010B4D05EB410166
:103B4000B1F914100A2591FBF5F109B200EB40051B
:103B500005EBC005044E06EB4505A982411CC8B221
:103B60000328C6DBF0BD0000480B002070B50446FA
:103B70002146322000F02AFA0A2004F0C9F98021F7
:103B8000342000F023FA0A2004F0C2F9352000F0B6
:103B9000C3F905460021342000F018FA0A2004F089
:103BA000B7F9284670BD70B504460D4600212A209D
:103BB00000F00CFA022004F0ABF92146292000F0B5
:103BC00005FA022004F0A4F92946642000F0FEF969
:103BD000022004F09DF981212A2000F0F7F90A2043
:103BE00004F096F970BD00B5FFF7ECF8012800D19C
:103BF00000BD0020FCE7000000B587B001212B4884
:103C000000F0CAFC0121480400F0D6FC072206217E
:103C10002748FFF7ABF8072205212548FFF7A6F84C
:103C2000244801F0E7FE6020059002208DF818007E
:103C300000208DF81A0003208DF8190000208DF85F
:103C40001B0005A91A48FFF749F84FF4E13001902D
:103C50000020ADF80800ADF80A00ADF80C000C200B
:103C6000ADF80E000020ADF8100001A9114801F0D8
:103C700095FF01210F4801F0A7FE26208DF80000D6
:103C800002208DF801008DF8020001208DF803005C
:103C9000684600F0B1FB012240F22551054801F0D1
:103CA00058FF01F029FA07B000BD0000080020000D
:103CB000000C02400044004000B585B0012188039B
:103CC00000F09AFC0121022000F066FC0420039021
:103CD00000208DF812008DF8100003208DF81100DF
:103CE00001208DF8130003A91248FEF7F7FF022107
:103CF000012000F06BFF0420019000208DF80800E7
:103D000008208DF8090001208DF80A0001A8FEF7AF
:103D100007FE08208DF8000004208DF801008DF8C2
:103D2000020001208DF80300684600F065FB05B035
:103D300000BD00000004024010B5FFF7BDFF10BD3C
:103D400006480068C0430649C1F8AC020548D0F8EF
:103D5000B802C0430349C1F8B8027047AC024242FE
:103D600000004242008042421CB50121702000F058
:103D700013FCFE20009001208DF8040000208DF837
:103D8000060003208DF8050001208DF80700694624
:103D90001448FEF7A3FF4FF40060009001208DF857
:103DA000040000208DF8060003208DF80500012096
:103DB0008DF8070069460C48FEF790FF4FF48040ED
:103DC000009001208DF8040000208DF806000320EB
:103DD0008DF8050001208DF8070069460348FEF7BD
:103DE0007DFF1CBD0018024000100240001402407C
:103DF00010B5FFF7B9FF01200A4908600A49C1F868
:103E00008802084908310860091D0860091D08601A
:103E1000091D0860091D0860002004490860044964
:103E2000086010BD8402434200004342AC0242429B
:103E3000B88242421CB50121402000F0ADFB4FF496
:103E40000050009001208DF8040000208DF806003D
:103E500003208DF8050069460448FEF73FFF4FF444
:103E600000510248FEF7A5FF1CBD000000180240EB
:103E700010B5FFF7DFFF4FF400510248FEF79BFF3C
:103E800010BD00000018024010B586B0012240218C
:103E90001948FEF792FF642004F03AF8752000F00C
:103EA0003BF816490978884203D115A002F026F89C
:103EB00002E0012006B010BD00241422154901A81B
:103EC000FCF762FC00BF0DE001AA02EB440251784E
:103ED00001AA12F8140000F079F8012004F018F893
:103EE000601CC4B20A2CEFDB022000F067F800204F
:103EF00000F05CF80020DDE70014024044030020DD
:103F00004D50553635303020696E697420646F6EBF
:103F100065210000208E000810B5044600224021D3
:103F20000B48FEF74AFF44F080000A490870084633
:103F3000007800F02DFE002000F02AFE06490870EF
:103F4000012240210248FEF738FF0348007810BDE7
:103F500000140240B6030020B50300202DE9F04113
:103F600005460E461746002240210E48FEF725FF63
:103F700045F080000C4908700846007800F008FE03
:103F8000002404E0002000F003FE3055641CBC4215
:103F9000F8DB012240210348FEF70FFF0020BDE8B7
:103FA000F081000000140240B703002010B5044661
:103FB000E006010E1C2000F009F810BD10B5044603
:103FC000E006010E1B2000F001F810BD70B505469B
:103FD0000C46002240210B48FEF7EFFE05F07F0063
:103FE000094908700846007800F0D2FD06480470C0
:103FF000007800F0CDFD012240210248FEF7DDFEF1
:10400000002070BD00140240B403002070B50446C7
:104010000E46154621462820FFF7D8FF022003F060
:1040200077FF0A212920FFF7D1FF022003F070FF5C
:1040300001216420FFF7CAFF022003F069FF44F06A
:1040400080012520FFF7C2FF022003F061FF314607
:104050002620FFF7BBFF022003F05AFF0321342084
:10406000FFF7B4FF022003F053FF03216720FFF79F
:10407000ADFF022003F04CFF81212A20FFF7A6FFAD
:10408000062003F045FF45F080012720FFF79EFF43
:10409000022003F03DFF70BD00B52DED068BB0EEA4
:1040A000403AF0EE603AB0EE414AF0EE615AF0EE7E
:1040B000424AB0EE625AF5EEC05AF1EE10FA09D15A
:1040C000F5EEC04AF1EE10FA04D1B5EEC05AF1EEA9
:1040D00010FA7DD065EEA50A44EEA40A45EE050A65
:1040E000B0EE600A04F05EFAF0EE402A25EEA20A75
:1040F000F0EE405A24EEA20AF0EE404A25EE220AE3
:10410000B0EE405AA94890ED000AA948D0ED000A47
:1041100020EE200AA748D0ED000AA74890ED001A2B
:10412000F0EE407A40EEC17AA24890ED000A9F4836
:10413000D0ED000A20EE200A9F48D0ED000A9C48EE
:1041400090ED001AB0EE408A00EE818A9948D0EDD9
:10415000000A90ED001AB6EE000A10EE810A9448AB
:10416000D0ED000A90ED001AF0EE408A40EE818A10
:1041700024EEA80AB0EE409A05EE489A25EE270AEA
:10418000F0EE409A45EEE89A25EE880AB0EE40AA95
:1041900004EEE7AA894890ED000AB5EEC00AF1EEF8
:1041A00010FA40DD90ED000A60EE090A844890EDB7
:1041B000000A9FED841A00EE810A80ED000A7F4814
:1041C00090ED000A60EE290A7F4890ED000A00E0B9
:1041D00051E09FED7C1A00EE810A80ED000A7748DD
:1041E00090ED000A60EE0A0A784890ED000A9FED13
:1041F000751A00EE810A80ED000A714890ED000A00
:1042000033EE000AB0EE403A6F4890ED000A33EE0C
:10421000800AF0EE403A6D4890ED000A34EE000A54
:10422000B0EE404A0EE09FED6A0A654880ED000A54
:104230009FED670A644880ED000A9FED650A6348B8
:1042400080ED000A6348D0ED000AB0EE430A00EEAC
:10425000890AB0EE403AD0ED000AB0EE630A00EEF3
:10426000A90AF0EE403AD0ED000AB0EE440A00EEA2
:104270008A0AB0EE404A9FED580A23EE000AB0EEDB
:10428000403A9FED550A23EE800AF0EE403A9FED4A
:10429000520A24EE000AB0EE404A464890ED006A09
:1042A0004248D0ED006A444890ED007AB1EE660ACB
:1042B00020EE030A07EE630A3D48D0ED000A00EE47
:1042C000C40A3C48D0ED000A30EE200A80ED000A16
:1042D00026EE030A07EE040A3548D0ED000A00EE88
:1042E000E30A3248D0ED000A30EE200A80ED000AE1
:1042F00026EE230A06EEC40A2D48D0ED000A00EE91
:10430000830A2D48D0ED000A30EE200A80ED000A25
:1043100026EE040A06EEA30A07EE430A2448D0ED6F
:10432000000A30EE200A80ED000A2248D0ED000A93
:1043300090ED001A60EE810A1C4890ED001AD0ED55
:10434000001A41EE210A1C4890ED001AD0ED001A27
:1043500041EE210A164890ED001AD0ED001A41EE08
:10436000210AB0EE600A04F01DF9F0EE402A11486F
:1043700090ED000A20EE220A80ED000A0B4890ED35
:10438000000A20EE220A80ED000A0B4890ED000A98
:1043900020EE220A80ED000A054890ED000A20EE8A
:1043A000220A80ED000ABDEC068B00BD80020020D1
:1043B000880200207C020020840200204C030020A0
:1043C000500300200AD7A33B5403002058030020C9
:1043D00000000000480300200AD7233B00BFFEE78F
:1043E00003480088401C00B2014908807047000063
:1043F0004A0200207047000070B5002100230F2200
:10440000C4781CB3174C246804F4E064C4F5E06479
:10441000C4F30721C1F10404E3B20A4144789C408B
:10442000E1B28478144021430C07210E0E4C05782C
:104430006155047804F01F050124AC4005786D1126
:10444000AD0005F1E025C5F8004109E0047804F06D
:104450001F050124AC40054D0678761145F826402D
:1044600070BD00000CED00E000E400E080E100E041
:1044700002490143024A1160704700000000FA053A
:104480000CED00E090ED020A80ED030A90ED000AC9
:10449000D0ED010A30EE600A80ED020A90ED080AC4
:1044A000D0ED020A30EE200A80ED080A90ED080AED
:1044B000D0ED0B0AF1EE600AB4EEE00AF1EE10FA6C
:1044C00006D290ED0B0AB1EE400A80ED080A0CE02E
:1044D00090ED080AD0ED0B0AB4EEE00AF1EE10FA06
:1044E00003DD90ED0B0A80ED080A90ED040AD0ED93
:1044F000020A20EE200AD0ED050A90ED081A00EE1F
:10450000810AD0ED020A90ED031A70EEC10A90ED17
:10451000061A01EE200A80ED0D0A90ED0D0AD0ED8D
:104520000E0AB4EEE00AF1EE10FA04DD90ED0E0A88
:1045300080ED0D0A10E090ED0D0AD0ED0E0AF1EEBF
:10454000600AB4EEE00AF1EE10FA05D290ED0E0A20
:10455000B1EE400A80ED0D0A704700009FED0C0A95
:1045600080ED070A9FED0A0A80ED080A9FED080A10
:1045700080ED090A9FED060A80ED020A9FED040A0C
:1045800080ED030A9FED020A80ED0D0A70470000DE
:10459000000000007047000029B1064A126802437B
:1045A000044B1A6004E0034A12688243014B1A600C
:1045B000704700003038024029B1064A12680243B1
:1045C000044B1A6004E0034A12688243014B1A60EC
:1045D000704700004038024029B1064A1268024381
:1045E000044B1A6004E0034A12688243014B1A60CC
:1045F000704700002038024029B1064A1268024381
:10460000044B1A6004E0034A12688243014B1A60AB
:10461000704700004438024029B1064A126802433C
:10462000044B1A6004E0034A12688243014B1A608B
:104630007047000024380240F0B500210022002419
:10464000022500260223324F3F6807F00C0121B1FA
:10465000042905D0082937D105E02E4F076036E040
:104660002D4F076033E02A4F3F1F3F68C7F3805646
:10467000274F3F1F3F6807F03F036EB1264FB7FB40
:10468000F3F7DFF88CC0ACF1040CDCF800C0CCF31D
:10469000881C07FB0CF40CE01E4FB7FBF3F7DFF8A8
:1046A00070C0ACF1040CDCF800C0CCF3881C07FB34
:1046B0000CF4174F3F1F3F68C7F301477F1C7D0075
:1046C000B4FBF5F7076002E0124F076000BF00BFC0
:1046D0000F4F3F6807F0F0010909104F7A5C076837
:1046E000D74047600A4F3F6807F4E051890A0B4FF3
:1046F0007A5C4768D7408760054F3F6807F46041A0
:10470000490B064F7A5C4768D740C760F0BD000090
:10471000083802400024F400001BB7000500002008
:1047200010B5FEF7AFFB06490988064A1278022346
:1047300003FB1211884201DD012010BD0020FCE7BF
:10474000C0010020C201002010B50446B3EE020AE9
:104750000E4880ED040A9FED0E0A80ED050A9FEDDC
:104760000C0A80ED060A00EE104AB8EEC00A80ED91
:10477000000A0848B0F9020000EE100AB8EEC00ABC
:10478000024880ED010A816C884710BD6C01002051
:1047900000000000200000200168491C0160D0E9F1
:1047A0000012914201DB4168016090ED000AF8EED1
:1047B000C00A90ED010AB8EEC00A80EE801A80EDC2
:1047C000021A90ED020A7047416070470146D1E934
:1047D0000002904201DB012070470020FCE700212D
:1047E00001607047016070474160704710B5044632
:1047F000FEF704FB00B9ACE004B910BD2078617885
:1048000040EA0120C0F30A00534908806078C010D4
:10481000A17840EA4110C0F30A004F494880A078CF
:104820008011E17840EA8100217940EA8120C0F3DB
:104830000A004949888020794010617940EAC11016
:10484000C0F30A004449C8806079001180080872EA
:104850006079C0F301104872A079E17940EA012043
:1048600000B23D494881207A617A40EA012001B2D4
:1048700039488181A07AE17A40EA012001B23648C4
:10488000C181217B8174617BC174A07BE17B40EAA3
:10489000012031498882084600F0E2F9FEF7AEFABD
:1048A000052853D12C484088A0F5806000EB80009B
:1048B000400000B229490880294890ED000A2648A6
:1048C000B0F90600A0F5806000EE900AF8EEE00A6C
:1048D0009FED241A00EE810A214880ED000A90ED38
:1048E000010A1D48B0F90400A0F5806000EE900AAE
:1048F000F8EEE00A9FED1B1A00EE810A184880EDE1
:10490000010A1548007A012809D14FF47A70164936
:104910000860091D0860002000F076FA16E00E48D5
:10492000007A032809D140F2E2400F490860091DCE
:104930000860002000F068FA08E040F2E2400A490E
:104940000860091D0860012000F05EFAFEF7ACFA6D
:1049500000BF00BF00BF50E7600400204C020020F1
:10496000900400206F12833B340C004010B50A48BD
:104970003221C26990470848816988479FED070A3C
:10498000074880ED000A9FED050A80ED010A00202E
:1049900000F07AF910BD00002002002000000000A5
:1049A0009004002010B5312000F068FD10BD00001B
:1049B00010B59FED0E0A0E4880ED010A9FED0B0A1F
:1049C00080ED020A4FF47A700A490860091D0860F8
:1049D000094881698847002000F016FA002000F09D
:1049E00007FA012000F00AFA10BD000000000000E4
:1049F000A0040020340C00402002002000200149C7
:104A0000088070474C020020002001490880704750
:104A10004A02002000B587B001212020FFF7BCFD2D
:104A200001210805FFF7E8FD012240213A48FEF781
:104A3000C4F94020059001208DF8180000208DF861
:104A40001A0003208DF8190001208DF81B0005A91C
:104A50003148FEF743F901212020FFF79DFD012198
:104A60000805FFF7C9FD4FF46070059002208DF82E
:104A7000180000208DF81A0003208DF8190001207D
:104A80008DF81B0005A92448FEF728F90522072107
:104A90002148FEF76BF9052208211F48FEF766F949
:104AA000052209211C48FEF761F901210805FFF7DD
:104AB000B3FD00214FF48010FFF7AEFD0020ADF8EC
:104AC00000004FF48270ADF802000020ADF8040041
:104AD000ADF80600ADF808004FF40070ADF80A001C
:104AE0003020ADF80C000020ADF80E000720ADF826
:104AF00010006946094800F02DF80121074800F030
:104B00000FF8FF2000F044F8012240210248FEF790
:104B100054F907B000BD00000014024000500140ED
:104B200021B1028842F04002028004E002884FF680
:104B3000BF731A40028070470246002013890B4061
:104B40000BB1012000E000207047014688897047C2
:104B50008181704710B50022028802F441520B880F
:104B60004C8823438C882343CC8823430C892343DC
:104B70004C8923438C892343CC8923431A430280E5
:104B8000838B4FF2FF74234083830B8A038210BD13
:104B900010B5044600BF02210A48FFF7CDFF0028E8
:104BA000F9D021460748FFF7D3FF00BF0121054890
:104BB000FFF7C2FF0028F9D00248FFF7C6FFC0B2D6
:104BC00010BD0000005001407047000030B50022C9
:104BD0008B071C0F0F2303FA04F20B4B8C1053F8B6
:104BE00024309343084C8D1044F8253023468C1014
:104BF00053F824308C07240F00FA04F42343024CAA
:104C00008D1044F8253030BD0838014070B586B0AD
:104C100005460E46144640F20140019000208DF8F2
:104C20000C008DF80D0008208DF80E008DF80F5047
:104C30008DF81060210A8DF811108DF812400021B6
:104C40008DF813108DF814108DF815108DF81610BE
:104C500001A90248FCF73FFF06B070BD00640040A8
:104C6000417A012902D1074A11700AE0417A0329E9
:104C700002D1044A117004E0417A022901D1014AAB
:104C8000117070471C020020014908707047000035
:104C90004E02002010B50B4890ED0D0ABDEEC00A83
:104CA00010EE100A404202B2074890ED0D0ABDEE28
:104CB000C00A10EE100A404201B2044800F0AAF8FF
:104CC00010BD00007C0000201C010020006400409A
:104CD0000CB50020019000904148006840F48030FD
:104CE0003F49086000BF3E48006800F40030009073
:104CF0000198401C0190009818B90198B0F5A04F98
:104D0000F1D13748006800F4003010B10120009064
:104D100001E0002000900098012860D13048403028
:104D2000006840F080502E49403108602D480068EE
:104D300040F440402B490860294808300068284961
:104D4000083108600846006840F4004008600846E2
:104D5000006840F4A05008602348091F0860081F3D
:104D6000006840F08070091F086000BF1C480068A0
:104D700000F000700028F9D01A48006840F4803034
:104D80001849086000BF1748406800F480300028C8
:104D9000F9D01448006840F400301249086000BFA0
:104DA0001048406800F400300028F9D040F2057047
:104DB0000E4908600A480830006820F003000849DE
:104DC000083108600846006840F00200086000BF33
:104DD00003480830006800F00C000828F8D10CBD2A
:104DE00000380240007000400C544007003C024074
:104DF0000149087070470000540200200149087002
:104E000070470000BD010020014908707047000094
:104E10004402002070B586B006460D46144640F2A6
:104E2000FF10019000208DF80C008DF80D00082077
:104E30008DF80E00280A8DF80F008DF81050210A09
:104E40008DF811108DF8124000218DF813108DF897
:104E500014108DF815108DF8161001A93046FCF7C6
:104E60003AFE4FF40070019000208DF80F000021F1
:104E70008DF810108DF811108DF81210210A8DF890
:104E800013108DF8144000218DF815108DF81610B0
:104E900001A93046FCF71FFE06B070BD30B585B0E5
:104EA00005460C464FF40070009000208DF8080075
:104EB0008DF8090008208DF80A00200A8DF80B00F3
:104EC000E1B28DF80C1000218DF80D108DF80E1048
:104ED0008DF80F108DF810108DF811108DF812103C
:104EE00069462846FCF7F7FD05B030BD014908804A
:104EF000704700004602002010B5FDF7B7FF18B953
:104F000000202849087002E0012026490870264840
:104F1000B0F9040042F6F821884202DD7820FFF75C
:104F2000E5FFFDF7BBFF002815DD2048FFF70CFC6F
:104F30001F4890ED0D0ABDEEC00A10EE100A01B236
:104F40001C48FFF7ABFFFDF7A9FF401E04B2204647
:104F5000FFF7CCFF24E01348007818B1FFF7E0FB1F
:104F600001280ED10020FFF7EFFB114890ED0D0A4C
:104F7000BDEEC00A10EE100A01B20E48FFF78EFF18
:104F80000EE041F27070FFF7DFFB094890ED0D0A6B
:104F9000BDEEC00A10EE100A01B20648FFF77EFF10
:104FA00010BD0000BE0100202000002018FCFFFF03
:104FB0006C01002000640040152803D10021094A3B
:104FC00011600DE0084931F81010064A083A1160E6
:104FD000054A32F8101001EBD1725210014B1A60E1
:104FE0007047000034180040EE8D000810B5002412
:104FF00008E02146641C054A505CFFF7DDFFC8202D
:1050000002F086FF042CF4DB10BD0000188E0008AF
:105010000DE00920FFF7D0FF4FF47A7002F078FF1F
:105020001520FFF7C9FF4FF47A7002F071FFF0E727
:105030007047000010B51548006840F4700013492F
:1050400008601348006840F0010011490860002022
:105050000F49083108600E4800680E4908400C49A5
:1050600008600D48091D0860081F006820F48020B2
:10507000091F0860002006490C310860FFF728FE70
:105080004FF0006001498039086010BD88ED00E0F4
:1050900000380240FFFFF6FE1030002410B5012159
:1050A000880700F0E7F838B10121880700F0D3F84D
:1050B0000121880700F0CCF810BD0EB5012108468B
:1050C000FFF77AFA4FF0FF3001905320ADF800005F
:1050D0000020ADF80800ADF802000121880700F0BB
:1050E000ABF869464FF0804000F086F9012188074F
:1050F00000F0B4F80EBD00001FB501210220FFF73B
:105100005BFA4FF4FA60029042F2CF00ADF804006F
:105110000020ADF80600ADF80C0001A90F4800F022
:105120006BF9012211460D4800F0B5F801210B483A
:1051300000F094F80121094800F08AF81D208DF84C
:10514000000001208DF8010003208DF802000120ED
:105150008DF803006846FFF74FF91FBD00040040BB
:1051600010B501210B4800F085F8012810D101216C
:10517000084800F070F80121064800F069F80D2297
:1051800005490648FBF700FB0D21044802F078FEB4
:1051900010BD000000040040BC080020CC08002026
:1051A00010B50121074800F065F848B10121054814
:1051B00000F051F80121034800F04AF8FCF7DCFD4B
:1051C00010BD0000001000401FB501211020FFF7A6
:1051D000F3F936208DF8000001208DF80100002041
:1051E0008DF8020001208DF803006846FFF704F9EE
:1051F0005320ADF804000020ADF80600ADF80C0017
:1052000040F2DC50029001A9014800F0F5F81FBD02
:105210000010004010B50121064800F01FF80122DF
:105220001146044800F037F80121024800F010F858
:1052300010BD00000010004021B1028842F0800241
:10524000028004E002884FF67F731A4002807047A4
:10525000CA4302827047CA430282704721B1028862
:1052600042F00102028004E002884FF6FE731A4009
:105270000280704730B50246002000230024158AC2
:1052800005EA0103958905EA010413B10CB1012077
:1052900000E0002030BD1AB183890B43838102E016
:1052A00083898B438381704770B5002400220023DB
:1052B000058C4FF6FE7635400584028C8388048B7E
:1052C0004FF68F752C40B51E2C400D882C43751E53
:1052D0002A408D892A434D882A43104DA84202D086
:1052E0000F4DA84213D14FF6F7752A40CD892A43B6
:1052F0004FF6FB752A408D882A434FF6FF652B40F9
:105300004FF6FF552B400D8A2B434D8A2B4383804C
:1053100004838D684563028470BD00000000014075
:10532000000401400A460021018B4FF6F773194033
:10533000114301837047000070B500240022002350
:10534000058C4FF6EF7635400584028C8388048BFC
:1053500048F6FF752C404FF6FF452C400D884FF660
:10536000FF7606EA05252C434FF6DF752A408D8926
:1053700006EA05152A434D8806EA05152A43154D08
:10538000A84202D0144DA8421DD14FF67F752A4085
:10539000CD894FF6FF7606EA05152A434FF6BF750D
:1053A0002A408D8806EA05152A434FF6FF352B4023
:1053B0004FF2FF752B400D8A06EA85052B434D8A77
:1053C00006EA85052B43838004838D688563028408
:1053D00070BD000000000140000401400A460021A9
:1053E000018B4FF2FF7319404FF6FF7303EA02235C
:1053F000194301837047000000220288184B98422D
:105400000ED0184B98420BD0B0F1804F08D0164BFD
:10541000984205D0154B984202D0154B984204D1C2
:105420004FF68F731A404B881A43124B984207D09D
:10543000114B984204D04FF6FF431A400B891A4390
:1054400002804B68C3620B880385054B984202D0EB
:10545000044B984201D18B7A0386012383827047E3
:10546000000001400004014000040040000800402A
:10547000000C0040001000400014004010B504462D
:10548000214605480068FAF796FF012240F227718D
:10549000024800F05EFB10BD7402002000140140C1
:1054A00000B595B040F22551364800F028FB0028A1
:1054B00065D0344800F09EFA032002F029FD012156
:1054C0008805FFF769F8304802900020ADF80C001D
:1054D000ADF80E004FF48060ADF810000420ADF878
:1054E00012000020ADF8140002A9264800F056FB77
:1054F0000121244800F068FA01224021214800F0EF
:105500006FFA3A208DF8040000208DF80500012084
:105510008DF806008DF8070001A8FEF76DFF1B4807
:10552000FDF754F84FF0006006901648001D0790F4
:10553000174808900020099012200A9000200B9034
:105540004FF480600C9000200D900E904FF480700E
:105550000F904FF440301090002011901290139053
:10556000149006A90948FDF72DF9012210210748DA
:10557000FDF70AF901210548FDF71CF800BF15B039
:1055800000BD000000100140A08601004064024000
:105590003D09002000B595B040F22551354800F096
:1055A000AEFA002864D0334800F024FA032002F059
:1055B000AFFC01214805FEF7EFFF4FF4E130029008
:1055C0000020ADF80C00ADF80E00ADF810000C2076
:1055D000ADF812000020ADF8140002A9254800F033
:1055E000DDFA0121234800F0EFF901224021214892
:1055F00000F0F6F910208DF8040002208DF8050067
:105600008DF8060001208DF8070001A8FEF7F4FED2
:105610001948FCF7DBFF4FF0006006901548001DAD
:10562000079016480890002009904FF47A700A906D
:1056300000200B904FF480600C9000200D900E9095
:105640004FF480700F900002109000201190129083
:105650001390149006A90848FDF7B4F80122102110
:105660000548FDF791F801210348FCF7A3FF00BFAF
:1056700015B000BD0044004088600240AC0400202A
:1056800010B540F225511D4800F039FA10B31B48FF
:1056900000F0EEFAC4B21A48008800F40040C8B91D
:1056A0001748008800F4804060B10A2C03D0002025
:1056B0001349088020E01248008840F40040104957
:1056C000088019E00D2C06D10D48008840F4804078
:1056D0000B49088010E00A480088C0F30D00094912
:1056E0000C5407480088401C05490880084600887B
:1056F000C72801DD0020088010BD000000480040E0
:10570000700200205609002010B588B0044601211F
:105710000820FEF741FF01218804FEF74DFF072214
:1057200008212348FDF722FB072209212048FDF725
:105730001DFB4FF44070069002208DF81C000320E2
:105740008DF81D0000208DF81E0001208DF81F002F
:1057500006A91748FDF7C2FA02940020ADF80C0024
:10576000ADF80E00ADF81000ADF814000C20ADF847
:10577000120002A90F4800F011FA01210D4800F0B3
:1057800023F9012240F225510A4800F0E2F92720CE
:105790008DF8040003208DF805008DF80600012027
:1057A0008DF8070001A8FEF727FE08B010BD000025
:1057B000000C02400048004010B588B004460121AA
:1057C0004020FEF7E9FE01212020FEF715FF082208
:1057D0000E212648FDF7CAFA082209212348FDF7C1
:1057E000C5FA4FF48440029002208DF80C0000208E
:1057F0008DF80E0003208DF80D0000208DF80F00AD
:1058000002A91A48FDF76AFA04940020ADF81400C2
:10581000ADF81600ADF818000C20ADF81A00002005
:10582000ADF81C0004A9124800F0B8F9012240F2BA
:1058300025510F4800F08DF901210D4800F0C4F802
:1058400047208DF8040000208DF805008DF8060033
:1058500001208DF8070001A8FEF7CEFD6420FAF7BD
:1058600043FD0449086008B010BD00000018024064
:10587000001401407402002010B540F2277149481D
:1058800000F03DF9A8B148480068FAF70AFF48B9A6
:1058900045480068FAF717FE04462146414800F0E3
:1058A000ECF97DE0002240F227713E4800F051F90A
:1058B00076E040F225513B4800F021F900286FD0F6
:1058C000384800F0D5F9C4B238480078092861D2C8
:1058D000DFE800F005111D252D353D4551000A2C4E
:1058E00005D132480078401C3049087002E00020A1
:1058F0002E49087052E00D2C05D12C480078401C30
:105900002A49087002E000202849087046E027482C
:105910000078401C25490870254804703EE0234863
:105920000078401C214908702148447036E01F4827
:105930000078401C1D4908701D4884702EE01B48EB
:105940000078401C194908701948C47026E01748AF
:105950000078401C15490870154804711EE00D2C94
:1059600005D112480078401C1049087002E0002060
:105970000E49087012E00A2C08D10D4800F0A4F975
:105980000C480068C0430C49C1F884020020074954
:10599000087003E000200549087000BF00BF00BF89
:1059A00010BD0000001401407402002078020020A5
:1059B0001E0A0020840243420000434210B5044600
:1059C0002046FFF7F9FE10BD21B1828942F4005252
:1059D000828104E082894DF6FF731A40828170470C
:1059E0001AB1838A0B43838202E0838A8B438382CA
:1059F0007047000010B504463248844208D10121A6
:105A00001020FEF709FE00211020FEF705FE57E0EA
:105A10002D48844209D101214804FEF7DDFD002113
:105A20004FF40030FEF7D8FD4AE02848844209D1FF
:105A300001218804FEF7D0FD00214FF48020FEF7FD
:105A4000CBFD3DE02248844209D10121C804FEF784
:105A5000C3FD00214FF40020FEF7BEFD30E01D48DD
:105A6000844209D101210805FEF7B6FD00214FF45B
:105A70008010FEF7B1FD23E01748844208D10121D0
:105A80002020FEF7C9FD00212020FEF7C5FD17E00C
:105A90001248844209D101218807FEF79DFD0021AB
:105AA0004FF08040FEF798FD0AE00D48844207D190
:105AB00001214005FEF790FD00216005FEF78CFDF9
:105AC00010BD0000001001400044004000480040AC
:105AD000004C00400050004000140140007800409D
