:020000040800F2
:10000000B8200020C1010008E93C0008C9310008FF
:100010006D3A0008971000085959000800000000C8
:10002000000000000000000000000000B5450008CE
:100030002526000800000000893E000859490008F4
:10004000DB010008DB010008DB010008DB01000820
:10005000DB010008DB010008DB010008DB01000810
:1000600029260008DB010008DB010008DB0100088D
:10007000DB010008DB010008711C0008DB0100083F
:10008000DB010008DB010008DB010008F1110008BA
:10009000B5110008DB010008DB010008DB010008E6
:1000A000DB010008DB010008DB010008DB010008C0
:1000B000C5490008894A0008C94A0008DB01000850
:1000C000DB010008DB010008DB010008DB010008A0
:1000D000DB010008694F00085D50000891510008DD
:1000E000DB010008DB010008DB010008DB01000880
:1000F000DB010008DB010008DB010008DB01000870
:10010000DB010008DB010008DB010008DB0100085F
:10011000DB010008DB010008014B0008DB010008DF
:10012000DB010008DB0100086D220008DB0100088C
:10013000DB010008DB010008DB01000845130008B3
:100140001D130008DB010008DB010008DB010008CB
:10015000DB010008DB010008DB010008895300080F
:10016000DB010008DB010008DB010008DB010008FF
:10017000DB010008DB010008DB01000800000000D3
:10018000DB010008DB0100087D4E0008DB010008F0
:10019000DB010008DB010008DB010008DB010008CF
:1001A0000000000000000000DB010008DFF80CD0B8
:1001B00000F068FE00480047F9940008B8200020CD
:1001C0000648804706480047FEE7FEE7FEE7FEE7F1
:1001D000FEE7FEE7FEE7FEE7FEE7FEE75D49000813
:1001E000AD01000810B5044600BF00BF00BF00BF4E
:1001F000002CFDD000BF00BF00BF0029FDD000BF14
:1002000000BF00BF002AFDD000BF00BF00BF002B11
:10021000FDD000BF72B6216002FB0310401E60607B
:10022000A3600020E06022746161A16162B60020D9
:1002300010BD2DE9F04104460D460026002700BF01
:1002400000BF002CFDD000BF00BF00BF002DFDD0BF
:1002500000BF1C2009F070F9064616B90020BDE861
:10026000F08104FB05F009F067F907460FB900209B
:10027000F5E72B46224639463046FFF7B3FF3046B6
:10028000EDE710B5044600BF00BF002CFDD000BF55
:1002900000BF00BF20680028FCD000BF206807F026
:1002A000CBFD204607F0C8FD10BD034600BF00BFD0
:1002B00000BF00BF002BFDD000BF00BF00BF002962
:1002C000FDD000BF00BF00BF002AFDD000BF72B646
:1002D00019608818401E58609A600020D860196123
:1002E000596162B60020704770B5044600250026AB
:1002F00000BF00BF002CFDD000BF182009F01CF982
:1003000005460DB9002070BD204609F015F90646D6
:100310000EB90020F7E7224631462846FFF7C5FF11
:100320002846F0E710B5044600BF00BF002CFDD002
:1003300000BF00BF00BF20680028FCD000BF2068BD
:1003400007F07AFD204607F077FD10BD30B5024674
:1003500000230C4600BF00BF00BF00BF002AFDD035
:1003600000BF00BF00BF0029FDD000BF906810B9DA
:100370004FF0FF3030BD002310E055689069A8426F
:1003800001D91068906114F8010B9569287072B654
:100390009069401C906162B6581CC3B2107C9842B0
:1003A000EBDC72B69068401E9060D068401CD06054
:1003B00062B60020DEE7024600BF00BF00BF00BFFC
:1003C000002AFDD000BF906810B94FF0FF30704791
:1003D00072B650695368984201D9106850615069EB
:1003E00001705069401C50619068401E9060D06858
:1003F000401CD06062B60020E9E770B503460C46A9
:10040000002500BF00BF00BF00BF002BFDD000BF14
:10041000986810B94FF0FF3070BD002119E098685E
:1004200010B94FF0FF3516E072B65E685869B042F9
:1004300001D918685861605C5E6930705869401C69
:1004400058619868401E9860D868401CD86062B6B1
:10045000491C9142E3D300BF2846DDE730B5024690
:1004600000230C4600BF00BF00BF00BF002AFDD024
:1004700000BF00BF00BF0029FDD000BFD06810B989
:100480004FF0FF3030BD002310E055685069A8429E
:1004900001D9106850615069007804F8010B72B6F8
:1004A0005069401C506162B6581CC3B2107C98421F
:1004B000EBDC72B69068401C9060D068401ED06043
:1004C00062B60020DEE70146002000BF00BF00BF8B
:1004D00000BF0029FDD000BF72B60A694B689A427E
:1004E00001D90A680A610A6910780A69521C0A610E
:1004F0008A68521C8A60CA68521ECA6062B6704717
:1005000070B5024600230C4600BF00BF00BF00BF0D
:10051000002AFDD000BF00BF00BF0029FDD000BFF2
:10052000D06810B94FF0FF3070BD72B6167CD0683D
:10053000401E556906FB00501568451BD2E9006056
:10054000801B401CB5FBF0F600FB165015682844D4
:100550005061D2E90250401E284490600120D060D2
:1005600062B6002310E055685069A84201D91068AE
:1005700050615069007804F8010B72B65069401C54
:10058000506162B6581CC3B2107C9842EBDC72B664
:100590009068401C9060D068401ED06062B6002019
:1005A000C2E710B50146002000BF00BF00BF00BF7A
:1005B0000029FDD000BF72B6D1E903321A44521EA1
:1005C0000B68D31AD1E90042121B521CB3FBF2F4A0
:1005D00002FB14320B681A440A610A691078D1E9E7
:1005E00002231A448A600022CA6062B610BD70B548
:1005F00003460C46154600222E46002100BF00BFD0
:10060000002BFDD000BF00BF00BF002DFDD000BFFC
:10061000D868A04202D84FF0FF3070BD596900225F
:1006200006E05868884200D21968491C501CC2B2C2
:10063000187C60439042F4DC002209E0586888424C
:1006400000D21968087806F8010B491C501CC2B288
:10065000187C9042F2DC0020DFE710B502460B4622
:100660000024002100BF00BF002AFDD000BF116997
:10067000002406E05068884200D21168491C601CC2
:10068000C4B29C42F6DB087810BD014600BF00BF33
:100690000029FDD000BFC86808B9012070470020BC
:1006A000FCE7014600BF00BF0029FDD000BFC868BD
:1006B00008B9012070470020FCE7014600BF00BFD9
:1006C0000029FDD000BF886808B9012070470020CC
:1006D000FCE7014600BF00BF0029FDD000BF8868CD
:1006E00008B9012070470020FCE7014600BF00BFA9
:1006F0000029FDD000BFC8687047014600BF00BF99
:100700000029FDD000BFC8687047014600BF00BF88
:100710000029FDD000BF88687047014600BF00BFB8
:100720000029FDD000BF88687047014600BF00BFA8
:1007300000BF00BF0029FDD000BF72B6D1E9002084
:10074000801A0A7C90FBF2F088600020C86008687C
:1007500048610868886162B600207047014600BFA2
:1007600000BF00BF00BF0029FDD000BF72B6D1E9B5
:100770000020801A88600020C86008680861086846
:10078000486162B60020704740EA01039B0703D02E
:1007900009E008C9121F08C0042AFAD203E011F8C0
:1007A000013B00F8013B521EF9D270472DE9FE4F84
:1007B000804681EA0300C00F0C46009021F0004102
:1007C00023F00045B8EB0200A94105D2404621467E
:1007D00090461C460B46024623F00040104347D08B
:1007E000270DC7F30A00C3F30A510290401A019083
:1007F00040286BDAC3F3130040F4801B0098924644
:1008000020B10023D2EB030A63EB0B0B019859468E
:10081000C0F14002504600F0F0F906460D46504641
:100820005946019A00F008FA10EB080061410024D3
:1008300087EA115284EAE7731A4340D0009A62B300
:10084000019A012A4FEA075215DC001B61EB0201F5
:100850004FF0004202EA0752CDE90042001C41F588
:10086000801132462B4600F03FFA03B0BDE8F08F0E
:1008700040462146F9E7001B61EB0201001C41F5EF
:10088000801300185B412018A2F5001747EB030105
:1008900040EAD570B6196D4111E06D084FEA360691
:1008A00045EAC0754FEA0752001B61EB0201001CCC
:1008B00041F5801149084FEA300000195141324694
:1008C0002B4603B0BDE8F04F00F0FFB900980122BD
:1008D00040000023D0EB020263EBE0730098214656
:1008E0004FEAE074B8EB000061EB0401E9E783F044
:1008F00000435BE781F0004158E72DE9FE4F81EAB4
:10090000030404F0004421F0004100944FF0000B78
:1009100023F0004350EA01045ED052EA03045BD0A6
:10092000C3F30A54C1F30A552C44A4F2F3340194DE
:10093000A0FB0254C1F3130141F48011C3F313036C
:1009400043F4801301FB024400FB034E840A970A20
:1009500044EA815447EA8357A4FB076802958D0A4D
:1009600005FB07854FEA932C04FB0C542705029DD9
:100970004FEA065847EA1637B5EB08056EEB070C49
:10098000870E920E47EA811742EA8312A7FB020103
:10099000B6EB0B0164EB00042B0D43EA0C335E183D
:1009A00044EB1C50DA465146E7FB0201C5F3130441
:1009B0004FEA0B3343EA14534FEA0432019C43EAF3
:1009C0000603A4F10C040294009CCDE900B400F0ED
:1009D0008BF903B0BDE8F08F00200146F9E72DE95F
:1009E000F04D81EA030404F0004B21F00045144669
:1009F0004FF0000A23F0004150EA050220D054EAEB
:100A000001021DD0C5F30A570246C5F31303C1F313
:100A10001300C1F30A5640F4801543F48013A7EB8A
:100A20000608101BD64608F2FD3873EB050002D30A
:100A300008F1010801E092185B41B8F1000F03DAF8
:100A400000200146BDE8F08D00204FF480110646DD
:100A500084460EE0171B73EB050705D3121B63EBEF
:100A6000050306434CEA010C49084FEA300092188E
:100A70005B4150EA0107EDD152EA030012D082EA4D
:100A8000040083EA0501084305D0101BAB4106D2E0
:100A90000122002306E000224FF0004302E06FF045
:100AA000010253101AEB06004CEB085110EB0A0040
:100AB00041EB0B01BDE8F04D00F007B90EB5C10FD9
:100AC00080EAE0700844CA07002140F233438DE811
:100AD0000E000A460B4600F007F903B000BD00F017
:100AE000004230F000400AD0C10D01F56071C0F342
:100AF000160042EA0151C208400711437047002026
:100B00000146704730B5041E71F1000404DB4FF05C
:100B10000044404264EB0101141E73F1000405DB44
:100B20001C464FF00043524263EB0403994208BF56
:100B3000904230BD01F0004330B421F0004150EA52
:100B4000010206D00A0DA2F56072C1F31301002A5A
:100B500002DC30BC00207047440F44EAC104C100ED
:100B6000E01830BC00EBC25000F078B830B50B464E
:100B7000014600202022012409E021FA02F59D42CD
:100B800005D303FA02F5491B04FA02F52844151EA1
:100B9000A2F10102F1DC30BD2DE9F05F0546002035
:100BA00092469B4688460646814640241BE02846DE
:100BB00041464746224600F02FF853465A46C01A8F
:100BC000914110D311461846224600F016F82D1A0E
:100BD00067EB01084F4622460120002100F00DF886
:100BE00017EB00094E41201EA4F10104DFDC48464A
:100BF00031462A464346BDE8F09F202A04DB203ACE
:100C000000FA02F1002070479140C2F1200320FA5F
:100C100003F3194390407047202A04DB203A21FA5D
:100C200002F00021704721FA02F3D040C2F1200205
:100C30009140084319467047202A06DBCB17203A1B
:100C400041FA02F043EAE07306E041FA02F3D040D1
:100C5000C2F1200291400843194670470029A8BFFD
:100C60007047401C490008BF20F00100704710B4D5
:100C7000B0FA80FC00FA0CF050EA010404BF10BC8A
:100C8000704749B1CCF1200421FA04F411FA0CF1B7
:100C900018BF012121430843A3EB0C01CB1D4FEAF0
:100CA00000614FEA102042BF002010BC704700EBEB
:100CB000C35010440029A4BF10BC7047401C490019
:100CC00008BF20F0010010BC704710B5141E73F16E
:100CD000000408DA401C41F1000192185B411A43FC
:100CE00001D120F0010010BD2DE9F04D92469B4648
:100CF00011B1B1FA81F202E0B0FA80F220329046EE
:100D0000FFF77BFF04460F4640EA0A0041EA0B0169
:100D100053465A46084313D0114653EA010019D0EE
:100D2000C8F140025046FFF777FF05460E46504691
:100D300059464246FFF761FF084305D0012004E011
:100D400020463946BDE8F08D0020054346EAE076AE
:100D50002C4337430A986305E40AA0EB08000022FD
:100D6000FD0A44EA47540A3002D500200146E9E76B
:100D7000010510196941DDE9084500196941BDE81F
:100D8000F04DA2E770B521F0004303430CD0C1F34E
:100D90000A550024D5EB040564EB0403D617AD1AFD
:100DA000B34102DB0020014670BD201841EB025127
:100DB00070BD2DE9F04D00231A461B1A8A4103DB52
:100DC00000200146BDE8F08DC1F30A52C1F31301C2
:100DD00041F480154FF0000BD10702D100186D418E
:100DE000521E0027044640F2FF11384601EB620A0A
:100DF0003E468046024600204FF48011FFF70CFF6C
:100E0000C2197141BB1846EB0100B4EB030C75EB42
:100E1000000C04D3E41A65EB000517460E462419AE
:100E200008F101006D4180463428E3DDF91946EBF5
:100E30000600091BA84103D24FF0FF32134601E020
:100E4000002213461BEB070046EB0A51BDE8F04DAC
:100E5000FFF73BBFC1F30A52C1F3130140F2FF3366
:100E600041F480119A4202DA00200146704740F2B4
:100E700033439A42A2F2334202DC5242FFF7CCBE25
:100E8000FFF7BBBE064C074D06E0E06840F00103EB
:100E900094E8070098471034AC42F6D3FFF78AF97C
:100EA00060AD000880AD000870B58C1810F8015BCB
:100EB00015F0070301D110F8013B2A1106D110F8F3
:100EC000012B03E010F8016B01F8016B5B1EF9D1F7
:100ED0002B0705D40023521E0DD401F8013BFAE77D
:100EE00010F8013BCB1A921C03E013F8015B01F8E8
:100EF000015B521EF9D5A142D8D3002070BD00007D
:100F000070B505460C4600260DB1022C00D870BD08
:100F1000A11E06480288284601F074FF0646A01E5E
:100F20002E54310A601E295400BFF0E7C604002089
:100F300070B505460C4600260DB1022C00D870BDD8
:100F4000611EFF22284601F077FF0646601E2E54E0
:100F500000BFF4E700B58BB00121402003F02EF86C
:100F60000121802003F01AF8092206211F4801F010
:100F7000FBFE4020099002208DF8280003208DF808
:100F8000290000208DF82A0001208DF82B0009A9E6
:100F9000164801F0A1FE5320ADF818000020ADF86E
:100FA0001A00012007900020ADF8200006A9104883
:100FB00003F0E2FE6020ADF804000120ADF8060069
:100FC0000020ADF8100001A9094803F029FE08210E
:100FD000074803F063FE0121054803F0DDFD012110
:100FE000034803F0EBFD0BB000BD0000001C024005
:100FF0000018004010B5FFF7ADFF03F08BFC10BDEB
:1010000010B500F08BFD03F0A7F901F0E9FB02F049
:10101000D7F802F025FC642006F0D8FE02F0E4FACE
:101020004FF4E13004F052FA07F002FA03F07CFDCD
:1010300000F034F800F0EAF801F09AFA03F09AFDB3
:1010400010BD10B54FF4A06002F08CFE02F06CFBF6
:1010500002F0C6FBFFF7CEFF642006F0B7FE4FF4A8
:10106000E13004F03FF84FF4E13004F0D5F803F03C
:10107000B8FC03F0C5F908F095FA002408E0204612
:1010800008F0C4FA40F2C52006F0AEFE601CC4B2FF
:10109000042CF4DB10BD00BFFEE7000000B58BB0F0
:1010A0000121082002F07AFF0121480602F086FFA4
:1010B000092200213D4801F057FE092201213B4849
:1010C00001F052FE0320029000208DF80E00032054
:1010D0008DF80D0002208DF80C0002A9334801F0B4
:1010E000FBFD14208DF8040001208DF805008DF81B
:1010F00006008DF8070001A802F0F8FD13208DF816
:10110000040000208DF8050001208DF806008DF800
:10111000070001A802F0EAFD254800F091F908A8AF
:1011200000F0C9FB00208DF826008DF827008DF80F
:1011300028008DF829008DF82A0001208DF82B0059
:1011400000208DF822008DF8230008208DF824005F
:1011500003208DF82500ADF8200008A9144800F000
:10116000A8FA00208DF81A008DF81B0001208DF8D8
:101170001C000020ADF81000ADF81200ADF814000E
:10118000ADF81600ADF8180001208DF81D0004A878
:1011900000F072F901220221054800F081FA0122D3
:1011A0001146034800F07CFA0BB000BD000C024071
:1011B0000064004000B585B002210B4800F0E0F962
:1011C00078B10421084800F0E7F80849064800F023
:1011D000C7F86A460021044800F0F5FA684600F0B6
:1011E0000DFC05B000BD00000064004008000032A6
:1011F00010B50121044800F0C3F918B101210248DB
:1012000000F0CAF810BD00000064004000B58BB0CB
:101210000121022002F0C2FE0121880602F0CEFE6A
:1012200009220C213B4801F09FFD09220D2139487C
:1012300001F09AFD4FF44050029002208DF80C000E
:1012400002A9344801F048FD40208DF80400022036
:101250008DF8050001208DF806008DF8070001A823
:1012600002F044FD3F208DF8040001208DF80500B8
:101270008DF806008DF8070001A802F037FD26481A
:1012800000F0DEF808A800F016FB00208DF826001C
:101290008DF827008DF828008DF829008DF82A0098
:1012A00001208DF82B0000208DF822008DF82300FE
:1012B00008208DF8240003208DF82500ADF82000CB
:1012C00008A9154800F0F5F90E208DF81A00002045
:1012D0008DF81B0001208DF81C000020ADF81000D7
:1012E000ADF81200ADF81400ADF81600ADF8180016
:1012F00001208DF81D0004A800F0BEF80122022193
:10130000054800F0CDF901221146034800F0C8F964
:101310000BB000BD000402400068004000B585B07D
:101320000221074800F02CF940B10221044800F0E6
:1013300033F86A460021024800F045FA05B000BDC6
:101340000068004010B50121044800F019F918B1F7
:101350000121024800F020F810BD000000680040A4
:1013600000220C4B994202D10023836111E0C1F3AA
:10137000130201F000730BB1C2600AE001F0806358
:101380000BB1026105E001F000630BB1826000E087
:10139000426070477000F030B1F5007F3AD00FDC4A
:1013A000202928D006DC01291CD004291DD00829B9
:1013B00040D11DE0402921D0B1F5807F3AD126E00F
:1013C000B1F5004F31D006DCB1F5806F25D0B1F515
:1013D000006F2FD124E0B1F5803F12D0B1F5003F6E
:1013E00028D111E0154A826025E00822C26022E07F
:1013F0001022C2601FE0082202611CE0102202617C
:1014000019E00822426016E01022426013E0042234
:10141000426010E0042242600DE0042242600AE0D3
:10142000002282610422426005E0002282610422DF
:10143000426000E000BF00BF7047000001010100F2
:1014400010B504460B48844209D10121480602F038
:10145000C5FD00214FF0007002F0C0FD08E0012141
:10146000880602F0BBFD00214FF0806002F0B6FD5F
:1014700010BD00000064004010B50021837A0122F5
:1014800002FA03F13D4A126842F001023B4B1A6036
:101490003A4A1C3212688A43384B1C331A60027B6A
:1014A000CAB9364A0C3212688A43344B0C331A607C
:1014B0004288C38842EA0343304A4032847A42F881
:1014C00034300288838842EA03432C4A4032847ACB
:1014D00002EBC4025360027B012A19D1274A0C3265
:1014E00012680A43254B0C331A604288038842EA8B
:1014F0000343224A4032847A42F83430C2888388D7
:1015000042EA03431D4A4032847A02EBC40253602C
:10151000C27A3AB9194A121D12688A43174B1B1D29
:101520001A6006E0154A121D12680A43134B1B1D70
:101530001A60028932B9114A143212688A430F4B79
:1015400014331A600289012A06D10C4A1432126837
:101550000A430A4B14331A60427B012A06D1074A18
:101560001C3212680A43054B1C331A60034A126886
:1015700022F00102014B1A6010BD0000006600401D
:1015800070B504460D46002660692840002871D0D9
:10159000B5F5807F5CD010DC082D35D006DC012D40
:1015A00020D0022D24D0042D72D127E0102D31D06F
:1015B000202D35D0402D6BD138E0B5F5004F60D0EF
:1015C00009DCB5F5007F49D0B5F5806F4CD0B5F595
:1015D000006F5DD14FE0B5F5803F2DD0B5F5003FF0
:1015E00056D12FE0A0682D4900F054FA064651E08C
:1015F000E068032100F04EFA06464BE0E06808215F
:1016000000F048FA064645E0E068102100F042FA92
:1016100006463FE02069032100F03CFA064639E027
:101620002069082100F036FA064633E020691021CF
:1016300000F030FA06462DE06068082100F02AFA32
:10164000064627E06068102100F024FA064621E0F3
:10165000A069012100F01EFA06461BE0A0690221E4
:1016600000F018FA064615E0A069042100F012FA0D
:1016700006460FE00FE0A069702100F00BFA064665
:1016800008E06068042100F005FA064602E0FFE782
:10169000002600BF00E00026304670BD01010100B9
:1016A0001AB143690B43436102E043698B434361D1
:1016B000704730B5024600200023146824F002046D
:1016C0001460146844F00104146000E05B1C54686A
:1016D00004F001041CB94FF6FF74A342F6D154681C
:1016E00004F001040CB900206CE08C79012C04D1C9
:1016F000146844F08004146003E0146824F080044B
:101700001460CC79012C04D1146844F040041460B6
:1017100003E0146824F0400414600C7A012C04D116
:10172000146844F02004146003E0146824F02004DA
:1017300014604C7A012C04D1146844F01004146035
:1017400003E0146824F0100414608C7A012C04D196
:10175000146844F00804146003E0146824F00804DA
:101760001460CC7A012C04D1146844F00404146091
:1017700003E0146824F0040414608C78A407CD7886
:1017800044EA05640D7944EA05444D7944EA055478
:101790000D886D1E2C43D461146824F0010414607C
:1017A000002300E05B1C546804F001041CB14FF6F8
:1017B000FF74A342F6D1546804F001040CB1002078
:1017C00000E0012030BD10B500F5D87303EB011324
:1017D0001B6803F004031372137A53B900F5D8732E
:1017E00003EB01131B6840F2FF7404EA53531360C8
:1017F00009E000F5D87303EB01131B686FF0604438
:1018000004EAD303536000F5D87303EB01131B689C
:1018100003F00203537200F5D87303EB01135B6806
:1018200003F00F03937200F5D87303EB01135B68A9
:101830001B0AD37400F5D87303EB01139B68D372B2
:1018400000F5D87303EB01139B681C0A147300F5B1
:10185000D87303EB01139B681C0C547300F5D87309
:1018600003EB01139B681B0E937300F5D87303EB16
:101870000113DB68D37300F5D87303EB0113DB6846
:101880001C0A147400F5D87303EB0113DB681C0CFD
:10189000547400F5D87303EB0113DB681B0E9374CB
:1018A00021B9C36843F02003C36003E0036943F038
:1018B0002003036110BD00218171C1710172417269
:1018C0008172C1728170C170032101710221417165
:1018D00001210180704710B502460020936803F093
:1018E0008063B3F1806F00D110E0936803F0006370
:1018F000B3F1006F01D1012008E0936803F0805339
:10190000B3F1805F01D1022000E00420042874D0EC
:1019100002F5C07303EB00131B6803F0010402F52A
:10192000C07303EB00131C600B7A7BB94B7A0C88F5
:1019300043EA445302F5C07404EB001424682343C3
:1019400002F5C07404EB0014236010E00B7A4C68BD
:1019500043EAC4034C7A234302F5C07404EB001439
:101960002468234302F5C07404EB001423608B7ACF
:1019700003F00F038B7202F5C07303EB00135B6877
:1019800023F00F0402F5C07303EB00135C6002F553
:10199000C07303EB00135B688C7A234302F5C074B9
:1019A00004EB001463608B7B1C064B7B44EA03440E
:1019B0000B7B44EA0323CC7A234302F5C07404EB87
:1019C0000014A3608B7C1C064B7C44EA03440B7C14
:1019D00044EA0323CC7B234302F5C07404EB0014D8
:1019E000E36002F5C07303EB00131B6843F00104CE
:1019F00002F5C07303EB00131C6010BD10B5044664
:101A00001E480068401C1D4908602068A0F20120A3
:101A100088B1042805D0052808D0A0F2012050BBC9
:101A20001FE02146164800F06FFE25E021461548CC
:101A300000F06AFE20E0207BE17A40EA012000B25B
:101A400011490880A17B607B41EA002000B20E4969
:101A50004880217CE07B41EA002000B20A4988806E
:101A60000AE0207BE17A40EA012008490880607B97
:101A70000749087000BF00BF00BF10BD380200203A
:101A8000900700203C0200208002002086020020F7
:101A9000880200200246002002EA01030BB1012067
:101AA00000E000207047000070B51B480068401C33
:101AB0001949086003F052FF01F0DAFF01F0E0F984
:101AC00040F6B831884205DD01F096F9022801D1CF
:101AD00002F064FC01F090F9022801D103F05AFEF3
:101AE00001F006FA00F0B6FF01F0D2F80A480078DB
:101AF00000F0010010B902F093FE0CE001F0AEF925
:101B0000044601F068FD054601F070F906462246DC
:101B1000294602F071FD70BD6C04002010B5002054
:101B20001649086002F042FE15484FF47A61C26916
:101B3000904714484FF47A61C26990471048816910
:101B400088471048816988479FED0F0A0F4880ED4C
:101B5000000A9FED0D0A80ED010A0D48C16C88470F
:101B60000C48C16C88470C48C16C88470B48C16C55
:101B700088470B48C16C884710BD00006C040020EA
:101B80002404002048040020000000000408002075
:101B9000CC0300208C020020DC0200202C0300205B
:101BA0007C03002070B505460C46164800782028B6
:101BB00006DB15A003F03EFF02F0BEFE002070BD64
:101BC000202D06DB19A003F035FF02F0B5FE002042
:101BD000F5E744B1012C06D01BA003F02BFF02F067
:101BE000ABFE0020EBE704F00100A8401F490968A4
:101BF00008431E49086003480078401C01490870EA
:101C00000120DCE734020020416C6C207468652000
:101C1000666C61677320686173206265656E20750C
:101C2000736564206F7574210D0A00005468652087
:101C3000666C616720494420697320746F6F20626D
:101C40006967210D0A000000496E697469616C20A2
:101C5000666C61672076616C7565206973206E6FB4
:101C6000742076616C6964210D0A00003002002046
:101C700070B52DED0C8BFE49FE4800F0FDFB0028F1
:101C80007DD04FF0C051FB4800F00AFBF849F948FD
:101C900000F020FB0024DEE2F748005DA52830D1EB
:101CA000F549A01D085C0028F9D1601D085C0128D9
:101CB00028D104F11400642824DAE01D095CEE4AFE
:101CC000401C105C41EA0020EC490880114604F1F8
:101CD0000A00085CE9490871114604F10B00095C2F
:101CE000401C105C41EA0020E4494880114604F1A0
:101CF0000D00095C401C105C41EA0020DF49A1F89E
:101D00000500A6E2DC49601D085C022803D104F14D
:101D10000B006428F5DBD849601D085C03287DD1E1
:101D200004F10F00642879DAE01D085CD4490870DA
:101D3000D14904F10800085CD1494870CE4A04F149
:101D40000C01515C01F0800109B9012101E04FF063
:101D5000FF310846FEF7B2FE41EC190BC64A04F10A
:101D60000B01515C01F08005E91705EB5161CA11C7
:101D7000C14B04F10C01595C01F07F0100E06DE200
:101D800002EB4101A1F17F00FEF798FE41EC1D0B33
:101D9000B0EE4D1AF0EE6D1A9FEDBA0B04F094FA06
:101DA000B0EE40BAF0EE60BAB34904F10900085C45
:101DB00000EE100AB8EE400A9FEDB41AC0EE010A18
:101DC00004F10A00085C00EE100AB8EE400A30EE9A
:101DD000800A9FEDAE1AC0EE010A04F10B00085C08
:101DE00000F07F0000EE100AB8EEC00A30EE800A64
:101DF000DFEDA70A80EE201AB7EE000A31EE000AE6
:101E000010EE106A3046FEF76AFE41EC1C0B53ECF4
:101E10001B2BFEF772FD41EC1A0B00E00BE053ECBC
:101E2000192BFEF76AFD41EC180BFEF783FE94496F
:101E3000C1F802000DE29049601D085C0428F9D148
:101E400004F11E006428F5DA0A4604F10A01515C27
:101E500001F0800109B9012101E04FF0FF3108468E
:101E6000FEF72CFE41EC190B834A04F10901515C89
:101E700001F08005E91705EB5161CA117E4B04F1B1
:101E80000A01595C01F07F0102EB4101A1F17F00E1
:101E9000FEF714FE41EC1D0BB0EE4D1AF0EE6D1A7C
:101EA0009FED780B04F010FAB0EE40BAF0EE60BA95
:101EB0007149E01D085C00EE100AB8EE400A9FED83
:101EC000731AC0EE010A04F10800085C00EE100A63
:101ED000B8EE400A30EE800A9FED6C1AC0EE010A9F
:101EE00004F10900085C00F07F0000EE100AB8EE73
:101EF000C00A30EE800ADFED660A80EE201AB7EEE7
:101F0000000A31EE000A10EE106A3046FEF7E7FDD7
:101F100041EC1C0B53EC1B2BFEF7EFFC41EC1A0BB6
:101F200053EC192BFEF7E9FC41EC180BFEF702FE0F
:101F300058490860504A04F10E01515C01F08001DB
:101F400009B9012101E04FF0FF310846FEF7B6FD67
:101F500041EC190B484AE11C515C01F08005E9177E
:101F600005EB5161CA11444B04F10E01595C01F0BB
:101F70007F0102EB4101A1F17F00FEF79FFD41ECE3
:101F80001D0BB0EE4D1AF0EE6D1A9FED3E0B04F0F6
:101F90009BF9B0EE40BAF0EE60BA374904F10B009D
:101FA000085C00EE100AB8EE400A9FED381AC0EE49
:101FB000010A04F10C00085C00EE100AB8EE400AB9
:101FC00030EE800A9FED311AC0EE010A04F10D00D7
:101FD000085C00F07F0000EE100AB8EEC00A30EE98
:101FE000800A9FED2B1AC0EE010AB7EE000A30EE10
:101FF000800A10EE106A3046FEF771FD41EC1C0BB2
:1020000053EC1B2BFEF779FC41EC1A0B53EC192B0C
:10201000FEF773FC41EC180BFEF78CFD1D49486080
:10202000154A04F11201515C01F0800109B9012146
:1020300001E04FF0FF310846FEF740FD41EC190B7F
:102040000D4A04F11101515C01F08005E91705EB1F
:102050005161CA11084B04F11201595C01F07F0172
:1020600002EB4101A1F17F00FEF728FD14E0000022
:10207000008000185860024020080020B6040020AC
:10208000C004002000000000000000400000804369
:10209000000000431C0C002041EC1D0BB0EE4D1A5B
:1020A000F0EE6D1A1FED090B04F00EF9B0EE40BA18
:1020B000F0EE60BA6B4904F10F00085C00EE100A04
:1020C000B8EE400A1FED0F1AC0EE010A04F110002D
:1020D000085C00EE100AB8EE400A30EE800A1FEDF0
:1020E000151AC0EE010A04F11100085C00F07F002F
:1020F00000EE100AB8EEC00A70EE800A1FED1C1A3E
:1021000080EE810AF7EE000A30EE200A10EE106A27
:102110003046FEF7E4FC41EC1C0B53EC1B2BFEF7A6
:10212000ECFB41EC1A0B53EC192BFEF7E6FB41ECF0
:10213000180BFEF7FFFC4C4988604A4A04F116016F
:10214000515C01F0800109B9012101E04FF0FF313C
:102150000846FEF7B3FC41EC190B424A04F11501A5
:10216000515C01F08005E91705EB5161CA113D4B47
:1021700004F11601595C01F07F0102EB4101A1F16C
:102180007F00FEF79BFC41EC1D0BB0EE4D1AF0EE0C
:102190006D1A1FED440B04F097F8B0EE40BAF0EE64
:1021A00060BA304904F11300085C00EE100AB8EE82
:1021B000400A1FED4A1AC0EE010A04F11400085C3F
:1021C00000EE100AB8EE400A30EE800A1FED511AF8
:1021D000C0EE010A04F11500085C00F07F0000EE7B
:1021E000100AB8EEC00A70EE800A1FED571A80EE92
:1021F000810AF7EE000A30EE200A10EE106A30462F
:10220000FEF76DFC41EC1C0B53EC1B2BFEF775FB32
:1022100041EC1A0B53EC192BFEF76FFB41EC180B3A
:10222000FEF788FC1049C8600E4904F11700095CEC
:102230000C4A401C105C41EA00200B490882114600
:1022400004F11800095C401C105C41EA00200649BA
:102250004882601CC4B2642CFFF61EADBDEC0C8B32
:1022600070BD0000200800201C0C002010B509499A
:10227000094800F001F958B14FF08151064800F0CB
:102280000FF80449044800F025F8044801F0A2FFC3
:1022900010BD00000080201040640240D8040020DF
:1022A0000246094B9A4201D2084801E0064810381C
:1022B00001F000531BB1064B0B40C36002E0044B1E
:1022C0000B408360704700001064024000600240D1
:1022D0007D0F7D0F0246094B9A4201D2084801E06A
:1022E0000648103801F000531BB1064B0B40C36089
:1022F00002E0044B0B408360704700001064024012
:10230000006002407D0F7D0F21B1026842F00102A2
:10231000026003E0026822F00102026070470000E0
:10232000016821F0010101600021016041608160CC
:10233000C1600161212141614A49884204D13D21A6
:10234000484A103A91608CE046491831884205D1DC
:102350004FF47461434A103A916082E04149303150
:10236000884205D14FF474113E4A103A916078E0EA
:102370003C494831884205D14FF07461394A103ADE
:1023800091606EE037496031884204D13649354A60
:10239000103AD16065E033497831884204D133493D
:1023A000304A103AD1605CE02E499031884204D125
:1023B0002F492C4A103AD16053E02A49A83188426B
:1023C00005D14FF03D51274A103AD16049E02949E3
:1023D000884204D13D21274A083A116041E025494D
:1023E0001831884205D14FF47461224A083A1160CD
:1023F00037E020493031884205D14FF474111D4A2D
:10240000083A11602DE01B494831884205D14FF050
:102410007461184A083A116023E016496031884215
:1024200004D11149134A121F11601AE01149783181
:10243000884204D10D490F4A121F116011E00D4965
:102440009031884204D10A490A4A121F116008E0FB
:102450000849A831884204D14FF03D51054A121F66
:1024600011607047106002403D000020400F0020C6
:1024700000003D201064024070B502460020002498
:102480000025124EB24201D2114B01E00F4B103B1E
:10249000104E0E4036B11E2606EAD124166806EA12
:1024A000040502E0566906F0800501F000560EB101
:1024B0005C6800E01C68084E344004EA010616B16E
:1024C0000DB1012000E0002070BD0000106402404A
:1024D000006002403C0F3C0F7D0F7D0F10B501F0F6
:1024E00080034BB122B1436943F08003436103E0B1
:1024F000436923F08003436180290BD02AB103682C
:1025000001F01E042343036004E0036801F01E048D
:10251000A343036010BD000010B500220268134BF6
:102520001A40CC680B6823434C6923438C692343CE
:10253000CC6923430C6A23434C6A23438C6A2343AC
:102540004C6B23438C6B23431A430260426922F095
:102550000702D1E90B3423431A4342610B694360FC
:102560004B6883608B68C36010BD00003F801CF027
:1025700000B587B00121274801F010FD012110208E
:1025800001F03CFD07221146234800F0EDFB2348F3
:1025900002F0B8FF8020059002208DF8180000207E
:1025A0008DF81A0003208DF8190000208DF81B000B
:1025B00005A9194800F090FB194801900020ADF8DA
:1025C0000800ADF80A004FF48060ADF80C0004205C
:1025D000ADF80E000020ADF8100001A90F4803F07F
:1025E00065F801210D4802F077FF25208DF80000E5
:1025F00001208DF801008DF802008DF80300684677
:1026000001F074FB012240F22551044803F029F83F
:1026100007B000BD0200400000040240001001406D
:10262000A08601007047000010B5042000F016F8E5
:1026300040B10A2005F0CAFB04480068012801D116
:1026400001F076F8042000F003F810BD0882404243
:102650000149086070470000143C01400146002019
:10266000034A12680A400AB1012000E000207047C6
:10267000143C0140002123498279002A3AD00A46BD
:10268000126803689A430B461A600A1D12680368B1
:102690009A430B1D1A60027911440A6803681A43B1
:1026A0000A60184A0832126803689A43154B0833C7
:1026B0001A601A1D126803689A43124B0C331A6091
:1026C0004279102A0ED11A1F126803681A430D4B63
:1026D00008331A601A1D126803681A43094B0C3339
:1026E0001A600DE00749427911440A6803681A43E9
:1026F0000A6005E0027911440A6803689A430A6097
:1027000070470000003C014070B5002200230468BF
:1027100044600C7BCD7A44EA052404600468456873
:10272000641BC460C4682B4DAC4207DA846B641C24
:102730008463C46804F50054C4610EE0C46841F6C3
:102740004C55AC4207DD846B641E8463C468A4F5F9
:102750000054C46101E0C468C4610568846B05EB82
:102760004434846004688569641B00EE104AB8EE46
:10277000C00ADFED190A20EE200A9FED181AC0EEFC
:10278000010A846B4FF4B4756C4300EE104AB8EE46
:10279000C00A30EE800A80ED100AC669047D651C0F
:1027A000057500F1200545F82460047D062C01D153
:1027B00000240475002205E000F1200454F82240B2
:1027C0002344521C062AF7DB062493FBF4F4C4636B
:1027D00070BD0000B4E2FFFF0000B44300000046FB
:1027E00010B500210846FFF7DDF900210120FFF7B1
:1027F000D9F900210220FFF7D5F900210320FFF7C6
:10280000D1F900210420FFF7CDF900210520FFF7C1
:10281000C9F900210620FFF7C5F900210720FFF7BD
:10282000C1F900210820FFF7BDF900210920FFF7B9
:10283000B9F900210A20FFF7B5F900210B20FFF7B5
:10284000B1F900210C20FFF7ADF900210D20FFF7B1
:10285000A9F900210E20FFF7A5F900210F20FFF7AD
:10286000A1F900211020FFF79DF900211120FFF7A9
:1028700099F900211220FFF795F910BD70B50546B2
:102880000C46072D65D2DFE805F0640414243444B7
:10289000540000EE104AB8EEC00ADFED300A80EEB8
:1028A000201A2F4890ED040A30EE410A80ED040A08
:1028B00050E000EE104AB8EEC00ADFED280A80EEC4
:1028C000201A274890ED050A30EE410A80ED050AEE
:1028D00040E000EE104AB8EEC00ADFED200A80EEBC
:1028E000201A1F4890ED060A30EE410A80ED060AD4
:1028F00030E000EE104AB8EEC00A9FED181AC0EEA4
:10290000010A184890ED040A30EE600A80ED040ACE
:1029100020E000EE104AB8EEC00ADFED100A80EEAB
:10292000201A104890ED050A30EE410A80ED050AA4
:1029300010E000EE104AF8EEC00A9FED081A80EE93
:10294000810A0848D0ED060A30EEC00A80ED060A7A
:1029500000E000BF00BF01F095F870BD0000C84264
:102960008C020020DC02002070B505460C46072DC5
:1029700065D2DFE805F0640414243444540000EE0A
:10298000104AB8EEC00ADFED300A80EE201A2F4858
:1029900090ED040A31EE000A80ED040A50E000EEEA
:1029A000104AB8EEC00ADFED280A80EE201A274848
:1029B00090ED050A31EE000A80ED050A40E000EED8
:1029C000104AB8EEC00ADFED200A80EE201A1F4838
:1029D00090ED060A31EE000A80ED060A30E000EEC6
:1029E000104AB8EEC00A9FED181AC0EE010A184846
:1029F00090ED040A30EE800A80ED040A20E000EE3B
:102A0000104AB8EEC00ADFED100A80EE201A104816
:102A100090ED050A31EE000A80ED050A10E000EEA7
:102A2000104AF8EEC00A9FED081A80EE810A0848A5
:102A3000D0ED060A30EE200A80ED060A00E000BF65
:102A400000BF01F01FF870BD0000C8428C020020DA
:102A5000DC02002010B500F025FA124890ED000AC3
:102A6000114880ED000A1148016988471048D0EDEF
:102A7000100A20EE200A0C4880ED010A816C88477C
:102A8000094890ED0D0A0B4880ED000A0848C0681F
:102A900000EE100AB8EEC00A064880ED010A816C0B
:102AA000884710BD040800208C0200202404002068
:102AB0003C020020DC02002070B505460C46072DC4
:102AC00065D2DFE805F0640414243444540000EEB9
:102AD000104AB8EEC00ADFED300A80EE201A2F4807
:102AE00090ED040A30EE410A80ED040A50E000EE59
:102AF000104AB8EEC00ADFED280A80EE201A2748F7
:102B000090ED050A30EE410A80ED050A40E000EE46
:102B1000104AB8EEC00ADFED200A80EE201A1F48E6
:102B200090ED060A30EE410A80ED060A30E000EE34
:102B3000104AB8EEC00A9FED181AC0EE010A1848F4
:102B400090ED040A30EE600A80ED040A20E000EE09
:102B5000104AB8EEC00ADFED100A80EE201A1048C5
:102B600090ED050A30EE410A80ED050A10E000EE16
:102B7000104AF8EEC00A9FED081A80EE810A084854
:102B8000D0ED060A30EEC00A80ED060A00E000BF74
:102B900000BF01F031F870BD0000C8422C030020D6
:102BA0007C03002070B505460C46072D65D2DFE892
:102BB00005F0640414243444540000EE104AB8EEC6
:102BC000C00ADFED300A80EE201A2F4890ED040A8B
:102BD00031EE000A80ED040A50E000EE104AB8EE33
:102BE000C00ADFED280A80EE201A274890ED050A7A
:102BF00031EE000A80ED050A40E000EE104AB8EE22
:102C0000C00ADFED200A80EE201A1F4890ED060A68
:102C100031EE000A80ED060A30E000EE104AB8EE10
:102C2000C00A9FED181AC0EE010A184890ED040A78
:102C300030EE800A80ED040A20E000EE104AB8EE83
:102C4000C00ADFED100A80EE201A104890ED050A48
:102C500031EE000A80ED050A10E000EE104AF8EEB1
:102C6000C00A9FED081A80EE810A0848D0ED060AD6
:102C700030EE200A80ED060A00E000BF00BF00F041
:102C8000BBFF70BD0000C8422C0300207C03002065
:102C900010B500F0B1F8012804D0022803D00528AF
:102CA00003D101E002E001E000E000BF00BF0848FE
:102CB000816C8847064890ED0D0A064880ED000AB1
:102CC00005F0E2F8034880ED010A816C884710BDE9
:102CD0002C0300207C030020F0B50A4600210023CD
:102CE000002400BF3DE0012505FA01F3156805EA5F
:102CF00003049C4234D105684F000326BE40B5430F
:102D0000056015794E00B5400668354305601579B4
:102D1000012D02D01579022D16D185684F000326AA
:102D2000BE40B543856055794E00B5408668354351
:102D30008560456801268E40B543456045689679B3
:102D40008E40B6B235434560C5684F000326BE408D
:102D5000B543C560D5794E00B540C6683543C560FA
:102D6000491C1029BFD3F0BDF0B5002300244D0746
:102D7000ED0E02FA05F3CE1000F1200555F82650AD
:102D80004E07F70E0F26BE40B543CF1000F12006C8
:102D900046F82750CE1000F1200555F8265045EA98
:102DA0000304CE1000F1200545F82640F0BD418314
:102DB0007047018370470AB1018300E04183704787
:102DC00001480078704700007C04002010B50446DC
:102DD00006222146492000F0ABFD10BD024B0ECB70
:102DE00080E80E00704700001408002001480078B9
:102DF00070470000B40400200148007870470000CC
:102E00001D04002030B5034613B94FF6FF7030BDE6
:102E100009E013F8014B82EA0400C0B2054D35F811
:102E2000100080EA2222081EA1F10101F1D1104612
:102E3000EDE70000F2A8000830B5034605E013F8FE
:102E4000010B80EA02040448025D081EA1F10101A1
:102E5000F5D1104630BD0000F1A700080148B0F9D7
:102E600000007047AC040020014800787047000063
:102E7000A404002001480078704700008802002068
:102E80000148B0F900007047AA04002001480088FA
:102E900070470000860200200148B0F9000070472A
:102EA000A6040020114890ED000AFBEE040AB4EEDF
:102EB000E00AF1EE10FA04D8BBEE040A80ED000A35
:102EC00013E00A4890ED000AF3EE0E0AB4EEE00AB1
:102ED000F1EE10FA04DBB3EE0E0A80ED000A04E016
:102EE000024890ED000A80ED000A704704080020B7
:102EF00010B5FFF781FF062813D2DFE800F00313B7
:102F00007D9DB9BA9FED6F0A6F4880ED000A9FED75
:102F10006D0A80ED010A6D4890ED100A6C4880ED55
:102F2000000AC6E06B48007878B9694890ED000A5D
:102F3000694880ED010A0120664908700020674950
:102F40000870674908706749087067480088401C26
:102F500000B2654908800846B0F900000A283CDD47
:102F60005D4890ED010AF1EE000A30EE200A80ED96
:102F7000010A5E480078012809D1574890ED000AFF
:102F8000F7EE000A30EE600A80ED000A08E05248D1
:102F900090ED000AF7EE000A30EE200A80ED000AFC
:102FA0004D4890ED000AF3EE0E0AB4EEE00AF1EEA1
:102FB00010FA02DD01204D490870474890ED000AE3
:102FC000FBEE040AB4EEE00AF1EE10FA02D20020A1
:102FD00046490870002044490880FFF763FF3E48D7
:102FE00090ED010A384880ED000A384890ED100A4B
:102FF000354880ED010A5CE03848007868B934480B
:1030000090ED000A344880ED010A01203349087030
:1030100000203049087032490870FFF743FF2E48FE
:1030200090ED010A284880ED000A284890ED100A2A
:10303000254880ED010A3CE02948007858B9244829
:1030400090ED000A244880ED010A0120244908700F
:103050000020204908701E4890ED000A1A4880EDB3
:10306000000A1A4890ED100A174880ED010A20E086
:103070001FE01C48007868B9154890ED000A164812
:1030800080ED010A012017490870002011490870DD
:1030900012490870FFF706FF0F4890ED010A0A4831
:1030A00080ED000A094890ED100A074880ED010AFA
:1030B00000BF00BF054890ED100A054880ED000AEA
:1030C00010BD0000000031432C03002090070020B9
:1030D0007404002070040020040800207104002003
:1030E0007204002073040020780400207A04002079
:1030F00000B58BB00121802000F050FF0121082095
:1031000000F05CFF4FF44060099002208DF8280029
:1031100003208DF8290009A92748FFF7DDFD0222C9
:103120000A212548FFF720FE02220B212248FFF743
:103130001BFE5320ADF818000020ADF81A0040F631
:10314000C31007900020ADF8200006A91B4801F02D
:1031500013FE7020ADF804000120ADF80600002039
:10316000ADF8080040F2E73003900220ADF81000FF
:103170000020ADF81200ADF814004FF48070ADF8E7
:10318000160001A90D4801F04BFD01A90B4801F003
:103190008FFD0821094801F081FD0821074801F051
:1031A000D9FD0121054801F0F7FC0121034801F098
:1031B00005FD0BB000BD0000001C0240000C0040EB
:1031C00010B5FFF795FF10BD00BFFEE710B52DED60
:1031D000088B0446964890ED000AD0ED000A20EED8
:1031E000200A9448D0ED000A90ED001A00EE810A02
:1031F0009148D0ED000A90ED001A00EEC10A8F4808
:10320000D0ED000A90ED001A00EEC10A10EE101A7F
:103210000846FDF764FC41EC1A0B864890ED000A65
:103220008548D0ED000A20EE200A8148D0ED000A42
:10323000824890ED001A00EE810AF0EE000A20EEBE
:10324000200A10EE101A0846FDF749FC41EC1B0B52
:10325000B0EE4A1AF0EE6A1AB0EE4B0AF0EE6B0AC4
:1032600002F02EFFB0EE409AF0EE609A9FED740BE4
:1032700053EC102B51EC190BFDF73FFB41EC180BF5
:10328000FDF758FCA0606B4890ED000A6B48D0ED4C
:10329000000A20EE200A6648D0ED000A664890ED4C
:1032A000001A00EEC10AF0EE000A20EE200A10EE2D
:1032B000101A0846FDF713FC41EC1B0BB0EE4B0A4D
:1032C000F0EE6B0A02F0E0FBB0EE40AAF0EE60AA6E
:1032D00051EC1A0B81F0004141EC190B9FED580B9A
:1032E00053EC102BFDF709FB41EC180BFDF722FC0A
:1032F00060604F4890ED000AD0ED000A20EE200AF1
:103300004C48D0ED000A90ED001A00EEC10A4A4880
:10331000D0ED000A90ED001A00EEC10A4748D0ED4A
:10332000000A90ED001A00EE810A10EE101A08460D
:10333000FDF7D5FB41EC1A0B3D4890ED000A3D48E6
:10334000D0ED000A20EE200A3B48D0ED000A3B48B1
:1033500090ED001A00EE810AF0EE000A20EE200A3D
:1033600010EE101A0846FDF7BAFB41EC1B0BB0EE4D
:103370004A1AF0EE6A1AB0EE4B0AF0EE6B0A02F04F
:103380009FFEB0EE409AF0EE609A9FED2D0B53EC4D
:10339000102B51EC190BFDF7B0FA41EC180BFDF7AF
:1033A000C9FB2060284890ED000A284880ED000AFB
:1033B00094ED020A244880ED000A90ED000A2348AB
:1033C000D0ED000A30EE600ADFED210AB4EEE00A2B
:1033D000F1EE10FA05DB1F480068401E1D49086029
:1033E00013E0194890ED000A1848D0ED000A30EEBD
:1033F000600ADFED190AB4EEE00AF1EE10FA04D823
:1034000014480068401C13490860124800684FF4D3
:10341000B471484300EE100AB8EEC00A0A48D0ED75
:10342000000A30EE200A84ED020ABDEC088B10BDC4
:103430004C000020500000205400002058000020C4
:103440006666666666A64C40E0000020E400002048
:103450000000A543E80000200000A5C310B53021FE
:103460006A2000F09DFA0A2004F0B0FC0D2124200F
:1034700000F096FA0A2004F0A9FC0E21282000F0A2
:103480008FFA0A2004F0A2FC8E21312000F088FA85
:103490000A2004F09BFC01210B2000F07CF80A209C
:1034A00004F094FC002000F059F8102801D001200D
:1034B00010BD01210B2000F06EF80A2004F086FCFC
:1034C00000210A2000F067F80A2000F047F808B150
:1034D0000220EDE70A2004F079FC00210B2000F027
:1034E0005AF80B2000F03AF808B10320E0E70A2070
:1034F00004F06CFC2421412000F04DF8412000F044
:103500002DF8242801D00420D2E70A2004F05EFC24
:10351000C021422000F03FF8422000F01FF8C028F0
:1035200001D00520C4E70A2004F050FC00212A2025
:1035300000F036FA0A2004F049FC0021342000F0A3
:103540002FFA0A2004F042FC062203210E2000F08C
:1035500047FA642004F03AFC0020A9E770B504465D
:103560002146322000F01CFA0A2004F02FFC8021B2
:10357000342000F015FA0A2004F028FC352000F071
:10358000B5F905460021342000F00AFA0A2004F0BB
:103590001DFC284670BD70B504460D4600212A204A
:1035A00000F0FEF9022004F011FC2146292000F071
:1035B000F7F9022004F00AFC2946642000F0F0F933
:1035C000022004F003FC81212A2000F0E9F90A20FE
:1035D00004F0FCFB70BD00B5FFF7F2FB012800D141
:1035E00000BD0020FCE7000000B587B001212B489A
:1035F00000F0D4FC0121880700F0E0FC082207213C
:103600002748FFF7B1FB082211462548FFF7ACFB1E
:10361000244801F077FF4FF4C070059002208DF828
:10362000180000208DF81A0003208DF819000020E2
:103630008DF81B0005A91A48FFF74EFB4FF4E13047
:1036400001900020ADF80800ADF80A00ADF80C00BC
:103650000C20ADF80E000020ADF8100001A91148B3
:1036600002F024F801210F4801F036FF52208DF8B6
:10367000000002208DF801008DF8020001208DF875
:103680000300684600F032FB012240F22551054854
:1036900001F0E7FF01F0C4F907B000BD1000200001
:1036A000001002400078004000B585B00121880379
:1036B00000F0A4FC0121022000F070FC0420039023
:1036C00000208DF812008DF8100003208DF81100F5
:1036D00001208DF8130003A91248FFF7FDFA02211B
:1036E000012000F069FF0420019000208DF80800FF
:1036F00008208DF8090001208DF80A0001A8FEF7C6
:10370000B9FF08208DF8000004208DF801008DF825
:10371000020001208DF80300684600F0E7FA05B0CA
:1037200000BD00000004024010B5FFF7BDFF10BD52
:1037300006480068C0430649C1F8AC020548D0F805
:10374000B802C0430349C1F8B8027047AC02424214
:1037500000004242008042421CB50121702000F06E
:103760001DFCFE20009001208DF8040000208DF843
:10377000060003208DF8050001208DF8070069463A
:103780001448FFF7A9FA4FF40060009001208DF86B
:10379000040000208DF8060003208DF805000120AC
:1037A0008DF8070069460C48FFF796FA4FF4804001
:1037B000009001208DF8040000208DF80600032001
:1037C0008DF8050001208DF8070069460348FFF7D2
:1037D00083FA1CBD00180240001002400014024091
:1037E00010B5FFF7B9FF01200A4908600A49C1F87E
:1037F0008802084908310860091D0860091D086031
:10380000091D0860091D086000200449086004497A
:10381000086010BD8402434200004342AC024242B1
:10382000B88242421CB50121402000F0B7FB4FF4A2
:103830000050009001208DF8040000208DF8060053
:1038400003208DF8050069460448FFF745FA4FF458
:1038500000510248FFF7ABFA1CBD000000180240FF
:1038600010B5FFF7DFFF4FF400510248FFF7A1FA50
:1038700010BD00000018024010B586B001224021A2
:103880001748FFF798FA642004F0A0FA752000F0BA
:103890002DF814490978884202D0012006B010BDE5
:1038A00000241422104901A8FCF76EFF00BF0DE0B0
:1038B00001AA02EB4402517801AA12F8140000F0A8
:1038C0006FF8012004F082FA601CC4B20A2CEFDB0E
:1038D000022000F05DF8002000F052F80020DDE743
:1038E0000014024086000020C0A7000810B504465E
:1038F000002240210B48FFF75EFA44F080000A499D
:1039000008700846007800F039FE002000F036FE0E
:1039100006490870012240210248FFF74CFA03488B
:10392000007810BD00140240DA000020D900002009
:103930002DE9F04105460E461746002240210E486B
:10394000FFF739FA45F080000C4908700846007806
:1039500000F014FE002404E0002000F00FFE3055BB
:10396000641CBC42F8DB012240210348FFF723FA24
:103970000020BDE8F081000000140240DB000020C0
:1039800010B50446E006010E1C2000F009F810BD39
:1039900010B50446E006010E1B2000F001F810BD32
:1039A00070B505460C46002240210B48FFF703FA8C
:1039B00005F07F00094908700846007800F0DEFD38
:1039C00006480470007800F0D9FD01224021024829
:1039D000FFF7F1F9002070BD00140240D80000206C
:1039E00070B504460E46154621462820FFF7D8FF3D
:1039F000022004F0EBF90A212920FFF7D1FF022071
:103A000004F0E4F901216420FFF7CAFF022004F06A
:103A1000DDF944F080012520FFF7C2FF022004F009
:103A2000D5F931462620FFF7BBFF022004F0CEF97E
:103A300003213420FFF7B4FF022004F0C7F903216B
:103A40006720FFF7ADFF022004F0C0F981212A2092
:103A5000FFF7A6FF062004F0B9F945F08001272002
:103A6000FFF79EFF022004F0B1F970BD00BFFEE732
:103A700003480088401C00B20149088070470000DC
:103A8000AA04002000B52DED0C8B8BB0274890EDDB
:103A9000060A10EE101A0846FDF721F841EC180B43
:103AA000224890ED050A10EE101A0846FDF717F8A7
:103AB00041EC190B1D4890ED040A10EE101A08464F
:103AC000FDF70DF841EC1A0B194890ED060A10EEBF
:103AD000101A0846FDF703F841EC1B0B144890ED53
:103AE000050A10EE101A0846FCF7F9FF41EC1C0B12
:103AF0000F4890ED040A10EE101A0846FCF7EFFF8D
:103B000041EC1D0B8DED088B8DED069B8DED04AB0F
:103B10008DED02BB8DED00CB53EC1D2B05A001F00C
:103B200089FF0BB0BDEC0C8B00BD0000DC02002057
:103B30008C020020504B503A25332E32662C504BCD
:103B4000493A25312E32662C504B443A25332E32D9
:103B5000662C564B503A25332E32662C564B493A3A
:103B600025312E32662C564B443A25332E32660DC3
:103B70000A00000000B52DED068B85B0154890EDCC
:103B8000060A10EE101A0846FCF7A9FF41EC180BC4
:103B9000104890ED050A10EE101A0846FCF79FFF3A
:103BA00041EC190B0B4890ED040A10EE101A084670
:103BB000FCF795FF41EC1A0B8DED028B8DED009B10
:103BC00053EC1A2B04A001F035FF05B0BDEC068BB9
:103BD00000BD0000CC030020564B503A25332E3256
:103BE000662C564B493A25312E32662C564B443AB8
:103BF00025332E32660D0A0000B52DED0C8B8BB0EF
:103C0000274890ED060A10EE101A0846FCF767FFE9
:103C100041EC180B224890ED050A10EE101A0846E8
:103C2000FCF75DFF41EC190B1D4890ED040A10EE06
:103C3000101A0846FCF753FF41EC1A0B194890ED97
:103C4000060A10EE101A0846FCF749FF41EC1B0B60
:103C5000144890ED050A10EE101A0846FCF73FFFD5
:103C600041EC1C0B0F4890ED040A10EE101A0846A8
:103C7000FCF735FF41EC1D0B8DED088B8DED069BA0
:103C80008DED04AB8DED02BB8DED00CB53EC1D2B08
:103C900005A001F0CFFE0BB0BDEC0C8B00BD000009
:103CA0007C0300202C030020504B503A25332E3249
:103CB000662C504B493A25312E32662C504B443AF3
:103CC00025332E32662C564B503A25332E32662C35
:103CD000564B493A25312E32662C564B443A253301
:103CE0002E32660D0A0000007047000070B50021FA
:103CF00000230F22C4781CB3174C246804F4E0643A
:103D0000C4F5E064C4F30721C1F10404E3B20A413D
:103D100044789C40E1B28478144021430C07210E82
:103D20000E4C05786155047804F01F050124AC4061
:103D300005786D11AD0005F1E025C5F8004109E0F9
:103D4000047804F01F050124AC40054D0678761177
:103D500045F8264070BD00000CED00E000E400E0F6
:103D600080E100E002490143024A1160704700000F
:103D70000000FA050CED00E090ED020A80ED030A68
:103D800090ED000AD0ED010A30EE600A80ED020AE3
:103D900090ED080AD0ED020A30EE200A80ED080A04
:103DA00090ED080AD0ED0B0AF1EE600AB4EEE00ADD
:103DB000F1EE10FA06D290ED0B0AB1EE400A80ED5A
:103DC000080A0CE090ED080AD0ED0B0AB4EEE00A08
:103DD000F1EE10FA03DD90ED0B0A80ED080A90ED8C
:103DE000040AD0ED020A20EE200AD0ED050A90ED7B
:103DF000081A00EE810AD0ED020A90ED031A70EE67
:103E0000C10A90ED061A01EE200A80ED0D0A90ED30
:103E10000D0AD0ED0E0AB4EEE00AF1EE10FA04DD60
:103E200090ED0E0A80ED0D0A10E090ED0D0AD0ED38
:103E30000E0AF1EE600AB4EEE00AF1EE10FA05D2D5
:103E400090ED0E0AB1EE400A80ED0D0A70470000B9
:103E50009FED0C0A80ED070A9FED0A0A80ED080A23
:103E60009FED080A80ED090A9FED060A80ED020A1F
:103E70009FED040A80ED030A9FED020A80ED0D0A12
:103E800070470000000000007047000070B5054654
:103E90000C46012D04D0022D12D0032D30D11FE08D
:103EA00000EE104AB8EEC00ADFED180A80EE201AC4
:103EB000174890ED040A30EE410A80ED040A20E034
:103EC00000EE104AF8EEC00A9FED101A80EE810A4B
:103ED0000F48D0ED050A30EEC00A80ED050A10E06B
:103EE00000EE104AB8EEC00ADFED080A80EE201A94
:103EF000074890ED060A30EE410A80ED060A00E020
:103F000000BF00BFFFF736FE70BD00000000C842D2
:103F1000CC03002070B505460C46012D04D0022DBF
:103F200012D0032D30D11FE000EE104AB8EEC00AC7
:103F3000DFED180A80EE201A174890ED040A31EEE2
:103F4000000A80ED040A20E000EE104AF8EEC00AF4
:103F50009FED101A80EE810A0F48D0ED050A30EE71
:103F6000200A80ED050A10E000EE104AB8EEC00A03
:103F7000DFED080A80EE201A074890ED060A31EEC0
:103F8000000A80ED060A00E000BF00BFFFF7F2FD67
:103F900070BD00000000C842CC03002029B1064AD1
:103FA00012680243044B1A6004E0034A1268824319
:103FB000014B1A60704700003038024029B1064AB0
:103FC00012680243044B1A6004E0034A12688243F9
:103FD000014B1A60704700004038024029B1064A80
:103FE00012680243044B1A6004E0034A12688243D9
:103FF000014B1A60704700002038024029B1064A80
:1040000012680243044B1A6004E0034A12688243B8
:10401000014B1A60704700004438024029B1064A3B
:1040200012680243044B1A6004E0034A1268824398
:10403000014B1A607047000024380240F0B500219F
:1040400000220024022500260223324F3F6807F099
:104050000C0121B1042905D0082937D105E02E4FE4
:10406000076036E02D4F076033E02A4F3F1F3F685F
:10407000C7F38056274F3F1F3F6807F03F036EB1DD
:10408000264FB7FBF3F7DFF88CC0ACF1040CDCF87B
:1040900000C0CCF3881C07FB0CF40CE01E4FB7FBF0
:1040A000F3F7DFF870C0ACF1040CDCF800C0CCF31F
:1040B000881C07FB0CF4174F3F1F3F68C7F30147ED
:1040C0007F1C7D00B4FBF5F7076002E0124F07602C
:1040D00000BF00BF0F4F3F6807F0F0010909104F04
:1040E0007A5C0768D74047600A4F3F6807F4E051A1
:1040F000890A0B4F7A5C4768D7408760054F3F6855
:1041000007F46041490B064F7A5C4768D740C760A7
:10411000F0BD0000083802400024F400001BB70086
:104120001400002010B5FEF7B1FE06490988064AC2
:104130001278022303FB1211884201DD012010BD19
:104140000020FCE7200400202204002010B50446D3
:1041500000EE104AB8EEC00A074880ED000A074892
:10416000B0F9020000EE100AB8EEC00A024880ED75
:10417000010A816C884710BDCC030020800200201A
:104180000168491C0160D0E90012914201DB4168DD
:10419000016090ED000AF8EEC00A90ED010AB8EE59
:1041A000C00A80EE801A80ED021A90ED020A704774
:1041B000416070470146D1E90002904201DB0120D5
:1041C00070470020FCE700210160704701607047E4
:1041D0004160704710B50446FEF70EFE00B9ACE032
:1041E00004B910BD2078617840EA0120C0F30A00CC
:1041F000534908806078C010A17840EA4110C0F3AC
:104200000A004F494880A0788011E17840EA810097
:10421000217940EA8120C0F30A0049498880207949
:104220004010617940EAC110C0F30A004449C880D7
:1042300060790011800808726079C0F3011048723B
:10424000A079E17940EA012000B23D494881207A15
:10425000617A40EA012001B239488181A07AE17A8D
:1042600040EA012001B23648C181217B8174617B23
:10427000C174A07BE17B40EA012031498882084675
:1042800000F0E4F9FEF7B8FD052853D12C4840882A
:10429000A0F5806000EB8000400000B22949088052
:1042A000294890ED000A2648B0F90600A0F5806084
:1042B00000EE900AF8EEE00A9FED241A00EE810A63
:1042C000214880ED000A90ED010A1D48B0F9040074
:1042D000A0F5806000EE900AF8EEE00A9FED1C1A4F
:1042E00000EEC10A184880ED010A1548007A01283D
:1042F00009D14FF47A7017490860091D0860002041
:1043000000F05AFA16E00E48007A032809D140F26C
:10431000E24010490860091D0860002000F04CFAD6
:1043200008E040F2E2400B490860091D08600120E6
:1043300000F042FAFEF7B6FD00BF00BF00BF50E735
:10434000D4070020AC040020040800206F12833B37
:104350000AD7A33C340C004010B50A483221C26988
:1043600090470848816988479FED070A074880ED14
:10437000000A9FED050A80ED010A002000F07AF99D
:1043800010BD000080040020000000000408002090
:1043900010B5312000F060FD10BD000010B59FED9C
:1043A0000E0A0E4880ED010A9FED0B0A80ED020A0D
:1043B0004FF47A700A490860091D0860094881694C
:1043C0008847002000F0F8F9002000F0E9F901200A
:1043D00000F0ECF910BD00000000000014080020FF
:1043E000340C004080040020002001490880704700
:1043F000AC0400200020014908807047AA04002076
:1044000000B587B001212020FFF7C8FD0121080574
:10441000FFF7F4FD012240213A48FEF7CCFC402092
:10442000059001208DF8180000208DF81A00032057
:104430008DF8190001208DF81B0005A93148FEF701
:104440004BFC01212020FFF7A9FD01210805FFF702
:10445000D5FD4FF46070059002208DF81800002003
:104460008DF81A0003208DF8190001208DF81B002B
:1044700005A92448FEF730FC052207212148FEF754
:1044800073FC052208211F48FEF76EFC0522092156
:104490001C48FEF769FC01210805FFF7BFFD00215C
:1044A0004FF48010FFF7BAFD0020ADF800004FF484
:1044B0008270ADF802000020ADF80400ADF80600EF
:1044C000ADF808004FF40070ADF80A003020ADF8E8
:1044D0000C000020ADF80E000720ADF81000694672
:1044E000094800F02DF80121074800F00FF8FF20DF
:1044F00000F044F8012240210248FEF75CFC07B0BE
:1045000000BD0000001402400050014021B10288AB
:1045100042F04002028004E002884FF6BF731A4066
:10452000028070470246002013890B400BB1012026
:1045300000E00020704701468889704781817047FC
:1045400010B50022028802F441520B884C882343A4
:104550008C882343CC8823430C8923434C892343F1
:104560008C892343CC8923431A430280838B4FF2E7
:10457000FF74234083830B8A038210BD10B5044669
:1045800000BF02210A48FFF7CDFF0028F9D02146DD
:104590000748FFF7D3FF00BF01210548FFF7C2FF1F
:1045A0000028F9D00248FFF7C6FFC0B210BD0000D6
:1045B000005001407047000030B500228B071C0FEF
:1045C0000F2303FA04F20B4B8C1053F8243093435F
:1045D000084C8D1044F8253023468C1053F82430B5
:1045E0008C07240F00FA04F42343024C8D1044F886
:1045F000253030BD0838014070B586B005460E46FE
:10460000144640F20140019000208DF80C008DF816
:104610000D0008208DF80E008DF80F508DF81060F9
:10462000210A8DF811108DF8124000218DF8131019
:104630008DF814108DF815108DF8161001A9024888
:10464000FDF749F906B070BD00640040417A0129C8
:1046500002D1074A11700AE0417A032902D1044AC3
:10466000117004E0417A022901D1014A11707047AA
:104670007C0400200149087070470000AE0400204F
:104680000CB50020019000904148006840F4803053
:104690003F49086000BF3E48006800F400300090C9
:1046A0000198401C0190009818B90198B0F5A04FEE
:1046B000F1D13748006800F4003010B101200090BB
:1046C00001E0002000900098012860D1304840307F
:1046D000006840F080502E49403108602D48006845
:1046E00040F440402B4908602948083000682849B8
:1046F000083108600846006840F400400860084639
:10470000006840F4A05008602348091F0860081F93
:10471000006840F08070091F086000BF1C480068F6
:1047200000F000700028F9D01A48006840F480308A
:104730001849086000BF1748406800F4803000281E
:10474000F9D01448006840F400301249086000BFF6
:104750001048406800F400300028F9D040F205709D
:104760000E4908600A480830006820F00300084934
:10477000083108600846006840F00200086000BF89
:1047800003480830006800F00C000828F8D10CBD80
:1047900000380240007000400C544007003C0240CA
:1047A0000149087070470000B404002001490870F6
:1047B000704700001D040020014908707047000088
:1047C000A404002030B585B005460C464FF40070B7
:1047D000009000208DF808008DF8090008208DF861
:1047E0000A00200A8DF80B00E1B28DF80C100021B0
:1047F0008DF80D108DF80E108DF80F108DF810102B
:104800008DF811108DF8121069462846FDF763F8EF
:1048100005B030BD0149088070470000A6040020A3
:1048200010B5FEF721FB18B900202849087002E0F6
:104830000120264908702648B0F9040042F6F82104
:10484000884202DD7820FFF7E5FFFEF725FB002810
:1048500015DD2048FFF77AFC1F4890ED0D0ABDEEEC
:10486000C00A10EE100A01B21C48FFF7ABFFFEF7BA
:1048700013FB401E04B22046FFF7CCFF24E0134890
:10488000007818B1FFF74EFC01280ED10020FFF789
:104890005DFC114890ED0D0ABDEEC00A10EE100A45
:1048A00001B20E48FFF78EFF0EE04FF47A70FFF76B
:1048B0004DFC094890ED0D0ABDEEC00A10EE100A3D
:1048C00001B20648FFF77EFF10BD00001E04002065
:1048D0008002002018FCFFFFCC0300200064004091
:1048E000152803D10021094A11600DE0084931F86B
:1048F0001010064A083A1160054A32F8101001EB10
:10490000D1725210014B1A607047000034180040F9
:1049100090A7000810B5002408E02146641C054A51
:10492000505CFFF7DDFFC82003F050FA042CF4DBE5
:1049300010BD0000BAA700080DE00920FFF7D0FF66
:104940004FF47A7003F042FA1520FFF7C9FF4FF4D5
:104950007A7003F03BFAF0E77047000010B5154895
:10496000006840F47000134908601348006840F084
:1049700001001149086000200F49083108600E4805
:1049800000680E4908400C4908600D48091D086080
:10499000081F006820F48020091F086000200649D5
:1049A0000C310860FFF76CFE4FF000600149803960
:1049B000086010BD88ED00E000380240FFFFF6FE01
:1049C0001030002410B50121880700F00FF938B12C
:1049D0000121880700F0EFF80121880700F0E8F8CE
:1049E00010BD0EB501210846FFF7E8FA4FF0FF3081
:1049F00001905320ADF800000020ADF80800ADF89C
:104A000002000121880700F0C7F869464FF0804096
:104A100000F0B2F90121880700F0D0F80EBD0000C7
:104A20001FB501210220FFF7C9FA4FF4FA60029086
:104A300042F2CF00ADF804000020ADF80600ADF85A
:104A40000C0001A90F4800F097F9012211460D480A
:104A500000F0DDF801210B4800F0B0F80121094811
:104A600000F0A6F81D208DF8000001208DF801004F
:104A700003208DF8020001208DF803006846FFF73F
:104A800035F91FBD0004004010B501210B4800F0AE
:104A9000ADF8012810D10121084800F08CF801215F
:104AA000064800F085F80D2205490648FBF76CFE24
:104AB0000D21044803F042F910BD0000000400403D
:104AC000300C0020400C002010B501210A4800F0F5
:104AD0008DF801280AD10949086980470021064854
:104AE00000F047F96421044800F041F9012102482F
:104AF00000F061F810BD0000000800403C010020FB
:104B000010B50121074800F071F848B101210548AE
:104B100000F051F80121034800F04AF8FCF7C4FF07
:104B200010BD0000001000401FB501211020FFF74C
:104B300045FA36208DF8000001208DF80100002094
:104B40008DF8020001208DF803006846FFF7CEF8CB
:104B50005320ADF804000020ADF80600ADF80C00BD
:104B600040F2DC50029001A9014800F005F91FBD98
:104B70000010004010B50121064800F01FF8012286
:104B80001146044800F043F80121024800F010F8F3
:104B900010BD00000010004021B1028842F08002E8
:104BA000028004E002884FF67F731A40028070474B
:104BB000CA4302827047CA430282704721B1028809
:104BC00042F00102028004E002884FF6FE731A40B0
:104BD000028070470146486A704702460020138AE7
:104BE0000B400BB1012000E00020704730B50246B9
:104BF000002000230024158A05EA0103958905EAAF
:104C0000010413B10CB1012000E0002030BD1AB145
:104C100083890B43838102E083898B4383817047BF
:104C200070B5002400220023058C4FF6FE76354037
:104C30000584028C8388048B4FF68F752C40B51E3B
:104C40002C400D882C43751E2A408D892A434D889F
:104C50002A43104DA84202D00F4DA84213D14FF65F
:104C6000F7752A40CD892A434FF6FB752A408D8877
:104C70002A434FF6FF652B404FF6FF552B400D8A18
:104C80002B434D8A2B43838004838D6845630284C4
:104C900070BD000000000140000401400A460021F0
:104CA000018B4FF6F77319401143018370470000E1
:104CB00070B5002400220023058C4FF6EF763540B6
:104CC0000584028C8388048B48F6FF752C404FF6D0
:104CD000FF452C400D884FF6FF7606EA05252C434C
:104CE0004FF6DF752A408D8906EA05152A434D885F
:104CF00006EA05152A43154DA84202D0144DA842D4
:104D00001DD14FF67F752A40CD894FF6FF7606EA12
:104D100005152A434FF6BF752A408D8806EA05150A
:104D20002A434FF6FF352B404FF2FF752B400D8A7B
:104D300006EA85052B434D8A06EA85052B438380C9
:104D400004838D688563028470BD0000000001400B
:104D5000000401400A460021018B4FF2FF73194005
:104D60004FF6FF7303EA0223194301837047C162C0
:104D7000704741627047000000220288184B984239
:104D80000ED0184B98420BD0B0F1804F08D0164B84
:104D9000984205D0154B984202D0154B984204D149
:104DA0004FF68F731A404B881A43124B984207D024
:104DB000114B984204D04FF6FF431A400B891A4317
:104DC00002804B68C3620B880385054B984202D072
:104DD000044B984201D18B7A03860123838270476A
:104DE00000000140000401400004004000080040B1
:104DF000000C004000100040001400407FB5044645
:104E00000D4601210420FFF7D9F8ADF8005000202D
:104E1000ADF802000194ADF8080069460D48FFF7AF
:104E2000ABFF012211460B48FFF7F1FE01210948B3
:104E3000FFF7C4FE1E208DF80C0003208DF80D0036
:104E40008DF80E0001208DF80F0003A8FEF74EFF2D
:104E50007FBD00000008004010B50446214605480B
:104E60000068FBF7A8FA012240F22771024800F01F
:104E7000F8FB10BD300000200014014000B595B0D3
:104E800040F22551354800F0C2FB002864D0334879
:104E900000F038FB032002F099FF01214805FFF7DD
:104EA0007DF84FF4E13002900020ADF80C00ADF831
:104EB0000E00ADF810000C20ADF812000020ADF887
:104EC000140002A9254800F0F1FB0121234800F05D
:104ED00003FB01224021214800F00AFB0E208DF83F
:104EE000040002208DF805008DF8060001208DF8E1
:104EF000070001A8FEF7FAFE1948FDF711FA4FF076
:104F0000206006901548001D079016480890002064
:104F100009904FF47A700A9000200B904FF4806053
:104F20000C9000200D900E904FF480700F900002B6
:104F300010900020119012901390149006A9084828
:104F4000FDF7EAFA012210210548FDF7C7FA012111
:104F50000348FDF7D9F900BF15B000BD0078004047
:104F6000586002402008002000B595B040F225515D
:104F7000364800F04CFB002865D0344800F0C2FAF7
:104F8000032002F023FF01218805FFF707F83048CE
:104F900002900020ADF80C00ADF80E004FF48060D8
:104FA000ADF810000420ADF812000020ADF8140098
:104FB00002A9264800F07AFB0121244800F08CFA6F
:104FC00001224021214800F093FA3A208DF8040094
:104FD00000208DF8050001208DF806008DF80700EF
:104FE00001A8FEF783FE1B48FDF79AF94FF0006019
:104FF00006901648001D0790174808900020099059
:1050000012200A9000200B904FF480600C9000203A
:105010000D900E904FF480700F904FF44030109030
:105020000020119012901390149006A90948FDF7E2
:1050300073FA012210210748FDF750FA01210548B3
:10504000FDF762F900BF15B000BD0000001001407F
:10505000A086010040640240D804002010B540F250
:1050600025511D4800F0D3FA10B31B4800F088FB0F
:10507000C4B21A48008800F40040C8B91748008834
:1050800000F4804060B10A2C03D00020134908804E
:1050900020E01248008840F400401049088019E0E0
:1050A0000D2C06D10D48008840F480400B49088043
:1050B00010E00A480088C0F30D0009490C54074865
:1050C0000088401C0549088008460088C72801DD83
:1050D0000020088010BD0000004400402400002093
:1050E000F104002010B588B0044601210820FEF725
:1050F00055FF01214804FEF761FF072205212248E0
:10510000FDF732FE072206211F48FDF72DFE602025
:10511000069002208DF81C0003208DF81D00002051
:105120008DF81E0001208DF81F0006A91648FDF716
:10513000D3FD02940020ADF80C00ADF80E00ADF8E0
:105140001000ADF814000C20ADF8120002A90F48B1
:1051500000F0ACFA01210D4800F0BEF9012240F246
:1051600025510A4800F07DFA26208DF8040003201E
:105170008DF805008DF8060001208DF8070001A8C4
:10518000FEF7B4FD08B010BD000C02400044004022
:1051900010B540F225511D4800F039FA10B31B48F4
:1051A00000F0EEFAC4B21A48008800F40040C8B912
:1051B0001748008800F4804060B10A2C03D000201A
:1051C0001349088020E01248008840F4004010494C
:1051D000088019E00D2C06D10D48008840F480406D
:1051E0000B49088010E00A480088C0F30D00094907
:1051F0000C5407480088401C054908800846008870
:10520000C72801DD0020088010BD000000480040D4
:105210002C000020B905002010B588B004460121FB
:105220000820FEF7BBFE01218804FEF7C7FE072217
:1052300008212348FDF798FD072209212048FDF7A2
:1052400093FD4FF44070069002208DF81C0003205F
:105250008DF81D0000208DF81E0001208DF81F0024
:1052600006A91748FDF738FD02940020ADF80C00A0
:10527000ADF80E00ADF81000ADF814000C20ADF83C
:10528000120002A90F4800F011FA01210D4800F0A8
:1052900023F9012240F225510A4800F0E2F92720C3
:1052A0008DF8040003208DF805008DF8060001201C
:1052B0008DF8070001A8FEF719FD08B010BD000029
:1052C000000C02400048004010B588B0044601219F
:1052D0004020FEF763FE01212020FEF78FFE08220A
:1052E0000E212648FDF740FD082209212348FDF73D
:1052F0003BFD4FF48440029002208DF80C0000200A
:105300008DF80E0003208DF80D0000208DF80F00A1
:1053100002A91A48FDF7E0FC04940020ADF814003F
:10532000ADF81600ADF818000C20ADF81A000020FA
:10533000ADF81C0004A9124800F0B8F9012240F2AF
:1053400025510F4800F08DF901210D4800F0C4F8F7
:1053500047208DF8040000208DF805008DF8060028
:1053600001208DF8070001A8FEF7C0FC6420FAF7C1
:10537000BBFF0449086008B010BD000000180240DF
:10538000001401403000002010B540F22771494858
:1053900000F03DF9A8B148480068FBF782F948B928
:1053A00045480068FBF78FF804462146414800F065
:1053B000ECF97DE0002240F227713E4800F051F9FF
:1053C00076E040F225513B4800F021F900286FD0EB
:1053D000384800F0D5F9C4B238480078092861D2BD
:1053E000DFE800F005111D252D353D4551000A2C43
:1053F00005D132480078401C3049087002E0002096
:105400002E49087052E00D2C05D12C480078401C24
:105410002A49087002E000202849087046E0274821
:105420000078401C25490870254804703EE0234858
:105430000078401C214908702148447036E01F481C
:105440000078401C1D4908701D4884702EE01B48E0
:105450000078401C194908701948C47026E01748A4
:105460000078401C15490870154804711EE00D2C89
:1054700005D112480078401C1049087002E0002055
:105480000E49087012E00A2C08D10D4800F0A4F96A
:105490000C480068C0430C49C1F884020020074949
:1054A000087003E000200549087000BF00BF00BF7E
:1054B00010BD000000140140300000203400002026
:1054C00081060020840243420000434210B5044696
:1054D0002046FFF7F9FE10BD21B1828942F4005247
:1054E000828104E082894DF6FF731A408281704701
:1054F0001AB1838A0B43838202E0838A8B438382BF
:105500007047000010B504463248844208D101219A
:105510001020FEF783FD00211020FEF77FFD57E0ED
:105520002D48844209D101214804FEF757FD00218E
:105530004FF40030FEF752FD4AE02848844209D17A
:1055400001218804FEF74AFD00214FF48020FEF778
:1055500045FD3DE02248844209D10121C804FEF7FF
:105560003DFD00214FF40020FEF738FD30E01D48DE
:10557000844209D101210805FEF730FD00214FF4D6
:105580008010FEF72BFD23E01748844208D101214B
:105590002020FEF743FD00212020FEF73FFD17E00D
:1055A0001248844209D101218807FEF717FD002126
:1055B0004FF08040FEF712FD0AE00D48844207D10B
:1055C00001214005FEF70AFD00216005FEF706FDFA
:1055D00010BD0000001001400044004000480040A1
:1055E000004C004000500040001401400078004092
:1055F000007C004002460020B1F5007F00D100BFD2
:1056000013880B400BB1012000E00020704770B5FB
:105610000246002400230025002040F66A16B1420D
:1056200000D100BFC1F3421501F01F03012606FAA5
:1056300003F3012D02D19689334006E0022D02D1F9
:10564000168A334001E0968A33400C12012606FA8E
:1056500004F41688344013B10CB1012000E000209E
:1056600070BDF0B50346002400260025002040F65A
:105670006A17B94200D100BF1846C1F3421401F0C5
:105680001F06012707FA06F5012C01D10C3004E0B2
:10569000022C01D1103000E014301AB107682F43FA
:1056A000076002E00768AF430760F0BD2DE9FF47E0
:1056B00005460E460024A14600BFA046B08900B1B1
:1056C00000BF2C8A24F44054F08804432C82AC8917
:1056D00041F20C608443B0883189084371890843E2
:1056E0000443AC81AC8A24F44074B0890443AC8296
:1056F0006846FEF7A3FC2048854202D01F48854239
:1057000002D1DDF80C9001E0DDF80890A88900F4E2
:10571000004040B109EBC90000EB091031684900B5
:10572000B0FBF1F707E009EBC90000EB09103168A5
:105730008900B0FBF1F76420B7FBF0F00401200909
:10574000642101FB1078A88900F4004040B13220A8
:1057500000EBC800B0FBF1F000F00700044308E0E4
:10576000322000EB08106421B0FBF1F000F00F00D4
:1057700004432C81BDE8FF87001001400014014064
:1057800001468888C0F308007047C1F30802828090
:10579000704700000EB56846FDF720FB9DF801003C
:1057A000012811D10B4890ED010ADDED010A30EE20
:1057B000200A80ED010A90ED000ADDED020A30EECC
:1057C000200A80ED000A00E000BF00BFFDF76AFB81
:1057D0000EBD00000408002010B52DED028B04461C
:1057E000B4F9010008EE100AB4F9030008EE900ABB
:1057F0005148007800286FD0207810286DD2DFE85B
:1058000000F08A081D32366D7A7E82838A8A8A8AFF
:105810008A87B8EEC80ADFED490A20EE200A484818
:1058200080ED010AB8EEE80ADFED440A20EE200A16
:1058300080ED020A0220424948706DE0B8EEC80AC5
:10584000DFED400A20EE200A3D4880ED010AB8EE67
:10585000E80ADFED3C0A20EE200A80ED020A012072
:105860003749487058E000203549487054E001201D
:105870003349087034480169884734480068A0F506
:105880007A7000EE900AB8EEE01ADFED310A41EED0
:10589000000ABCEEE00A10EE100A2E4908602A4801
:1058A0000169884729480068A0F57A7000EE900ADF
:1058B000B8EEE01ADFED260A41EE000ABCEEE00A7F
:1058C00010EE100A2349091D08601F48016A884725
:1058D00008B1FEF75DFD1FE01FE01CE00020184945
:1058E00008704FF47A701B490860091D086016485B
:1058F0008169884710E00120FEF75EFF0CE0002080
:10590000FEF75AFF08E007E00020FEF749FF03E03A
:10591000FEF770FD00E000BF0AE0207818B9012012
:10592000FEF73EFF04E020780F2801D1FEF762FD6C
:10593000BDEC028B10BD0000B40400200AD7233C4C
:10594000140800206F12833A80040020B004002065
:1059500000007A44340C004000BFFEE710B5324826
:1059600000783249087030480078062859D2DFE8BC
:1059700000F0030C22353C3D2D480068B0F57A6FED
:1059800002D90120284908704BE0FDF72FFA0128C1
:1059900002D1022024490870FDF76CFA012802D1D7
:1059A000032021490870FDF70BFA012802D10520D8
:1059B0001D49087035E0FDF719FA10B901201A49A0
:1059C0000870FDF757FA012802D103201649087024
:1059D000002211460120FEF70FFE22E0FDF74AFAF1
:1059E00010B90120104908701BE01AE0FDF7E8F932
:1059F000012804D001200C490870FEF7F5FCFDF7E2
:105A0000F5F9012804D1022007490870FEF7ECFCE3
:105A1000FDF724FA0446224601210020FEF7ECFDA2
:105A200000BF00BF10BD00001D0400201C040020AA
:105A30006C0400200FB4054B10B503A9044A02986A
:105A400001F05AFC10BC5DF814FB00001D7E00083C
:105A50002800002003B401984100009850EAC120BA
:105A600018BF04204A0D18BF40F0010040F2FF7239
:105A7000B2EB515F08BF40F00200012808BF0520CB
:105A800002B070470000000070B5C1482DED020B58
:105A90002DED0E8B82B0119D25F000449FEDBEDBF5
:105AA0009FEDBFEB84423EDBA4F140511098A1F181
:105AB0007F6108430FD0BC48844202DC28D1109893
:105AC00030B39DED100B02B0BDEC0E8B02B0BDE803
:105AD000704001F0F5BA9DED100B53EC1D2B51EC0D
