:020000040800F2
:1000000018110020C1010008C5380008192E000889
:100010005D360008490C0008F1540008000000009B
:100020000000000000000000000000001141000876
:100030002522000800000000653A0008C9450008B4
:10004000DB010008DB010008DB010008DB01000820
:10005000DB010008DB010008DB010008DB01000810
:1000600029220008DB010008DB010008DB01000891
:10007000DB010008DB01000871180008DB01000843
:10008000DB010008DB010008DB010008A10D00080E
:10009000650D0008DB010008DB010008DB0100083A
:1000A000DB010008DB010008DB010008DB010008C0
:1000B000DB0100083546000831470008DB01000875
:1000C000DB010008DB010008DB010008DB010008A0
:1000D000DB010008B14B0008A54C0008D94D000811
:1000E000DB010008DB010008DB010008DB01000880
:1000F000DB010008DB010008DB010008DB01000870
:10010000DB010008DB010008DB010008DB0100085F
:10011000DB010008DB01000869470008DB0100087B
:10012000DB010008DB0100086D1E0008DB01000890
:10013000DB010008DB010008DB010008F50E000808
:10014000CD0E0008DB010008DB010008DB01000820
:10015000DB010008DB010008DB010008C14F0008DB
:10016000DB010008DB010008DB010008DB010008FF
:10017000DB010008DB010008DB01000800000000D3
:10018000DB010008DB010008C54A0008DB010008AC
:10019000DB010008DB010008DB010008DB010008CF
:1001A0000000000000000000DB010008DFF80CD0B8
:1001B00000F086FB004800476990000818110020F5
:1001C0000648804706480047FEE7FEE7FEE7FEE7F1
:1001D000FEE7FEE7FEE7FEE7FEE7FEE7CD450008A7
:1001E000AD01000840EA01039B0703D009E008C9FC
:1001F000121F08C0042AFAD203E011F8013B00F8EC
:10020000013B521EF9D270472DE9FE4F804681EA2C
:100210000300C00F0C46009021F0004123F0004580
:10022000B8EB0200A94105D24046214690461C4643
:100230000B46024623F00040104347D0270DC7F37A
:100240000A00C3F30A510290401A019040286BDA69
:10025000C3F3130040F4801B0098924620B10023A2
:10026000D2EB030A63EB0B0B01985946C0F1400235
:10027000504600F0F0F906460D4650465946019AA0
:1002800000F0F8F910EB08006141002487EA1152F0
:1002900084EAE7731A4340D0009A62B3019A012AB4
:1002A0004FEA075215DC001B61EB02014FF00042E0
:1002B00002EA0752CDE90042001C41F580113246A6
:1002C0002B4600F02FFA03B0BDE8F08F40462146E0
:1002D000F9E7001B61EB0201001C41F580130018D7
:1002E0005B412018A2F5001747EB030140EAD570E7
:1002F000B6196D4111E06D084FEA360645EAC07542
:100300004FEA0752001B61EB0201001C41F580110E
:1003100049084FEA30000019514132462B4603B0DC
:10032000BDE8F04F00F0EFB9009801224000002333
:10033000D0EB020263EBE073009821464FEAE074D1
:10034000B8EB000061EB0401E9E783F000435BE7F1
:1003500081F0004158E72DE9FE4F81EA030404F0E3
:10036000004421F0004100944FF0000B23F00043C3
:1003700050EA01045ED052EA03045BD0C3F30A548E
:10038000C1F30A552C44A4F2F3340194A0FB0254A7
:10039000C1F3130141F48011C3F3130343F4801339
:1003A00001FB024400FB034E840A970A44EA81548D
:1003B00047EA8357A4FB076802958D0A05FB07856A
:1003C0004FEA932C04FB0C542705029D4FEA065874
:1003D00047EA1637B5EB08056EEB070C870E920E51
:1003E00047EA811742EA8312A7FB0201B6EB0B0131
:1003F00064EB00042B0D43EA0C335E1844EB1C50F5
:10040000DA465146E7FB0201C5F313044FEA0B330A
:1004100043EA14534FEA0432019C43EA0603A4F171
:100420000C040294009CCDE900B400F07BF903B009
:10043000BDE8F08F00200146F9E72DE9F04D81EA93
:10044000030404F0004B21F0004514464FF0000A6D
:1004500023F0004150EA050220D054EA01021DD0E9
:10046000C5F30A570246C5F31303C1F31300C1F3E2
:100470000A5640F4801543F48013A7EB0608101BBE
:10048000D64608F2FD3873EB050002D308F10108E7
:1004900001E092185B41B8F1000F03DA0020014639
:1004A000BDE8F08D00204FF48011064684460EE032
:1004B000171B73EB050705D3121B63EB05030643FC
:1004C0004CEA010C49084FEA300092185B4150EAAF
:1004D0000107EDD152EA030012D082EA040083EA58
:1004E0000501084305D0101BAB4106D201220023B1
:1004F00006E000224FF0004302E06FF001025310CB
:100500001AEB06004CEB085110EB0A0041EB0B0113
:10051000BDE8F04D00F0F7B80EB5C10F80EAE0700D
:100520000844CA07002140F233438DE80E000A4612
:100530000B4600F0F7F803B000BD00F0004230F0C9
:1005400000400AD0C10D01F56071C0F3160042EA07
:100550000151C2084007114370470020014670470F
:1005600030B5041E71F1000404DB4FF0004440423A
:1005700064EB0101141E73F1000405DB1C464FF00F
:100580000043524263EB0403994208BF904230BDDE
:1005900001F0004330B421F0004150EA010206D0DE
:1005A0000A0DA2F56072C1F31301002A02DC30BC0F
:1005B00000207047440F44EAC104C100E01830BC79
:1005C00000EBC25000F068B830B50B460146002081
:1005D0002022012409E021FA02F59D4205D303FA05
:1005E00002F5491B04FA02F52844151EA2F1010286
:1005F000F1DC30BD2DE9F05F0546002092469B46B8
:1006000088460646814640241BE028464146474628
:10061000224600F067F953465A46C01A914110D35A
:1006200011461846224600F016F82D1A67EB01080D
:100630004F4622460120002100F00DF817EB00097B
:100640004E41201EA4F10104DFDC484631462A4613
:100650004346BDE8F09F202A04DB203A00FA02F16D
:10066000002070479140C2F1200320FA03F31943A0
:1006700090407047202A06DBCB17203A41FA02F05F
:1006800043EAE07306E041FA02F3D040C2F12002EF
:1006900091400843194670470029A8BF7047401C85
:1006A000490008BF20F00100704710B4B0FA80FC88
:1006B00000FA0CF050EA010404BF10BC704749B1C5
:1006C000CCF1200421FA04F411FA0CF118BF012135
:1006D00021430843A3EB0C01CB1D4FEA00614FEA15
:1006E000102042BF002010BC704700EBC3501044E4
:1006F0000029A4BF10BC7047401C490008BF20F06F
:10070000010010BC704710B5141E73F1000408DA24
:10071000401C41F1000192185B411A4301D120F0C5
:10072000010010BD2DE9F04D92469B4611B1B1FA82
:1007300081F202E0B0FA80F220329046FFF78BFFA0
:1007400004460F4640EA0A0041EA0B0153465A4666
:10075000084313D0114653EA010019D0C8F14002F2
:10076000504600F0BFF805460E46504659464246F0
:10077000FFF771FF084305D0012004E02046394609
:10078000BDE8F08D0020054346EAE0762C43374370
:100790000A986305E40AA0EB08000022FD0A44EA77
:1007A00047540A3002D500200146E9E70105101937
:1007B0006941DDE9084500196941BDE8F04DA2E74E
:1007C00070B521F0004303430CD0C1F30A55002457
:1007D000D5EB040564EB0403D617AD1AB34102DB75
:1007E0000020014670BD201841EB025170BD2DE97B
:1007F000F04D00231A461B1A8A4103DB00200146F4
:10080000BDE8F08DC1F30A52C1F3130141F4801524
:100810004FF0000BD10702D100186D41521E002786
:10082000044640F2FF11384601EB620A3E4680461C
:10083000024600204FF4801100F054F8C2197141B3
:10084000BB1846EB0100B4EB030C75EB000C04D3B2
:10085000E41A65EB000517460E46241908F101005D
:100860006D4180463428E3DDF91946EB0600091B8B
:10087000A84103D24FF0FF32134601E00022134695
:100880001BEB070046EB0A51BDE8F04DFFF73BBFFD
:10089000C1F30A52C1F3130140F2FF3341F4801156
:1008A0009A4202DA00200146704740F233439A42EE
:1008B000A2F2334202DC524200F014B8FFF7CBBE82
:1008C000064C074D06E0E06840F0010394E807009D
:1008D00098471034AC42F6D3FFF76CFCE8A9000847
:1008E00008AA0008202A04DB203A21FA02F000219D
:1008F000704721FA02F3D040C2F120029140084330
:100900001946704770B58C1810F8015B15F0070395
:1009100001D110F8013B2A1106D110F8012B03E098
:1009200010F8016B01F8016B5B1EF9D12B0705D4A0
:100930000023521E0DD401F8013BFAE710F8013BE9
:10094000CB1A921C03E013F8015B01F8015B521E05
:10095000F9D5A142D8D3002070BD21B1826842F000
:100960000102826003E0826822F001028260704727
:100970000021084A1168084A1140D0E900231A43AF
:1009800083681A43C3681A431143044AC2F8041324
:100990007047000004230140E030FCFF00200140CC
:1009A00030B50246002000235068104C20400D79DD
:1009B0000C6844EA05242043506090680C4C2040A9
:1009C000D1E903542C438D682C434D7944EA450406
:1009D00020439060D06A20F470000C7D641EE4B265
:1009E000234340EA0350D06230BD0000FFFEFFFC0D
:1009F000FDF7FFC0F0B504460D4600200021092D8B
:100A000011DDE068A5F10A0606EB4607072606FA9F
:100A100007F18843A5F10A0606EB460603FA06F13C
:100A20000843E0600CE0206905EB4507072606FA5D
:100A300007F1884305EB450603FA06F108432061F8
:100A4000072A0FDA606B561E06EB86071F2606FA8A
:100A500007F18843561E06EB860605FA06F10843A1
:100A6000606322E00D2A0FDA206BD61F06EB8607A3
:100A70001F2606FA07F18843D61F06EB860605FAFD
:100A800006F10843206310E0E06AA2F10D0606EBD0
:100A900086071F2606FA07F18843A2F10D0606EB2A
:100AA000860605FA06F10843E062F0BD38B1084950
:100AB000096841F40001074AC2F8041306E004493A
:100AC000096821F40001034AC2F8041370470000CA
:100AD000042301400020014070B505460C46002665
:100AE0000DB1022C00D870BDA11E06480288284610
:100AF00001F086FF0646A01E2E54310A601E2954BE
:100B000000BFF0E78C05002070B505460C460026B6
:100B10000DB1022C00D870BD611EFF22284601F0E5
:100B200089FF0646601E2E5400BFF4E700B58BB067
:100B30000121402003F030F80121802003F01CF84F
:100B4000092206211F4801F007FF402009900220DA
:100B50008DF8280003208DF8290000208DF82A0048
:100B600001208DF82B0009A9164801F0ADFE532095
:100B7000ADF818000020ADF81A0001200790002001
:100B8000ADF8200006A9104803F02CFF6020ADF856
:100B900004000120ADF806000020ADF8100001A906
:100BA000094803F071FE0821074803F0ABFE01215C
:100BB000054803F025FE0121034803F033FE0BB086
:100BC00000BD0000001C02400018004010B5FFF7F7
:100BD000ADFF03F0C3FC10BD10B500F037F800F016
:100BE000EDF803F0D5FD01F0C3FA00F097FD03F036
:100BF00091F901F0F5FB02F00BF9642006F0F2FE2A
:100C000007F082F903F0EAFD10BD10B54FF4A060C3
:100C100002F096FE02F0AEFB02F008FCFFF7D6FFF2
:100C2000642006F0DFFE4FF4E13004F07FF84FF46B
:100C3000E13004F015F94FF4E13004F045FA03F027
:100C40008DF908F0E5FA10BD00BFFEE700B58BB0E6
:100C50000121082002F090FF0121480602F09CFFCC
:100C6000092200213D4801F077FE092201213B487D
:100C700001F072FE0320029000208DF80E00032088
:100C80008DF80D0002208DF80C0002A9334801F008
:100C90001BFE14208DF8040001208DF805008DF84E
:100CA00006008DF8070001A802F00EFE13208DF853
:100CB000040000208DF8050001208DF806008DF855
:100CC000070001A802F000FE254800F091F908A8ED
:100CD00000F0C9FB00208DF826008DF827008DF864
:100CE00028008DF829008DF82A0001208DF82B00AE
:100CF00000208DF822008DF8230008208DF82400B4
:100D000003208DF82500ADF8200008A9144800F054
:100D1000A8FA00208DF81A008DF81B0001208DF82C
:100D20001C000020ADF81000ADF81200ADF8140062
:100D3000ADF81600ADF8180001208DF81D0004A8CC
:100D400000F072F901220221054800F081FA012227
:100D50001146034800F07CFA0BB000BD000C0240C5
:100D60000064004000B585B002210B4800F0E0F9B6
:100D700078B10421084800F0E7F80849064800F077
:100D8000C7F86A460021044800F0F5FA684600F00A
:100D90000DFC05B000BD00000064004008000032FA
:100DA00010B50121044800F0C3F918B1012102482F
:100DB00000F0CAF810BD00000064004000B58BB020
:100DC0000121022002F0D8FE0121880602F0E4FE93
:100DD00009220C213B4801F0BFFD09220D213948B1
:100DE00001F0BAFD4FF44050029002208DF80C0043
:100DF00002A9344801F068FD40208DF8040002206B
:100E00008DF8050001208DF806008DF8070001A877
:100E100002F05AFD3F208DF8040001208DF80500F6
:100E20008DF806008DF8070001A802F04DFD264858
:100E300000F0DEF808A800F016FB00208DF8260070
:100E40008DF827008DF828008DF829008DF82A00EC
:100E500001208DF82B0000208DF822008DF8230052
:100E600008208DF8240003208DF82500ADF820001F
:100E700008A9154800F0F5F90E208DF81A00002099
:100E80008DF81B0001208DF81C000020ADF810002B
:100E9000ADF81200ADF81400ADF81600ADF818006A
:100EA00001208DF81D0004A800F0BEF801220221E7
:100EB000054800F0CDF901221146034800F0C8F9B9
:100EC0000BB000BD000402400068004000B585B0D2
:100ED0000221074800F02CF940B10221044800F03B
:100EE00033F86A460021024800F045FA05B000BD1B
:100EF0000068004010B50121044800F019F918B14C
:100F00000121024800F020F810BD000000680040F8
:100F100000220C4B994202D10023836111E0C1F3FE
:100F2000130201F000730BB1C2600AE001F08063AC
:100F30000BB1026105E001F000630BB1826000E0DB
:100F4000426070477000F030B1F5007F3AD00FDC9E
:100F5000202928D006DC01291CD004291DD008290D
:100F600040D11DE0402921D0B1F5807F3AD126E063
:100F7000B1F5004F31D006DCB1F5806F25D0B1F569
:100F8000006F2FD124E0B1F5803F12D0B1F5003FC2
:100F900028D111E0154A826025E00822C26022E0D3
:100FA0001022C2601FE0082202611CE010220261D0
:100FB00019E00822426016E01022426013E0042289
:100FC000426010E0042242600DE0042242600AE028
:100FD000002282610422426005E000228261042234
:100FE000426000E000BF00BF704700000101010047
:100FF00010B504460B48844209D10121480602F08D
:10100000DBFD00214FF0007002F0D6FD08E0012169
:10101000880602F0D1FD00214FF0806002F0CCFD87
:1010200010BD00000064004010B50021837A012249
:1010300002FA03F13D4A126842F001023B4B1A608A
:101040003A4A1C3212688A43384B1C331A60027BBE
:10105000CAB9364A0C3212688A43344B0C331A60D0
:101060004288C38842EA0343304A4032847A42F8D5
:1010700034300288838842EA03432C4A4032847A1F
:1010800002EBC4025360027B012A19D1274A0C32B9
:1010900012680A43254B0C331A604288038842EADF
:1010A0000343224A4032847A42F83430C28883882B
:1010B00042EA03431D4A4032847A02EBC402536081
:1010C000C27A3AB9194A121D12688A43174B1B1D7E
:1010D0001A6006E0154A121D12680A43134B1B1DC5
:1010E0001A60028932B9114A143212688A430F4BCE
:1010F00014331A600289012A06D10C4A143212688C
:101100000A430A4B14331A60427B012A06D1074A6C
:101110001C3212680A43054B1C331A60034A1268DA
:1011200022F00102014B1A6010BD00000066004071
:1011300070B504460D46002660692840002871D02D
:10114000B5F5807F5CD010DC082D35D006DC012D94
:1011500020D0022D24D0042D72D127E0102D31D0C3
:10116000202D35D0402D6BD138E0B5F5004F60D043
:1011700009DCB5F5007F49D0B5F5806F4CD0B5F5E9
:10118000006F5DD14FE0B5F5803F2DD0B5F5003F44
:1011900056D12FE0A0682D4900F086FA064651E0AE
:1011A000E068032100F080FA06464BE0E068082181
:1011B00000F07AFA064645E0E068102100F074FA83
:1011C00006463FE02069032100F06EFA064639E04A
:1011D0002069082100F068FA064633E020691021F2
:1011E00000F062FA06462DE06068082100F05CFA23
:1011F000064627E06068102100F056FA064621E016
:10120000A069012100F050FA06461BE0A069022106
:1012100000F04AFA064615E0A069042100F044FAFD
:1012200006460FE00FE0A069702100F03DFA064687
:1012300008E06068042100F037FA064602E0FFE7A4
:10124000002600BF00E00026304670BD010101000D
:101250001AB143690B43436102E043698B43436125
:10126000704730B5024600200023146824F00204C1
:101270001460146844F00104146000E05B1C5468BE
:1012800004F001041CB94FF6FF74A342F6D1546870
:1012900004F001040CB900206CE08C79012C04D11D
:1012A000146844F08004146003E0146824F080049F
:1012B0001460CC79012C04D1146844F0400414600B
:1012C00003E0146824F0400414600C7A012C04D16B
:1012D000146844F02004146003E0146824F020042F
:1012E00014604C7A012C04D1146844F0100414608A
:1012F00003E0146824F0100414608C7A012C04D1EB
:10130000146844F00804146003E0146824F008042E
:101310001460CC7A012C04D1146844F004041460E5
:1013200003E0146824F0040414608C78A407CD78DA
:1013300044EA05640D7944EA05444D7944EA0554CC
:101340000D886D1E2C43D461146824F001041460D0
:10135000002300E05B1C546804F001041CB14FF64C
:10136000FF74A342F6D1546804F001040CB10020CC
:1013700000E0012030BD10B500F5D87303EB011378
:101380001B6803F004031372137A53B900F5D87382
:1013900003EB01131B6840F2FF7404EA535313601C
:1013A00009E000F5D87303EB01131B686FF060448C
:1013B00004EAD303536000F5D87303EB01131B68F1
:1013C00003F00203537200F5D87303EB01135B685B
:1013D00003F00F03937200F5D87303EB01135B68FE
:1013E0001B0AD37400F5D87303EB01139B68D37207
:1013F00000F5D87303EB01139B681C0A147300F506
:10140000D87303EB01139B681C0C547300F5D8735D
:1014100003EB01139B681B0E937300F5D87303EB6A
:101420000113DB68D37300F5D87303EB0113DB689A
:101430001C0A147400F5D87303EB0113DB681C0C51
:10144000547400F5D87303EB0113DB681B0E93741F
:1014500021B9C36843F02003C36003E0036943F08C
:101460002003036110BD00218171C17101724172BD
:101470008172C1728170C1700321017102214171B9
:1014800001210180704710B502460020936803F0E7
:101490008063B3F1806F00D110E0936803F00063C4
:1014A000B3F1006F01D1012008E0936803F080538D
:1014B000B3F1805F01D1022000E00420042874D041
:1014C00002F5C07303EB00131B6803F0010402F57F
:1014D000C07303EB00131C600B7A7BB94B7A0C884A
:1014E00043EA445302F5C07404EB00142468234318
:1014F00002F5C07404EB0014236010E00B7A4C6812
:1015000043EAC4034C7A234302F5C07404EB00148D
:101510002468234302F5C07404EB001423608B7A23
:1015200003F00F038B7202F5C07303EB00135B68CB
:1015300023F00F0402F5C07303EB00135C6002F5A7
:10154000C07303EB00135B688C7A234302F5C0740D
:1015500004EB001463608B7B1C064B7B44EA034462
:101560000B7B44EA0323CC7A234302F5C07404EBDB
:101570000014A3608B7C1C064B7C44EA03440B7C68
:1015800044EA0323CC7B234302F5C07404EB00142C
:10159000E36002F5C07303EB00131B6843F0010422
:1015A00002F5C07303EB00131C6010BD10B50446B8
:1015B00035480088401C344908802068A0F201208A
:1015C00090B3042806D0052809D0A0F201200028F5
:1015D00056D140E021462D4800F096FE51E02146CC
:1015E0002B4800F091FE2848008832281BDB264853
:1015F0000088462817DC2648806925498968401AF2
:1016000010F57A6F04DA43F2EE60214988610AE04E
:101610001F4880691E498968401AB0F57A6F02DD5B
:101620001C481B4988612CE0FFE7207BE17A40EAF7
:10163000012000B218490880A17B607B41EA0020AC
:1016400000B215494880217CE07B41EA002000B2CD
:101650001149888015E0207BE17A40EA01200F499A
:101660000880A17B607B41EA002000EE100AB8EE02
:10167000C00A0B4880ED000AE07B0A49087000BFF1
:1016800000BF00BF10BD0000EA020020F0070020EC
:1016900098020020EEF6FFFFDC020020E2020020AC
:1016A000E4020020E80200200246002002EA0103D2
:1016B0000BB1012000E000207047000070B5164813
:1016C0000068401C1449086003F054FF01F092F9CF
:1016D000022801D103F076FE01F036FA00F0BAFFDD
:1016E00001F0D8F802F07AFD0B48007800F0010014
:1016F00020B906F0ADF902F0ADFE0CE001F0ACF956
:10170000044601F0EEFD054601F06EF9064622465C
:10171000294602F01FFD70BDCC04002010B500204A
:101720001649086002F00EFE15484FF47A61C2694E
:10173000904714484FF47A61C26990471048816914
:101740008847104881698847BBEE040A0E4880ED3F
:10175000000A9FED0E0A80ED010A0D48C16C884712
:101760000C48C16C88470C48C16C88470B48C16C59
:1017700088470B48C16C884710BD0000CC0400208E
:1017800084040020A8040020640800200000000059
:101790002C040020EC0200203C0300208C030020DD
:1017A000DC03002070B505460C461648007820285A
:1017B00006DB15A003F04AFF02F0E2FE002070BD38
:1017C000202D06DB19A003F041FF02F0D9FE002016
:1017D000F5E744B1012C06D01BA003F037FF02F05F
:1017E000CFFE0020EBE704F00100A8401F49096884
:1017F00008431E49086003480078401C01490870EE
:101800000120DCE794020020416C6C2074686520A4
:10181000666C61677320686173206265656E207510
:10182000736564206F7574210D0A0000546865208B
:10183000666C616720494420697320746F6F206271
:101840006967210D0A000000496E697469616C20A6
:10185000666C61672076616C7565206973206E6FB8
:10186000742076616C6964210D0A000090020020EA
:1018700070B52DED0C8BFE49FE4800F0FDFB0028F5
:101880007DD04FF0C051FB4800F00AFBF849F94801
:1018900000F020FB0024DEE2F748005DA52830D1EF
:1018A000F549A01D085C0028F9D1601D085C0128DD
:1018B00028D104F11400642824DAE01D095CEE4A02
:1018C000401C105C41EA0020EC490880114604F1FC
:1018D0000A00085CE9490871114604F10B00095C33
:1018E000401C105C41EA0020E4494880114604F1A4
:1018F0000D00095C401C105C41EA0020DF49A1F8A2
:101900000500A6E2DC49601D085C022803D104F151
:101910000B006428F5DBD849601D085C03287DD1E5
:1019200004F10F00642879DAE01D085CD4490870DE
:10193000D14904F10800085CD1494870CE4A04F14D
:101940000C01515C01F0800109B9012101E04FF067
:10195000FF310846FEF7E0FD41EC190BC64A04F1E1
:101960000B01515C01F08005E91705EB5161CA11CB
:10197000C14B04F10C01595C01F07F0100E06DE204
:1019800002EB4101A1F17F00FEF7C6FD41EC1D0B0A
:10199000B0EE4D1AF0EE6D1A9FEDBA0B04F0A0FAFE
:1019A000B0EE40BAF0EE60BAB34904F10900085C49
:1019B00000EE100AB8EE400A9FEDB41AC0EE010A1C
:1019C00004F10A00085C00EE100AB8EE400A30EE9E
:1019D000800A9FEDAE1AC0EE010A04F10B00085C0C
:1019E00000F07F0000EE100AB8EEC00A30EE800A68
:1019F000DFEDA70A80EE201AB7EE000A31EE000AEA
:101A000010EE106A3046FEF798FD41EC1C0B53ECCB
:101A10001B2BFEF7A0FC41EC1A0B00E00BE053EC93
:101A2000192BFEF798FC41EC180BFEF7B1FD944919
:101A3000C1F802000DE29049601D085C0428F9D14C
:101A400004F11E006428F5DA0A4604F10A01515C2B
:101A500001F0800109B9012101E04FF0FF31084692
:101A6000FEF75AFD41EC190B834A04F10901515C60
:101A700001F08005E91705EB5161CA117E4B04F1B5
:101A80000A01595C01F07F0102EB4101A1F17F00E5
:101A9000FEF742FD41EC1D0BB0EE4D1AF0EE6D1A53
:101AA0009FED780B04F01CFAB0EE40BAF0EE60BA8D
:101AB0007149E01D085C00EE100AB8EE400A9FED87
:101AC000731AC0EE010A04F10800085C00EE100A67
:101AD000B8EE400A30EE800A9FED6C1AC0EE010AA3
:101AE00004F10900085C00F07F0000EE100AB8EE77
:101AF000C00A30EE800ADFED660A80EE201AB7EEEB
:101B0000000A31EE000A10EE106A3046FEF715FDAD
:101B100041EC1C0B53EC1B2BFEF71DFC41EC1A0B8C
:101B200053EC192BFEF717FC41EC180BFEF730FDB8
:101B300058490860504A04F10E01515C01F08001DF
:101B400009B9012101E04FF0FF310846FEF7E4FC3E
:101B500041EC190B484AE11C515C01F08005E91782
:101B600005EB5161CA11444B04F10E01595C01F0BF
:101B70007F0102EB4101A1F17F00FEF7CDFC41ECBA
:101B80001D0BB0EE4D1AF0EE6D1A9FED3E0B04F0FA
:101B9000A7F9B0EE40BAF0EE60BA374904F10B0095
:101BA000085C00EE100AB8EE400A9FED381AC0EE4D
:101BB000010A04F10C00085C00EE100AB8EE400ABD
:101BC00030EE800A9FED311AC0EE010A04F10D00DB
:101BD000085C00F07F0000EE100AB8EEC00A30EE9C
:101BE000800A9FED2B1AC0EE010AB7EE000A30EE14
:101BF000800A10EE106A3046FEF79FFC41EC1C0B89
:101C000053EC1B2BFEF7A7FB41EC1A0B53EC192BE3
:101C1000FEF7A1FB41EC180BFEF7BAFC1D4948602A
:101C2000154A04F11201515C01F0800109B901214A
:101C300001E04FF0FF310846FEF76EFC41EC190B56
:101C40000D4A04F11101515C01F08005E91705EB23
:101C50005161CA11084B04F11201595C01F07F0176
:101C600002EB4101A1F17F00FEF756FC14E00000F9
:101C70000080001858600240800800207C05002089
:101C800086050020000000000000004000008043A6
:101C9000000000437C0C002041EC1D0BB0EE4D1AFF
:101CA000F0EE6D1A1FED090B04F01AF9B0EE40BA10
:101CB000F0EE60BA6B4904F10F00085C00EE100A08
:101CC000B8EE400A1FED0F1AC0EE010A04F1100031
:101CD000085C00EE100AB8EE400A30EE800A1FEDF4
:101CE000151AC0EE010A04F11100085C00F07F0033
:101CF00000EE100AB8EEC00A70EE800A1FED1C1A42
:101D000080EE810AF7EE000A30EE200A10EE106A2B
:101D10003046FEF712FC41EC1C0B53EC1B2BFEF77C
:101D20001AFB41EC1A0B53EC192BFEF714FB41EC98
:101D3000180BFEF72DFC4C4988604A4A04F1160145
:101D4000515C01F0800109B9012101E04FF0FF3140
:101D50000846FEF7E1FB41EC190B424A04F115017C
:101D6000515C01F08005E91705EB5161CA113D4B4B
:101D700004F11601595C01F07F0102EB4101A1F170
:101D80007F00FEF7C9FB41EC1D0BB0EE4D1AF0EEE3
:101D90006D1A1FED440B04F0A3F8B0EE40BAF0EE5C
:101DA00060BA304904F11300085C00EE100AB8EE86
:101DB000400A1FED4A1AC0EE010A04F11400085C43
:101DC00000EE100AB8EE400A30EE800A1FED511AFC
:101DD000C0EE010A04F11500085C00F07F0000EE7F
:101DE000100AB8EEC00A70EE800A1FED571A80EE96
:101DF000810AF7EE000A30EE200A10EE106A304633
:101E0000FEF79BFB41EC1C0B53EC1B2BFEF7A3FADC
:101E100041EC1A0B53EC192BFEF79DFA41EC180B11
:101E2000FEF7B6FB1049C8600E4904F11700095CC3
:101E30000C4A401C105C41EA00200B490882114604
:101E400004F11800095C401C105C41EA00200649BE
:101E50004882601CC4B2642CFFF61EADBDEC0C8B36
:101E600070BD0000800800207C0C002010B50949DE
:101E7000094800F001F958B14FF08151064800F0CF
:101E80000FF80449044800F025F8044801F08CFFDD
:101E900010BD000000802010406402409405002026
:101EA0000246094B9A4201D2084801E00648103820
:101EB00001F000531BB1064B0B40C36002E0044B22
:101EC0000B408360704700001064024000600240D5
:101ED0007D0F7D0F0246094B9A4201D2084801E06E
:101EE0000648103801F000531BB1064B0B40C3608D
:101EF00002E0044B0B408360704700001064024016
:101F0000006002407D0F7D0F21B1026842F00102A6
:101F1000026003E0026822F00102026070470000E4
:101F2000016821F0010101600021016041608160D0
:101F3000C1600161212141614A49884204D13D21AA
:101F4000484A103A91608CE046491831884205D1E0
:101F50004FF47461434A103A916082E04149303154
:101F6000884205D14FF474113E4A103A916078E0EE
:101F70003C494831884205D14FF07461394A103AE2
:101F800091606EE037496031884204D13649354A64
:101F9000103AD16065E033497831884204D1334941
:101FA000304A103AD1605CE02E499031884204D129
:101FB0002F492C4A103AD16053E02A49A83188426F
:101FC00005D14FF03D51274A103AD16049E02949E7
:101FD000884204D13D21274A083A116041E0254951
:101FE0001831884205D14FF47461224A083A1160D1
:101FF00037E020493031884205D14FF474111D4A31
:10200000083A11602DE01B494831884205D14FF054
:102010007461184A083A116023E016496031884219
:1020200004D11149134A121F11601AE01149783185
:10203000884204D10D490F4A121F116011E00D4969
:102040009031884204D10A490A4A121F116008E0FF
:102050000849A831884204D14FF03D51054A121F6A
:1020600011607047106002403D000020400F0020CA
:1020700000003D201064024070B50246002000249C
:102080000025124EB24201D2114B01E00F4B103B22
:10209000104E0E4036B11E2606EAD124166806EA16
:1020A000040502E0566906F0800501F000560EB105
:1020B0005C6800E01C68084E344004EA010616B172
:1020C0000DB1012000E0002070BD0000106402404E
:1020D000006002403C0F3C0F7D0F7D0F10B501F0FA
:1020E00080034BB122B1436943F08003436103E0B5
:1020F000436923F08003436180290BD02AB1036830
:1021000001F01E042343036004E0036801F01E0491
:10211000A343036010BD000010B500220268134BFA
:102120001A40CC680B6823434C6923438C692343D2
:10213000CC6923430C6A23434C6A23438C6A2343B0
:102140004C6B23438C6B23431A430260426922F099
:102150000702D1E90B3423431A4342610B69436000
:102160004B6883608B68C36010BD00003F801CF02B
:1021700000B587B00121274801F0FEFC01211020A5
:1021800001F02AFD07221146234800F0E5FB234811
:1021900002F0D0FF8020059002208DF8180000206A
:1021A0008DF81A0003208DF8190000208DF81B000F
:1021B00005A9194800F088FB194801900020ADF8E6
:1021C0000800ADF80A004FF48060ADF80C00042060
:1021D000ADF80E000020ADF8100001A90F4803F083
:1021E0007DF801210D4802F08FFF25208DF80000B9
:1021F00001208DF801008DF802008DF8030068467B
:1022000001F062FB012240F22551044803F041F83D
:1022100007B000BD02004000000402400010014071
:10222000A08601007047000010B5042000F016F8E9
:1022300040B10A2005F0D6FB04480068012801D10E
:1022400001F09CF8042000F003F810BD0882404221
:102250000149086070470000143C0140014600201D
:10226000034A12680A400AB1012000E000207047CA
:10227000143C0140002123498279002A3AD00A46C1
:10228000126803689A430B461A600A1D12680368B5
:102290009A430B1D1A60027911440A6803681A43B5
:1022A0000A60184A0832126803689A43154B0833CB
:1022B0001A601A1D126803689A43124B0C331A6095
:1022C0004279102A0ED11A1F126803681A430D4B67
:1022D00008331A601A1D126803681A43094B0C333D
:1022E0001A600DE00749427911440A6803681A43ED
:1022F0000A6005E0027911440A6803689A430A609B
:1023000070470000003C014070B5002200230468C3
:1023100044600C7BCD7A44EA052404600468456877
:10232000641BC460C4682B4DAC4207DA846B641C28
:102330008463C46804F50054C4610EE0C46841F6C7
:102340004C55AC4207DD846B641E8463C468A4F5FD
:102350000054C46101E0C468C4610568846B05EB86
:102360004434846004688569641B00EE104AB8EE4A
:10237000C00ADFED190A20EE200A9FED181AC0EE00
:10238000010A846B4FF4B4756C4300EE104AB8EE4A
:10239000C00A30EE800A80ED100AC669047D651C13
:1023A000057500F1200545F82460047D062C01D157
:1023B00000240475002205E000F1200454F82240B6
:1023C0002344521C062AF7DB062493FBF4F4C4636F
:1023D00070BD0000B4E2FFFF0000B44300000046FF
:1023E00010B500210846FFF7DDF900210120FFF7B5
:1023F000D9F900210220FFF7D5F900210320FFF7CA
:10240000D1F900210420FFF7CDF900210520FFF7C5
:10241000C9F900210620FFF7C5F900210720FFF7C1
:10242000C1F900210820FFF7BDF900210920FFF7BD
:10243000B9F900210A20FFF7B5F900210B20FFF7B9
:10244000B1F900210C20FFF7ADF900210D20FFF7B5
:10245000A9F900210E20FFF7A5F900210F20FFF7B1
:10246000A1F900211020FFF79DF900211120FFF7AD
:1024700099F900211220FFF795F910BD70B50546B6
:102480000C46072D65D2DFE805F0640414243444BB
:10249000540000EE104AB8EEC00ADFED300A80EEBC
:1024A000201A2F4890ED040A30EE410A80ED040A0C
:1024B00050E000EE104AB8EEC00ADFED280A80EEC8
:1024C000201A274890ED050A30EE410A80ED050AF2
:1024D00040E000EE104AB8EEC00ADFED200A80EEC0
:1024E000201A1F4890ED060A30EE410A80ED060AD8
:1024F00030E000EE104AB8EEC00A9FED181AC0EEA8
:10250000010A184890ED040A30EE600A80ED040AD2
:1025100020E000EE104AB8EEC00ADFED100A80EEAF
:10252000201A104890ED050A30EE410A80ED050AA8
:1025300010E000EE104AF8EEC00A9FED081A80EE97
:10254000810A0848D0ED060A30EEC00A80ED060A7E
:1025500000E000BF00BF01F083F870BD0000C8427A
:10256000EC0200203C03002070B505460C46072D08
:1025700065D2DFE805F0640414243444540000EE0E
:10258000104AB8EEC00ADFED300A80EE201A2F485C
:1025900090ED040A31EE000A80ED040A50E000EEEE
:1025A000104AB8EEC00ADFED280A80EE201A27484C
:1025B00090ED050A31EE000A80ED050A40E000EEDC
:1025C000104AB8EEC00ADFED200A80EE201A1F483C
:1025D00090ED060A31EE000A80ED060A30E000EECA
:1025E000104AB8EEC00A9FED181AC0EE010A18484A
:1025F00090ED040A30EE800A80ED040A20E000EE3F
:10260000104AB8EEC00ADFED100A80EE201A10481A
:1026100090ED050A31EE000A80ED050A10E000EEAB
:10262000104AF8EEC00A9FED081A80EE810A0848A9
:10263000D0ED060A30EE200A80ED060A00E000BF69
:1026400000BF01F00DF870BD0000C842EC02002090
:102650003C03002010B500F04FFA124890ED000A3C
:10266000114880ED000A1148016988471048D0EDF3
:10267000100A20EE200A0C4880ED010A816C884780
:10268000094890ED0D0A0B4880ED000A0A4890EDCC
:10269000000AB1EE400A074880ED010A816C8847C4
:1026A00010BD000064080020EC020020840400201B
:1026B000980200203C0300203800002070B5054639
:1026C0000C46072D65D2DFE805F064041424344479
:1026D000540000EE104AB8EEC00ADFED300A80EE7A
:1026E000201A2F4890ED040A30EE410A80ED040ACA
:1026F00050E000EE104AB8EEC00ADFED280A80EE86
:10270000201A274890ED050A30EE410A80ED050AAF
:1027100040E000EE104AB8EEC00ADFED200A80EE7D
:10272000201A1F4890ED060A30EE410A80ED060A95
:1027300030E000EE104AB8EEC00A9FED181AC0EE65
:10274000010A184890ED040A30EE600A80ED040A90
:1027500020E000EE104AB8EEC00ADFED100A80EE6D
:10276000201A104890ED050A30EE410A80ED050A66
:1027700010E000EE104AF8EEC00A9FED081A80EE55
:10278000810A0848D0ED060A30EEC00A80ED060A3C
:1027900000E000BF00BF01F01DF870BD0000C8429E
:1027A0008C030020DC03002070B505460C46072D85
:1027B00065D2DFE805F0640414243444540000EECC
:1027C000104AB8EEC00ADFED300A80EE201A2F481A
:1027D00090ED040A31EE000A80ED040A50E000EEAC
:1027E000104AB8EEC00ADFED280A80EE201A27480A
:1027F00090ED050A31EE000A80ED050A40E000EE9A
:10280000104AB8EEC00ADFED200A80EE201A1F48F9
:1028100090ED060A31EE000A80ED060A30E000EE87
:10282000104AB8EEC00A9FED181AC0EE010A184807
:1028300090ED040A30EE800A80ED040A20E000EEFC
:10284000104AB8EEC00ADFED100A80EE201A1048D8
:1028500090ED050A31EE000A80ED050A10E000EE69
:10286000104AF8EEC00A9FED081A80EE810A084867
:10287000D0ED060A30EE200A80ED060A00E000BF27
:1028800000BF00F0A7FF70BD0000C8428C0300200D
:10289000DC03002010B50948816C8847074890ED9B
:1028A0000D0A074880ED000A064890ED000A04482A
:1028B00080ED010A816C884710BD00008C03002068
:1028C000DC03002034000020F0B50A46002100237C
:1028D000002400BF3DE0012505FA01F3156805EA73
:1028E00003049C4234D105684F000326BE40B54323
:1028F000056015794E00B5400668354305601579C9
:10290000012D02D01579022D16D185684F000326BE
:10291000BE40B543856055794E00B5408668354365
:102920008560456801268E40B543456045689679C7
:102930008E40B6B235434560C5684F000326BE40A1
:10294000B543C560D5794E00B540C6683543C5600E
:10295000491C1029BFD3F0BDF0B5002300244D075A
:10296000ED0E02FA05F3CE1000F1200555F82650C1
:102970004E07F70E0F26BE40B543CF1000F12006DC
:1029800046F82750CE1000F1200555F8265045EAAC
:102990000304CE1000F1200545F82640F0BD418328
:1029A0007047018370470AB1018300E0418370479B
:1029B00001480078704700000805002001480078B1
:1029C000704700005F05002010B50446062221462E
:1029D000492000F0A5FD10BD024B0ECB80E80E0093
:1029E000704700007408002001480078704700001C
:1029F0005E05002001480078704700007D0400203B
:102A000030B5034613B94FF6FF7030BD09E013F837
:102A1000014B82EA0400C0B2054D35F8100080EA8F
:102A20002222081EA1F10101F1D11046EDE70000BC
:102A30007AA5000830B5034605E013F8010B80EADB
:102A400002040448025D081EA1F10101F5D11046FF
:102A500030BD000079A400080148B0F900007047BB
:102A60005C05002010B50446202C06DB08A002F00F
:102A7000EDFD01F085FD002010BD0C480068E04030
:102A800000F0010008B10120F6E70020F4E70000A3
:102A900054686520666C616720494420697320741E
:102AA0006F6F20626967210D0A000000900200200C
:102AB0000148007870470000540500200148007864
:102AC00070470000E80200200348D0ED000A9FEDA7
:102AD000031A80EE810A7047E40200200000C84219
:102AE0000148008870470000E20200200148B0F968
:102AF0000000704756050020114890ED000ADFEDF8
:102B0000110AB4EEE00AF1EE10FA04D89FED0D0AB6
:102B100080ED000A13E00A4890ED000AF9EE040A7D
:102B2000B4EEE00AF1EE10FA04DBB9EE040A80ED2F
:102B3000000A04E0024890ED000A80ED000A7047A8
:102B40006408002000000CC200B5FFF753FF062800
:102B500013D2DFE800F003137B99B5B69FED6C0A42
:102B60006C4880ED000A9FED6A0A80ED010A6A4810
:102B700090ED100A694880ED000AC0E068480078CE
:102B800078B9664890ED000A664880ED010A012098
:102B900063490870002064490870644908706449FA
:102BA000087064480088401C00B2624908800846EA
:102BB000B0F900000A283CDD5A4890ED010AF1EE18
:102BC000000A30EE200A80ED010A5B4800780128F7
:102BD00009D1544890ED000AF6EE000A30EE600A82
:102BE00080ED000A08E04F4890ED000AF6EE000A7A
:102BF00030EE200A80ED000A4A4890ED000AF9EE16
:102C0000040AB4EEE00AF1EE10FA02DD01204A49AE
:102C10000870444890ED000ADFED480AB4EEE00A7F
:102C2000F1EE10FA02D20020434908700020414919
:102C300008803C4890ED010A364880ED000A36488D
:102C400090ED100A334880ED010A58E036480078CC
:102C500068B9324890ED000A324880ED010A01203F
:102C60003149087000202E490870304908702D48FD
:102C700090ED010A274880ED000A274890ED100AE0
:102C8000244880ED010A3AE02848007858B92348E2
:102C900090ED000A234880ED010A012023490870C5
:102CA00000201F4908701D4890ED000A194880ED6A
:102CB000000A194890ED100A164880ED010A1EE03E
:102CC0001DE01B48007868B9144890ED000A1548CB
:102CD00080ED010A01201649087000201049087093
:102CE000114908700F4890ED010A0A4880ED000A6A
:102CF000094890ED100A074880ED010A00BF00BFA7
:102D0000054890ED100A054880ED000A00BD00005E
:102D1000000031438C030020F0070020D404002081
:102D2000D004002064080020D1040020D204002038
:102D3000D3040020D8040020DA04002000000CC2D4
:102D400000B58BB00121802000F016FF0121082082
:102D500000F022FF4FF44060099002208DF8280017
:102D600003208DF8290009A92748FFF7ADFD0222AD
:102D70000A212548FFF7F0FD02220B212248FFF728
:102D8000EBFD5320ADF818000020ADF81A0040F616
:102D9000C31007900020ADF8200006A91B4801F0E1
:102DA00021FE7020ADF804000120ADF806000020DF
:102DB000ADF8080040F2E73003900220ADF81000B3
:102DC0000020ADF81200ADF814004FF48070ADF89B
:102DD000160001A90D4801F057FD01A90B4801F0AB
:102DE0009BFD0821094801F08DFD0821074801F0ED
:102DF000E5FD0121054801F003FD0121034801F033
:102E000011FD0BB000BD0000001C0240000C004092
:102E100010B5FFF795FF10BD00BFFEE710B52DED13
:102E2000088B0446964890ED000AD0ED000A20EE8B
:102E3000200A9448D0ED000A90ED001A00EE810AB5
:102E40009148D0ED000A90ED001A00EEC10A8F48BB
:102E5000D0ED000A90ED001A00EEC10A10EE101A33
:102E60000846FDF76AFB41EC1A0B864890ED000A14
:102E70008548D0ED000A20EE200A8148D0ED000AF6
:102E8000824890ED001A00EE810AF0EE000A20EE72
:102E9000200A10EE101A0846FDF74FFB41EC1B0B01
:102EA000B0EE4A1AF0EE6A1AB0EE4B0AF0EE6B0A78
:102EB00002F012FFB0EE409AF0EE609A9FED740BB4
:102EC00053EC102B51EC190BFDF745FA41EC180BA4
:102ED000FDF75EFBA0606B4890ED000A6B48D0EDFB
:102EE000000A20EE200A6648D0ED000A664890ED00
:102EF000001A00EEC10AF0EE000A20EE200A10EEE1
:102F0000101A0846FDF719FB41EC1B0BB0EE4B0AFB
:102F1000F0EE6B0A02F0C4FBB0EE40AAF0EE60AA3D
:102F200051EC1A0B81F0004141EC190B9FED580B4D
:102F300053EC102BFDF70FFA41EC180BFDF728FBB3
:102F400060604F4890ED000AD0ED000A20EE200AA4
:102F50004C48D0ED000A90ED001A00EEC10A4A4834
:102F6000D0ED000A90ED001A00EEC10A4748D0EDFE
:102F7000000A90ED001A00EE810A10EE101A0846C1
:102F8000FDF7DBFA41EC1A0B3D4890ED000A3D4895
:102F9000D0ED000A20EE200A3B48D0ED000A3B4865
:102FA00090ED001A00EE810AF0EE000A20EE200AF1
:102FB00010EE101A0846FDF7C0FA41EC1B0BB0EEFC
:102FC0004A1AF0EE6A1AB0EE4B0AF0EE6B0A02F003
:102FD00083FEB0EE409AF0EE609A9FED2D0B53EC1D
:102FE000102B51EC190BFDF7B6F941EC180BFDF75E
:102FF000CFFA2060284890ED000A284880ED000AAA
:1030000094ED020A244880ED000A90ED000A23485E
:10301000D0ED000A30EE600ADFED210AB4EEE00ADE
:10302000F1EE10FA05DB1F480068401E1D490860DC
:1030300013E0194890ED000A1848D0ED000A30EE70
:10304000600ADFED190AB4EEE00AF1EE10FA04D8D6
:1030500014480068401C13490860124800684FF487
:10306000B471484300EE100AB8EEC00A0A48D0ED29
:10307000000A30EE200A84ED020ABDEC088B10BD78
:103080005000002054000020580000205C00002068
:103090006666666666A64C4040010020440100203A
:1030A0000000964348010020000096C310B52DEDA6
:1030B000028BB0EE408AF0EE608A2348007830B38D
:1030C0009FED220A224880ED000A51EC180BFDF713
:1030D0005FFA1F4948600846816C88471C4890ED9C
:1030E0000D0AB5EEC00AF1EE10FA03D29FED190AEF
:1030F00080ED0D0A164890ED0D0ABCEEC00A10EEE8
:10310000100A84B22146144801F067FC19E09FEDD3
:10311000130B53EC102B51EC180BFDF721FA0BD2CB
:1031200010480078401C0F49087008460078322883
:1031300002DD01200449087041F28731064801F0A0
:103140004CFCBDEC028B10BD4C0100200000204265
:10315000E800002000000000000400400000000023
:10316000000044404D01002010B530216A2000F0DD
:103170000FFA0A2004F036FC0D21242000F008FA92
:103180000A2004F02FFC0E21282000F001FA0A206A
:1031900004F028FC8E21312000F0FAF90A2004F016
:1031A00021FC01210B2000F07CF80A2004F01AFC1D
:1031B000002000F059F8102801D0012010BD012195
:1031C0000B2000F06EF80A2004F00CFC00210A200D
:1031D00000F067F80A2000F047F808B10220EDE798
:1031E0000A2004F0FFFB00210B2000F05AF80B200E
:1031F00000F03AF808B10320E0E70A2004F0F2FBFF
:103200002421412000F04DF8412000F02DF8242821
:1032100001D00420D2E70A2004F0E4FBC0214220C0
:1032200000F03FF8422000F01FF8C02801D0052030
:10323000C4E70A2004F0D6FB00212A2000F0A8F9F8
:103240000A2004F0CFFB0021342000F0A1F90A206D
:1032500004F0C8FB062203210E2000F0B9F9642017
:1032600004F0C0FB0020A9E770B5044621463220D7
:1032700000F08EF90A2004F0B5FB8021342000F024
:1032800087F90A2004F0AEFB352000F027F9054647
:103290000021342000F07CF90A2004F0A3FB28462A
:1032A00070BD70B504460D4600212A2000F070F96B
:1032B000022004F097FB2146292000F069F9022042
:1032C00004F090FB2946642000F062F9022004F02B
:1032D00089FB81212A2000F05BF90A2004F082FB9F
:1032E00070BD00B5FFF764FB012800D100BD0020D0
:1032F000FCE7000000B585B00121880300F06CFCFC
:103300000121022000F038FC0420039000208DF8F9
:1033100012008DF8100003208DF8110001208DF8A7
:10332000130003A91248FFF7CFFA0221012000F091
:10333000F1FE0420019000208DF8080008208DF88F
:10334000090001208DF80A0001A8FEF793FF08206C
:103350008DF8000004208DF801008DF80200012096
:103360008DF80300684600F0AFFA05B000BD00001C
:103370000004024010B5FFF7BDFF10BD064800680D
:10338000C0430649C1F8AC020548D0F8B802C043B2
:103390000349C1F8B8027047AC0242420000424201
:1033A000008042421CB50121702000F0E5FBFE20A8
:1033B000009001208DF8040000208DF80600032005
:1033C0008DF8050001208DF8070069461448FFF7C5
:1033D0007BFA4FF40060009001208DF8040000207B
:1033E0008DF8060003208DF8050001208DF80700F8
:1033F00069460C48FFF768FA4FF4804000900120BE
:103400008DF8040000208DF8060003208DF80500DB
:1034100001208DF8070069460348FFF755FA1CBDE7
:1034200000180240001002400014024010B5FFF7DF
:10343000B9FF01200A4908600A49C1F88802084911
:1034400008310860091D0860091D0860091D086031
:10345000091D08600020044908600449086010BD87
:103460008402434200004342AC024242B8824242DC
:1034700010B586B0012240211648FFF794FA642067
:1034800004F0B0FA752000F029F8702802D001206D
:1034900006B010BD002414220F4901A8FCF7A2FEBB
:1034A00000BF0DE001AA02EB4402517801AA12F814
:1034B000140000F06DF8012004F094FA601CC4B20E
:1034C0000A2CEFDB022000F05BF8002000F050F83F
:1034D0000020DDE70014024048A4000810B50446AF
:1034E000002240210B48FFF75EFA44F080000A49B1
:1034F00008700846007800F0EFFD002000F0ECFDB9
:1035000006490870012240210248FFF74CFA03489F
:10351000007810BD001402403A010020390100205B
:103520002DE9F04105460E461746002240210E487F
:10353000FFF739FA45F080000C490870084600781A
:1035400000F0CAFD002404E0002000F0C5FD305565
:10355000641CBC42F8DB012240210348FFF723FA38
:103560000020BDE8F0810000001402403B01002073
:1035700010B50446E006010E1C2000F009F810BD4D
:1035800010B50446E006010E1B2000F001F810BD46
:1035900070B505460C46002240210B48FFF703FAA0
:1035A00005F07F00094908700846007800F094FD96
:1035B00006480470007800F08FFD01224021024887
:1035C000FFF7F1F9002070BD00140240380100201F
:1035D00070B504460E46154621462820FFF7D8FF51
:1035E000022004F0FFF90A212920FFF7D1FF022071
:1035F00004F0F8F901216420FFF7CAFF022004F06B
:10360000F1F944F080012520FFF7C2FF022004F009
:10361000E9F931462620FFF7BBFF022004F0E2F96A
:1036200003213420FFF7B4FF022004F0DBF903216B
:103630006720FFF7ADFF022004F0D4F981212A2092
:10364000FFF7A6FF062004F0CDF945F08001272002
:10365000FFF79EFF022004F0C5F970BD00BFFEE732
:1036600000B52DED0C8B8BB0274890ED060A10EEBF
:10367000101A0846FCF761FF41EC180B224890ED48
:10368000050A10EE101A0846FCF757FF41EC190B1B
:103690001D4890ED040A10EE101A0846FCF74DFF85
:1036A00041EC1A0B194890ED060A10EE101A084664
:1036B000FCF743FF41EC1B0B144890ED050A10EE9C
:1036C000101A0846FCF739FF41EC1C0B0F4890ED2F
:1036D000040A10EE101A0846FCF72FFF41EC1D0BF0
:1036E0008DED088B8DED069B8DED04AB8DED02BB52
:1036F0008DED00CB53EC1D2B05A001F0A7FF0BB007
:10370000BDEC0C8B00BD00003C030020EC0200204F
:10371000504B503A25332E32662C504B493A2531C6
:103720002E32662C504B443A25332E32662C564BA3
:10373000503A25332E32662C564B493A25312E32DB
:10374000662C564B443A25332E32660D0A00000093
:1037500000B52DED068B85B0154890ED060A10EEEC
:10376000101A0846FCF7E9FE41EC180B104890EDE2
:10377000050A10EE101A0846FCF7DFFE41EC190BA3
:103780000B4890ED040A10EE101A0846FCF7D5FE1F
:1037900041EC1A0B8DED028B8DED009B53EC1A2B37
:1037A00004A001F053FF05B0BDEC068B00BD000086
:1037B0002C040020564B503A25332E32662C564BA3
:1037C000493A25312E32662C564B443A25332E3257
:1037D000660D0A0000B52DED0C8B8BB0274890EDDF
:1037E000060A10EE101A0846FCF7A7FE41EC180B6B
:1037F000224890ED050A10EE101A0846FCF79DFECF
:1038000041EC190B1D4890ED040A10EE101A084601
:10381000FCF793FE41EC1A0B194890ED060A10EEE6
:10382000101A0846FCF789FE41EC1B0B144890ED7A
:10383000050A10EE101A0846FCF77FFE41EC1C0B3F
:103840000F4890ED040A10EE101A0846FCF775FEBA
:1038500041EC1D0B8DED088B8DED069B8DED04ABC2
:103860008DED02BB8DED00CB53EC1D2B05A001F0BF
:10387000EDFE0BB0BDEC0C8B00BD0000DC030020A6
:103880008C030020504B503A25332E32662C504B7F
:10389000493A25312E32662C504B443A25332E328C
:1038A000662C564B503A25332E32662C564B493AED
:1038B00025312E32662C564B443A25332E32660D76
:1038C0000A0000007047000070B5002100230F229D
:1038D000C4781CB3174C246804F4E064C4F5E064B5
:1038E000C4F30721C1F10404E3B20A4144789C40C7
:1038F000E1B28478144021430C07210E0E4C057868
:103900006155047804F01F050124AC4005786D1161
:10391000AD0005F1E025C5F8004109E0047804F0A8
:103920001F050124AC40054D0678761145F8264068
:1039300070BD00000CED00E000E400E080E100E07C
:1039400002490143024A1160704700000000FA0575
:103950000CED00E090ED020A80ED030A90ED000A04
:10396000D0ED010A30EE600A80ED020A90ED080AFF
:10397000D0ED020A30EE200A80ED080A90ED080A28
:10398000D0ED0B0AF1EE600AB4EEE00AF1EE10FAA7
:1039900006D290ED0B0AB1EE400A80ED080A0CE069
:1039A00090ED080AD0ED0B0AB4EEE00AF1EE10FA41
:1039B00003DD90ED0B0A80ED080A90ED040AD0EDCE
:1039C000020A20EE200AD0ED050A90ED081A00EE5A
:1039D000810AD0ED020A90ED031A70EEC10A90ED53
:1039E000061A01EE200A80ED0D0A90ED0D0AD0EDC9
:1039F0000E0AB4EEE00AF1EE10FA04DD90ED0E0AC4
:103A000080ED0D0A10E090ED0D0AD0ED0E0AF1EEFA
:103A1000600AB4EEE00AF1EE10FA05D290ED0E0A5B
:103A2000B1EE400A80ED0D0A704700009FED0C0AD0
:103A300080ED070A9FED0A0A80ED080A9FED080A4B
:103A400080ED090A9FED060A80ED020A9FED040A47
:103A500080ED030A9FED020A80ED0D0A7047000019
:103A6000000000007047000070B505460C46012DAF
:103A700004D0022D12D0032D30D11FE000EE104AE9
:103A8000B8EEC00ADFED180A80EE201A174890ED54
:103A9000040A30EE410A80ED040A20E000EE104AEC
:103AA000F8EEC00A9FED101A80EE810A0F48D0EDA3
:103AB000050A30EEC00A80ED050A10E000EE104A5B
:103AC000B8EEC00ADFED080A80EE201A074890ED34
:103AD000060A30EE410A80ED060A00E000BF00BF92
:103AE000FFF736FE70BD00000000C8422C04002025
:103AF00070B505460C46012D04D0022D12D0032DC1
:103B000030D11FE000EE104AB8EEC00ADFED180A0F
:103B100080EE201A174890ED040A31EE000A80ED7D
:103B2000040A20E000EE104AF8EEC00A9FED101AD9
:103B300080EE810A0F48D0ED050A30EE200A80EDB4
:103B4000050A10E000EE104AB8EEC00ADFED080AE0
:103B500080EE201A074890ED060A31EE000A80ED4B
:103B6000060A00E000BF00BFFFF7F2FD70BD0000D5
:103B70000000C8422C04002029B1064A1268024302
:103B8000044B1A6004E0034A12688243014B1A6036
:103B9000704700003038024029B1064A12680243DB
:103BA000044B1A6004E0034A12688243014B1A6016
:103BB000704700004038024029B1064A12680243AB
:103BC000044B1A6004E0034A12688243014B1A60F6
:103BD000704700002038024029B1064A12680243AB
:103BE000044B1A6004E0034A12688243014B1A60D6
:103BF000704700004438024029B1064A1268024367
:103C0000044B1A6004E0034A12688243014B1A60B5
:103C10007047000024380240F0B500210022002443
:103C2000022500260223324F3F6807F00C0121B124
:103C3000042905D0082937D105E02E4F076036E06A
:103C40002D4F076033E02A4F3F1F3F68C7F3805670
:103C5000274F3F1F3F6807F03F036EB1264FB7FB6A
:103C6000F3F7DFF88CC0ACF1040CDCF800C0CCF347
:103C7000881C07FB0CF40CE01E4FB7FBF3F7DFF8D2
:103C800070C0ACF1040CDCF800C0CCF3881C07FB5E
:103C90000CF4174F3F1F3F68C7F301477F1C7D009F
:103CA000B4FBF5F7076002E0124F076000BF00BFEA
:103CB0000F4F3F6807F0F0010909104F7A5C076861
:103CC000D74047600A4F3F6807F4E051890A0B4F1D
:103CD0007A5C4768D7408760054F3F6807F46041CA
:103CE000490B064F7A5C4768D740C760F0BD0000BB
:103CF000083802400024F400001BB7001400002024
:103D000010B502460B460020002100BF04E0545CC1
:103D10000444E0B24C1CE1B29942F8DB10BD000053
:103D200010B5044600EE104AB8EEC00A074880ED10
:103D3000000A0748B0F9020000EE100AB8EEC00A07
:103D4000024880ED010A816C884710BD2C040020D8
:103D5000DC0200200168491C0160D0E90012914298
:103D600001DB4168016090ED000AF8EEC00A90EDB9
:103D7000010AB8EEC00A80EE801A80ED021A90EDBA
:103D8000020A7047416070470146D1E90002904243
:103D900001DB012070470020FCE700210160704733
:103DA000016070474160704710B50446FEF722FE7F
:103DB00000B9A1E004B910BD2078617840EA012083
:103DC000C0F30A004E4908806078C010A17840EA2C
:103DD0004110C0F30A004A494880A0788011E17878
:103DE00040EA8100217940EA8120C0F30A00444979
:103DF000888020794010617940EAC110C0F30A0040
:103E00003F49C88060790011800808726079C0F36A
:103E100001104872A079E17940EA012000B23849E6
:103E20004881207A617A40EA012001B234488181D8
:103E3000A07AE17A40EA012001B23148C181217BB8
:103E40008174617BC174A07BE17B40EA01202C4935
:103E50008882084600F0A8F9FEF7CCFD05284AD173
:103E600027484088A0F5806000EB8000800000B209
:103E700024490880244890ED000A2148B0F9060042
:103E8000A0F5806000EE900AF8EEE00A9FED1F1AA0
:103E900000EE810A1C4880ED000A90ED010A1848E6
:103EA000B0F90400A0F5806000EE900AF8EEE00A98
:103EB0009FED171A00EEC10A134880ED010A104861
:103EC000007A012806D1002000F066FA002000F0F8
:103ED0007FF910E00A48007A032806D1012000F09B
:103EE00077F9002000F058FA05E0012000F070F9A1
:103EF000012000F051FA00BF00BF00BF5BE70000E7
:103F0000340800205C050020640800206F12833B09
:103F10000AD7A33C10B50948C821C2699047074891
:103F2000816988470648C821C26990470448816969
:103F30008847002000F04CF910BD00000C0500205F
:103F40003005002000200149088070475C050020F2
:103F500000200149088070475A05002000B587B04D
:103F600001212020FFF708FE01210805FFF734FE9C
:103F7000012240213A48FEF716FD4020059001201D
:103F80008DF8180000208DF81A0003208DF8190014
:103F900001208DF81B0005A93148FEF795FC012191
:103FA0002020FFF7E9FD01210805FFF715FE4FF47A
:103FB0006070059002208DF8180000208DF81A001E
:103FC00003208DF8190001208DF81B0005A9244855
:103FD000FEF77AFC052207212148FEF7BDFC0522E9
:103FE00008211F48FEF7B8FC052209211C48FEF7EE
:103FF000B3FC01210805FFF7FFFD00214FF48010FD
:10400000FFF7FAFD0020ADF800004FF48270ADF824
:1040100002000020ADF80400ADF80600ADF808007D
:104020004FF40070ADF80A003020ADF80C0000200D
:10403000ADF80E000720ADF810006946094800F001
:104040002DF80121074800F00FF8FF2000F044F898
:10405000012240210248FEF7A6FC07B000BD000087
:10406000001402400050014021B1028842F0400299
:10407000028004E002884FF6BF731A400280704746
:104080000246002013890B400BB1012000E0002004
:1040900070470146888970478181704710B50022BA
:1040A000028802F441520B884C8823438C882343B6
:1040B000CC8823430C8923434C8923438C89234395
:1040C000CC8923431A430280838B4FF2FF74234031
:1040D00083830B8A038210BD10B5044600BF022102
:1040E0000A48FFF7CDFF0028F9D021460748FFF71F
:1040F000D3FF00BF01210548FFF7C2FF0028F9D018
:104100000248FFF7C6FFC0B210BD000000500140DA
:104110007047000030B500228B071C0F0F2303FAF5
:1041200004F20B4B8C1053F824309343084C8D1041
:1041300044F8253023468C1053F824308C07240F84
:1041400000FA04F42343024C8D1044F8253030BDAE
:104150000838014070B586B005460E46144640F258
:104160000140019000208DF80C008DF80D00082012
:104170008DF80E008DF80F508DF81060210A8DF823
:1041800011108DF8124000218DF813108DF81410C5
:104190008DF815108DF8161001A90248FDF773F976
:1041A00006B070BD00640040417A012902D1074A7F
:1041B00011700AE0417A032902D1044A117004E027
:1041C000417A022901D1014A117070470805002087
:1041D00001490870704700005F05002010B50B48CA
:1041E00090ED0D0ABDEEC00A10EE100A404202B278
:1041F000074890ED0D0ABDEEC00A10EE100A4042CD
:1042000001B2044800F0CEF810BD00003C030020CD
:10421000DC030020006400400CB5002001900090F9
:104220004148006840F480303F49086000BF3E4884
:10423000006800F4003000900198401C0190009844
:1042400018B90198B0F5A04FF1D13748006800F4D3
:10425000003010B10120009001E000200090009893
:10426000012860D130484030006840F080502E492D
:10427000403108602D48006840F440402B490860F8
:104280002948083000682849083108600846006855
:1042900040F4004008600846006840F4A050086000
:1042A0002348091F0860081F006840F08070091F3C
:1042B000086000BF1C48006800F000700028F9D0BA
:1042C0001A48006840F480301849086000BF174859
:1042D000406800F480300028F9D01448006840F4A9
:1042E00000301249086000BF1048406800F40030F8
:1042F0000028F9D040F205700E4908600A480830DD
:10430000006820F00300084908310860084600688A
:1043100040F00200086000BF03480830006800F069
:104320000C000828F8D10CBD003802400070004095
:104330000C544007003C02400149087070470000DF
:104340005E05002001490870704700007D040020D0
:1043500010B50446202C06DB07A001F077F900F029
:104360000FF9002010BD0120A0400A490968084348
:10437000084908600120F5E754686520666C6167AC
:1043800020494420697320746F6F20626967210D92
:104390000A000000900200200149087070470000E8
:1043A0005405002070B586B006460C46154640F20E
:1043B000FF10019000208DF80C008DF80D000820F2
:1043C0008DF80E00200A8DF80F008DF81040290A94
:1043D0008DF811108DF8125000218DF813108DF802
:1043E00014108DF815108DF8161001A93046FDF740
:1043F0004AF806B070BD30B585B005460C464FF49E
:104400000070009000208DF808008DF80900082049
:104410008DF80A00200A8DF80B00E1B28DF80C101F
:1044200000218DF80D108DF80E108DF80F108DF8FD
:1044300010108DF811108DF8121069462846FDF7FE
:1044400022F805B030BD0000014908807047000027
:104450005605002010B52DED028BFEF729FB18B98B
:1044600000202C49087002E001202A4908702A48DF
:10447000B0F9040042F6F821884202DD7820FFF707
:10448000E3FFFEF733FB002814DD2448FFF748FC68
:10449000234890ED0D0ABDEEC00A10EE100A01B2DD
:1044A0002048FFF7A8FFFEF721FB401E04B220467C
:1044B000FFF7CAFFFEF708FBB0EE408AFEF710FBDD
:1044C00004B2B0EE480A204603F07EFB11480078A3
:1044D00070B90020FFF724FC114890ED0D0ABDEEE5
:1044E000C00A10EE100A01B20E48FFF784FF0EE07A
:1044F00041F28830FFF714FC094890ED0D0ABDEE3B
:10450000C00A10EE100A01B20648FFF774FFBDECB6
:10451000028B10BD7E040020DC02002018FCFFFF8F
:104520002C04002000640040152803D10021094A12
:1045300011600DE0084931F81010064A083A116080
:10454000054A32F8101001EBD1725210014B1A607B
:10455000704700003418004014A4000810B500246F
:1045600008E02146641C054A505CFFF7DDFFC820C7
:1045700003F038FA042CF4DB10BD00003EA4000860
:104580000DE00920FFF7D0FF4FF47A7003F02AFA0C
:104590001520FFF7C9FF4FF47A7003F023FAF0E714
:1045A00010B5052408E02146641E064A505CFFF75A
:1045B000BBFFC82003F016FA002CF4DA1520FFF731
:1045C000B3FF10BD3EA400087047000010B51548A9
:1045D000006840F47000134908601348006840F018
:1045E00001001149086000200F49083108600E4899
:1045F00000680E4908400C4908600D48091D086014
:10460000081F006820F48020091F08600020064968
:104610000C310860FFF700FE4FF00060014980395F
:10462000086010BD88ED00E000380240FFFFF6FE94
:104630001030002410B501210B4800F00BF90128BF
:1046400010D10121084800F0EAF80121064800F0E5
:10465000E3F80D2205490648FBF7C4FD0D21044887
:1046600003F078F910BD000000040040900C002019
:10467000A00C002030B58BB005460C46012102206D
:10468000FFF78AFA01210220FFF776FA02220521BC
:104690002548FEF761F901210220FFF78DFA00217C
:1046A0000220FFF789FA681E0990601E80B2ADF8FB
:1046B00020000020ADF82200ADF8280001221146AC
:1046C0001A4800F0D8F808A9184800F08BF9202003
:1046D000069002208DF81C0003208DF81D0000209C
:1046E0008DF81E0002208DF81F0006A90E48FEF767
:1046F000EBF86020ADF804000120ADF806000020C2
:10470000ADF8100001A9094800F006F90821074892
:1047100000F054F90121054800F072F80121034826
:1047200000F080F80BB030BD0004024000040040EF
:1047300010B501210A4800F08DF801280AD1094975
:10474000086980470021064800F049F964210448BF
:1047500000F041F90121024800F061F810BD0000AD
:10476000000800409C01002010B50121074800F01E
:1047700071F848B10121054800F051F801210348C2
:1047800000F04AF8FCF79AFF10BD0000001000404E
:104790001FB501211020FFF7FFF936208DF800002A
:1047A00001208DF8010000208DF8020001208DF815
:1047B00003006846FFF788F85320ADF80400002096
:1047C000ADF80600ADF80C004FF47A70029001A924
:1047D000014800F007F91FBD0010004010B501218D
:1047E000064800F01FF801221146044800F043F883
:1047F0000121024800F010F810BD00000010004038
:1048000021B1028842F08002028004E002884FF663
:104810007F731A4002807047CA4302827047CA43BE
:104820000282704721B1028842F00102028004E056
:1048300002884FF6FE731A40028070470146486AAC
:10484000704702460020138A0B400BB1012000E0A4
:104850000020704730B50246002000230024158A4E
:1048600005EA0103958905EA010413B10CB10120A1
:1048700000E0002030BD1AB183890B43838102E040
:1048800083898B438381704770B500240022002305
:10489000058C4FF6FE7635400584028C8388048BA8
:1048A0004FF68F752C40B51E2C400D882C43751E7D
:1048B0002A408D892A434D882A43104DA84202D0B0
:1048C0000F4DA84213D14FF6F7752A40CD892A43E0
:1048D0004FF6FB752A408D882A434FF6FF652B4023
:1048E0004FF6FF552B400D8A2B434D8A2B43838077
:1048F00004838D684563028470BD000000000140A0
:10490000000401400A460021018B4FF6F77319405D
:10491000114301837047000070B50024002200237A
:10492000058C4FF6EF7635400584028C8388048B26
:1049300048F6FF752C404FF6FF452C400D884FF68A
:10494000FF7606EA05252C434FF6DF752A408D8950
:1049500006EA05152A434D8806EA05152A43154D32
:10496000A84202D0144DA8421DD14FF67F752A40AF
:10497000CD894FF6FF7606EA05152A434FF6BF7537
:104980002A408D8806EA05152A434FF6FF352B404D
:104990004FF2FF752B400D8A06EA85052B434D8AA1
:1049A00006EA85052B43838004838D688563028432
:1049B00070BD000000000140000401400A460021D3
:1049C000018B4FF2FF7319404FF6FF7303EA022386
:1049D000194301837047C162704781637047416228
:1049E0007047000000220288184B98420ED0184BE6
:1049F00098420BD0B0F1804F08D0164B984205D0AA
:104A0000154B984202D0154B984204D14FF68F7344
:104A10001A404B881A43124B984207D0114B9842C8
:104A200004D04FF6FF431A400B891A4302804B68AB
:104A3000C3620B880385054B984202D0044B984211
:104A400001D18B7A038601238382704700000140E5
:104A5000000401400004004000080040000C004039
:104A600000100040001400407FB504460D460121AF
:104A70000420FFF791F8ADF800500020ADF80200D7
:104A80000194ADF8080069460D48FFF7ABFF01221D
:104A900011460B48FFF7EFFE01210948FFF7C2FE60
:104AA0001E208DF80C0003208DF80D008DF80E00EF
:104AB00001208DF80F0003A8FEF706FF7FBD000060
:104AC0000008004000B595B040F22551354800F08F
:104AD000B6FB002864D0334800F02CFB032002F022
:104AE00081FF01214805FFF747F84FF4E1300290BC
:104AF0000020ADF80C00ADF80E00ADF810000C2051
:104B0000ADF812000020ADF8140002A9254800F00D
:104B1000E5FB0121234800F0F7FA0122402121485A
:104B200000F0FEFA0E208DF8040002208DF805003A
:104B30008DF8060001208DF8070001A8FEF7C4FEDD
:104B40001948FDF7EDF94FF0206006901548001D5B
:104B5000079016480890002009904FF47A700A9048
:104B600000200B904FF480600C9000200D900E9070
:104B70004FF480700F90000210900020119012905E
:104B80001390149006A90848FDF7C6FA01221021D7
:104B90000548FDF7A3FA01210348FDF7B5F900BF69
:104BA00015B000BD00780040586002408008002029
:104BB00000B595B040F22551364800F040FB002882
:104BC00065D0344800F0B6FA032002F00BFF012153
:104BD0008805FEF7D1FF304802900020ADF80C00A8
:104BE000ADF80E004FF48060ADF810000420ADF871
:104BF00012000020ADF8140002A9264800F06EFB58
:104C00000121244800F080FA01224021214800F0CF
:104C100087FA3A208DF8040000208DF80500012065
:104C20008DF806008DF8070001A8FEF74DFE1B4821
:104C3000FDF776F94FF0006006901648001D0790CA
:104C4000174808900020099012200A9000200B902D
:104C50004FF480600C9000200D900E904FF4807007
:104C60000F904FF44030109000201190129013904C
:104C7000149006A90948FDF74FFA012210210748B0
:104C8000FDF72CFA01210548FDF73EF900BF15B0EC
:104C900000BD000000100140A086010040640240F9
:104CA0009405002010B540F225511D4800F0C7FAC8
:104CB00010B31B4800F07CFBC4B21A48008800F413
:104CC0000040C8B91748008800F4804060B10A2C41
:104CD00003D000201349088020E01248008840F4E7
:104CE00000401049088019E00D2C06D10D480088BD
:104CF00040F480400B49088010E00A480088C0F367
:104D00000D0009490C5407480088401C05490880DB
:104D100008460088C72801DD0020088010BD00007B
:104D20000044004024000020AD05002010B588B0EC
:104D3000044601210820FEF71FFF01214804FEF769
:104D40002BFF072205212248FDF706FE0722062138
:104D50001F48FDF701FE6020069002208DF81C0020
:104D600003208DF81D0000208DF81E0001208DF815
:104D70001F0006A91648FDF7A7FD02940020ADF814
:104D80000C00ADF80E00ADF81000ADF814000C20CA
:104D9000ADF8120002A90F4800F0A0FA01210D4859
:104DA00000F0B2F9012240F225510A4800F071FAF0
:104DB00026208DF8040003208DF805008DF80600EC
:104DC00001208DF8070001A8FEF77EFD08B010BD98
:104DD000000C02400044004010B540F225511D482F
:104DE00000F02DFA10B31B4800F0E2FAC4B21A48E2
:104DF000008800F40040C8B91748008800F48040DB
:104E000060B10A2C03D000201349088020E012482A
:104E1000008840F400401049088019E00D2C06D1AC
:104E20000D48008840F480400B49088010E00A4893
:104E30000088C0F30D0009490C5407480088401C45
:104E40000549088008460088C72801DD0020088041
:104E500010BD0000004800402C0000207506002016
:104E600010B588B0044601210820FEF785FE012117
:104E70008804FEF791FE072208212348FDF76CFD08
:104E8000072209212048FDF767FD4FF44070069086
:104E900002208DF81C0003208DF81D0000208DF8E5
:104EA0001E0001208DF81F0006A91748FDF70CFD14
:104EB00002940020ADF80C00ADF80E00ADF8100023
:104EC000ADF814000C20ADF8120002A90F4800F054
:104ED00005FA01210D4800F017F9012240F2255191
:104EE0000A4800F0D6F927208DF8040003208DF839
:104EF00005008DF8060001208DF8070001A8FEF7D7
:104F0000E3FC08B010BD0000000C02400048004067
:104F100010B588B0044601214020FEF72DFE012186
:104F20002020FEF759FE08220E212348FDF714FD2C
:104F3000082209212048FDF70FFD4FF4844002901C
:104F400002208DF80C0000208DF80E0003208DF853
:104F50000D0000208DF80F0002A91748FDF7B4FCE2
:104F600004940020ADF81400ADF81600ADF8180058
:104F70000C20ADF81A000020ADF81C0004A90F4861
:104F800000F0ACF9012240F225510C4800F081F903
:104F900001210A4800F0B8F847208DF804000020ED
:104FA0008DF805008DF8060001208DF8070001A896
:104FB000FEF78AFC08B010BD001802400014014042
:104FC00010B540F225513B4800F039F900286FD068
:104FD000384800F0EDF9C4B237480078092861D2AA
:104FE000DFE800F005111D252D353D4551000A2C47
:104FF00005D131480078401C2F49087002E000209C
:105000002D49087052E00D2C05D12B480078401C2A
:105010002949087002E000202749087046E0264828
:105020000078401C24490870244804703EE022485F
:105030000078401C204908702048447036E01E4823
:105040000078401C1C4908701C4884702EE01A48E7
:105050000078401C184908701848C47026E01648AB
:105060000078401C14490870144804711EE00D2C8F
:1050700005D111480078401C0F49087002E000205B
:105080000D49087012E00A2C08D10C4800F0BAF95A
:105090000B480068C0430B49C1F884020020064950
:1050A000087003E000200449087000BF00BF00BF83
:1050B00010BD0000001401402E0000203D0700201C
:1050C000840243420000434210B504462046FFF7E5
:1050D0001FFF10BD10B503460C46002203E0985C8C
:1050E00000F004F8521CA242F9DB10BD00BF0549D4
:1050F000098801F040010029F9D00249091D088002
:10510000704700000014014021B1828942F400522E
:10511000828104E082894DF6FF731A4082817047D4
:105120001AB1838A0B43838202E0838A8B43838292
:105130007047000010B504463248844208D101216E
:105140001020FEF759FD00211020FEF755FD57E015
:105150002D48844209D101214804FEF72DFD00218C
:105160004FF40030FEF728FD4AE02848844209D178
:1051700001218804FEF720FD00214FF48020FEF776
:105180001BFD3DE02248844209D10121C804FEF7FD
:1051900013FD00214FF40020FEF70EFD30E01D4806
:1051A000844209D101210805FEF706FD00214FF4D4
:1051B0008010FEF701FD23E01748844208D1012149
:1051C0002020FEF719FD00212020FEF715FD17E035
:1051D0001248844209D101218807FEF7EDFC002125
:1051E0004FF08040FEF7E8FC0AE00D48844207D10A
:1051F00001214005FEF7E0FC00216005FEF7DCFC24
:1052000010BD000000100140004400400048004074
:10521000004C004000500040001401400078004065
:10522000007C004002460020B1F5007F00D100BFA5
:1052300013880B400BB1012000E00020704770B5CF
:105240000246002400230025002040F66A16B142E1
:1052500000D100BFC1F3421501F01F03012606FA79
:1052600003F3012D02D19689334006E0022D02D1CD
:10527000168A334001E0968A33400C12012606FA62
:1052800004F41688344013B10CB1012000E0002072
:1052900070BDF0B50346002400260025002040F62E
:1052A0006A17B94200D100BF1846C1F3421401F099
:1052B0001F06012707FA06F5012C01D10C3004E086
:1052C000022C01D1103000E014301AB107682F43CE
:1052D000076002E00768AF430760F0BD2DE9FF47B4
:1052E00005460E460024A14600BFA046B08900B185
:1052F00000BF2C8A24F44054F08804432C82AC89EB
:1053000041F20C608443B0883189084371890843B5
:105310000443AC81AC8A24F44074B0890443AC8269
:105320006846FEF779FC2048854202D01F48854236
:1053300002D1DDF80C9001E0DDF80890A88900F4B6
:10534000004040B109EBC90000EB09103168490089
:10535000B0FBF1F707E009EBC90000EB0910316879
:105360008900B0FBF1F76420B7FBF0F004012009DD
:10537000642101FB1078A88900F4004040B132207C
:1053800000EBC800B0FBF1F000F00700044308E0B8
:10539000322000EB08106421B0FBF1F000F00F00A8
:1053A00004432C81BDE8FF87001001400014014038
:1053B00001468888C0F308007047C1F30802828064
:1053C000704700000EB56846FDF706FB9DF801002A
:1053D000012811D10A4890ED010ADDED010A30EEF5
:1053E000200A80ED010A90ED000ADDED020A30EEA0
:1053F000200A80ED000A00E000BF00BF0EBD0000E3
:105400006408002010B52DED028B0446B4F90100AC
:1054100008EE900AB4F9030008EE100A314800784B
:1054200000284AD02078132845D2DFE800F0440A4B
:105430000D22262D34383C444444444444414444E1
:105440003D0003F05DFE37E0B8EEE80ADFED260A26
:1054500020EE200A254880ED010AB8EEC80ADFEDEB
:10546000220A20EE200A80ED020A01201F4948701E
:1054700022E000201D4948701EE00120FEF7A8FE32
:1054800001201A49087017E00020FEF7A1FE002055
:105490001649087010E00120FEF77EFF0CE00020A6
:1054A000FEF77AFF08E007E00020FEF745FF03E083
:1054B000FEF74EFD00E000BF11E0207818B9012092
:1054C000FEF73AFF0BE02078102803D10920FEF701
:1054D0003FFF04E020780F2801D1FEF739FDBDEC35
:1054E000028B10BD5E0500206F12833A7408002005
:1054F00000BFFEE72DE9FE4F82460C4615461E46CC
:10550000DDF830800027B946E0B28DF80000200AAF
:105510008DF80100E8B28DF80200280A8DF803002A
:10552000F0B28DF80400300A8DF8050008F0FF0095
:105530008DF806004FEA18208DF80700082168460C
:10554000FEF7DEFB81468DF8089000BF0DE01DF8E8
:1055500007105046FFF731FF00BF40215046FFF7CC
:1055600061FE0028F9D0781CC7B2092FEFDBBDE837
:10557000FE8F000010B5324800783249087030487C
:105580000078062859D2DFE800F0030C22353C3DB4
:105590002D480068B0F57A6F02D9012028490870BB
:1055A0004BE0FDF721FA012802D1022024490870BE
:1055B000FDF784FA012802D1032021490870FDF784
:1055C000F7F9012802D105201D49087035E0FDF7E3
:1055D0000BFA10B901201A490870FDF76FFA01287B
:1055E00002D1032016490870002211460120FEF75F
:1055F000B1FD22E0FDF762FA10B9012010490870F0
:105600001BE01AE0FDF7D4F9012804D001200C4971
:105610000870FEF797FCFDF7E7F9012804D1022096
:1056200007490870FEF78EFCFDF716FA044622467D
:1056300001210020FEF78EFD00BF00BF10BD00005D
:105640007D0400207C040020CC0400200FB4054B16
:1056500010B503A9044A029801F05AFC10BC5DF889
:1056600014FB0000357A00082800002003B40198DC
:105670004100009850EAC12018BF04204A0D18BF0D
:1056800040F0010040F2FF72B2EB515F08BF40F002
:105690000200012808BF052002B07047000000008A
:1056A00070B5C1482DED020B2DED0E8B82B0119D12
:1056B00025F000449FEDBEDB9FEDBFEB84423EDB57
:1056C000A4F140511098A1F17F6108430FD0BC486C
:1056D000844202DC28D1109830B39DED100B02B04B
:1056E000BDEC0E8B02B0BDE8704001F0F5BA9DED47
:1056F000100B53EC1D2B51EC100BFAF72CFE9DED0B
:10570000100B41EC180B53EC1E2B51EC100BFAF75D
:1057100022FE53EC182BFAF777FD41EC100B02B088
:10572000BDEC0E8B02B070BD012001F029FB02B070
:10573000BDEC0E8B02B0BDE8704001F0E1BAA148AB
:105740009FEDA18B844256DA9DED100BB4F1795F89
:105750000ADA51EC100BFFF789FF042808BF01F0AB
:10576000EFFA9DED100BDAE753EC102B51EC100B18
:10577000FAF7F1FD41EC190B95480621B0EE490A04
:10578000F0EE690A784401F010FA53EC192B51EC51
:10579000100BFAF7E0FD41EC1A0B8E48B0EE490A07
:1057A000F0EE690A0421784401F0FFF953EC192B5B
:1057B00051EC100BFAF7CFFD53EC182BFAF724FD40
:1057C00041EC100B51EC1A0B53EC102BFAF735FE91
:1057D000CDE900019DED000B53EC102B9DED100B5E
:1057E00051EC100BFAF7B7FD9DED101B53EC112B8C
:1057F000FAF70AFDD2E09DED100B51EC100B02F010
:105800000CF953EC182BFAF7A3FD9FED730BCDE9C0
:10581000000153EC102B9DED000B51EC100BFAF72F
:105820009AFD41EC190B6E480621B0EE490AF0EEE4
:10583000690A784401F0B9F953EC192B51EC100BBB
:10584000FAF789FD41EC1B0B6648B0EE490AF0EE11
:10585000690A0421784401F0A8F953EC192B51ECA2
:10586000100BFAF778FD53EC182BFAF7CDFC41EC4E
:105870001C0B51EC190B03F0DCFC41EC180B5A48E3
:105880009FED5BABA04222DC53EC1C2B51EC1B0BBD
:10589000FAF7D3FDCDE900019DED000B51EC180B9B
:1058A00053EC102BFAF757FD53EC182BFAF7ACFC1E
:1058B00053EC1A2BFAF74FFD53EC1D2BFAF745FD6D
:1058C00053EC1E2BFAF744FD41EC100B5FE08DED1D
:1058D000008B002000909DED000B51EC180B53EC59
:1058E000102BFAF791FC9DED000B41EC1E0B53ECD5
:1058F000102B51EC100BFAF72EFD53EC192BFAF785
:1059000027FD53EC1E2BFAF798FD41EC190B53ECD5
:105910001C2B51EC1B0BFAF790FD41EC1B0B53ECCD
:105920001A2B51EC190BFAF716FD53EC1D2BFAF755
:105930000FFD41EC190B53EC1A2B51EC180BFAF735
:105940000AFD53EC1B2BFAF706FD53EC192BFAF763
:10595000FCFC9DED000B41EC180B53EC1A2B51ECA9
:10596000100BFAF7F8FC9FED249B53EC192BFAF778
:10597000EFFC41EC100B51EC180B53EC102BFAF729
:10598000E4FC53EC192BFAF7E3FC41EC100B002D6F
:105990003FF7C5AE51EC100B81F0004141EC100B0C
:1059A000BDE60000000000000000F03F0000000025
:1059B000075C143326A6913C182D4454FB21F93F73
:1059C0000000F07F0000E03F000000000000F03F1A
:1059D000F84F000006500000000000000000E03F0B
:1059E0004A4F0000584F00003333EF3F00000000E3
:1059F0000000000000000040182D4454FB21E93F46
:105A000070B59B482DED020B2DED068B079D25F003
:105A10000044A04218DC9748844202DC0AD1069870
:105A200040B19DED060BBDEC068B02B0BDE87040A9
:105A300001F052B9002DCCBF9FED8F0B9FED900B65
:105A4000BDEC068B02B070BD8F48A04215DD8F48BB
:105A5000A042D8BF4FF0FF3458DD9DED060B51EC4E
:105A6000100BFFF703FE042808BF01F069F99DED54
:105A7000060BBDEC068B02B070BD9DED060B51EC24
:105A8000100B01F0CAFFCDE9060181489FED828B22
:105A9000A0423CDD8248A0421FDD00249FED82AB86
:105AA0009DED060B53EC1A2B51EC100BFAF7ACFBE7
:105AB0009DED060B41EC190B53EC1A2B51EC100B1E
:105AC000FAF749FC53EC182BFAF73FFC53EC192B6F
:105AD000FAF7B3FCCDE9060149E09DED060B012480
