:020000040800F2
:10000000E009002021220008D1020008D3020008E4
:10001000D7020008DB020008DF0200080000000031
:10002000000000000000000000000000E3020008E3
:10003000E502000800000000E7020008E9020008ED
:100040003B2200083B2200083B2200083B2200081C
:100050003B2200083B2200083B2200083B2200080C
:100060003B2200083B2200083B2200083B220008FC
:100070003B2200083B2200083B2200083B220008EC
:100080003B2200083B2200083B2200083B220008DC
:100090003B2200083B2200083B2200083B220008CC
:1000A0003B2200083B2200083B2200083B220008BC
:1000B000C10C00083B2200083B2200083B2200083C
:1000C0003B2200083B2200083B2200083B2200089C
:1000D0003B220008872100083B2200083B22000841
:1000E0003B2200083B2200083B2200083B2200087C
:1000F0003B2200083B2200083B2200083B2200086C
:100100003B2200083B2200083B2200083B2200085B
:100110003B2200083B2200083B2200083B2200084B
:100120003B2200083B2200083B2200083B2200083B
:100130003B2200083B2200083B2200083B2200082B
:100140003B2200083B2200083B2200083B2200081B
:100150003B2200083B2200083B2200083B2200080B
:100160003B2200083B2200083B2200083B220008FB
:100170003B2200083B2200083B2200083B220008EB
:100180003B2200083B22000800F002F800F04CF887
:100190000AA090E8000C82448344AAF10107DA45E2
:1001A00001D100F041F8AFF2090EBAE80F0013F0E8
:1001B000010F18BFFB1A43F001031847D864000071
:1001C000F8640000103A24BF78C878C1FAD8520702
:1001D00024BF30C830C144BF04680C6070470000C1
:1001E0000023002400250026103A28BF78C1FBD840
:1001F000520728BF30C148BF0B607047662906F020
:100200008481642903F0D085002070471FB506F073
:1002100072F904F08FF804000020002105F050FB73
:10022000E0601FBD10B510BD04F0A4F91146FFF742
:10023000EDFF00F009F804F0C2F903B4FFF7F2FF94
:1002400003BC01F041FF00002DED068B84B000F0EF
:1002500055F900F0BFFB2CE001F02EFC01F037F85F
:1002600001F0E8FC134890ED140A10EE101A08464D
:1002700006F0D0F841EC180B0E4890ED150A10EE80
:10028000101A084606F0C6F841EC190B094890ED23
:10029000160A10EE101A084606F0BCF841EC1A0BCC
:1002A0008DED028B8DED009B53EC1A2B02A003F019
:1002B0003BFDD1E7140000207961773A2566207074
:1002C00069743A256620726F6C3A25660D0A000043
:1002D000704700BFFEE700BFFEE700BFFEE700BFBC
:1002E000FEE7704770477047704700000CB500206C
:1002F000019000907648006840F4803074490860AE
:1003000000BF7348006800F4003000900198401C62
:100310000190009818B90198B0F5A04FF1D16C4840
:10032000006800F4003010B10120009001E00020CE
:1003300000900098012846D165484030006840F0A0
:1003400080506349403108606248006840F4404092
:10035000604908605E48083000685D4908310860FF
:100360000846006840F4004008600846006840F411
:10037000A05008605848091F0860081F006840F036
:100380008070091F086000BF5148006800F00070CD
:100390000028F9D040F20570504908604C480830F8
:1003A000006820F003004A490831086008460068E8
:1003B00040F00200086000BF45480830006800F0C7
:1003C0000C000828F8D10CBD10B54548006840F471
:1003D0007000434908603E48006840F001003C4915
:1003E000086000203A4908310860394800683D49F2
:1003F0000840374908603C48091D0860081F00682C
:1004000020F48020091F0860002031490C31086069
:10041000FFF76CFF4FF0006031498039086010BD74
:1004200070B500200022022300240221284D083547
:100430002D6805F00C0020B1042806D0082834D11E
:1004400007E02A4D2A4E356033E02A4D284E3560AC
:100450002FE01F4D2D1D2D68C5F380541C4D2D1D03
:100460002D6805F03F0154B1224DB5FBF1F5184E52
:10047000361D3668C6F3881605FB06F209E01B4DEB
:10048000B5FBF1F5124E361D3668C6F3881605FB2E
:1004900006F20F4D2D1D2D68C5F301456D1C6B0037
:1004A000B2FBF3F5124E356003E0104D104E35608F
:1004B00000BF00BF064D08352D68C5F303150E4E6D
:1004C000705D0B4D2D68C540094E356070BD000054
:1004D000003802400070004008544007003C0240D1
:1004E00088ED00E0FFFFF6FE103000240024F40049
:1004F0000000002000127A000400002010B54FF424
:10050000A06001F0ADFEA82001F05CFD4FF4E130E9
:1005100001F0E7FD00F004F800F0B4FB10BD0000AE
:100520001CB50121084602F02FFAC02000900120DE
:100530008DF8040000208DF8060003208DF80500DA
:1005400001208DF807006946034801F07FFFC021B4
:10055000014801F0F7FF1CBD000002401CB501215D
:10056000022002F011FA4FF44070009001208DF843
:10057000040000208DF8060003208DF805000120FE
:100580008DF807006946934801F060FF0120924909
:1005900008609249C1F8A4021CBD10B58D480068DE
:1005A00020F440208B4908600846006840F4802011
:1005B0000860032001F020FD01208749091D086023
:1005C0008649C1F8A002042001F016FD00208249EE
:1005D000091D0860042001F00FFD00207F49C1F8CB
:1005E000A00210BD10B57B48006820F44020794976
:1005F00008600846006840F480200860032001F08D
:10060000FBFC0020744908607449C1F8A40204206E
:1006100001F0F2FC0120704908607049C1F8A402A1
:10062000042001F0E9FC10BD10B500246948006801
:1006300020F44020674908600846006808600320ED
:1006400001F0DAFC01206449091D086001F0D4FCC6
:1006500001206249C1F8A00201F0CEFC07E0601C55
:10066000C4B2FA2C03DDFFF7BDFF012010BD5A48CC
:100670007C3800680028F2D15749086000BFF5E7D0
:1006800010B50020544908605248006820F440200A
:10069000504908600846006840F480200860032044
:1006A00001F0AAFC00204D49C1F8A402022001F08B
:1006B000A3FC012048490860022001F09DFC0020B5
:1006C0004649C1F8A00210BD10B50020424908609B
:1006D0004048006820F440203E4908600846006811
:1006E00040F480200860032001F086FC01203B4993
:1006F000C1F8A402022001F07FFC01203649086005
:10070000022001F079FC00203449C1F8A00210BD9C
:1007100070B504462F48006820F440202D49086039
:100720000846006840F480200860032001F064FC63
:10073000002029490860002517E0E0092649091D25
:1007400008606006040E022001F056FC01202349D7
:10075000C1F8A002022001F04FFC00201E490860F1
:10076000022001F049FC681CC5B2082DE5DB70BD14
:1007700070B5054600241748006820F4402015494C
:100780000860084600680860032001F035FC002678
:1007900016E0002010490860022001F02DFC012025
:1007A0000E49C1F8A0026006040E0B487C380068B0
:1007B00008B1601CC4B2012001F01EFC701CC6B25E
:1007C000082EE6DB15B9FFF77FFF01E0FFF758FFC2
:1007D000204670BD00040240A0824042008040429A
:1007E00070B504460D461646FFF7D7FE002141EAD4
:1007F0004401C8B2FFF78CFFFFF716FF18B1FFF7EF
:10080000F1FE012070BD2846FFF782FFFFF70CFFC5
:100810003046FFF77DFFFFF707FF18B1FFF7E2FE55
:100820000120EFE7FFF7DEFE0020EBE72DE9F041C6
:1008300006460F4614461D46FFF7AFFE002141EA6B
:100840004601C8B2FFF764FFFFF7EEFE20B1FFF7E5
:10085000C9FE0120BDE8F0813846FFF759FFFFF7D8
:10086000E3FEFFF79AFE012101EB4601C8B2FFF754
:100870004FFFFFF7D9FE0DE0012C04D10020FFF758
:1008800077FF287003E00120FFF772FF2870601ED9
:10089000C4B26D1C002CEFD1FFF7A4FE0020D9E7F5
:1008A00008B500220A210C20FFF79AFF0A2001F068
:1008B000EBFB0F220A210C20FFF792FF0A2001F028
:1008C000E3FB6B46032210210C20FFF7AFFF002251
:1008D0000A210C20FFF784FF0A2001F0D5FB162225
:1008E0000A210C20FFF77CFF0A2001F0CDFB08BD98
:1008F00070B504460025BC2C01DB012510E0622CFC
:1009000001DB02250CE02A2C01DB032508E0142C76
:1009100001DB042504E00A2C01DB052500E00625A7
:100920002A461A216920FFF75BFF70BD70B50446A7
:10093000B4F57A7F01DD4FF47A74042C00DA0424D4
:100940004FF47A7090FBF4F0401EC5B22A4619218C
:100950006920FFF745FF0546264604EBD671C1F333
:100960004F00FFF7C5FF70BD10B50446E006020E4C
:100970001C216920FFF734FF10BD10B50446E006C6
:10098000020E1B216920FFF72BFF10BD70B5044636
:100990000D46FFF702FE002141EA4401C8B2FFF70D
:1009A000B7FEFFF741FE2846FFF7B2FEFFF73CFE19
:1009B000FFF7F3FD012101EB4401C8B2FFF7A8FEE8
:1009C000FFF732FE0020FFF7D3FE0646FFF70AFED0
:1009D000304670BD10B5FFF7C1FD75216920FFF7E6
:1009E000D5FF732804D1A0A003F09EF9002010BD0C
:1009F0000120FCE738B504466B46022241216920FC
:100A0000FFF714FF9DF801009DF8001040EA012057
:100A100000B2208038BD2DE9FC4104460D46164643
:100A20006B46062243216920FFF700FF0746BFB946
:100A30009DF801009DF8001040EA012000B22080DE
:100A40009DF803009DF8021040EA012000B22880C2
:100A50009DF805009DF8041040EA012000B23080A6
:100A60003846BDE8FC812DE9FC4104460D4616469A
:100A70006B4606223B216920FFF7D8FE0746BFB927
:100A80009DF801009DF8001040EA012000B220808E
:100A90009DF803009DF8021040EA012000B2288072
:100AA0009DF805009DF8041040EA012000B2308056
:100AB0003846BDE8FC812DE9FC4104460D4616464A
:100AC0006B46072203210C20FFF7B0FE9DF806704D
:100AD00007F00800B8B99DF800009DF8011040EA41
:100AE000012000B220809DF802009DF8031040EA2A
:100AF000012000B228809DF804009DF8051040EA0E
:100B0000012000B2308017B90120BDE8FC8100202F
:100B1000FBE72DE9FC4104460D46164602210C2058
:100B2000FFF734FF00F0010018B36B4607220321E2
:100B30000C20FFF77BFE9DF8067007F00800B8B99F
:100B40009DF800009DF8011040EA012000B22080CD
:100B50009DF802009DF8031040EA012000B22880B1
:100B60009DF804009DF8051040EA012000B2308095
:100B700000BFBDE8FC8110B5414A911E881EFFF7F9
:100B80004AFF3F4A083A911E881EFFF76CFF3C4A15
:100B9000921D911E881EFFF78EFF3948801FFFF7B8
:100BA00029FF37480C380189408B081A00B23449B4
:100BB0000C39088108464189808B081A00B23049F7
:100BC0000C39488108468189C08B081A00B22C492B
:100BD0000C3988810846C189008C081A00B228495E
:100BE0000C39C8810846018A408C081A00B2244991
:100BF0000C3908820846418A808C081A00B22049C4
:100C00000C39488210BD2DE9F04105460E461746C5
:100C10009846FFF7C2FC002141EA4501C8B2FFF740
:100C200077FDFFF701FD20B1FFF7DCFC0120BDE8F7
:100C3000F0813046FFF76CFDFFF7F6FC00240CE076
:100C400018F80400FFF764FDFFF7EEFC18B1FFF79A
:100C5000C9FC0120EBE7601CC4B2BC42F0DBFFF72B
:100C6000C1FC0020E3E700003635303049442069FC
:100C70007320636F7272656374210D0A00000000B7
:100C8000200000200EB50121084601F0C6FE4FF0FD
:100C9000FF3001905320ADF800000020ADF80800AF
:100CA000ADF802000121880702F004FB69464FF00D
:100CB000804002F094FA0121880702F019FB0EBD72
:100CC00010B50121880702F042FF38B101218807E1
:100CD00002F04EFF0121880702F036FF10BD4FF0F1
:100CE0008040406A4FF47A71B0FBF1F07047000029
:100CF000F0EE400AF6EE001A60EEA11AB0EE611AAC
:100D0000B0EE600A10EE100AFE49A1EB600000EEA2
:100D1000100A21EE002AF7EE081A42EE401A61EEA0
:100D2000801AB0EE610A70472DE9F04304460D4683
:100D3000DDE9076700200021012041E0DFF8C8C39A
:100D40003CF81080A0F1010CDFF8BC9329F81C805E
:100D500009F1160C3CF81090A0F1010CDFF8A88303
:100D600008F1160828F81C9008F1160C3CF81090B1
:100D7000A0F1010C08F1160828F81C9008F1160CD7
:100D80003CF81090A0F1010C08F1160828F81C900E
:100D900008F1160C3CF81090A0F1010C08F11608AF
:100DA00028F81C9008F1160C3CF81090A0F1010CEA
:100DB00008F1160828F81C9000F1010C0CF0FF0057
:100DC0000A28BBDBDFF840C3ACF81240ACF828506F
:100DD000ACF83E20ACF85430ACF86A60ACF88070E7
:100DE000002008E0DFF820C33CF910C0614400F1A6
:100DF000010C0CF0FF000A28F4DB4FF00A0C91FB09
:100E0000FCFC0FFA8CFCDFF80083A8F814C000216A
:100E100000200AE0DFF8F0C20CF1160C3CF910C01B
:100E2000614400F1010C0CF0FF000A28F2DB4FF0E6
:100E30000A0C91FBFCFC0FFA8CF8DFF8CCC2ACF882
:100E40002A80002100200AE0DFF8BCC20CF12C0C43
:100E50003CF910C0614400F1010C0CF0FF000A28BD
:100E6000F2DB4FF00A0C91FBFCFC0FFA8CF8DFF878
:100E700098C2ACF84080002100200AE0DFF888C268
:100E80000CF1420C3CF910C0614400F1010C0CF073
:100E9000FF000A28F2DB4FF00A0C91FBFCFC0FFA72
:100EA0008CF8DFF864C2ACF85680002100200AE01C
:100EB000DFF854C20CF1580C3CF910C0614400F149
:100EC000010C0CF0FF000A28F2DB4FF00A0C91FB3A
:100ED000FCFC0FFA8CF8DFF830C2ACF86C80002113
:100EE00000200AE0DFF820C20CF16E0C3CF910C0C3
:100EF000614400F1010C0CF0FF000A28F2DB4FF016
:100F00000A0C91FBFCFC0FFA8CF8DFF8FCC1ACF882
:100F10008280BDE8F083F0B503460C460020002136
:100F2000012019E0794D35F81060451E774F27F8FC
:100F3000156007F1160535F81070451E734E16360C
:100F400026F8157006F1160535F81070451E163690
:100F500026F81570451CE8B20A28E3DB6B4D6B825E
:100F60002C85EA87002005E0684D35F910502944AA
:100F7000451CE8B20A28F7DB0A2591FBF5F52DB2EE
:100F8000624EB5820021002006E0604D163535F92D
:100F900010502944451CE8B20A28F6DB0A2591FBCB
:100FA000F5F52EB2594D6E850021002006E0574D13
:100FB0002C3535F910502944451CE8B20A28F6DBD7
:100FC0000A2591FBF5F52EB2504DA5F84060F0BD15
:100FD0004E4B9B8A03804D4B5B8D0B804B4BB3F884
:100FE00040301380704710B52DED048B84B001AAFA
:100FF00002A903A8FFF7ECFFBDF90C0000284BDAAB
:10100000BDF90800002847DABDF90C00BDF9081049
:1010100090FBF1F4204604F0B3FE41EC190BB0EE66
:10102000490AF0EE690A04F007FBB0EE408AF0EEE0
:10103000608A9FED370B53EC102B51EC180B04F02A
:10104000F1FF14D89FED340A344880ED000A9FED7B
:10105000340A344880ED000A9FED330A334880EDAE
:10106000000A9FED330A334880ED000A2BE19FED23
:10107000320A2A4880ED000A9FED300A294880EDA7
:10108000000A9FED2F0A294880ED000A9FED2D0AE6
:10109000284880ED000A16E1BDF90C00002873DA3B
:1010A000BDF9080000286FDDBDF90C00BDF908107E
:1010B00090FBF1F4204604F063FE41EC190BB0EE16
:1010C000490AF0EE690A04F0B7FAB0EE408AF0EE91
:1010D000608A9FED0F0B53EC102B51EC180B04F0B2
:1010E000A1FF3BD89FED180A0C4880ED000A9FED48
:1010F0000C0A0C4880ED000A9FED140A0B4880EDA5
:10110000000A25E0DF59375FF0000020740100205D
:10111000000000000000F03F0AD7A3BB70000020D1
:10112000A8C64BBE74000020BE9F7A3F7800002006
:101130004ED111BC7C0000206F1203BC7B140EBF8B
:10114000E17A543F6F1203BB0AD7A33B355E7ABFE7
:101150009FEDFE0AFE4880ED000AB4E01FED060A8E
:10116000FC4880ED000A9FEDFC0AFC4880ED000A77
:101170009FEDFB0AFB4880ED000A9FEDFB0AF44857
:1011800080ED000A9FE0FFE7BDF90C0000284BDD71
:10119000BDF90800002847DDBDF90C00BDF90810B5
:1011A00090FBF1F4204604F0EBFD41EC190BB0EE9E
:1011B000490AF0EE690A04F03FFAB0EE408AF0EE18
:1011C000608A1FED2D0B53EC102B51EC180B04F023
:1011D00029FF14D89FEDE50ADE4880ED000A1FEDD7
:1011E000250ADE4880ED000A1FED330ADD4880ED58
:1011F000000A1FED370AD64880ED000A63E09FED34
:10120000DC0AD44880ED000A9FEDD50AD34880ED72
:10121000000A9FEDD10AD34880ED000A9FEDD40A61
:10122000CB4880ED000A4EE0BDF90C0000284ADDF5
:10123000BDF90800002846DABDF90C00BDF9081018
:1012400090FBF1F4204604F09BFD41EC190BB0EE4D
:10125000490AF0EE690A04F0EFF9B0EE408AF0EEC8
:10126000608A1FED550B53EC102B51EC180B04F05A
:10127000D9FE14D89FEDBF0AB64880ED000A9FED55
:10128000BE0AB64880ED000A1FED5B0AB54880ED46
:10129000000A9FEDBA0AAE4880ED000A13E09FED08
:1012A000B50AAC4880ED000A1FED5B0AAB4880ED43
:1012B000000A9FEDB30AAB4880ED000A9FEDB10A2A
:1012C000A34880ED000A04B0BDEC048B10BD00B54E
:1012D0002DED108B93B09F4890ED000AD0ED000AE1
:1012E00020EE200A8DED060A90ED000A9B48D0ED15
:1012F000000A20EE200AF0EE40DA964890ED000A4F
:101300009848D0ED000A20EE200AB0EE409A9148AD
:1013100090ED000A8E48D0ED000A20EE200A8DEDF7
:10132000050A8E4890ED000AD0ED000A20EE200A52
:10133000B0EE40EA90ED000A8A48D0ED000A20EEB7
:10134000200A8DED040A854890ED000A8048D0ED12
:10135000000A20EE200AF0EE409A824890ED000A42
:10136000D0ED000A20EE200AB0EE40AA90ED000A6F
:101370007748D0ED000A20EE200AF0EE40EA90ED2A
:10138000000AD0ED000A20EE200AB0EE40FA7E48B6
:10139000B0F9000000EE100AB8EEC00A7B4880EDFC
:1013A000000A7948B0F9020000EE100AB8EEC00A4F
:1013B000774880ED000A7448B0F9040000EE100A86
:1013C000B8EEC00A734880ED000A6F4890ED0D0A30
:1013D000DFED710A80EE201A704880ED001A6A482D
:1013E00090ED0E0ADFED6C0A80EE201A6C4880ED5D
:1013F000001A654890ED0F0ADFED670A80EE201AAB
:10140000684880ED001A6048B0F90E0000EE100A3E
:10141000B8EEC00A644880ED000A5B48B0F91000DD
:1014200000EE100AB8EEC00A604880ED000A564887
:10143000B0F9120000EE100AB8EEC00A5C4880ED68
:10144000000AFFF74CFC5B490860084600685A49EF
:101450000968401A00EE100AB8EE400ADFED570A9C
:1014600080EE201AF0EE418A524800685249086026
:101470004648D0ED000A90ED001A60EE810A44481B
:1014800090ED001AD0ED001A41EE210A414890ED8E
:10149000001AD0ED001A41EE210AB0EE600AFFF703
:1014A00027FCB0EE408A394890ED000A20EE080A89
:1014B00080ED000A364890ED000A20EE080A80ED23
:1014C000000A344890ED000A20EE080A80ED000A78
:1014D0003548D0ED000A90ED001A60EE810A3348DD
:1014E00090ED001AD0ED001A41EE210A304890ED3F
:1014F000001AD0ED001A41EE210AB0EE600AFFF7A3
:10150000F7FBB0EE408A284890ED000A20EE080A6A
:1015100080ED000A254890ED000A20EE080A80EDD3
:10152000000A234890ED000A20EE080A80ED000A28
:101530001D4890ED000AF0EE000A20EE200AF6EEBB
:10154000000A70EECA0A70EECF0A39E0A69B443C4E
:101550007C0000207000002068910DBF7400002006
:10156000E17A54BF7800002099BB16BB52499D3ADE
:1015700099BB163B0AD7233B355E7A3F6F12033C7B
:10158000295C0FBFBC74933B14000020980000201E
:101590009C000020A0000020333365428C00002016
:1015A0009000002094000020A4000020A80000204B
:1015B000AC000020B4000020B00000200000FA447D
:1015C00020EE200AFE48D0ED000AB0EE001A60EED0
:1015D000811ADDED040A9DED051A70EEC10A01EED7
:1015E000A00AF848D0ED000AB0EE001A60EE810AB9
:1015F00039EE891A00EE810A8DED110AF24890ED5C
:10160000000AF0EE000A20EE201A9DED040ADDED3E
:10161000050A30EE200A21EE000AE948D0ED000A62
:10162000B0EE001A60EE810AB6EE001A31EE4E1AE4
:1016300031EE4F1A00EE810AE248D0ED000AB0EE1A
:10164000001A60EE810A3EEEED1A00EE810A8DED81
:10165000100ADD4890ED000AF0EE000A20EE200AA4
:1016600079EEC90A20EE200AD548D0ED000AB0EE86
:10167000001A60EE810A3EEEAD1A00EE810AD148F2
:10168000D0ED000AB0EE001A60EE810AB6EE001A44
:1016900031EE4E1A31EE4A1A00EE810AF0EE40AAFF
:1016A0009DED110A60EE000A9DED100A40EE000A61
:1016B00010EE901A084604F0ADFECDE900019DED54
:1016C000000B03F0C3FF8DED020B9DED020B51ECFF
:1016D000100B04F017F90FEE900ACDED0FAA39EEBA
:1016E000C90AF0EE000A20EE200A8DED0E0A3DEE4A
:1016F000AE0AF0EE000A20EE200A8DED0D0A9DEDF7
:10170000060A30EE4E0A30EE4A0A30EE0F0A8DED30
:101710000C0AB0EE000A2FEE800AF6EE000A70EE18
:10172000CA0A70EECF0A20EE200ADDED0FAAF0EE15
:10173000000A6AEEA00A39EEC91A00EE810A8DEDA0
:101740000B0AB0EE000A2FEE801A9DED040ADDEDC3
:10175000050A30EE600A21EE000ADDED0FAAF0EE78
:10176000000A6AEEA00A3DEEAE1A00EE810A8DED87
:101770000A0AB0EE000A2FEE800A79EE290A20EE5E
:10178000200ADDED0FAAF0EE000A6AEEA00AB6EE1E
:10179000001A31EE4E1A31EE4A1A00EE810A8DED32
:1017A000090A8A48D0ED000A9DED0C0A20EE800A55
:1017B000874890ED001ADDED0D0A01EE600A8048C1
:1017C00090ED001ADDED090A21EE201A7D48D0EDDA
:1017D000001ADDED0A0A01EEE01A30EE010A8DED85
:1017E000080A7B48D0ED000A9DED0E0A20EE800A23
:1017F000784890ED001ADDED0C0A01EE600A7148A0
:1018000090ED001ADDED0B0A21EE201A6E48D0EDA6
:10181000001ADDED090A01EEE01A30EE01BA6D485A
:10182000D0ED000A9DED0D0A20EE800A674890ED8C
:10183000001ADDED0E0A01EE600A634890ED001A11
:10184000DDED0A0A21EE201A5D48D0ED001ADDED2B
:101850000B0A01EEE01A70EE01BA9DED080AB5EE32
:10186000C00AF1EE10FA5BD0B5EEC0BAF1EE10FA94
:1018700056D0F5EEC0BAF1EE10FA51D09DED080A3F
:10188000DFED550A60EE200A544890ED000A00EEA4
:10189000A80A80ED000A9FED500A6BEE000A50483E
:1018A00090ED000A00EEA80A80ED000A9FED4A0ABA
:1018B0006BEE800A4B4890ED000A00EEA80A80ED1E
:1018C000000A4948D0ED000A9DED080AB2EE041A5C
:1018D00041EE000A414890ED000A30EE800A42488D
:1018E00080ED000A414890ED000AF2EE040A00EE95
:1018F0008B0A3B48D0ED000A30EE200A3B4880EDD1
:10190000000A3B4890ED000AF2EE040A00EEAB0A32
:101910003448D0ED000A30EE200A354880ED000A48
:10192000344890ED000AB1EE400A2F48D0ED000A8D
:1019300020EE200A3048D0ED000A2C4890ED001A25
:1019400000EEC10A2D4890ED001A2948D0ED001A8A
:10195000F0EE400A41EE610A294890ED000A00EEDF
:10196000A80A8DED070A90ED000A1F48D0ED000A85
:1019700020EE200A2048D0ED000A1D4890ED001A04
:1019800000EE810A1D48D0ED000A184890ED001ABB
:1019900000EEC10A1748D0ED000AB0EE60CA00EEB2
:1019A00028CA174890ED000A1048D0ED000A20EE32
:1019B000200A1048D0ED000A0D4890ED001A21E0F1
:1019C000A8000020AC000020A40000209C00002003
:1019D000A0000020980000200AD7233C80000020AF
:1019E00084000020880000208C000020900000204F
:1019F0009400002074000020780000207C0000206B
:101A00007000002000EEC10AFE48D0ED000AFE483A
:101A100090ED001A00EE810AFC48D0ED000AF0EECD
:101A200060CA40EE28CAFA4890ED000AF948D0EDA5
:101A3000000A20EE200AF848D0ED000AF74890EDA1
:101A4000001A00EE810AF148D0ED000AEE4890ED50
:101A5000001A00EEC10AEB48D0ED000AB0EE60DAE1
:101A600000EE28DADDED070A60EEA00A4CEE0C0A63
:101A70004CEEAC0A4DEE0D0AB0EE600AFFF738F9F5
:101A8000B0EE408A9DED070A20EE080AE04880ED9E
:101A9000000A2CEE080AE04880ED000A2CEE880AC5
:101AA000DA4880ED000A2DEE080AD64880ED000ADB
:101AB00013B0BDEC108B00BD1CB5FFF75CF8D84827
:101AC000B0F90C00D649B1F90A10D54CCDE9001097
:101AD000B4F90830B4F90420B4F90210B4F90000E4
:101AE000FFF722F92346B3F91220B3F91010B3F926
:101AF0000E00FFF710FACB48B0F9140000EE100A00
:101B0000B8EEC00ABDEEC00A10EE100A00B22146BF
:101B10000880C448B0F92A0000EE100AB8EEC00AE6
:101B2000BDEEC00A10EE100A00B24880BD48B0F900
:101B3000400000EE100AB8EEC00ABDEEC00A10EE7A
:101B4000100A00B28880B748B0F9560000EE100ABB
:101B5000B8EEC00ABDEEC00A10EE100A00B208814D
:101B6000B048B0F96C0000EE100AB8EEC00ABDEE45
:101B7000C00A10EE100A00B24881AA48B0F98200EB
:101B800000EE100AB8EEC00ABDEEC00A10EE100A50
:101B900000B28881A448B0F9140000EE100AB8EE33
:101BA000C00ABDEEC00A10EE100A00B2C8819E48FD
:101BB000B0F92A0000EE100AB8EEC00ABDEEC00A65
:101BC00010EE100A00B208829748B0F9400000EE0B
:101BD000100AB8EEC00ABDEEC00A10EE100A00B23C
:101BE00048820846B0F9080000EE100AB8EEC00AB4
:101BF000DFED8E0A80EE201A084680ED0D1AB0F94E
:101C00000A0000EE100AB8EEC00ADFED880A80EE86
:101C1000201A084680ED0E1AB0F90C0000EE100AEA
:101C2000B8EEC00ADFED810A80EE201A084680ED8A
:101C30000F1A1CBD10B52DED0A8B744890ED000AEB
:101C4000F8EE000A20EE200AD0ED000A20EE200A6D
:101C50006C48D0ED000AB0EE001A60EE810A90EDFB
:101C6000001A00EEC10AF7EE000A30EE200A10EE6C
:101C7000101A084604F0CEFB41EC1B0B664890EDB1
:101C8000000AF0EE000A20EE200A6048D0ED000ABB
:101C900020EE200A5E48D0ED000AB0EE001A60EE99
:101CA000810A584890ED001A00EE810A10EE101AD1
:101CB000084604F0AFFB41EC1C0BB0EE4B1AF0EE03
:101CC0006B1AB0EE4C0AF0EE6C0A03F0BDFBB0EEFE
:101CD00040AAF0EE60AA51EC1A0B03F007FE41ECAB
:101CE000190B9FED530B53EC102B04F09DF841ECB6
:101CF000180B03F007FE4A498865474890ED000A33
:101D0000F8EE000A20EE200A3E48D0ED000A20EE50
:101D1000200A3F48D0ED000AB0EE001A60EE810ABA
:101D20003A4890ED001A00EE810A10EE101A0846AB
:101D300004F070FB41EC1B0BB0EE4B0AF0EE6B0AAB
:101D400003F066F8B0EE40AAF0EE60AA51EC1A0B70
:101D500003F0CCFD41EC190B9FED350B53EC102B30
:101D600004F062F841EC180B03F0CCFD2C494865F7
:101D7000294890ED000AF8EE000A20EE200AD0ED86
:101D8000000A20EE200A2148D0ED000AB0EE001A29
:101D900060EE810A90ED001A00EEC10AF7EE000A2B
:101DA00030EE200A10EE101A084604F033FB41EC26
:101DB0001A0B164890ED000AF0EE000A20EE200AF9
:101DC0001048D0ED000A20EE200A1148D0ED000A9C
:101DD000B0EE001A60EE810A0F4890ED001A00EE96
:101DE000810A10EE101A084604F014FB41EC1B0B9C
:101DF000B0EE4A1AF0EE6A1AB0EE4B0AF0EE6B0A39
:101E00001AE000007C0000208C00002078000020F8
:101E1000700000209400002074000020900000203A
:101E200014000020F00000207401002033338341AF
:101E30006666666666A64C4003F006FBB0EE409A06
:101E4000F0EE609A1FED060B53EC102B51EC190BC2
:101E500003F0EAFF41EC180B03F054FD524908650A
:101E6000524890ED000A524880ED000A084690ED75
:101E7000160A4E4880ED000A90ED000A4C48D0ED5D
:101E8000000A30EE600ADFED4B0AB4EEE00AF1EE34
:101E900010FA05DB48480068401E4749086013E017
:101EA000424890ED000A4248D0ED000A30EE600A48
:101EB000DFED420AB4EEE00AF1EE10FA04D83E4833
:101EC0000068401C3C4908603B4800684FF4B4710E
:101ED000484300EE100AB8EEC00A3448D0ED000ABC
:101EE00030EE200A304880ED160ABDEC0A8B10BD9A
:101EF0003EB50020009001900290002429E0641C6F
:101F0000FEF739FEDDED000A2748B0F9080000EEC3
:101F1000100AB8EEC00A30EE800A8DED000ADDED41
:101F2000010A2148B0F90A0000EE100AB8EEC00A12
:101F300030EE800A8DED010ADDED020A1A48B0F993
:101F40000C0000EE100AB8EEC00A30EE800A8DEDEB
:101F5000020AB4F57A7FD2DB9DED000ADFED180AA4
:101F600080EE201ABDEEC10A10EE100A01B20E4832
:101F700041839DED010ADFED120A80EE201ABDEECD
:101F8000C10A10EE100A01B2074881839DED020AD2
:101F9000DFED0B0A80EE201ABDEEC10A10EE100A2A
:101FA00001B20148C1833EBD14000020B8000020EA
:101FB000C40000200000A543D00000200000A5C3FD
:101FC00000007A4410B504466FF0040000F09AF95E
:101FD000E11704EB5171C1F3C701394A1170104682
:101FE000007800EB4001C1EBC0104FF6FF7101EA31
:101FF000C0003449088010BD0146314A12784A4376
:102000004FF0E0235A6100229A611A46126942F0A9
:1020100001021A6100BF4FF0E022106900F00102D6
:102020001AB100F48032002AF5D04FF0E022126994
:1020300022F001024FF0E0231A6100229A617047FA
:102040000146204A12884A434FF0E0235A61002299
:102050009A611A46126942F001021A6100BF4FF0FC
:10206000E022106900F001021AB100F48032002A67
:10207000F5D04FF0E022126922F001024FF0E02388
:102080001A6100229A61704770B504464FF40770D8
:1020900094FBF0F0C6B24FF4077094FBF0F100FB34
:1020A000114085B205E04FF40770FFF7C9FF701EBD
:1020B000C6B2002EF7D115B12846FFF7C1FF70BD9B
:1020C000D4000020D600002000BF704700BF4F4A58
:1020D000128802F04002002AF9D0C2B24B4B9A801B
:1020E000704710B588B004460121084600F04CFC4A
:1020F0000121102000F0A2FC07220921444800F031
:1021000030FA07220A21424800F02BFA4FF4C0604F
:10211000069002208DF81C008DF81D0000208DF81F
:102120001E0001208DF81F0006A9394800F08EF925
:1021300002940020ADF80C00ADF80E00ADF81000D0
:10214000ADF814000C20ADF8120002A92F4800F0E1
:10215000D6FD01212D4800F05AFE012240F2255102
:102160002A4800F00AFF25208DF8040003208DF88E
:1021700005008DF8060001208DF8070001A800F089
:1021800074F808B010BD10B540F225511F4800F09A
:102190002FFF002838D01D4800F068FEC4B2214649
:1021A0001CA001F0C1FD1C48008800F4004058BB91
:1021B0001948008800F4804060B10A2C03D0002048
:1021C0001549088020E01448008840F40040124976
:1021D000088019E00D2C06D10F48008840F480409B
:1021E0000D49088010E00C480088C0F30D000B4931
:1021F0000C5409480088401C07490880084600889C
:10220000C72801DD0020088010BD0000001001403B
:102210000000024025640000DC000020B601002020
:102220000948804709480047FEE7FEE7FEE7FEE76A
:10223000FEE7FEE7FEE7FEE7FEE7FEE704480549A6
:10224000054A064B70470000C903000889010008D1
:10225000E0020020E0090020E0040020E00400206B
:1022600032490143324A1160704770B500210023A2
:102270000F22C4781CB32E4C246804F4E064C4F527
:10228000E064C4F30721C1F10404E3B20A414478D5
:102290009C40E1B28478144021430C07210E254C68
:1022A00005786155047804F01F050124AC400578D9
:1022B0006D11AD0005F1E025C5F8004109E0047895
:1022C00004F01F050124AC401B4D0678761145F83B
:1022D000264070BD194A0A400243154B1B1F1A6065
:1022E000704739B1124A121D12680243104B1B1D70
:1022F0001A6006E00E4A121D126882430C4B1B1D29
:102300001A607047042808D14FF0E021096941F0B4
:1023100004014FF0E022116107E04FF0E02109696C
:1023200021F004014FF0E022116170470000FA052E
:102330000CED00E000E400E080E100E080FFFF1F22
:1023400010B504469848844208D10121084600F09F
:1023500086FB0021012000F082FB76E09348844256
:1023600008D10121022000F07AFB0021022000F0B8
:1023700076FB6AE08E48844208D10121042000F0F7
:102380006EFB0021042000F06AFB5EE08948844275
:1023900008D10121082000F062FB0021082000F094
:1023A0005EFB52E08448844208D10121102000F0F5
:1023B00056FB0021102000F052FB46E07F4884428B
:1023C00008D10121202000F04AFB0021202000F04C
:1023D00046FB3AE07A48844208D10121402000F0CF
:1023E0003EFB0021402000F03AFB2EE0754884427D
:1023F00008D10121802000F032FB0021802000F074
:102400002EFB22E07048844208D10121801500F0A3
:1024100026FB0021A01500F022FB16E06B48844249
:1024200008D10121401500F01AFB0021601500F0D1
:1024300016FB0AE06648844207D10121001500F02E
:102440000EFB0021201500F00AFB10BDF0B50A4676
:1024500000210023002400BF3DE0012505FA01F31F
:10246000156805EA03049C4234D105684F00032631
:10247000BE40B543056015794E00B540066835434A
:1024800005601579012D02D01579022D16D18568C8
:102490004F000326BE40B543856055794E00B540D8
:1024A000866835438560456801268E40B5434560A2
:1024B000456896798E40B6B235434560C5684F0091
:1024C0000326BE40B543C560D5794E00B540C66809
:1024D0003543C560491C1029BFD3F0BD4FF6FF71CD
:1024E00001600021017141718171C171704708B5AE
:1024F0004FF480320092009A0A430092009AC2611F
:10250000C161009AC261C2690092C269009208BDAD
:102510000246002013690B400BB1012000E00020AF
:1025200070470146086980B270470246002053692F
:102530000B400BB1012000E00020704701464869C4
:1025400080B2704701837047418370470AB10183AD
:1025500000E0418370474161704742694A404261EF
:102560007047F0B5002300244D07ED0E02FA05F385
:10257000CE1000F1200555F826504E07F70E0F2615
:10258000BE40B543CF1000F1200646F82750CE10CC
:1025900000F1200555F8265045EA0304CE1000F15D
:1025A000200545F82640F0BD00000240000402402E
:1025B00000080240000C02400010024000140240DB
:1025C00000180240001C024000200240002402408B
:1025D00000280240F948006840F00100F74908600F
:1025E0000020F64908310860F4480068F4490840C2
:1025F000F2490860F348091D0860F348EF49843147
:102600000860F0481038091D0860EC48006820F4A4
:102610008020EA4908600020E8490C310860E74959
:102620008C31086070470021E44A921C11701146F9
:102630000870704710B501460022002300204A119F
:10264000012A02D1DD4C236808E0022A03D1DB4CC9
:102650007034236802E0D94C7434236801F01F02FF
:10266000012494401C400CB1012000E0002010BD6A
:1026700038B5002000900024002500BF3120FFF76E
:10268000D9FF05460098401C00900098B0F5A04F77
:1026900001D0002DF2D03120FFF7CCFF08B101248A
:1026A00000E00024204638BD01460020C34A1068DF
:1026B00020F0F80040EAC10010607047C34908608C
:1026C00070470021BD4A703211701170012802D08C
:1026D00004280AD104E00121B84A7032117005E0E3
:1026E0000521B64A7032117000E000BF00BF70478C
:1026F000B7490860704770B5049C41EA821501260D
:10270000C6EB530645EA0645054345EA0465AB4E6C
:10271000361D356070BDAD4908667047820142EADA
:102720000172A64B84331A607047A84988667047C7
:1027300010B5830143EA016343EA02739F4C883476
:10274000236010BDA14908677047A049C86470475D
:1027500002460020994B0833186820F0EC6042EAEA
:1027600001031843954B0833186070470246002058
:10277000924B0833186820F0784042EA010318436E
:102780008E4B083318607047014600208B4A083290
:10279000106820F003000843106070478748083035
:1027A000006800F00C00704701460020834A0832A0
:1027B000106820F0F00008431060704701460020C8
:1027C0007E4A0832106820F4E050084310607047D9
:1027D00001460020794A0832106820F4604040EA3F
:1027E000C10010607047F0B50021002200240225CE
:1027F00000260223714F08373F6807F00C0121B112
:10280000042905D0082937D105E0724F076036E06A
:10281000714F076033E0694F3F1D3F68C7F3805633
:10282000664F3F1D3F6807F03F036EB16A4FB7FB2D
:10283000F3F7DFF888C10CF1040CDCF800C0CCF32E
:10284000881C07FB0CF40CE0624FB7FBF3F7DFF8D2
:102850006CC10CF1040CDCF800C0CCF3881C07FB45
:102860000CF4564F3F1D3F68C7F301477F1C7D00A6
:10287000B4FBF5F7076002E0564F076000BF00BFEA
:102880004E4F08373F6807F0F0010909534F7A5C53
:102890000768D7404760494F08373F6807F4E05161
:1028A000890A4E4F7A5C4768D7408760434F0837A4
:1028B0003F6807F46041490B484F7A5C4768D7404E
:1028C000C760F0BD002100F44072B2F5407F0AD12C
:1028D0003A4A0832116821F4F811414A0240114382
:1028E000364A08321160354A70321268C0F30B0361
:1028F0001A43324B70331A607047354944390860C7
:10290000704733494039086070473649086070475E
:1029100001460020294A8C32106820F01F004A1E10
:102920001043264A8C321060704701460020234A2B
:102930008C32106820F4F8504A1E40EA02201F4AE8
:102940008C3210607047014600201C4A8C3210689F
:1029500020F4401008431060704701460020174AD9
:102960008C32106820F44000084310607047014624
:102970000020124A8C32106820F440300843106066
:10298000704719490860704739B10C4A30321268F3
:1029900002430A4B30331A6006E0084A30321268AC
:1029A0008243064B30331A607047F9B1034A343220
:1029B00012680243014B34331A601CE000380240B5
:1029C000FFFFF6EA103000240030002000004742EC
:1029D000800E47420024F40000127A00DE0000203E
:1029E000FFFCFF0F5C014742E01147428F4A12682B
:1029F00082438E4B1A60704739B18C4A121D12689F
:102A000002438A4B1B1D1A6006E0884A121D126899
:102A10008243864B1B1D1A60704739B1834A0C32C2
:102A200012680243814B0C331A6006E07F4A0C3275
:102A3000126882437D4B0C331A60704739B17B4A70
:102A4000103212680243794B10331A6006E0774A5D
:102A5000103212688243754B10331A60704739B1D7
:102A6000724A243A12680243704B243B1A6006E013
:102A70006E4A243A126882436C4B243B1A607047BA
:102A800039B16A4A203A12680243684B203B1A6007
:102A900006E0664A203A12688243644B203B1A6083
:102AA000704739B1614A1C3A126802435F4B1C3BC4
:102AB0001A6006E05D4A1C3A126882435B4B1C3B7D
:102AC0001A60704739B1594A143A12680243574B99
:102AD000143B1A6006E0554A143A12688243534B7D
:102AE000143B1A60704739B1504A103A12680243D9
:102AF0004E4B103B1A6006E04C4A103A1268824373
:102B00004A4B103B1A60704739B1484A1C32126870
:102B10000243464B1C331A6006E0444A1C321268DA
:102B20008243424B1C331A60704739B13F4A20320E
:102B3000126802433D4B20331A6006E03B4A2032C4
:102B400012688243394B20331A60704739B1374AD3
:102B5000243212680243354B24331A6006E0334AAC
:102B6000243212688243314B24331A60704739B1E2
:102B70002E4A2C32126802432C4B2C331A6006E08A
:102B80002A4A2C3212688243284B2C331A60704731
:102B900039B1264A303212680243244B30331A606E
:102BA00006E0224A303212688243204B30331A60EA
:102BB0007047012808D11D493C31096841F00801DE
:102BC0001A4A3C32116007E018493C31096821F08B
:102BD0000801164A3C321160704739B1134A273A4E
:102BE00012780243114B273B1A7006E00F4A273A2E
:102BF000127882430D4B273B1A7070470B484030C8
:102C0000006840F080700949403108607047014613
:102C10000020064A283A12680A400AB1012000E062
:102C20000020704701492639087070473438024047
:102C300010B50446FA48844208D101211020FFF75C
:102C400052FF00211020FFF74EFF57E0F548844265
:102C500009D101214804FFF735FF00214FF400306E
:102C6000FFF730FF4AE0F048844209D1012188048F
:102C7000FFF728FF00214FF48020FFF723FF3DE0FE
:102C8000EA48844209D10121C804FFF71BFF002153
:102C90004FF40020FFF716FF30E0E548844209D1E9
:102CA00001210805FFF70EFF00214FF48010FFF708
:102CB00009FF23E0DF48844208D101212020FFF7EB
:102CC00012FF00212020FFF70EFF17E0DA488442B0
:102CD00009D101218807FFF7F5FE00214FF0804060
:102CE000FFF7F0FE0AE0D548844207D101214005F4
:102CF000FFF7E8FE00216005FFF7E4FE10BD2DE9B7
:102D0000FF4705460E460024A14600BFA046B089F5
:102D100000B100BF2C8A24F44054F08804432C8274
:102D2000AC8941F20C608443B088318908437189D1
:102D300008430443AC81AC8A24F44074B089044352
:102D4000AC826846FFF74FFDB548854202D0B948CE
:102D5000854202D1DDF80C9001E0DDF80890A889E9
:102D600000F4004040B109EBC90000EB09103168E4
:102D70004900B0FBF1F707E009EBC90000EB0910CF
:102D800031688900B0FBF1F76420B7FBF0F0040173
:102D90002009642101FB1078A88900F4004040B1AB
:102DA000322000EBC800B0FBF1F000F00700044354
:102DB00008E0322000EB08106421B0FBF1F000F0D5
:102DC0000F0004432C81BDE8FF874FF416510160CA
:102DD00000218180C18001810C21418100218181FC
:102DE000704710B502460020108A20F470600B88EE
:102DF0004C8823438C882343CC8823431843108278
:102E000010BD0021018041808180C180704721B1C7
:102E1000828942F40052828104E082894DF6FF7378
:102E20001A4082817047028B02F47F420283028B38
:102E30000A430283704721B1828942F400428281B1
:102E400003E08289C2F30E028281704721B1828A37
:102E500042F40062828204E0828A4FF2FF731A40D9
:102E600082827047C1F308028280704701468888D9
:102E7000C0F308007047028A4FF6F0731A400282CE
:102E8000028A0A430282704721B1828942F002021B
:102E9000828104E082894FF6FD731A408281704777
:102EA00082894FF2FF731A40828182890A438281AC
:102EB0007047028A4FF6DF731A400282028A0A4381
:102EC0000282704721B1028A42F48042028204E009
:102ED000028A4BF6FF731A4002827047818941F0E3
:102EE00001018181704721B1828A42F00802828209
:102EF00004E0828A4FF6F7731A4082827047028B91
:102F0000D2B20283028B42EA01220283704721B1CE
:102F1000828A42F02002828204E0828A4FF6DF73C6
:102F20001A408282704721B1828A42F01002828266
:102F300004E0828A4FF6EF731A4082827047828AD9
:102F40004FF6FB731A408282828A0A43828270475C
:102F500021B1828A42F00202828204E0828A4FF624
:102F6000FD731A40828270471AB1838A0B438382B1
:102F700002E0838A8B4383827047F0B503460024C6
:102F800000260025002040F66A17B94200D100BF94
:102F90001846C1F3421401F01F06012707FA06F58F
:102FA000012C01D10C3004E0022C01D1103000E0E2
:102FB00014301AB107682F43076002E00768AF4377
:102FC0000760F0BD02460020B1F5007F00D100BFD0
:102FD00013880B400BB1012000E00020704701F482
:102FE0000072B2F5007F00D100BFCA430280704773
:102FF00070B50246002400230025002040F66A1622
:10300000B14200D100BFC1F3421501F01F030126F8
:1030100006FA03F3012D13D19689334017E000001F
:10302000001001400044004000480040004C0040B7
:10303000005000400014014000780040007C004037
:10304000022D02D1168A334001E0968A33400C12D9
:10305000012606FA04F41688344013B10CB101209D
:1030600000E0002070BD10B50022002340F66A1475
:10307000A14200D100BF0A1201249440A3B2DC4354
:10308000048010BD10B50446FE48844208D10121D9
:103090000846FFF728FD00210120FFF724FD9DE0F1
:1030A000B4F1804F08D101210846FFF70BFD002144
:1030B0000120FFF707FD91E0F348844208D1012188
:1030C0000220FFF7FFFC00210220FFF7FBFC85E058
:1030D000EE48844208D101210420FFF7F3FC0021CF
:1030E0000420FFF7EFFC79E0E948844208D1012190
:1030F0000820FFF7E7FC00210820FFF7E3FC6DE064
:10310000E448844208D101211020FFF7DBFC0021B4
:103110001020FFF7D7FC61E0DF48844208D101218D
:103120002020FFF7CFFC00212020FFF7CBFC55E04B
:10313000DA48844208D101210220FFF7D4FC0021A3
:103140000220FFF7D0FC49E0D548844209D1012193
:103150000804FFF7C8FC00214FF48030FFF7C3FCE0
:103160003CE0D048844209D101214804FFF7BBFC70
:1031700000214FF40030FFF7B6FC2FE0CA4884422C
:1031800009D101218804FFF7AEFC00214FF4802013
:10319000FFF7A9FC22E0C548844208D10121402064
:1031A000FFF790FC00214020FFF78CFC16E0C048A0
:1031B000844208D101218020FFF784FC0021802077
:1031C000FFF780FC0AE0BB48844207D1012180154B
:1031D000FFF778FC0021A015FFF774FC10BD00225A
:1031E0000288A84B98420ED0AC4B98420BD0B0F15D
:1031F000804F08D0A44B984205D0A44B984202D0EF
:10320000A34B984204D14FF68F731A404B881A4350
:10321000A04B984207D0A04B984204D04FF6FF43F2
:103220001A400B891A4302804B68C3620B880385DE
:10323000944B984202D0994B984201D18B7A0386E5
:103240000123838270474FF0FF31416000210180EC
:1032500001814180817270470185828270470A46F0
:10326000002101884FF68F73194011430180704788
:1032700041627047C16270470146486A7047014623
:10328000088D704721B1028842F00202028004E0FA
:1032900002884FF6FD731A400280704721B1028800
:1032A00042F00402028004E002884FF6FB731A40E9
:1032B0000280704721B1028842F08002028004E05F
:1032C00002884FF67F731A400280704702884FF6DB
:1032D000F7731A40028002880A430280704702880E
:1032E0004FF6FF431A40028002880A43028070476B
:1032F00021B1028842F00102028004E002884FF608
:10330000FE731A400280704770B50024002200232B
:10331000058C4FF6FE7635400584028C8388048B3D
:103320004FF68F752C40B51E2C400D882C43751E12
:103330002A408D892A434D882A43524DA84202D003
:10334000564DA84213D14FF6F7752A40CD892A432E
:103350004FF6FB752A408D882A434FF6FF652B40B8
:103360004FF6FF552B400D8A2B434D8A2B4383800C
:1033700004838D684563028470BD70B5002400220B
:103380000023058C4FF6EF7635400584028C838848
:10339000048B48F6FF752C404FF6FF452C400D88F6
:1033A0004FF6FF7606EA05252C434FF6DF752A40D7
:1033B0008D8906EA05152A434D8806EA05152A4334
:1033C000304DA84202D0354DA8421DD14FF67F7531
:1033D0002A40CD894FF6FF7606EA05152A434FF6B7
:1033E000BF752A408D8806EA05152A434FF6FF353A
:1033F0002B404FF2FF752B400D8A06EA85052B43C3
:103400004D8A06EA85052B43838004838D68856396
:10341000028470BD70B5002400220023058C4FF695
:10342000FF6635400584028C8388848B4FF68F7548
:103430002C404FF6FC752C400D882C434FF6FF5561
:103440002A408D894FF6FF7606EA05252A434D88E6
:1034500006EA05252A430B4DA84202D00F4DA8428B
:1034600038D14FF2FF752A40CD894FF6FF7606EA34
:1034700005252A434FF6FF352A408D8806EA0525A3
:103480002A4319E000000140000400400008004009
:10349000000C0040001000400014004000040140F7
:1034A0000040014000440140004801400018004035
:1034B000001C0040002000404EF6FF752B404DF6EA
:1034C000FF752B400D8A06EA05152B434D8A06EA47
:1034D00005152B43838084838D68C563028470BD8A
:1034E00070B5002200230024058C4EF6FF7635408F
:1034F0000584038C8488828B48F6FF752A404FF63A
:10350000FF452A400D884FF6FF7606EA05252A4337
:103510004DF6FF752B408D8906EA05352B434D8806
:1035200006EA05352B43FE4DA84202D0FD4DA842C8
:1035300008D14BF6FF752C400D8A4FF6FF7606EA50
:1035400085152C43848082838D680564038470BD57
:10355000002101804180818081608181C18101825F
:103560004182704770B50346002000241846183089
:1035700001258D40ACB21D8CA5431D8409B10829DD
:103580000AD100EB610005684FF68F763540056083
:103590000568154305600FE00D1FC5F34E0528446F
:1035A000056848F6FF763540056005684FF6FF76FA
:1035B00006EA02263543056070BD416370478163AA
:1035C0007047C1637047016470470A460021018B50
:1035D0004FF68F7319401143018370470A4600214B
:1035E000018B48F6FF7319404FF6FF7303EA02237D
:1035F0001943018370470A460021818B4FF68F7370
:1036000019401143818370470A460021818B48F697
:10361000FF7319404FF6FF7303EA022319438183B6
:1036200070470A460021018B4FF6F773194011438A
:10363000018370470A460021018B4FF2FF73194046
:103640004FF6FF7303EA02231943018370470A46CA
:103650000021818B4FF6F773194011438183704726
:103660000A460021818B4FF2FF7319404FF6FF731A
:1036700003EA02231943818370470A460021018B24
:103680004FF6FB7319401143018370470A4600212E
:10369000018B4FF6FF3319404FF6FF7303EA022305
:1036A0001943018370470A460021818B4FF6FB7353
:1036B00019401143818370470A460021818B4FF6E0
:1036C000FF3319404FF6FF7303EA02231943818346
:1036D00070470A460021018B4FF67F731940114352
:1036E000018370470A460021018BC1F30E014FF69A
:1036F000FF7303EA02231943018370470A4600213E
:10370000818B4FF67F7319401143818370470A46BE
:103710000021818BC1F30E014FF6FF7303EA0223F0
:103720001943818370470A460021018C4FF6FD73CF
:1037300019401143018470470A460021018C4FF65D
:10374000F77319401143018470470A460021018C28
:103750004FF6DF7319404FF6FF7303EA0213194364
:10376000018470470A460021018C4FF67F7319408F
:103770004FF6FF7303EA02131943018470470A46A8
:103780000021018C4FF6FF5319404FF6FF7303EAF7
:1037900002231943018470470A460021018C4FF22D
:1037A000FF7319404FF6FF7303EA022319430184A4
:1037B00070470A460021018C4DF6FF7319404FF601
:1037C000FF7303EA023319430184704730B50023C5
:1037D00001248C40A3B2048C9C430484048C02FA20
:1037E00001F5ADB22C43048430BD30B50023042470
:1037F0008C40A3B2048C9C430484048C02FA01F52F
:10380000ADB22C43048430BD828B4FF2FF331A409B
:103810008283828B4FF6FF7303EA01231A4382836C
:103820007047F0B50C461546002100220026078C93
:103830004EF6FF7C07EA0C070784818B028C4FF65B
:10384000FF7707EA043640F6FF4739404FF6FF7727
:1038500007EA052739434FF6FF7707EA033739436D
:1038600045F6FF773A4046F480573A438183028415
:10387000F0BD828B4FF6F3731A408283828B0A432A
:1038800082837047F0B50C461546002100220026C1
:10389000078C4FF6FF6C07EA0C070784818B028CBC
:1038A0004FF6FF7707EA04264FF60C7739404FF6BC
:1038B000FF7707EA03172F4339434FF2FF573A4088
:1038C00046F480773A4381830284F0BD028B4FF245
:1038D000FF331A400283028B4FF6FF7303EA012382
:1038E0001A4302837047F0B50C46154600210022AA
:1038F0000026078C4FF6EF7C07EA0C070784018B44
:10390000028C4FF6FF7707EA041640F6FF4739406E
:103910004FF6FF7707EA033739434FF6FF7703E0A7
:10392000000001400004014007EA052739434FF633
:103930005F773A4046F010073A4301830284F0BDB6
:10394000028B4FF6F3731A400283028B0A43028301
:103950007047F0B50C46154600210022068C4FF644
:10396000FE773E400684018B028C4FF60C76314088
:103970007E1C06EA03162E4331434FF6F57632409D
:1039800044F00106324301830284F0BD70B5054660
:103990000C46208850B92389A28861882846FFF701
:1039A000D8FFE1882846FFF7CBFF25E020880428D0
:1039B0000AD12389A28861882846FFF794FFE1880D
:1039C0002846FFF783FF17E0208808280AD12389BB
:1039D000A28861882846FFF755FFE1882846FFF74F
:1039E00048FF09E02389A28861882846FFF719FF6C
:1039F000E1882846FFF708FF70BD00210180418063
:103A0000012181800021C180018170472DE9F041B1
:103A100005460C4600260127608808B9022600E00A
:103A20000026A088012801D1022700E00127208874
:103A3000A0B92389A28861882846FFF78AFFE18818
:103A40002846FFF77DFF23893A4631462846FFF78F
:103A50004AFFE1882846FFF739FF13E02389A2884F
:103A600061882846FFF73FFFE1882846FFF72EFFD1
:103A700023893A4631462846FFF76BFFE1882846FE
:103A8000FFF75EFFBDE8F0810146486B70470146D5
:103A9000886B70470146C86B70470146086C7047D9
:103AA0000A884B881A438B881A43CB881A430B89A0
:103AB0001A434B891A438B891A43A0F84420704754
:103AC0000021018041808180C1800181418181810B
:103AD000704731B1B0F8442042F40042A0F84420CD
:103AE00005E0B0F84420C2F30E02A0F8442070476D
:103AF00021B1828842F00402828004E082884FF67D
:103B0000FB731A408280704721B1828842F0010223
:103B1000828004E082884FF6FE731A4082807047EC
:103B20001AB183890B43838102E083898B438381AC
:103B300070478182704702460020138A0B400BB108
:103B4000012000E000207047CA430282704730B570
:103B50000246002000230024158A05EA0103958906
:103B600005EA010413B10CB1012000E0002030BDD2
:103B7000CA430282704741EA0203A0F84830704706
:103B80001AB183890B43838102E083898B4383814C
:103B9000704721B1828842F00802828004E0828866
:103BA0004FF6F7731A408280704701894FF6F8721A
:103BB0001140018170470A46002101894FF68F7339
:103BC000194011430181704730B504460D4629461E
:103BD0002046FFF7F0FF208940F00700208130BD2C
:103BE0002DE9F04104460D4616461F46602D06D1CC
:103BF0003B46012231462046FFF775FE05E03B4675
:103C0000012231462046FFF7A4FE29462046FFF751
:103C1000D2FF208940F007002081BDE8F08130B557
:103C20000C4600210189C9B24FF6FF7505EA03254C
:103C3000154325432943018130BD2DE9F041054657
:103C40000E4617469846002443463A4631462846D3
:103C5000FFF7E5FF2C894FF6F870044044F00704A5
:103C60004FF68F70044044F070042C81BDE8F08161
:103C7000F0B504460D4616461F463B4632462946D9
:103C80002046FFF7CCFF208940F480402081F0BD22
:103C900082884FF68F731A40828082880A4382801E
:103CA000704702894FF6F8731A40028102890A436D
:103CB0000281704702894FF67F731A4002810289A0
:103CC0000A4302817047F0B50C4615461E46002196
:103CD000002200230189028B038C4FF6F8773940CC
:103CE00021434FF6FC473A4040F201173A434FF662
:103CF000DD773B404FF6FF7707EA06172F433B433C
:103D0000018102830384F0BD21B1828842F08002E8
:103D1000828004E082884FF67F731A408280704769
:103D2000A0F85010704770470FB4044910B503AAAB
:103D3000029800F0EDFA10BC5DF814FBD8000020EA
:103D40002DE9F0410E460446002020622046E1683D
:103D5000884730B3252805D0D4E901219047206A4F
:103D6000401CF2E7E168204600278847050018D08C
:103D7000A5F14100192802D820354FF400673246DA
:103D8000294620462760FCF739FA40B1012804D0C3
:103D9000F61D26F007060836D8E7361DD6E7284672
:103DA000DAE7206ABDE8F0812DE9F04106460024FB
:103DB00010687529314616A510D0AFF30080002891
:103DC00002DA404213A507E031688A0701D512A53F
:103DD00002E0490704D511A5012401E0AFF30080FA
:103DE00000210A2206F1240709E0B0FBF2FCB0FB37
:103DF000F2F302FB1C00303078541846491C0028AE
:103E0000F3D123462A463046BDE8F04100F017B80A
:103E1000000000002D0000002B000000200000002A
:103E2000704770477047704710B500F087FA006818
:103E300010BD10B5044600F081FA046010BD2DE9F4
:103E4000F0470D4699469246044600F12408016861
:103E5000880604D5E06921F01001216000E001200E
:103E6000A84201DD471B00E00027A1697A1902EB97
:103E70000900081AA0612078C00602D42046AFF3DA
:103E80000080002608E0D4E901211AF806009047D6
:103E9000206A401C761C20624E45F4DB2078C00668
:103EA0000AD52046AFF3008006E0D4E90121302096
:103EB0009047206A401C2062381EA7F10107F4DCFD
:103EC00007E0D4E9012118F805009047206A401C5A
:103ED0002062281EA5F10105F3DC2046AFF3008027
:103EE0002078000602D50220BDE8F0870120FBE71C
:103EF00070472DE9FF4F0C461E464FF0FF378BB041
:103F0000D2E90001DDF860800A908A46C1F30A55C3
:103F100005B93D46002108464FF00000BAF1000FF8
:103F200000F4400005DA00EB80004FF4400101EAA4
:103F300050004FEA9059B9F1010F00DDB9460A98D7
:103F400050EA4A000ED044F61050A5F2FF35454322
:103F50002F14B8F1000F1ED07542291E1EDDC9F1C5
:103F600000021CE0B8F1010F4FF0000001D0302139
:103F700003E0F24305E02154401CB042FBDB304635
:103F80000022002121540B99C1F80880C1E90020CA
:103F90000FB0BDE8F08FBD1B6D1CDEE74A4600DAAE
:103FA000694206A800F06CFA06AB93E8070003AB81
:103FB00083E8070050460A9900F04AFB8DE80700A5
:103FC000A0F500501F3800900398002D0ADD42F242
:103FD0001F014A460844002303A90390684600F0E5
:103FE000B3FD09E0A0F500504A461F38002303A99D
:103FF0000390684600F0BDFD8DE807000004000C4A
:1040000003D04FF0FF30410800E01046B8F1000F38
:1040100003D00022009215461EE0751E05D400F064
:1040200091F9303262556D1EF9D5B346012208432D
:1040300002D000227F1C04E02078302801D1002229
:104040007F1E002A099784D01DE0112D07DA00F0A9
:1040500079F9303262556D1C50EA0102F5D10843FE
:1040600002D00098C8B10EE00021681E05E0235C74
:10407000625C63542254401E491C8142F7DBAB460C
:10408000A81B401E0990002004F80B000B98099A09
:10409000C0F80880C0E9002B7AE711264FF000082D
:1040A00057E72DE9F04F88460446D21D22F007015C
:1040B00091B0D1E90001CDE90A0100F091FE02467C
:1040C0000B98C00F01D02D2007E02068810701D593
:1040D0002B2002E0202101EAC000032A099001D030
:1040E000072A05DB03464146204600F089F90BE12B
:1040F0002078800601D5E06900E00620B8F1650F60
:10410000814606D0B8F1660F18D0B8F1670F70D1AC
:1041100031E00020B9F1110F009001DB112301E023
:1041200009F101030AAA01A90CA8FFF7E2FEDDE9E3
:104130000C70002609F10105834647E001204B463B
:1041400000904FF000470AAA01A90CA8FFF7D1FE82
:10415000DDE90DB00C995D46002610B909F10100AA
:104160000D18B9EB050003D4C0F1FF3609F10105C4
:10417000A5EB09002BE0B9F1010F01DA4FF00109BD
:104180000020B9F1110F0090484601DD112300E035
:1041900003460AAA01A90CA8FFF7ABFEDDE90C70E3
:1041A0004D4600268346207800070AD4AB4500DA46
:1041B0005D4601A8012D04DD411911F8011C3029CB
:1041C00007D04F4502DA17F1040F04DA01208246C6
:1041D0000FE06D1EEEE7002F02DCED1B3E4403E016
:1041E000781CA84200DD7D1CB81B00F1010A4FF0CD
:1041F00000472078000703D4AA4501DB4FF0FF3ABF
:104200000021B7F1004F0DF143088DF8431024D081
:1042100002202B23002F01DA7F422D230A21021EC8
:10422000A0F1010000DC5FB197FBF1FC97FBF1F21C
:1042300001FB1C7C17460CF1300C08F801CDEEE7B1
:10424000A8F1010003702188090501D5452100E08E
:104250006521A0F1010800F8011C09980FA9A1EB44
:104260000807FF1D00B10120411901EBEA70A169A7
:104270003844081A401EA0612078C00602D42046A7
:10428000AFF30080099828B1D4E901219047206A52
:10429000401C20622078C00622D52046AFF3008063
:1042A0001EE0002E04DBB34502DD01A8805D00E0C6
:1042B0003020D4E901219047206A401C2062761CFE
:1042C000AAF101005FEA000A0AD100F033F8C068E1
:1042D0000168405CD4E901219047206A401C2062BB
:1042E000281EA5F10105DCDC07E0D4E9012118F85E
:1042F000010B9047206A401C2062381EA7F101077D
:10430000F3DC2046AFF30080032011B041E600004B
:10431000074B70B50D467B4400F05FF80446284615
:1043200000F020F910B14FF0FF3070BD204670BD95
:10433000B3DDFFFF00487047A0020020004870472F
:104340008002002030B5B0F10A024FEA900E71F100
:1043500000034EEA817EB0EB0E0061EB91014FEA63
:10436000101E4EEA017E10EB0E0041EB11114FEAD8
:10437000102E4EEA016E10EB0E0041EB11214FEAB8
:10438000104E4EEA014E10EB0E0041EB1141401869
:1043900041F100014FEAD00040EA41704FEAD101FB
:1043A00010EB80054FEA810444EA907444EB010469
:1043B0006D1944EB0404521BA3414FF0000348BFA6
:1043C0000A3200D530BD401C41F1000130BD000073
:1043D00001694A1C02610878704700B58FB0CDE9C9
:1043E00001310021059105497944CDE903101146B9
:1043F0006846FFF7A5FC0FB000BD0000E5FFFFFF1A
:104400002DE9F0411F46044603260168072A01F4FE
:10441000006004DB08B116A505E016A503E008B1AD
:1044200015A500E015A521F010002060A069C01EB0
:10443000A0610FB1401EA0612046AFF300804FB1D4
:10444000D4E9012138469047206A401C2062C01CF4
:10445000206206E0206AFAE7D4E9012115F8010B91
:104460009047761EF8D22046AFF30080BDE8F08179
:104470004E414E006E616E00494E4600696E660008
:104480002DE9F047814616468AB0354878440DC874
:104490008DE80D0032487844801C03AC0DC884E8D8
:1044A0000D0041F69B300844372190FBF1F290FB60
:1044B000F1F5A5F1800501FB12041B3C02D5644215
:1044C000012000E00020DFF898A080460027FA4491
:1044D000AAF1BE0A0EE0E0070AD03246684607EBB2
:1044E000470101230AEB810100F043FB8DE807003F
:1044F00064107F1C002CEED1194F7F44AE3F19E0B1
:10450000E80715D007EB04100DF1180A90E80E002B
:104510008AE80E00C068F04201D19819089032462E
:10452000012306A903A800F024FB03AB83E80700DE
:104530006D10641C002DE3D14FF001033246694633
:10454000B8F1000F03A802D000F0FEFA01E000F07D
:1045500010FBC9E90001C9F808200AB0BDE8F087DE
:10456000EC210000007B00F080007047004870479D
:10457000800200207546FFF7F9FFAE460500694648
:10458000534620F00700854618B020B5FDF756FECB
:10459000BDE820404FF000064FF000074FF0000844
:1045A0004FF0000B21F00701AC46ACE8C009ACE8C5
:1045B000C009ACE8C009ACE8C0098D46704710B529
:1045C0000446AFF300802046BDE81040FBF735BE3F
:1045D0004FF0013C50F8042B51F8043B9A4221D192
:1045E000A2EB0C03934313EACC1317D150F8042B1E
:1045F00051F8043B9A4215D1A2EB0C03934313EA02
:10460000CC130BD150F8042B51F8043B9A4209D13A
:10461000A2EB0C03934313EACC13DBD04FF0000062
:10462000704700BFD01A01BAB1FA81F101F0180148
:1046300022FA01F0CB40C1F12001DBB2C0B2C01AB6
:104640002CFA01F3D11A914311EAC311E6D1704754
:104650005FEA400C08BF91F0000F4FEA8C234FEA4D
:10466000C12243EA51514FEA1C5018BF00F5F040F7
:104670004FEA300018BF41F000415FEA6C5C00F087
:104680002980BCF1FF3F08BF40F080407047130C09
:1046900006BF12044FF0100C4FF0000C130E04BFB5
:1046A00012020CF1080C130F04BF12010CF1040CE0
:1046B000930F04BF92000CF1020CD30F04BF520001
:1046C0000CF1010C11464FF00002A0F11F00A0EB0D
:1046D0000C00704711F0004F08BF704731F00041E7
:1046E0003FF4D5AF0B0C06BF09044FF0100C4FF090
:1046F000000C0B0E04BF09020CF1080C0B0F04BFD9
:1047000009010CF1040C8B0F04BF89000CF1020CA1
:10471000CB0F04BF49000CF1010CCCF12003A0EB3E
:104720000C0022FA03F302FA0CF241EA030100F151
:104730000100704720F07F4C80EA030023F07F47A0
:10474000ACEB070303F57C5300F0004003F1FF03DB
:104750002DE980494FEA154B09B44FEA144325EA85
:104760000B4E24EA03480FF2042606EB13274908F0
:104770003E785FEA320203FB0667C7F5000707FBD6
:1047800006F64FEA54374FEAD64606F1020607FB13
:10479000066CCCF1005C4FEA1C472CEA074C07FB87
:1047A00006F40CFB06F504EB15464FEA961634BFEB
:1047B00000204FF000404FEAD13706FB07FC4FEADC
:1047C0001C4C0CFB0BF7D21B03FB0CF761EB070136
:1047D0000CFB0EF7B0EB074072EB17420CFB08F72F
:1047E00034BFA2EB0742B2EB074261EB17414FEA3D
:1047F0000C444FEA910706FB07FC4FEA1C4C0CFBEC
:104800000BF7B0EBC74072EB573203FB0CF734BF2A
:10481000A2EBC742B2EBC74261EB57310CFB0EF77C
:10482000B0EBC70072EB57720CFB08F734BFA2EB7A
:10483000C702B2EBC70261EB5771039F4FEA816178
:1048400041EA921104EBCC044FEAD1374FEA82627D
:1048500006FB07FC42EA90124FEA80604FEA1C4CCC
:104860000CFB0BF7D21B03FB0CF761EB07010CFBF6
:104870000EF7B0EB074072EB17420CFB08F734BFA2
:10488000A2EB0742B2EB074261EB17414FEA8C55AE
:104890004FEA910704EB9C2406FB07FC4FEA1C4CF3
:1048A0000CFB0BF7B0EBC74072EB573203FB0CF776
:1048B00034BFA2EBC742B2EBC74261EB57310CFBEE
:1048C0000EF7B0EBC70072EB57720CFB08F734BF62
:1048D000A2EBC702B2EBC70261EB577115EB4C2597
:1048E0004FEA816141EA92114FEA82624FEAD13781
:1048F00042EA901206FB07FC44F100044FEA806094
:104900004FEA1C4C0CFB0BF7D21B03FB0CF761EBC3
:1049100007010CFB0EF7B0EB074072EB17420CFBE4
:1049200008F734BFA2EB0742B2EB074261EB174135
:1049300015EB1C154FEA813141EA92414FEA823270
:1049400042EA90424FEA80304FEA0C7644F100048C
:1049500048EA03434EEA0B484FF0000EB2EB080C56
:1049600071EB030724BF624639464EEB0E0E4FF043
:10497000000B0018524149414BEB0B0BB2EB080CFA
:1049800071EB03077BF1000B24BF624639464EEB07
:104990000E0E4FF0000B0018524149414BEB0B0B30
:1049A000B2EB080C71EB03077BF1000B24BF6246EE
:1049B00039464EEB0E0E51EA020718BF46F00106CB
:1049C00016EB0E7655F1000254F1000103D5BDE857
:1049D0008901BDE80088BDE88901BDE80048B61935
:1049E000524141EB0101A3F10103704780807F7EBA
:1049F0007D7C7B7A79787776767574737271717055
:104A00006F6E6E6D6C6C6B6A6A6968686766666506
:104A10006464636362616160605F5F5E5E5D5D5C94
:104A20005C5B5B5A5A595958585757565655555505
:104A30005454535352525251515050504F4F4F4E65
:104A40004E4D4D4D4C4C4C4B4B4B4A4A4A494949B3
:104A500048484847474747464646454545444444F5
:104A6000444343434342424242414141002B9C461E
:104A700030D477002BD01CB54FEA370703B44FF082
:104A800010004FF01001BAF1000F06D0BCF1000F7A
:104A9000DCBF40F0080040F008014FF000000FBC00
:104AA000BDE810400BF1010BBBF1010F08BF5FEA3D
:104AB000170722BF12F1010211F101014FF000416D
:104AC00043F1000300F0004043EA00007047F9D3CF
:104AD0005708D0E746EA064613F1400F4FEA16465C
:104AE0001FDD13F1200FDFBF16430A4600212033DC
:104AF0005B42BED0C3F1200746EA064602FA07F73A
:104B00004FEA164646EA0706C3F1200722FA03F2E7
:104B100001FA07F721FA03F14FF0000342EA070216
:104B2000A7E746EA020646EA06464FEA164646EA7E
:104B30000106BCBF46EA0646360C4FF000034FF0B4
:104B400000024FF0000194E72DE9804C9A4693460D
:104B500070B491E8380007C831EA400C48BF34EA25
:104B6000430C03D5FFF7E6FDFFF780FFF0BCBDE87F
:104B7000008C2DE9804C9A46934670B491E8380039
:104B800007C810F0804F08BF13F0804F03D100F02A
:104B900005F8FFF76BFFF0BCBDE8008C20F07F4705
:104BA00080EA030023F07F4C07EB0C03A3F57C5352
:104BB00000F00040A3F1FE0392F0000F00F0B3807C
:104BC00095F0000F00F077802DE901494FEA114080
:104BD0004FEA144621EA004800FB06FC24EA064797
:104BE00008FB06F607FB08F800FB07F718EB06487A
:104BF0004CEB164C4FEA124B18EB07484FEA1546A0
:104C00004CEB174022EA0B4E0BFB06FC25EA06474D
:104C10000EFB06F607FB0EFE0BFB07F71EEB064E20
:104C20004CEB164C4FF000061EEB074E4CEB174BAF
:104C300018EB0B0840F1000018EB0E0B58EB0008C6
:104C400040F100008F1A4FF000013CBFC943661BC2
:104C500014BFB5EB040C00213CBFC943F61B4FEA5F
:104C600017444EEA8E0E27EA04454FEA1C4704FB20
:104C700007622CEA074C05FB07F70CFB05F604FB63
:104C80000CFC16EB074642EB174216EB0C4642EBC8
:104C90001C421BEB060658EB0202414146EA9E0607
:104CA00001D5BDE80189B619524141EB0101A3F1DB
:104CB0000103BDE801894FEA14454FEA114724EA90
:104CC000054621EA074C05FB07F406FB07F70CFB3A
:104CD00006F105FB0CFC11EB074144EB17444FEACE
:104CE000124711EB0C4144EB1C4422EA074C05FB34
:104CF00007F206FB07F70CFB06F605FB0CFC16EBB0
:104D0000074642EB174216EB0C4642EB1C456A186D
:104D100054F1000148BF7047B619524141EB0101FF
:104D2000A3F10103704795F0000F37D04FEA11420D
:104D30004FEA144721EA024624EA074C02FB07F136
:104D400006FB07F70CFB06F402FB0CFC14EB074414
:104D500041EB17414FEA154714EB0C4441EB1C4162
:104D600025EA074C02FB07F506FB07F70CFB06F6E6
:104D700002FB0CFC16EB074645EB174516EB0C4601
:104D800045EB1C42121951F1000148BF7047B6199A
:104D9000524141EB0101A3F1010370474FEA144571
:104DA0004FEA114724EA054621EA074C05FB07F1C3
:104DB00006FB07F70CFB06F24FF0000605FB0CFCA8
:104DC00012EB074241EB174112EB0C4251EB1C4135
:104DD00048BF7047921841EB0101A3F101037047EE
:104DE00003B401984100009850EAC12018BF042084
:104DF0004A0D18BF40F0010040F2FF72B2EB515F64
:104E000008BF40F00200012808BF052002B070472B
:104E100070B5C1482DED020B2DED0E8B82B0119DAA
:104E200025F000449FEDBEDB9FEDBFEB84423EDBEF
:104E3000A4F140511098A1F17F6108430FD0BC4804
:104E4000844202DC28D1109830B39DED100B02B0E3
:104E5000BDEC0E8B02B0BDE8704000F0B0BC9DED23
:104E6000100B53EC1D2B51EC100B00F0DDFF9DEDF2
:104E7000100B41EC180B53EC1E2B51EC100B00F0F7
:104E8000D3FF53EC182B00F06FFD41EC100B02B078
:104E9000BDEC0E8B02B070BD0120FEF7CAFF02B060
:104EA000BDEC0E8B02B0BDE8704000F09DBCA14887
:104EB0009FEDA18B844256DA9DED100BB4F1795F22
:104EC0000ADA51EC100BFFF78BFF042808BF00F043
:104ED0009BFC9DED100BDAE753EC102B51EC100B03
:104EE00000F0A2FF41EC190B95480621B0EE490AEB
:104EF000F0EE690A784400F0E6FB53EC192B51EC14
:104F0000100B00F091FF41EC1A0B8E48B0EE490AED
:104F1000F0EE690A0421784400F0D5FB53EC192B1C
:104F200051EC100B00F080FF53EC182B00F01CFD2F
:104F300041EC100B51EC1A0B53EC102B00F0C8FD98
:104F4000CDE900019DED000B53EC102B9DED100BF6
:104F500051EC100B00F068FF9DED101B53EC112B72
:104F600000F002FDD2E09DED100B51EC100B00F0B3
:104F700063FC53EC182B01F08BF89FED730BCDE91C
:104F8000000153EC102B9DED000B51EC100B00F0C9
:104F90004BFF41EC190B6E480621B0EE490AF0EECA
:104FA000690A784400F08FFB53EC192B51EC100B7D
:104FB00000F03AFF41EC1B0B6648B0EE490AF0EEF8
:104FC000690A0421784400F07EFB53EC192B51EC64
:104FD000100B00F029FF53EC182B00F0C5FC41EC3E
:104FE0001C0B51EC190B00F033FC41EC180B5A4828
:104FF0009FED5BABA04222DC53EC1C2B51EC1B0B56
:1050000000F066FDCDE900019DED000B51EC180BA1
:1050100053EC102B00F008FF53EC182B00F0A4FC0D
:1050200053EC1A2B00F000FF53EC1D2B01F008F994
:1050300053EC1E2B01F02CF841EC100B5FE08DEDD2
:10504000008B002000909DED000B51EC180B53ECF1
:10505000102B00F089FC9DED000B41EC1E0B53EC76
:10506000102B51EC100B00F0DFFE53EC192B01F06C
:105070000FF853EC1E2B00F02BFD41EC190B53ECF9
:105080001C2B51EC1B0B00F023FD41EC1B0B53ECD4
:105090001A2B51EC190B00F0C7FE53EC1D2B00F03E
:1050A000F7FF41EC190B53EC1A2B51EC180B00F0E5
:1050B000BBFE53EC1B2B00F0B7FE53EC192B01F099
:1050C000BFF89DED000B41EC180B53EC1A2B51EC83
:1050D000100B00F0A9FE9FED249B53EC192B00F060
:1050E000D7FF41EC100B51EC180B53EC102B01F0D7
:1050F000A7F853EC192B00F0CBFF41EC100B002D5F
:105100003FF7C5AE51EC100B00F0F0FB41EC100B7B
:10511000BDE60000000000000000F03F00000000BD
:10512000075C143326A6913C182D4454FB21F93F0B
:105130000000F07F0000E03F000000000000F03FB2
:105140001816000026160000000000000000E03FD6
:105150006A150000781500003333EF3F00000000AF
:105160000000000000000040182D4454FB21E93FDE
:1051700070B59B482DED020B2DED068B079D25F09C
:105180000044A04218DC9748844202DC0AD1069809
:1051900040B19DED060BBDEC068B02B0BDE8704042
:1051A00000F00DBB002DCCBF9FED8F0B9FED900B42
:1051B000BDEC068B02B070BD8F48A04215DD8F4854
:1051C000A042D8BF4FF0FF3458DD9DED060B51ECE7
:1051D000100BFFF705FE042808BF00F015FB9DED3E
:1051E000060BBDEC068B02B070BD9DED060B51ECBD
:1051F000100B00F021FBCDE9060181489FED828B69
:10520000A0423CDD8248A0421FDD00249FED82AB1E
:105210009DED060B53EC1A2B51EC100B00F0A4FB88
:105220009DED060B41EC190B53EC1A2B51EC100BB6
:1052300000F0FAFD53EC182B01F002F853EC192B97
:1052400000F046FCCDE9060149E09DED060B012486
:1052500053EC182B51EC100B00F086FB9DED060B68
:1052600041EC190B53EC182B51EC100B00F0E8FF3C
:1052700053EC192B00F02CFCCDE906012FE0684817
:10528000A0421FDD02249FED689B9DED060B53ECB1
:10529000192B51EC100B00F0C7FD53EC182B00F04C
:1052A00063FB9DED060B41EC180B53EC192B51ECF5
:1052B000100B00F0C5FF53EC182B00F009FCCDE9F2
:1052C00006010CE09DED060B032453EC102B9FED23
:1052D000580B51EC100B00F0FBFBCDE906019DEDE6
:1052E000060B53EC102B51EC100B00F09DFD41EC24
:1052F000180B53EC182B00F097FD41EC190B4E489E
:105300000621B0EE490AF0EE690A784400F0DBF9B4
:1053100053EC182B51EC100B00F086FD41EC180BF0
:105320004648B0EE490AF0EE690A0521784400F0DB
:10533000CAF953EC192B51EC100B00F075FD41EC40
:10534000100B51EC180B53EC102B002C0EDA00F064
:105350000BFB9DED061B53EC112B00F065FD9DED45
:10536000061B53EC112B00F093FE35E000F0FCFA25
:105370009DED061B53EC112B00F056FD41EC100B7C
:105380002F48784400EBC40090ED001B51EC100B4B
:1053900053EC112B00F054FF9DED061B53EC112B29
:1053A00000F04EFF41EC100B2648784400EBC4009F
:1053B00090ED001B51EC100B53EC112B00F068FE2C
:1053C00041EC100B002DA2BFBDEC068B02B070BDEE
:1053D00051EC100B00F08AFA41EC100B01E70000D1
:1053E000000010440000F07F182D4454FB21F93FC9
:1053F000182D4454FB21F9BF0000DC3F0000203E83
:105400000000F33F00000000000000000000F03F3B
:105410000000E63F00000000000000000000004027
:105420000080034000000000000000000000F83F82
:10543000000000000000F0BFBA120000701200006F
:10544000FA110000B211000070B56B4E2DED040B87
:105450002DED028B82B0DDF81CC0DDE905235C4236
:105460002CF000411C4341EAD474049D22F000401A
:10547000B44205D86C422C4340EAD474B4420BD9F0
:105480009DED061B9DED040B02B0BDEC028B04B03C
:10549000BDE8704000F09DB9ACF14054A4F17F64C8
:1054A0001C430BD0022404EAAC7444EAD2740543D2
:1054B0009FED538B9FED542B07D015E09DED040B12
:1054C00051EC100B00F0B0F942E0002C11BF012CA0
:1054D0009DED040B02B0BDEC028B04BF04B070BDA7
:1054E000022C38D0032C3BD00B439FED491B9FED82
:1054F0004A0B0AD0B14218D1B04209D121F0804103
:1055000020F08040079105900FE0002A15DA10E0A6
:10551000434B7B44002C08BF93ED000B0DD0012CB6
:1055200010D0022C17D0032C1AD0B0421DD1002A63
:1055300003DAB0EE410AF0EE610A02B0BDEC028B74
:1055400004B070BD93ED000B51EC100B00F0CEF9E0
:1055500041EC100BF1E7B0EE480AF0EE680AECE718
:10556000B0EE420AF0EE620AE7E7401A00153C2866
:10557000C8BF8DED000B19DCBCF1000FBEBF10F1F0
:105580003C0F9FED290B8DED000B0FDB9DED060B06
:1055900053EC102B9DED040B51EC100B00F098FA1E
:1055A00000F04AF900F040F9CDE90001002C08BFF5
:1055B0009DED000BC1D0012C10D0022C9FED1C0BD7
:1055C00053EC102B9DED000B51EC100B0DD000F0A7
:1055D00037FE53EC182B00F033FEB9E7019880F04A
:1055E000004001909DED000BA7E700F029FE53EC71
:1055F000182B00F04DFDABE70000F07F000000002D
:10560000182D4454FB210940182D4454FB2109C096
:10561000182D4454FB21F9BF182D4454FB21F93FA8
:10562000E210000000000000000000000000000088
:10563000075C143326A6A13C2DED020B019820F047
:10564000004001909DED000B02B0704700B52DEDBC
:10565000048BB0EE409AF0EE609A83B051EC190BD7
:1056600000F022FD41EC180B18EE100A18EE901A0B
:105670008DED008B002818BF0120084320F000406A
:10568000C0F17F6000F1E040C00F14D019EE101A95
:1056900019EE900A8DED009B002918BF01210843E7
:1056A00020F00040C0F17F6000F1E040C00F04BF77
:1056B0000120FEF7BEFBB0EE480A03B0F0EE680A28
:1056C000BDEC048B00BD70B504462DED028B4D1E64
:1056D00000EBC500B0EE408AF0EE608A90ED000B62
:1056E00035F0060017D053EC182B51EC100B00F0DE
:1056F0009BFB41EC100B6D1E04EBC50090ED001BF5
:1057000051EC100B53EC112B00F02EF941EC100B67
:1057100035F00600E7D1022D36D0042D1CD0062D21
:105720001CBFBDEC028B70BD53EC182B51EC100B61
:1057300000F07AFB94ED0A1B53EC112B00F014F9E6
:1057400053EC182B00F070FB94ED081B53EC112B5D
:1057500000F00AF941EC100B53EC182B51EC100B34
:1057600000F062FB94ED061B53EC112B00F0FCF8EB
:1057700053EC182B00F058FB94ED040B53EC102B5A
:1057800000F0F2F841EC100B53EC182B51EC100B1D
:1057900000F04AFB94ED021B53EC112B00F0E4F8EF
:1057A00053EC182B00F040FB94ED001B53EC112B35
:1057B00000F0DAF8BDEC028B41EC100B70BD10B5B7
:1057C00053EC102B51EC100B00F0CEF841EC100B09
:1057D00010BD10B553EC112B51EC100B00F0C4F8B8
:1057E00041EC100B10BD00009FED050B10B553EC04
:1057F000102B51EC100B00F06BF941EC100B10BDAD
:1058000000000000000000009FED050B10B553ECF8
:10581000102B51EC100B00F007FB41EC100B10BDEE
:10582000000000000000001010B541EC100BFFF765
:105830009FFC51EC100B10BD82B0CDE9000121F0AE
:10584000004001909DED000B02B051EC100B704731
:1058500000B52DED048B83B041EC190B00F024FC56
:1058600041EC180B18EE100A18EE901A8DED008B13
:10587000002818BF0120084320F00040C0F17F60DD
:1058800000F1E040C00F14D019EE101A19EE900A82
:105890008DED009B002918BF0121084320F0004036
:1058A000C0F17F6000F1E040C00F04BF0120FEF7AF
:1058B000C0FA51EC180B03B0BDEC048B00BD000026
:1058C00010B500290AD00878002807D00548784488
:1058D000FEF77EFE002801D0002010BD024878446B
:1058E00010BD0000E60D0000DE0D000081F000415B
:1058F000704780F00040704721F00041704720F071
:105900000040704721F00042A2F16052B2F5801FC2
:1059100001F0004328BFD2F17F6C0BD95FEA001C75
:1059200043EAC20242EB507018BF704728BF20F014
:1059300001007047B2F5801FBCBF184670474FEAA0
:10594000410C1CF5001F02D2084600F0D9BD70B50D
:1059500000F014FB00000089FFF7F6BF4FF0004095
:10596000A0F580007047000010B591EA030F48BF12
:1059700083F0004300F16C84841A71EB030C05D2B0
:10598000121943EB0C03001B61EB0C01DFF824E15F
:105990004FEA1154A4EB135C1EEA430F18BF9EEAB2
:1059A000445F73D023EA0E03DCF1200E21EA045198
:1059B00043F4801332D322FA0CFE10EB0E0023FACC
:1059C0000CFE41EB0E01CCF1200E03FA0EFE10EBA3
:1059D0000E0051F10001B1F5801FCCF1200E32D242
:1059E00001EB045112FA0EF2BDE8104058BF7047A7
:1059F000401C38BF5FEA420218BF7047002814BF3E
:105A000020F0010041F100014FEA410313F5001FAE
:105A100038BF7047A1F1C04100F0FEBA012A43EB44
:105A20000302ACF1200CDCF11F0E32BF4FF0000E70
:105A300023FA0CF310EB030041EB0451B4EB115FBC
:105A4000D0D0A1EB045101F5801149085FEA300084
:105A500001EB04510ED350F1000038BF12FA0EFED4
:105A600008D1BDE81040C9E7401C38BF5FEA4202D8
:105A7000CAD1C3E7BDE810404FEA410313F5001F48
:105A800038BF7047A1F1C04100F0C6BA9EEA445F3A
:105A900008D011EA5E0FBDE8104004BF01F00041DC
:105AA00000207047BDE8104070B500F067FA00BFF5
:105AB00064FBBE3E0000E0FF491058BFC1F1404109
:105AC0005B1058BFC3F140438B42EFF30080704737
:105AD0002DE9C04130B4DFF8A0C23CEA111418BF70
